{"contracts/AIOracle.sol":{"AIOracle":{"abi":[{"inputs":[],"stateMutability":"nonpayable","type":"constructor"},{"inputs":[],"name":"AccessControlBadConfirmation","type":"error"},{"inputs":[{"internalType":"address","name":"account","type":"address"},{"internalType":"bytes32","name":"neededRole","type":"bytes32"}],"name":"AccessControlUnauthorizedAccount","type":"error"},{"inputs":[{"internalType":"address","name":"target","type":"address"}],"name":"AddressEmptyCode","type":"error"},{"inputs":[{"internalType":"address","name":"implementation","type":"address"}],"name":"ERC1967InvalidImplementation","type":"error"},{"inputs":[],"name":"ERC1967NonPayable","type":"error"},{"inputs":[],"name":"FailedInnerCall","type":"error"},{"inputs":[],"name":"InvalidInitialization","type":"error"},{"inputs":[],"name":"NotInitializing","type":"error"},{"inputs":[],"name":"UUPSUnauthorizedCallContext","type":"error"},{"inputs":[{"internalType":"bytes32","name":"slot","type":"bytes32"}],"name":"UUPSUnsupportedProxiableUUID","type":"error"},{"anonymous":false,"inputs":[{"indexed":true,"internalType":"uint256","name":"requestId","type":"uint256"},{"indexed":true,"internalType":"address","name":"requester","type":"address"},{"indexed":true,"internalType":"address","name":"receiver","type":"address"},{"indexed":false,"internalType":"bytes","name":"data","type":"bytes"},{"indexed":false,"internalType":"string","name":"model","type":"string"},{"indexed":false,"internalType":"string","name":"requestDataType","type":"string"},{"indexed":false,"internalType":"string","name":"responseDataType","type":"string"},{"indexed":false,"internalType":"uint256","name":"previousRequestId","type":"uint256"},{"indexed":false,"internalType":"uint256","name":"tokenLimit","type":"uint256"}],"name":"AIRequestCreated","type":"event"},{"anonymous":false,"inputs":[{"indexed":true,"internalType":"uint256","name":"requestId","type":"uint256"},{"indexed":false,"internalType":"bytes32[]","name":"resultSegments","type":"bytes32[]"},{"indexed":false,"internalType":"bool","name":"isFinalSegment","type":"bool"},{"indexed":false,"internalType":"uint256","name":"tokensConsumed","type":"uint256"}],"name":"AIResponseReceived","type":"event"},{"anonymous":false,"inputs":[{"indexed":true,"internalType":"address","name":"user","type":"address"},{"indexed":false,"internalType":"uint256","name":"oldBalance","type":"uint256"},{"indexed":false,"internalType":"uint256","name":"newBalance","type":"uint256"}],"name":"BalanceUpdated","type":"event"},{"anonymous":false,"inputs":[{"indexed":true,"internalType":"uint256","name":"requestId","type":"uint256"},{"indexed":false,"internalType":"uint256","name":"additionalTokenLimit","type":"uint256"},{"indexed":false,"internalType":"uint256","name":"newTokenLimit","type":"uint256"}],"name":"ContinueAIResponse","type":"event"},{"anonymous":false,"inputs":[{"indexed":false,"internalType":"uint64","name":"version","type":"uint64"}],"name":"Initialized","type":"event"},{"anonymous":false,"inputs":[{"indexed":true,"internalType":"bytes32","name":"role","type":"bytes32"},{"indexed":true,"internalType":"bytes32","name":"previousAdminRole","type":"bytes32"},{"indexed":true,"internalType":"bytes32","name":"newAdminRole","type":"bytes32"}],"name":"RoleAdminChanged","type":"event"},{"anonymous":false,"inputs":[{"indexed":true,"internalType":"bytes32","name":"role","type":"bytes32"},{"indexed":true,"internalType":"address","name":"account","type":"address"},{"indexed":true,"internalType":"address","name":"sender","type":"address"}],"name":"RoleGranted","type":"event"},{"anonymous":false,"inputs":[{"indexed":true,"internalType":"bytes32","name":"role","type":"bytes32"},{"indexed":true,"internalType":"address","name":"account","type":"address"},{"indexed":true,"internalType":"address","name":"sender","type":"address"}],"name":"RoleRevoked","type":"event"},{"anonymous":false,"inputs":[{"indexed":true,"internalType":"address","name":"implementation","type":"address"}],"name":"Upgraded","type":"event"},{"inputs":[],"name":"DEFAULT_ADMIN_ROLE","outputs":[{"internalType":"bytes32","name":"","type":"bytes32"}],"stateMutability":"view","type":"function"},{"inputs":[],"name":"RESPONSE_ROLE","outputs":[{"internalType":"bytes32","name":"","type":"bytes32"}],"stateMutability":"view","type":"function"},{"inputs":[],"name":"TOKEN_PER_SEGMENT","outputs":[{"internalType":"uint256","name":"","type":"uint256"}],"stateMutability":"view","type":"function"},{"inputs":[],"name":"UPGRADER_ROLE","outputs":[{"internalType":"bytes32","name":"","type":"bytes32"}],"stateMutability":"view","type":"function"},{"inputs":[],"name":"UPGRADE_INTERFACE_VERSION","outputs":[{"internalType":"string","name":"","type":"string"}],"stateMutability":"view","type":"function"},{"inputs":[],"name":"aiToken","outputs":[{"internalType":"address","name":"","type":"address"}],"stateMutability":"view","type":"function"},{"inputs":[{"internalType":"uint256","name":"requestId","type":"uint256"},{"internalType":"uint256","name":"additionalTokenLimit","type":"uint256"}],"name":"continueAIResponse","outputs":[],"stateMutability":"nonpayable","type":"function"},{"inputs":[{"internalType":"bytes","name":"data","type":"bytes"},{"internalType":"string","name":"model","type":"string"},{"internalType":"string","name":"requestDataType","type":"string"},{"internalType":"string","name":"responseDataType","type":"string"},{"internalType":"uint256","name":"previousRequestId","type":"uint256"},{"internalType":"address","name":"receiver","type":"address"},{"internalType":"uint256","name":"tokenLimit","type":"uint256"}],"name":"createAIRequest","outputs":[{"internalType":"uint256","name":"requestId","type":"uint256"}],"stateMutability":"nonpayable","type":"function"},{"inputs":[{"internalType":"uint256","name":"amount","type":"uint256"}],"name":"depositTokens","outputs":[],"stateMutability":"nonpayable","type":"function"},{"inputs":[{"internalType":"uint256","name":"requestId","type":"uint256"}],"name":"getAIResponseSegmentCount","outputs":[{"internalType":"uint256","name":"segmentCount","type":"uint256"}],"stateMutability":"view","type":"function"},{"inputs":[{"internalType":"uint256","name":"requestId","type":"uint256"},{"internalType":"uint256","name":"segmentIndex","type":"uint256"},{"internalType":"uint256","name":"segmentCount","type":"uint256"}],"name":"getAIResponseSegments","outputs":[{"internalType":"bytes32[]","name":"resultSegments","type":"bytes32[]"},{"internalType":"bool","name":"isFinalSegment","type":"bool"}],"stateMutability":"view","type":"function"},{"inputs":[{"internalType":"string","name":"model","type":"string"},{"internalType":"uint256","name":"operationType","type":"uint256"}],"name":"getAllowedDataTypes","outputs":[{"internalType":"string[]","name":"dataTypes","type":"string[]"}],"stateMutability":"view","type":"function"},{"inputs":[],"name":"getAllowedModels","outputs":[{"internalType":"string[]","name":"models","type":"string[]"}],"stateMutability":"view","type":"function"},{"inputs":[{"internalType":"bytes32","name":"role","type":"bytes32"}],"name":"getRoleAdmin","outputs":[{"internalType":"bytes32","name":"","type":"bytes32"}],"stateMutability":"view","type":"function"},{"inputs":[{"internalType":"address","name":"user","type":"address"}],"name":"getTokenBalance","outputs":[{"internalType":"uint256","name":"balance","type":"uint256"}],"stateMutability":"view","type":"function"},{"inputs":[{"internalType":"bytes32","name":"role","type":"bytes32"},{"internalType":"address","name":"account","type":"address"}],"name":"grantRole","outputs":[],"stateMutability":"nonpayable","type":"function"},{"inputs":[{"internalType":"bytes32","name":"role","type":"bytes32"},{"internalType":"address","name":"account","type":"address"}],"name":"hasRole","outputs":[{"internalType":"bool","name":"","type":"bool"}],"stateMutability":"view","type":"function"},{"inputs":[{"internalType":"address","name":"_aiToken","type":"address"},{"internalType":"string[]","name":"_allowedModels","type":"string[]"},{"internalType":"string[][][]","name":"_allowedDataTypes","type":"string[][][]"}],"name":"initialize","outputs":[],"stateMutability":"nonpayable","type":"function"},{"inputs":[],"name":"minTokenLimit","outputs":[{"internalType":"uint256","name":"","type":"uint256"}],"stateMutability":"view","type":"function"},{"inputs":[],"name":"proxiableUUID","outputs":[{"internalType":"bytes32","name":"","type":"bytes32"}],"stateMutability":"view","type":"function"},{"inputs":[{"internalType":"bytes32","name":"role","type":"bytes32"},{"internalType":"address","name":"callerConfirmation","type":"address"}],"name":"renounceRole","outputs":[],"stateMutability":"nonpayable","type":"function"},{"inputs":[],"name":"requestCounter","outputs":[{"internalType":"uint256","name":"","type":"uint256"}],"stateMutability":"view","type":"function"},{"inputs":[{"internalType":"uint256","name":"","type":"uint256"}],"name":"requests","outputs":[{"internalType":"address","name":"requester","type":"address"},{"internalType":"address","name":"receiver","type":"address"},{"internalType":"string","name":"model","type":"string"},{"internalType":"string","name":"requestDataType","type":"string"},{"internalType":"string","name":"responseDataType","type":"string"},{"internalType":"uint256","name":"tokenLimit","type":"uint256"},{"internalType":"uint256","name":"tokenConsumed","type":"uint256"},{"internalType":"bytes","name":"data","type":"bytes"},{"internalType":"bool","name":"isFinalized","type":"bool"},{"internalType":"uint256","name":"segmentCount","type":"uint256"},{"internalType":"uint256","name":"tokenFreezed","type":"uint256"}],"stateMutability":"view","type":"function"},{"inputs":[{"internalType":"uint256","name":"","type":"uint256"},{"internalType":"uint256","name":"","type":"uint256"}],"name":"responseSegments","outputs":[{"internalType":"bytes32","name":"","type":"bytes32"}],"stateMutability":"view","type":"function"},{"inputs":[{"internalType":"bytes32","name":"role","type":"bytes32"},{"internalType":"address","name":"account","type":"address"}],"name":"revokeRole","outputs":[],"stateMutability":"nonpayable","type":"function"},{"inputs":[{"internalType":"string","name":"model","type":"string"},{"internalType":"uint256","name":"op","type":"uint256"},{"internalType":"string[]","name":"newAllowedDataTypes","type":"string[]"}],"name":"setAllowedDataTypes","outputs":[],"stateMutability":"nonpayable","type":"function"},{"inputs":[{"internalType":"string[]","name":"newAllowedModels","type":"string[]"}],"name":"setAllowedModels","outputs":[],"stateMutability":"nonpayable","type":"function"},{"inputs":[{"internalType":"uint256","name":"newTokenLimit","type":"uint256"}],"name":"setMinTokenLimit","outputs":[],"stateMutability":"nonpayable","type":"function"},{"inputs":[{"internalType":"uint256","name":"requestId","type":"uint256"},{"internalType":"bytes32[]","name":"resultSegments","type":"bytes32[]"},{"internalType":"bool","name":"isFinalSegment","type":"bool"},{"internalType":"uint256","name":"tokenConsumed","type":"uint256"},{"internalType":"uint256","name":"gasLimit","type":"uint256"}],"name":"submitAIResponseSegments","outputs":[],"stateMutability":"nonpayable","type":"function"},{"inputs":[{"internalType":"bytes4","name":"interfaceId","type":"bytes4"}],"name":"supportsInterface","outputs":[{"internalType":"bool","name":"","type":"bool"}],"stateMutability":"view","type":"function"},{"inputs":[{"internalType":"address","name":"newImplementation","type":"address"},{"internalType":"bytes","name":"data","type":"bytes"}],"name":"upgradeToAndCall","outputs":[],"stateMutability":"payable","type":"function"},{"inputs":[{"internalType":"uint256","name":"amount","type":"uint256"}],"name":"withdrawToken","outputs":[],"stateMutability":"nonpayable","type":"function"},{"inputs":[{"internalType":"uint256","name":"amount","type":"uint256"},{"internalType":"address","name":"to","type":"address"}],"name":"withdrawTokenTo","outputs":[],"stateMutability":"nonpayable","type":"function"}],"evm":{"bytecode":{"linkReferences":{},"object":"60a06040523073ffffffffffffffffffffffffffffffffffffffff1660809073ffffffffffffffffffffffffffffffffffffffff168152503480156200004457600080fd5b50620000556200005b60201b60201c565b620001cf565b60006200006d6200016560201b60201c565b90508060000160089054906101000a900460ff1615620000b9576040517ff92ee8a900000000000000000000000000000000000000000000000000000000815260040160405180910390fd5b67ffffffffffffffff80168160000160009054906101000a900467ffffffffffffffff1667ffffffffffffffff1614620001625767ffffffffffffffff8160000160006101000a81548167ffffffffffffffff021916908367ffffffffffffffff1602179055507fc7f505b2f371ae2175ee4913f4499e1f2633a7b5936321eed1cdaeb6115181d267ffffffffffffffff604051620001599190620001b2565b60405180910390a15b50565b60007ff0c57e16840df040f15088dc2f81fe391c3923bec73e23a9662efc9c229c6a00905090565b600067ffffffffffffffff82169050919050565b620001ac816200018d565b82525050565b6000602082019050620001c96000830184620001a1565b92915050565b608051616235620001f9600039600081816137f2015281816138470152613abb01526162356000f3fe6080604052600436106101ee5760003560e01c806391d148541161010d578063c2400fae116100a0578063d7926ab71161006f578063d7926ab714610732578063dd49756e1461075b578063e7f8031614610784578063eb1defe7146107ad578063f72c0d8b146107eb576101ee565b8063c2400fae14610678578063c8203521146106a1578063c97a339d146106cc578063d547741f14610709576101ee565b8063ad3cb1cc116100dc578063ad3cb1cc146105bc578063b189e2db146105e7578063bc7ef6c914610624578063bcdf10ad1461064d576101ee565b806391d14854146104fe578063973a814e1461053b5780639ad0419714610566578063a217fddf14610591576101ee565b80634f1ef28611610185578063781d8dd311610154578063781d8dd31461043a57806381d12c581461046357806382dbe9e6146104aa5780639067df1a146104d3576101ee565b80634f1ef286146103a157806350baa622146103bd57806352d1902d146103e65780636800e7c814610411576101ee565b80632f2ff15d116101c15780632f2ff15d146102d557806336568abe146102fe5780633aecd0e3146103275780634247ae1b14610364576101ee565b806301ffc9a7146101f3578063221fcbdf14610230578063248a9ca31461025b578063263c907714610298575b600080fd5b3480156101ff57600080fd5b5061021a600480360381019061021591906141f0565b610816565b6040516102279190614238565b60405180910390f35b34801561023c57600080fd5b50610245610890565b604051610252919061426c565b60405180910390f35b34801561026757600080fd5b50610282600480360381019061027d91906142bd565b610895565b60405161028f91906142f9565b60405180910390f35b3480156102a457600080fd5b506102bf60048036038101906102ba9190614544565b6108c3565b6040516102cc919061426c565b60405180910390f35b3480156102e157600080fd5b506102fc60048036038101906102f7919061465a565b610d70565b005b34801561030a57600080fd5b506103256004803603810190610320919061465a565b610d92565b005b34801561033357600080fd5b5061034e6004803603810190610349919061469a565b610e0d565b60405161035b919061426c565b60405180910390f35b34801561037057600080fd5b5061038b6004803603810190610386919061471d565b610e56565b60405161039891906148be565b60405180910390f35b6103bb60048036038101906103b69190614981565b610f6b565b005b3480156103c957600080fd5b506103e460048036038101906103df91906149dd565b610f8a565b005b3480156103f257600080fd5b506103fb6111f0565b60405161040891906142f9565b60405180910390f35b34801561041d57600080fd5b5061043860048036038101906104339190614a0a565b611223565b005b34801561044657600080fd5b50610461600480360381019061045c9190614aa0565b611834565b005b34801561046f57600080fd5b5061048a600480360381019061048591906149dd565b6118f9565b6040516104a19b9a99989796959493929190614b9b565b60405180910390f35b3480156104b657600080fd5b506104d160048036038101906104cc9190614c62565b611bc0565b005b3480156104df57600080fd5b506104e8611c5c565b6040516104f591906148be565b60405180910390f35b34801561050a57600080fd5b506105256004803603810190610520919061465a565b611d35565b6040516105329190614238565b60405180910390f35b34801561054757600080fd5b50610550611dae565b60405161055d919061426c565b60405180910390f35b34801561057257600080fd5b5061057b611db4565b60405161058891906142f9565b60405180910390f35b34801561059d57600080fd5b506105a6611dd8565b6040516105b391906142f9565b60405180910390f35b3480156105c857600080fd5b506105d1611ddf565b6040516105de9190614cf7565b60405180910390f35b3480156105f357600080fd5b5061060e600480360381019061060991906149dd565b611e18565b60405161061b919061426c565b60405180910390f35b34801561063057600080fd5b5061064b60048036038101906106469190614d19565b611e38565b005b34801561065957600080fd5b5061066261209f565b60405161066f919061426c565b60405180910390f35b34801561068457600080fd5b5061069f600480360381019061069a91906149dd565b6120a5565b005b3480156106ad57600080fd5b506106b66120bd565b6040516106c39190614d59565b60405180910390f35b3480156106d857600080fd5b506106f360048036038101906106ee9190614a0a565b6120e1565b60405161070091906142f9565b60405180910390f35b34801561071557600080fd5b50610730600480360381019061072b919061465a565b612112565b005b34801561073e57600080fd5b5061075960048036038101906107549190614df6565b612134565b005b34801561076757600080fd5b50610782600480360381019061077d91906149dd565b612963565b005b34801561079057600080fd5b506107ab60048036038101906107a69190614ee6565b612b38565b005b3480156107b957600080fd5b506107d460048036038101906107cf9190614f7b565b612e87565b6040516107e292919061508c565b60405180910390f35b3480156107f757600080fd5b50610800612fa5565b60405161080d91906142f9565b60405180910390f35b60007f7965db0b000000000000000000000000000000000000000000000000000000007bffffffffffffffffffffffffffffffffffffffffffffffffffffffff1916827bffffffffffffffffffffffffffffffffffffffffffffffffffffffff19161480610889575061088882612fc9565b5b9050919050565b600181565b6000806108a0613033565b905080600001600084815260200190815260200160002060010154915050919050565b60006108da6001548361305b90919063ffffffff16565b61096d82600760003373ffffffffffffffffffffffffffffffffffffffff1673ffffffffffffffffffffffffffffffffffffffff16815260200190815260200160002054600660003373ffffffffffffffffffffffffffffffffffffffff1673ffffffffffffffffffffffffffffffffffffffff168152602001908152602001600020546130a29092919063ffffffff16565b610a516003805480602002602001604051908101604052809291908181526020016000905b82821015610a3e5783829060005260206000200180546109b1906150eb565b80601f01602080910402602001604051908101604052809291908181526020018280546109dd906150eb565b8015610a2a5780601f106109ff57610100808354040283529160200191610a2a565b820191906000526020600020905b815481529060010190602001808311610a0d57829003601f168201915b505050505081526020019060010190610992565b50505050886130f590919063ffffffff16565b610a67866008896131cb9092919063ffffffff16565b610a7d856008896133a59092919063ffffffff16565b81600760003373ffffffffffffffffffffffffffffffffffffffff1673ffffffffffffffffffffffffffffffffffffffff1681526020019081526020016000206000828254610acc919061514b565b92505081905550600260008154610ae29061517f565b91905081905590506040518061016001604052803373ffffffffffffffffffffffffffffffffffffffff1681526020018473ffffffffffffffffffffffffffffffffffffffff168152602001888152602001878152602001868152602001838152602001600081526020018a8a8080601f016020809104026020016040519081016040528093929190818152602001838380828437600081840152601f19601f82011690508083019250505050505050815260200160001515815260200160008152602001838152506004600083815260200190815260200160002060008201518160000160006101000a81548173ffffffffffffffffffffffffffffffffffffffff021916908373ffffffffffffffffffffffffffffffffffffffff16021790555060208201518160010160006101000a81548173ffffffffffffffffffffffffffffffffffffffff021916908373ffffffffffffffffffffffffffffffffffffffff1602179055506040820151816002019081610c619190615373565b506060820151816003019081610c779190615373565b506080820151816004019081610c8d9190615373565b5060a0820151816005015560c0820151816006015560e0820151816007019081610cb791906154a0565b506101008201518160080160006101000a81548160ff021916908315150217905550610120820151816009015561014082015181600a01559050508273ffffffffffffffffffffffffffffffffffffffff163373ffffffffffffffffffffffffffffffffffffffff16827f278fb7e47ffadced893471edbc69cf2f112e08a2854ce221fd7b5dd0bb678b1d8c8c8c8c8c8c8b604051610d5c979695949392919061559f565b60405180910390a498975050505050505050565b610d7982610895565b610d8281613580565b610d8c8383613594565b50505050565b610d9a613695565b73ffffffffffffffffffffffffffffffffffffffff168173ffffffffffffffffffffffffffffffffffffffff1614610dfe576040517f6697b23200000000000000000000000000000000000000000000000000000000815260040160405180910390fd5b610e08828261369d565b505050565b6000600660008373ffffffffffffffffffffffffffffffffffffffff1673ffffffffffffffffffffffffffffffffffffffff168152602001908152602001600020549050919050565b6060610e618261379f565b60088484604051610e7392919061564e565b90815260200160405180910390206000838152602001908152602001600020805480602002602001604051908101604052809291908181526020016000905b82821015610f5e578382906000526020600020018054610ed1906150eb565b80601f0160208091040260200160405190810160405280929190818152602001828054610efd906150eb565b8015610f4a5780601f10610f1f57610100808354040283529160200191610f4a565b820191906000526020600020905b815481529060010190602001808311610f2d57829003601f168201915b505050505081526020019060010190610eb2565b5050505090509392505050565b610f736137f0565b610f7c826138d6565b610f868282613904565b5050565b61101d600760003373ffffffffffffffffffffffffffffffffffffffff1673ffffffffffffffffffffffffffffffffffffffff1681526020019081526020016000205482600660003373ffffffffffffffffffffffffffffffffffffffff1673ffffffffffffffffffffffffffffffffffffffff16815260200190815260200160002054613a239092919063ffffffff16565b6000600660003373ffffffffffffffffffffffffffffffffffffffff1673ffffffffffffffffffffffffffffffffffffffff16815260200190815260200160002054905081600660003373ffffffffffffffffffffffffffffffffffffffff1673ffffffffffffffffffffffffffffffffffffffff16815260200190815260200160002060008282546110b09190615667565b9250508190555061115d60008054906101000a900473ffffffffffffffffffffffffffffffffffffffff1673ffffffffffffffffffffffffffffffffffffffff1663a9059cbb33856040518363ffffffff1660e01b815260040161111592919061569b565b6020604051808303816000875af1158015611134573d6000803e3d6000fd5b505050506040513d601f19601f8201168201806040525081019061115891906156d9565b613a76565b3373ffffffffffffffffffffffffffffffffffffffff167f5e00297b9c4f8fef460c4d7123316eeeb08a64a0930d1d9cae0b61b7f663b25482600660003373ffffffffffffffffffffffffffffffffffffffff1673ffffffffffffffffffffffffffffffffffffffff168152602001908152602001600020546040516111e4929190615706565b60405180910390a25050565b60006111fa613ab9565b7f360894a13ba1a3210667c828492db98dca3e2076cc3735a920a3ca505d382bbc60001b905090565b600060046000848152602001908152602001600020604051806101600160405290816000820160009054906101000a900473ffffffffffffffffffffffffffffffffffffffff1673ffffffffffffffffffffffffffffffffffffffff1673ffffffffffffffffffffffffffffffffffffffff1681526020016001820160009054906101000a900473ffffffffffffffffffffffffffffffffffffffff1673ffffffffffffffffffffffffffffffffffffffff1673ffffffffffffffffffffffffffffffffffffffff168152602001600282018054611300906150eb565b80601f016020809104026020016040519081016040528092919081815260200182805461132c906150eb565b80156113795780601f1061134e57610100808354040283529160200191611379565b820191906000526020600020905b81548152906001019060200180831161135c57829003601f168201915b50505050508152602001600382018054611392906150eb565b80601f01602080910402602001604051908101604052809291908181526020018280546113be906150eb565b801561140b5780601f106113e05761010080835404028352916020019161140b565b820191906000526020600020905b8154815290600101906020018083116113ee57829003601f168201915b50505050508152602001600482018054611424906150eb565b80601f0160208091040260200160405190810160405280929190818152602001828054611450906150eb565b801561149d5780601f106114725761010080835404028352916020019161149d565b820191906000526020600020905b81548152906001019060200180831161148057829003601f168201915b5050505050815260200160058201548152602001600682015481526020016007820180546114ca906150eb565b80601f01602080910402602001604051908101604052809291908181526020018280546114f6906150eb565b80156115435780601f1061151857610100808354040283529160200191611543565b820191906000526020600020905b81548152906001019060200180831161152657829003601f168201915b505050505081526020016008820160009054906101000a900460ff1615151515815260200160098201548152602001600a82015481525050905061158d8161010001511515613b40565b61162082600760003373ffffffffffffffffffffffffffffffffffffffff1673ffffffffffffffffffffffffffffffffffffffff16815260200190815260200160002054600660003373ffffffffffffffffffffffffffffffffffffffff1673ffffffffffffffffffffffffffffffffffffffff168152602001908152602001600020546130a29092919063ffffffff16565b81600760003373ffffffffffffffffffffffffffffffffffffffff1673ffffffffffffffffffffffffffffffffffffffff168152602001908152602001600020600082825461166f919061514b565b92505081905550818161014001818151611689919061514b565b91508181525050818160a0018181516116a2919061514b565b91508181525050806004600085815260200190815260200160002060008201518160000160006101000a81548173ffffffffffffffffffffffffffffffffffffffff021916908373ffffffffffffffffffffffffffffffffffffffff16021790555060208201518160010160006101000a81548173ffffffffffffffffffffffffffffffffffffffff021916908373ffffffffffffffffffffffffffffffffffffffff16021790555060408201518160020190816117609190615373565b5060608201518160030190816117769190615373565b50608082015181600401908161178c9190615373565b5060a0820151816005015560c0820151816006015560e08201518160070190816117b691906154a0565b506101008201518160080160006101000a81548160ff021916908315150217905550610120820151816009015561014082015181600a0155905050827f4a6bd0fc9d177687cf47bb50bedf10278fa3a313d12ee5498ce9478dccb41b84838360a00151604051611827929190615706565b60405180910390a2505050565b6000801b61184181613580565b60005b838390508110156118ad578383828181106118625761186161572f565b5b9050602002810190611874919061576d565b600383815481106118885761188761572f565b5b90600052602060002001918261189f9291906157db565b508080600101915050611844565b505b8282905060038054905011156118f45760038054806118d1576118d06158ab565b5b6001900381819060005260206000200160006118ed9190614127565b90556118af565b505050565b60046020528060005260406000206000915090508060000160009054906101000a900473ffffffffffffffffffffffffffffffffffffffff16908060010160009054906101000a900473ffffffffffffffffffffffffffffffffffffffff1690806002018054611968906150eb565b80601f0160208091040260200160405190810160405280929190818152602001828054611994906150eb565b80156119e15780601f106119b6576101008083540402835291602001916119e1565b820191906000526020600020905b8154815290600101906020018083116119c457829003601f168201915b5050505050908060030180546119f6906150eb565b80601f0160208091040260200160405190810160405280929190818152602001828054611a22906150eb565b8015611a6f5780601f10611a4457610100808354040283529160200191611a6f565b820191906000526020600020905b815481529060010190602001808311611a5257829003601f168201915b505050505090806004018054611a84906150eb565b80601f0160208091040260200160405190810160405280929190818152602001828054611ab0906150eb565b8015611afd5780601f10611ad257610100808354040283529160200191611afd565b820191906000526020600020905b815481529060010190602001808311611ae057829003601f168201915b505050505090806005015490806006015490806007018054611b1e906150eb565b80601f0160208091040260200160405190810160405280929190818152602001828054611b4a906150eb565b8015611b975780601f10611b6c57610100808354040283529160200191611b97565b820191906000526020600020905b815481529060010190602001808311611b7a57829003601f168201915b5050505050908060080160009054906101000a900460ff169080600901549080600a015490508b565b6000801b611bcd81613580565b600060088787604051611be192919061564e565b9081526020016040518091039020600086815260200190815260200160002090505b8383905081805490501115611c465780805480611c2357611c226158ab565b5b600190038181906000526020600020016000611c3f9190614127565b9055611c03565b611c538787868689613b84565b50505050505050565b60606003805480602002602001604051908101604052809291908181526020016000905b82821015611d2c578382906000526020600020018054611c9f906150eb565b80601f0160208091040260200160405190810160405280929190818152602001828054611ccb906150eb565b8015611d185780601f10611ced57610100808354040283529160200191611d18565b820191906000526020600020905b815481529060010190602001808311611cfb57829003601f168201915b505050505081526020019060010190611c80565b50505050905090565b600080611d40613033565b905080600001600085815260200190815260200160002060000160008473ffffffffffffffffffffffffffffffffffffffff1673ffffffffffffffffffffffffffffffffffffffff16815260200190815260200160002060009054906101000a900460ff1691505092915050565b60025481565b7fda1a6a1aed77f7562f9a85ea42f27e4ca1c512764f45e356d169b80c12a93a6581565b6000801b81565b6040518060400160405280600581526020017f352e302e3000000000000000000000000000000000000000000000000000000081525081565b600060046000838152602001908152602001600020600901549050919050565b611ecb600760003373ffffffffffffffffffffffffffffffffffffffff1673ffffffffffffffffffffffffffffffffffffffff1681526020019081526020016000205483600660003373ffffffffffffffffffffffffffffffffffffffff1673ffffffffffffffffffffffffffffffffffffffff16815260200190815260200160002054613a239092919063ffffffff16565b6000600660003373ffffffffffffffffffffffffffffffffffffffff1673ffffffffffffffffffffffffffffffffffffffff16815260200190815260200160002054905082600660003373ffffffffffffffffffffffffffffffffffffffff1673ffffffffffffffffffffffffffffffffffffffff1681526020019081526020016000206000828254611f5e9190615667565b9250508190555061200b60008054906101000a900473ffffffffffffffffffffffffffffffffffffffff1673ffffffffffffffffffffffffffffffffffffffff1663a9059cbb84866040518363ffffffff1660e01b8152600401611fc392919061569b565b6020604051808303816000875af1158015611fe2573d6000803e3d6000fd5b505050506040513d601f19601f8201168201806040525081019061200691906156d9565b613a76565b3373ffffffffffffffffffffffffffffffffffffffff167f5e00297b9c4f8fef460c4d7123316eeeb08a64a0930d1d9cae0b61b7f663b25482600660003373ffffffffffffffffffffffffffffffffffffffff1673ffffffffffffffffffffffffffffffffffffffff16815260200190815260200160002054604051612092929190615706565b60405180910390a2505050565b60015481565b6000801b6120b281613580565b816001819055505050565b60008054906101000a900473ffffffffffffffffffffffffffffffffffffffff1681565b600560205281600052604060002081815481106120fd57600080fd5b90600052602060002001600091509150505481565b61211b82610895565b61212481613580565b61212e838361369d565b50505050565b7fda1a6a1aed77f7562f9a85ea42f27e4ca1c512764f45e356d169b80c12a93a6561215e81613580565b600060046000898152602001908152602001600020604051806101600160405290816000820160009054906101000a900473ffffffffffffffffffffffffffffffffffffffff1673ffffffffffffffffffffffffffffffffffffffff1673ffffffffffffffffffffffffffffffffffffffff1681526020016001820160009054906101000a900473ffffffffffffffffffffffffffffffffffffffff1673ffffffffffffffffffffffffffffffffffffffff1673ffffffffffffffffffffffffffffffffffffffff16815260200160028201805461223b906150eb565b80601f0160208091040260200160405190810160405280929190818152602001828054612267906150eb565b80156122b45780601f10612289576101008083540402835291602001916122b4565b820191906000526020600020905b81548152906001019060200180831161229757829003601f168201915b505050505081526020016003820180546122cd906150eb565b80601f01602080910402602001604051908101604052809291908181526020018280546122f9906150eb565b80156123465780601f1061231b57610100808354040283529160200191612346565b820191906000526020600020905b81548152906001019060200180831161232957829003601f168201915b5050505050815260200160048201805461235f906150eb565b80601f016020809104026020016040519081016040528092919081815260200182805461238b906150eb565b80156123d85780601f106123ad576101008083540402835291602001916123d8565b820191906000526020600020905b8154815290600101906020018083116123bb57829003601f168201915b505050505081526020016005820154815260200160068201548152602001600782018054612405906150eb565b80601f0160208091040260200160405190810160405280929190818152602001828054612431906150eb565b801561247e5780601f106124535761010080835404028352916020019161247e565b820191906000526020600020905b81548152906001019060200180831161246157829003601f168201915b505050505081526020016008820160009054906101000a900460ff1615151515815260200160098201548152602001600a8201548152505090506124c88161010001511515613b40565b6000848260c001516124da919061514b565b90506124f38260a0015182613c2d90919063ffffffff16565b6125498560066000856000015173ffffffffffffffffffffffffffffffffffffffff1673ffffffffffffffffffffffffffffffffffffffff16815260200190815260200160002054613c7490919063ffffffff16565b6000600560008b8152602001908152602001600020905060005b898990508110156125bc57818a8a838181106125825761258161572f565b5b9050602002013590806001815401808255809150506001900390600052602060002001600090919091909150558080600101915050612563565b50858360c0018181516125cf919061514b565b915081815250508888905083610120018181516125ec919061514b565b91508181525050861561260c576001836101000190151590811515815250505b897f7831f30f56c572a5170b4c572a9a3120b10df227c08e2d6de1b0967122f063308a8a8a8a6040516126429493929190615944565b60405180910390a260008054906101000a900473ffffffffffffffffffffffffffffffffffffffff1673ffffffffffffffffffffffffffffffffffffffff166342966c68876040518263ffffffff1660e01b81526004016126a3919061426c565b600060405180830381600087803b1580156126bd57600080fd5b505af11580156126d1573d6000803e3d6000fd5b5050505085600660003373ffffffffffffffffffffffffffffffffffffffff1673ffffffffffffffffffffffffffffffffffffffff16815260200190815260200160002060008282546127249190615667565b92505081905550826101400151600760003373ffffffffffffffffffffffffffffffffffffffff1673ffffffffffffffffffffffffffffffffffffffff168152602001908152602001600020600082825461277f9190615667565b9250508190555060008361014001818152505082600460008c815260200190815260200160002060008201518160000160006101000a81548173ffffffffffffffffffffffffffffffffffffffff021916908373ffffffffffffffffffffffffffffffffffffffff16021790555060208201518160010160006101000a81548173ffffffffffffffffffffffffffffffffffffffff021916908373ffffffffffffffffffffffffffffffffffffffff16021790555060408201518160020190816128499190615373565b50606082015181600301908161285f9190615373565b5060808201518160040190816128759190615373565b5060a0820151816005015560c0820151816006015560e082015181600701908161289f91906154a0565b506101008201518160080160006101000a81548160ff021916908315150217905550610120820151816009015561014082015181600a01559050506000836020015190508073ffffffffffffffffffffffffffffffffffffffff1663936b092e878d8d8d8d6040518663ffffffff1660e01b81526004016129239493929190615984565b600060405180830381600088803b15801561293d57600080fd5b5087f1158015612951573d6000803e3d6000fd5b50505050505050505050505050505050565b612a0b60008054906101000a900473ffffffffffffffffffffffffffffffffffffffff1673ffffffffffffffffffffffffffffffffffffffff166323b872dd3330856040518463ffffffff1660e01b81526004016129c3939291906159c4565b6020604051808303816000875af11580156129e2573d6000803e3d6000fd5b505050506040513d601f19601f82011682018060405250810190612a0691906156d9565b613a76565b6000600660003373ffffffffffffffffffffffffffffffffffffffff1673ffffffffffffffffffffffffffffffffffffffff16815260200190815260200160002054905081600660003373ffffffffffffffffffffffffffffffffffffffff1673ffffffffffffffffffffffffffffffffffffffff1681526020019081526020016000206000828254612a9e919061514b565b925050819055503373ffffffffffffffffffffffffffffffffffffffff167f5e00297b9c4f8fef460c4d7123316eeeb08a64a0930d1d9cae0b61b7f663b25482600660003373ffffffffffffffffffffffffffffffffffffffff1673ffffffffffffffffffffffffffffffffffffffff16815260200190815260200160002054604051612b2c929190615706565b60405180910390a25050565b6000612b42613cbb565b905060008160000160089054906101000a900460ff1615905060008260000160009054906101000a900467ffffffffffffffff1690506000808267ffffffffffffffff16148015612b905750825b9050600060018367ffffffffffffffff16148015612bc5575060003073ffffffffffffffffffffffffffffffffffffffff163b145b905081158015612bd3575080155b15612c0a576040517ff92ee8a900000000000000000000000000000000000000000000000000000000815260040160405180910390fd5b60018560000160006101000a81548167ffffffffffffffff021916908367ffffffffffffffff1602179055508315612c5a5760018560000160086101000a81548160ff0219169083151502179055505b612c62613ce3565b896000806101000a81548173ffffffffffffffffffffffffffffffffffffffff021916908373ffffffffffffffffffffffffffffffffffffffff1602179055506005600181905550888890508787905014612cbc57600080fd5b60005b600380549050811015612d2a57898982818110612cdf57612cde61572f565b5b9050602002810190612cf1919061576d565b60038381548110612d0557612d0461572f565b5b906000526020600020019182612d1c9291906157db565b508080600101915050612cbf565b5060005b89899050811015612e1e573660008b8b84818110612d4f57612d4e61572f565b5b9050602002810190612d61919061576d565b91509150612dba82828c8c87818110612d7d57612d7c61572f565b5b9050602002810190612d8f91906159fb565b6000818110612da157612da061572f565b5b9050602002810190612db39190615a5e565b6000613b84565b612e0f82828c8c87818110612dd257612dd161572f565b5b9050602002810190612de491906159fb565b6001818110612df657612df561572f565b5b9050602002810190612e089190615a5e565b6001613b84565b50508080600101915050612d2e565b508315612e7b5760008560000160086101000a81548160ff0219169083151502179055507fc7f505b2f371ae2175ee4913f4499e1f2633a7b5936321eed1cdaeb6115181d26001604051612e729190615b10565b60405180910390a15b50505050505050505050565b6060600080600460008781526020019081526020016000209050612eb085858360090154613ced565b8367ffffffffffffffff811115612eca57612ec961438f565b5b604051908082528060200260200182016040528015612ef85781602001602082028036833780820191505090505b50925060005b84811015612f6d57600560008881526020019081526020016000208187612f25919061514b565b81548110612f3657612f3561572f565b5b9060005260206000200154848281518110612f5457612f5361572f565b5b6020026020010181815250508080600101915050612efe565b508060080160009054906101000a900460ff168015612f9a575080600901548486612f98919061514b565b145b915050935093915050565b7f189ab7a9244df0848122154315af71fe140f3db0fe014031783b0946b8c9d2e381565b60007f01ffc9a7000000000000000000000000000000000000000000000000000000007bffffffffffffffffffffffffffffffffffffffffffffffffffffffff1916827bffffffffffffffffffffffffffffffffffffffffffffffffffffffff1916149050919050565b60007f02dd7bc7dec4dceedda775e58dd541e08a116c6c53815c0bd028192f7b626800905090565b8082101561309e576040517f08c379a000000000000000000000000000000000000000000000000000000000815260040161309590615b9d565b60405180910390fd5b5050565b80826130ae919061514b565b8310156130f0576040517f08c379a00000000000000000000000000000000000000000000000000000000081526004016130e790615c55565b60405180910390fd5b505050565b6000805b8251811015613185578281815181106131155761311461572f565b5b602002602001015160405160200161312d9190615ca6565b60405160208183030381529060405280519060200120846040516020016131549190615ca6565b60405160208183030381529060405280519060200120036131785760019150613185565b80806001019150506130f9565b50806131c6576040517f08c379a00000000000000000000000000000000000000000000000000000000081526004016131bd90615d09565b60405180910390fd5b505050565b60008082856040516131dd9190615ca6565b90815260200160405180910390206000808152602001908152602001600020805480602002602001604051908101604052809291908181526020016000905b828210156132c857838290600052602060002001805461323b906150eb565b80601f0160208091040260200160405190810160405280929190818152602001828054613267906150eb565b80156132b45780601f10613289576101008083540402835291602001916132b4565b820191906000526020600020905b81548152906001019060200180831161329757829003601f168201915b50505050508152602001906001019061321c565b50505050905060005b815181101561335d57846040516020016132eb9190615ca6565b604051602081830303815290604052805190602001208282815181106133145761331361572f565b5b602002602001015160405160200161332c9190615ca6565b6040516020818303038152906040528051906020012003613350576001925061335d565b80806001019150506132d1565b508161339e576040517f08c379a000000000000000000000000000000000000000000000000000000000815260040161339590615d75565b60405180910390fd5b5050505050565b60008082856040516133b79190615ca6565b9081526020016040518091039020600060018152602001908152602001600020805480602002602001604051908101604052809291908181526020016000905b828210156134a3578382906000526020600020018054613416906150eb565b80601f0160208091040260200160405190810160405280929190818152602001828054613442906150eb565b801561348f5780601f106134645761010080835404028352916020019161348f565b820191906000526020600020905b81548152906001019060200180831161347257829003601f168201915b5050505050815260200190600101906133f7565b50505050905060005b815181101561353857846040516020016134c69190615ca6565b604051602081830303815290604052805190602001208282815181106134ef576134ee61572f565b5b60200260200101516040516020016135079190615ca6565b604051602081830303815290604052805190602001200361352b5760019250613538565b80806001019150506134ac565b5081613579576040517f08c379a000000000000000000000000000000000000000000000000000000000815260040161357090615de1565b60405180910390fd5b5050505050565b6135918161358c613695565b613d40565b50565b60008061359f613033565b90506135ab8484611d35565b61368957600181600001600086815260200190815260200160002060000160008573ffffffffffffffffffffffffffffffffffffffff1673ffffffffffffffffffffffffffffffffffffffff16815260200190815260200160002060006101000a81548160ff021916908315150217905550613625613695565b73ffffffffffffffffffffffffffffffffffffffff168373ffffffffffffffffffffffffffffffffffffffff16857f2f8788117e7eff1d82e926ec794901d17c78024a50270940304540a733656f0d60405160405180910390a4600191505061368f565b60009150505b92915050565b600033905090565b6000806136a8613033565b90506136b48484611d35565b1561379357600081600001600086815260200190815260200160002060000160008573ffffffffffffffffffffffffffffffffffffffff1673ffffffffffffffffffffffffffffffffffffffff16815260200190815260200160002060006101000a81548160ff02191690831515021790555061372f613695565b73ffffffffffffffffffffffffffffffffffffffff168373ffffffffffffffffffffffffffffffffffffffff16857ff6391f5c32d9c69d2a47ea670b442974b53935d1edc7fd64eb21e047a839171b60405160405180910390a46001915050613799565b60009150505b92915050565b60008114806137ae5750600181145b6137ed576040517f08c379a00000000000000000000000000000000000000000000000000000000081526004016137e490615e4d565b60405180910390fd5b50565b7f000000000000000000000000000000000000000000000000000000000000000073ffffffffffffffffffffffffffffffffffffffff163073ffffffffffffffffffffffffffffffffffffffff16148061389d57507f000000000000000000000000000000000000000000000000000000000000000073ffffffffffffffffffffffffffffffffffffffff16613884613d91565b73ffffffffffffffffffffffffffffffffffffffff1614155b156138d4576040517fe07c8dba00000000000000000000000000000000000000000000000000000000815260040160405180910390fd5b565b7f189ab7a9244df0848122154315af71fe140f3db0fe014031783b0946b8c9d2e361390081613580565b5050565b8173ffffffffffffffffffffffffffffffffffffffff166352d1902d6040518163ffffffff1660e01b8152600401602060405180830381865afa92505050801561396c57506040513d601f19601f820116820180604052508101906139699190615e82565b60015b6139ad57816040517f4c9c8ce30000000000000000000000000000000000000000000000000000000081526004016139a49190614d59565b60405180910390fd5b7f360894a13ba1a3210667c828492db98dca3e2076cc3735a920a3ca505d382bbc60001b8114613a1457806040517faa1d49a4000000000000000000000000000000000000000000000000000000008152600401613a0b91906142f9565b60405180910390fd5b613a1e8383613de8565b505050565b808284613a309190615667565b1015613a71576040517f08c379a0000000000000000000000000000000000000000000000000000000008152600401613a6890615efb565b60405180910390fd5b505050565b80613ab6576040517f08c379a0000000000000000000000000000000000000000000000000000000008152600401613aad90615f67565b60405180910390fd5b50565b7f000000000000000000000000000000000000000000000000000000000000000073ffffffffffffffffffffffffffffffffffffffff163073ffffffffffffffffffffffffffffffffffffffff1614613b3e576040517fe07c8dba00000000000000000000000000000000000000000000000000000000815260040160405180910390fd5b565b8015613b81576040517f08c379a0000000000000000000000000000000000000000000000000000000008152600401613b7890615fd3565b60405180910390fd5b50565b600060088686604051613b9892919061564e565b90815260200160405180910390206000838152602001908152602001600020905060005b84849050811015613c2457848482818110613bda57613bd961572f565b5b9050602002810190613bec919061576d565b838381548110613bff57613bfe61572f565b5b906000526020600020019182613c169291906157db565b508080600101915050613bbc565b50505050505050565b80821115613c70576040517f08c379a0000000000000000000000000000000000000000000000000000000008152600401613c679061603f565b60405180910390fd5b5050565b80821015613cb7576040517f08c379a0000000000000000000000000000000000000000000000000000000008152600401613cae906160f7565b60405180910390fd5b5050565b60007ff0c57e16840df040f15088dc2f81fe391c3923bec73e23a9662efc9c229c6a00905090565b613ceb613e5b565b565b808284613cfa919061514b565b1115613d3b576040517f08c379a0000000000000000000000000000000000000000000000000000000008152600401613d3290616163565b60405180910390fd5b505050565b613d4a8282611d35565b613d8d5780826040517fe2517d3f000000000000000000000000000000000000000000000000000000008152600401613d84929190616183565b60405180910390fd5b5050565b6000613dbf7f360894a13ba1a3210667c828492db98dca3e2076cc3735a920a3ca505d382bbc60001b613e9b565b60000160009054906101000a900473ffffffffffffffffffffffffffffffffffffffff16905090565b613df182613ea5565b8173ffffffffffffffffffffffffffffffffffffffff167fbc7cd75a20ee27fd9adebab32041f755214dbc6bffa90cc0225b39da2e5c2d3b60405160405180910390a2600081511115613e4e57613e488282613f72565b50613e57565b613e56613ff6565b5b5050565b613e63614033565b613e99576040517fd7e6bcf800000000000000000000000000000000000000000000000000000000815260040160405180910390fd5b565b6000819050919050565b60008173ffffffffffffffffffffffffffffffffffffffff163b03613f0157806040517f4c9c8ce3000000000000000000000000000000000000000000000000000000008152600401613ef89190614d59565b60405180910390fd5b80613f2e7f360894a13ba1a3210667c828492db98dca3e2076cc3735a920a3ca505d382bbc60001b613e9b565b60000160006101000a81548173ffffffffffffffffffffffffffffffffffffffff021916908373ffffffffffffffffffffffffffffffffffffffff16021790555050565b60606000808473ffffffffffffffffffffffffffffffffffffffff1684604051613f9c91906161e8565b600060405180830381855af49150503d8060008114613fd7576040519150601f19603f3d011682016040523d82523d6000602084013e613fdc565b606091505b5091509150613fec858383614053565b9250505092915050565b6000341115614031576040517fb398979f00000000000000000000000000000000000000000000000000000000815260040160405180910390fd5b565b600061403d613cbb565b60000160089054906101000a900460ff16905090565b60608261406857614063826140e2565b6140da565b60008251148015614090575060008473ffffffffffffffffffffffffffffffffffffffff163b145b156140d257836040517f9996b3150000000000000000000000000000000000000000000000000000000081526004016140c99190614d59565b60405180910390fd5b8190506140db565b5b9392505050565b6000815111156140f55780518082602001fd5b6040517f1425ea4200000000000000000000000000000000000000000000000000000000815260040160405180910390fd5b508054614133906150eb565b6000825580601f106141455750614164565b601f0160209004906000526020600020908101906141639190614167565b5b50565b5b80821115614180576000816000905550600101614168565b5090565b6000604051905090565b600080fd5b600080fd5b60007fffffffff0000000000000000000000000000000000000000000000000000000082169050919050565b6141cd81614198565b81146141d857600080fd5b50565b6000813590506141ea816141c4565b92915050565b6000602082840312156142065761420561418e565b5b6000614214848285016141db565b91505092915050565b60008115159050919050565b6142328161421d565b82525050565b600060208201905061424d6000830184614229565b92915050565b6000819050919050565b61426681614253565b82525050565b6000602082019050614281600083018461425d565b92915050565b6000819050919050565b61429a81614287565b81146142a557600080fd5b50565b6000813590506142b781614291565b92915050565b6000602082840312156142d3576142d261418e565b5b60006142e1848285016142a8565b91505092915050565b6142f381614287565b82525050565b600060208201905061430e60008301846142ea565b92915050565b600080fd5b600080fd5b600080fd5b60008083601f84011261433957614338614314565b5b8235905067ffffffffffffffff81111561435657614355614319565b5b6020830191508360018202830111156143725761437161431e565b5b9250929050565b600080fd5b6000601f19601f8301169050919050565b7f4e487b7100000000000000000000000000000000000000000000000000000000600052604160045260246000fd5b6143c78261437e565b810181811067ffffffffffffffff821117156143e6576143e561438f565b5b80604052505050565b60006143f9614184565b905061440582826143be565b919050565b600067ffffffffffffffff8211156144255761442461438f565b5b61442e8261437e565b9050602081019050919050565b82818337600083830152505050565b600061445d6144588461440a565b6143ef565b90508281526020810184848401111561447957614478614379565b5b61448484828561443b565b509392505050565b600082601f8301126144a1576144a0614314565b5b81356144b184826020860161444a565b91505092915050565b6144c381614253565b81146144ce57600080fd5b50565b6000813590506144e0816144ba565b92915050565b600073ffffffffffffffffffffffffffffffffffffffff82169050919050565b6000614511826144e6565b9050919050565b61452181614506565b811461452c57600080fd5b50565b60008135905061453e81614518565b92915050565b60008060008060008060008060e0898b0312156145645761456361418e565b5b600089013567ffffffffffffffff81111561458257614581614193565b5b61458e8b828c01614323565b9850985050602089013567ffffffffffffffff8111156145b1576145b0614193565b5b6145bd8b828c0161448c565b965050604089013567ffffffffffffffff8111156145de576145dd614193565b5b6145ea8b828c0161448c565b955050606089013567ffffffffffffffff81111561460b5761460a614193565b5b6146178b828c0161448c565b94505060806146288b828c016144d1565b93505060a06146398b828c0161452f565b92505060c061464a8b828c016144d1565b9150509295985092959890939650565b600080604083850312156146715761467061418e565b5b600061467f858286016142a8565b92505060206146908582860161452f565b9150509250929050565b6000602082840312156146b0576146af61418e565b5b60006146be8482850161452f565b91505092915050565b60008083601f8401126146dd576146dc614314565b5b8235905067ffffffffffffffff8111156146fa576146f9614319565b5b6020830191508360018202830111156147165761471561431e565b5b9250929050565b6000806000604084860312156147365761473561418e565b5b600084013567ffffffffffffffff81111561475457614753614193565b5b614760868287016146c7565b93509350506020614773868287016144d1565b9150509250925092565b600081519050919050565b600082825260208201905092915050565b6000819050602082019050919050565b600081519050919050565b600082825260208201905092915050565b60005b838110156147e35780820151818401526020810190506147c8565b60008484015250505050565b60006147fa826147a9565b61480481856147b4565b93506148148185602086016147c5565b61481d8161437e565b840191505092915050565b600061483483836147ef565b905092915050565b6000602082019050919050565b60006148548261477d565b61485e8185614788565b93508360208202850161487085614799565b8060005b858110156148ac578484038952815161488d8582614828565b94506148988361483c565b925060208a01995050600181019050614874565b50829750879550505050505092915050565b600060208201905081810360008301526148d88184614849565b905092915050565b600067ffffffffffffffff8211156148fb576148fa61438f565b5b6149048261437e565b9050602081019050919050565b600061492461491f846148e0565b6143ef565b9050828152602081018484840111156149405761493f614379565b5b61494b84828561443b565b509392505050565b600082601f83011261496857614967614314565b5b8135614978848260208601614911565b91505092915050565b600080604083850312156149985761499761418e565b5b60006149a68582860161452f565b925050602083013567ffffffffffffffff8111156149c7576149c6614193565b5b6149d385828601614953565b9150509250929050565b6000602082840312156149f3576149f261418e565b5b6000614a01848285016144d1565b91505092915050565b60008060408385031215614a2157614a2061418e565b5b6000614a2f858286016144d1565b9250506020614a40858286016144d1565b9150509250929050565b60008083601f840112614a6057614a5f614314565b5b8235905067ffffffffffffffff811115614a7d57614a7c614319565b5b602083019150836020820283011115614a9957614a9861431e565b5b9250929050565b60008060208385031215614ab757614ab661418e565b5b600083013567ffffffffffffffff811115614ad557614ad4614193565b5b614ae185828601614a4a565b92509250509250929050565b614af681614506565b82525050565b600082825260208201905092915050565b6000614b18826147a9565b614b228185614afc565b9350614b328185602086016147c5565b614b3b8161437e565b840191505092915050565b600081519050919050565b600082825260208201905092915050565b6000614b6d82614b46565b614b778185614b51565b9350614b878185602086016147c5565b614b908161437e565b840191505092915050565b600061016082019050614bb1600083018e614aed565b614bbe602083018d614aed565b8181036040830152614bd0818c614b0d565b90508181036060830152614be4818b614b0d565b90508181036080830152614bf8818a614b0d565b9050614c0760a083018961425d565b614c1460c083018861425d565b81810360e0830152614c268187614b62565b9050614c36610100830186614229565b614c4461012083018561425d565b614c5261014083018461425d565b9c9b505050505050505050505050565b600080600080600060608688031215614c7e57614c7d61418e565b5b600086013567ffffffffffffffff811115614c9c57614c9b614193565b5b614ca8888289016146c7565b95509550506020614cbb888289016144d1565b935050604086013567ffffffffffffffff811115614cdc57614cdb614193565b5b614ce888828901614a4a565b92509250509295509295909350565b60006020820190508181036000830152614d118184614b0d565b905092915050565b60008060408385031215614d3057614d2f61418e565b5b6000614d3e858286016144d1565b9250506020614d4f8582860161452f565b9150509250929050565b6000602082019050614d6e6000830184614aed565b92915050565b60008083601f840112614d8a57614d89614314565b5b8235905067ffffffffffffffff811115614da757614da6614319565b5b602083019150836020820283011115614dc357614dc261431e565b5b9250929050565b614dd38161421d565b8114614dde57600080fd5b50565b600081359050614df081614dca565b92915050565b60008060008060008060a08789031215614e1357614e1261418e565b5b6000614e2189828a016144d1565b965050602087013567ffffffffffffffff811115614e4257614e41614193565b5b614e4e89828a01614d74565b95509550506040614e6189828a01614de1565b9350506060614e7289828a016144d1565b9250506080614e8389828a016144d1565b9150509295509295509295565b60008083601f840112614ea657614ea5614314565b5b8235905067ffffffffffffffff811115614ec357614ec2614319565b5b602083019150836020820283011115614edf57614ede61431e565b5b9250929050565b600080600080600060608688031215614f0257614f0161418e565b5b6000614f108882890161452f565b955050602086013567ffffffffffffffff811115614f3157614f30614193565b5b614f3d88828901614a4a565b9450945050604086013567ffffffffffffffff811115614f6057614f5f614193565b5b614f6c88828901614e90565b92509250509295509295909350565b600080600060608486031215614f9457614f9361418e565b5b6000614fa2868287016144d1565b9350506020614fb3868287016144d1565b9250506040614fc4868287016144d1565b9150509250925092565b600081519050919050565b600082825260208201905092915050565b6000819050602082019050919050565b61500381614287565b82525050565b60006150158383614ffa565b60208301905092915050565b6000602082019050919050565b600061503982614fce565b6150438185614fd9565b935061504e83614fea565b8060005b8381101561507f5781516150668882615009565b975061507183615021565b925050600181019050615052565b5085935050505092915050565b600060408201905081810360008301526150a6818561502e565b90506150b56020830184614229565b9392505050565b7f4e487b7100000000000000000000000000000000000000000000000000000000600052602260045260246000fd5b6000600282049050600182168061510357607f821691505b602082108103615116576151156150bc565b5b50919050565b7f4e487b7100000000000000000000000000000000000000000000000000000000600052601160045260246000fd5b600061515682614253565b915061516183614253565b92508282019050808211156151795761517861511c565b5b92915050565b600061518a82614253565b91507fffffffffffffffffffffffffffffffffffffffffffffffffffffffffffffffff82036151bc576151bb61511c565b5b600182019050919050565b60008190508160005260206000209050919050565b60006020601f8301049050919050565b600082821b905092915050565b6000600883026152297fffffffffffffffffffffffffffffffffffffffffffffffffffffffffffffffff826151ec565b61523386836151ec565b95508019841693508086168417925050509392505050565b6000819050919050565b600061527061526b61526684614253565b61524b565b614253565b9050919050565b6000819050919050565b61528a83615255565b61529e61529682615277565b8484546151f9565b825550505050565b600090565b6152b36152a6565b6152be818484615281565b505050565b5b818110156152e2576152d76000826152ab565b6001810190506152c4565b5050565b601f821115615327576152f8816151c7565b615301846151dc565b81016020851015615310578190505b61532461531c856151dc565b8301826152c3565b50505b505050565b600082821c905092915050565b600061534a6000198460080261532c565b1980831691505092915050565b60006153638383615339565b9150826002028217905092915050565b61537c826147a9565b67ffffffffffffffff8111156153955761539461438f565b5b61539f82546150eb565b6153aa8282856152e6565b600060209050601f8311600181146153dd57600084156153cb578287015190505b6153d58582615357565b86555061543d565b601f1984166153eb866151c7565b60005b82811015615413578489015182556001820191506020850194506020810190506153ee565b86831015615430578489015161542c601f891682615339565b8355505b6001600288020188555050505b505050505050565b60008190508160005260206000209050919050565b601f82111561549b5761546c81615445565b615475846151dc565b81016020851015615484578190505b615498615490856151dc565b8301826152c3565b50505b505050565b6154a982614b46565b67ffffffffffffffff8111156154c2576154c161438f565b5b6154cc82546150eb565b6154d782828561545a565b600060209050601f83116001811461550a57600084156154f8578287015190505b6155028582615357565b86555061556a565b601f19841661551886615445565b60005b828110156155405784890151825560018201915060208501945060208101905061551b565b8683101561555d5784890151615559601f891682615339565b8355505b6001600288020188555050505b505050505050565b600061557e8385614b51565b935061558b83858461443b565b6155948361437e565b840190509392505050565b600060c08201905081810360008301526155ba81898b615572565b905081810360208301526155ce8188614b0d565b905081810360408301526155e28187614b0d565b905081810360608301526155f68186614b0d565b9050615605608083018561425d565b61561260a083018461425d565b98975050505050505050565b600081905092915050565b6000615635838561561e565b935061564283858461443b565b82840190509392505050565b600061565b828486615629565b91508190509392505050565b600061567282614253565b915061567d83614253565b92508282039050818111156156955761569461511c565b5b92915050565b60006040820190506156b06000830185614aed565b6156bd602083018461425d565b9392505050565b6000815190506156d381614dca565b92915050565b6000602082840312156156ef576156ee61418e565b5b60006156fd848285016156c4565b91505092915050565b600060408201905061571b600083018561425d565b615728602083018461425d565b9392505050565b7f4e487b7100000000000000000000000000000000000000000000000000000000600052603260045260246000fd5b600080fd5b600080fd5b600080fd5b6000808335600160200384360303811261578a5761578961575e565b5b80840192508235915067ffffffffffffffff8211156157ac576157ab615763565b5b6020830192506001820236038313156157c8576157c7615768565b5b509250929050565b600082905092915050565b6157e583836157d0565b67ffffffffffffffff8111156157fe576157fd61438f565b5b61580882546150eb565b6158138282856152e6565b6000601f8311600181146158425760008415615830578287013590505b61583a8582615357565b8655506158a2565b601f198416615850866151c7565b60005b8281101561587857848901358255600182019150602085019450602081019050615853565b868310156158955784890135615891601f891682615339565b8355505b6001600288020188555050505b50505050505050565b7f4e487b7100000000000000000000000000000000000000000000000000000000600052603160045260246000fd5b600080fd5b82818337505050565b60006158f48385614fd9565b93507f07ffffffffffffffffffffffffffffffffffffffffffffffffffffffffffffff831115615927576159266158da565b5b6020830292506159388385846158df565b82840190509392505050565b6000606082019050818103600083015261595f8186886158e8565b905061596e6020830185614229565b61597b604083018461425d565b95945050505050565b6000606082019050615999600083018761425d565b81810360208301526159ac8185876158e8565b90506159bb6040830184614229565b95945050505050565b60006060820190506159d96000830186614aed565b6159e66020830185614aed565b6159f3604083018461425d565b949350505050565b60008083356001602003843603038112615a1857615a1761575e565b5b80840192508235915067ffffffffffffffff821115615a3a57615a39615763565b5b602083019250602082023603831315615a5657615a55615768565b5b509250929050565b60008083356001602003843603038112615a7b57615a7a61575e565b5b80840192508235915067ffffffffffffffff821115615a9d57615a9c615763565b5b602083019250602082023603831315615ab957615ab8615768565b5b509250929050565b6000819050919050565b600067ffffffffffffffff82169050919050565b6000615afa615af5615af084615ac1565b61524b565b615acb565b9050919050565b615b0a81615adf565b82525050565b6000602082019050615b256000830184615b01565b92915050565b7f546f6b656e206c696d69742069732062656c6f7720746865206d696e696d756d60008201527f2072657175697265642e00000000000000000000000000000000000000000000602082015250565b6000615b87602a83614afc565b9150615b9282615b2b565b604082019050919050565b60006020820190508181036000830152615bb681615b7a565b9050919050565b7f496e73756666696369656e742062616c616e636520746f20636f76657220746860008201527f6520726571756972656420616d6f756e7420616e642066726f7a656e2062616c60208201527f616e63652e000000000000000000000000000000000000000000000000000000604082015250565b6000615c3f604583614afc565b9150615c4a82615bbd565b606082019050919050565b60006020820190508181036000830152615c6e81615c32565b9050919050565b6000615c80826147a9565b615c8a818561561e565b9350615c9a8185602086016147c5565b80840191505092915050565b6000615cb28284615c75565b915081905092915050565b7f4d6f64656c206973206e6f7420616c6c6f7765642e0000000000000000000000600082015250565b6000615cf3601583614afc565b9150615cfe82615cbd565b602082019050919050565b60006020820190508181036000830152615d2281615ce6565b9050919050565b7f5265717565737420646174612074797065206e6f7420616c6c6f776564000000600082015250565b6000615d5f601d83614afc565b9150615d6a82615d29565b602082019050919050565b60006020820190508181036000830152615d8e81615d52565b9050919050565b7f526573706f6e736520646174612074797065206e6f7420616c6c6f7765640000600082015250565b6000615dcb601e83614afc565b9150615dd682615d95565b602082019050919050565b60006020820190508181036000830152615dfa81615dbe565b9050919050565b7f496e76616c6964206f7065726174696f6e207479706500000000000000000000600082015250565b6000615e37601683614afc565b9150615e4282615e01565b602082019050919050565b60006020820190508181036000830152615e6681615e2a565b9050919050565b600081519050615e7c81614291565b92915050565b600060208284031215615e9857615e9761418e565b5b6000615ea684828501615e6d565b91505092915050565b7f496e73756666696369656e742062616c616e6365000000000000000000000000600082015250565b6000615ee5601483614afc565b9150615ef082615eaf565b602082019050919050565b60006020820190508181036000830152615f1481615ed8565b9050919050565b7f5472616e73666572206661696c65640000000000000000000000000000000000600082015250565b6000615f51600f83614afc565b9150615f5c82615f1b565b602082019050919050565b60006020820190508181036000830152615f8081615f44565b9050919050565b7f5265717565737420616c72656164792066696e616c697a656400000000000000600082015250565b6000615fbd601983614afc565b9150615fc882615f87565b602082019050919050565b60006020820190508181036000830152615fec81615fb0565b9050919050565b7f546f6b656e206c696d6974206578636565646564000000000000000000000000600082015250565b6000616029601483614afc565b915061603482615ff3565b602082019050919050565b600060208201905081810360008301526160588161601c565b9050919050565b7f5265717565737465722068617320696e73756666696369656e742062616c616e60008201527f636520746f20636f7665722074686520746f6b656e20636f6e73756d7074696f60208201527f6e2e000000000000000000000000000000000000000000000000000000000000604082015250565b60006160e1604283614afc565b91506160ec8261605f565b606082019050919050565b60006020820190508181036000830152616110816160d4565b9050919050565b7f4f7574206f662072616e67650000000000000000000000000000000000000000600082015250565b600061614d600c83614afc565b915061615882616117565b602082019050919050565b6000602082019050818103600083015261617c81616140565b9050919050565b60006040820190506161986000830185614aed565b6161a560208301846142ea565b9392505050565b600081905092915050565b60006161c282614b46565b6161cc81856161ac565b93506161dc8185602086016147c5565b80840191505092915050565b60006161f482846161b7565b91508190509291505056fea2646970667358221220af6ae4085ad8b0fe21c253dbb6212823fc0e172d085c87b9198ac360e9ce007164736f6c63430008180033","opcodes":"PUSH1 0xA0 PUSH1 0x40 MSTORE ADDRESS PUSH20 0xFFFFFFFFFFFFFFFFFFFFFFFFFFFFFFFFFFFFFFFF AND PUSH1 0x80 SWAP1 PUSH20 0xFFFFFFFFFFFFFFFFFFFFFFFFFFFFFFFFFFFFFFFF AND DUP2 MSTORE POP CALLVALUE DUP1 ISZERO PUSH3 0x44 JUMPI PUSH1 0x0 DUP1 REVERT JUMPDEST POP PUSH3 0x55 PUSH3 0x5B PUSH1 0x20 SHL PUSH1 0x20 SHR JUMP JUMPDEST PUSH3 0x1CF JUMP JUMPDEST PUSH1 0x0 PUSH3 0x6D PUSH3 0x165 PUSH1 0x20 SHL PUSH1 0x20 SHR JUMP JUMPDEST SWAP1 POP DUP1 PUSH1 0x0 ADD PUSH1 0x8 SWAP1 SLOAD SWAP1 PUSH2 0x100 EXP SWAP1 DIV PUSH1 0xFF AND ISZERO PUSH3 0xB9 JUMPI PUSH1 0x40 MLOAD PUSH32 0xF92EE8A900000000000000000000000000000000000000000000000000000000 DUP2 MSTORE PUSH1 0x4 ADD PUSH1 0x40 MLOAD DUP1 SWAP2 SUB SWAP1 REVERT JUMPDEST PUSH8 0xFFFFFFFFFFFFFFFF DUP1 AND DUP2 PUSH1 0x0 ADD PUSH1 0x0 SWAP1 SLOAD SWAP1 PUSH2 0x100 EXP SWAP1 DIV PUSH8 0xFFFFFFFFFFFFFFFF AND PUSH8 0xFFFFFFFFFFFFFFFF AND EQ PUSH3 0x162 JUMPI PUSH8 0xFFFFFFFFFFFFFFFF DUP2 PUSH1 0x0 ADD PUSH1 0x0 PUSH2 0x100 EXP DUP2 SLOAD DUP2 PUSH8 0xFFFFFFFFFFFFFFFF MUL NOT AND SWAP1 DUP4 PUSH8 0xFFFFFFFFFFFFFFFF AND MUL OR SWAP1 SSTORE POP PUSH32 0xC7F505B2F371AE2175EE4913F4499E1F2633A7B5936321EED1CDAEB6115181D2 PUSH8 0xFFFFFFFFFFFFFFFF PUSH1 0x40 MLOAD PUSH3 0x159 SWAP2 SWAP1 PUSH3 0x1B2 JUMP JUMPDEST PUSH1 0x40 MLOAD DUP1 SWAP2 SUB SWAP1 LOG1 JUMPDEST POP JUMP JUMPDEST PUSH1 0x0 PUSH32 0xF0C57E16840DF040F15088DC2F81FE391C3923BEC73E23A9662EFC9C229C6A00 SWAP1 POP SWAP1 JUMP JUMPDEST PUSH1 0x0 PUSH8 0xFFFFFFFFFFFFFFFF DUP3 AND SWAP1 POP SWAP2 SWAP1 POP JUMP JUMPDEST PUSH3 0x1AC DUP2 PUSH3 0x18D JUMP JUMPDEST DUP3 MSTORE POP POP JUMP JUMPDEST PUSH1 0x0 PUSH1 0x20 DUP3 ADD SWAP1 POP PUSH3 0x1C9 PUSH1 0x0 DUP4 ADD DUP5 PUSH3 0x1A1 JUMP JUMPDEST SWAP3 SWAP2 POP POP JUMP JUMPDEST PUSH1 0x80 MLOAD PUSH2 0x6235 PUSH3 0x1F9 PUSH1 0x0 CODECOPY PUSH1 0x0 DUP2 DUP2 PUSH2 0x37F2 ADD MSTORE DUP2 DUP2 PUSH2 0x3847 ADD MSTORE PUSH2 0x3ABB ADD MSTORE PUSH2 0x6235 PUSH1 0x0 RETURN INVALID PUSH1 0x80 PUSH1 0x40 MSTORE PUSH1 0x4 CALLDATASIZE LT PUSH2 0x1EE JUMPI PUSH1 0x0 CALLDATALOAD PUSH1 0xE0 SHR DUP1 PUSH4 0x91D14854 GT PUSH2 0x10D JUMPI DUP1 PUSH4 0xC2400FAE GT PUSH2 0xA0 JUMPI DUP1 PUSH4 0xD7926AB7 GT PUSH2 0x6F JUMPI DUP1 PUSH4 0xD7926AB7 EQ PUSH2 0x732 JUMPI DUP1 PUSH4 0xDD49756E EQ PUSH2 0x75B JUMPI DUP1 PUSH4 0xE7F80316 EQ PUSH2 0x784 JUMPI DUP1 PUSH4 0xEB1DEFE7 EQ PUSH2 0x7AD JUMPI DUP1 PUSH4 0xF72C0D8B EQ PUSH2 0x7EB JUMPI PUSH2 0x1EE JUMP JUMPDEST DUP1 PUSH4 0xC2400FAE EQ PUSH2 0x678 JUMPI DUP1 PUSH4 0xC8203521 EQ PUSH2 0x6A1 JUMPI DUP1 PUSH4 0xC97A339D EQ PUSH2 0x6CC JUMPI DUP1 PUSH4 0xD547741F EQ PUSH2 0x709 JUMPI PUSH2 0x1EE JUMP JUMPDEST DUP1 PUSH4 0xAD3CB1CC GT PUSH2 0xDC JUMPI DUP1 PUSH4 0xAD3CB1CC EQ PUSH2 0x5BC JUMPI DUP1 PUSH4 0xB189E2DB EQ PUSH2 0x5E7 JUMPI DUP1 PUSH4 0xBC7EF6C9 EQ PUSH2 0x624 JUMPI DUP1 PUSH4 0xBCDF10AD EQ PUSH2 0x64D JUMPI PUSH2 0x1EE JUMP JUMPDEST DUP1 PUSH4 0x91D14854 EQ PUSH2 0x4FE JUMPI DUP1 PUSH4 0x973A814E EQ PUSH2 0x53B JUMPI DUP1 PUSH4 0x9AD04197 EQ PUSH2 0x566 JUMPI DUP1 PUSH4 0xA217FDDF EQ PUSH2 0x591 JUMPI PUSH2 0x1EE JUMP JUMPDEST DUP1 PUSH4 0x4F1EF286 GT PUSH2 0x185 JUMPI DUP1 PUSH4 0x781D8DD3 GT PUSH2 0x154 JUMPI DUP1 PUSH4 0x781D8DD3 EQ PUSH2 0x43A JUMPI DUP1 PUSH4 0x81D12C58 EQ PUSH2 0x463 JUMPI DUP1 PUSH4 0x82DBE9E6 EQ PUSH2 0x4AA JUMPI DUP1 PUSH4 0x9067DF1A EQ PUSH2 0x4D3 JUMPI PUSH2 0x1EE JUMP JUMPDEST DUP1 PUSH4 0x4F1EF286 EQ PUSH2 0x3A1 JUMPI DUP1 PUSH4 0x50BAA622 EQ PUSH2 0x3BD JUMPI DUP1 PUSH4 0x52D1902D EQ PUSH2 0x3E6 JUMPI DUP1 PUSH4 0x6800E7C8 EQ PUSH2 0x411 JUMPI PUSH2 0x1EE JUMP JUMPDEST DUP1 PUSH4 0x2F2FF15D GT PUSH2 0x1C1 JUMPI DUP1 PUSH4 0x2F2FF15D EQ PUSH2 0x2D5 JUMPI DUP1 PUSH4 0x36568ABE EQ PUSH2 0x2FE JUMPI DUP1 PUSH4 0x3AECD0E3 EQ PUSH2 0x327 JUMPI DUP1 PUSH4 0x4247AE1B EQ PUSH2 0x364 JUMPI PUSH2 0x1EE JUMP JUMPDEST DUP1 PUSH4 0x1FFC9A7 EQ PUSH2 0x1F3 JUMPI DUP1 PUSH4 0x221FCBDF EQ PUSH2 0x230 JUMPI DUP1 PUSH4 0x248A9CA3 EQ PUSH2 0x25B JUMPI DUP1 PUSH4 0x263C9077 EQ PUSH2 0x298 JUMPI JUMPDEST PUSH1 0x0 DUP1 REVERT JUMPDEST CALLVALUE DUP1 ISZERO PUSH2 0x1FF JUMPI PUSH1 0x0 DUP1 REVERT JUMPDEST POP PUSH2 0x21A PUSH1 0x4 DUP1 CALLDATASIZE SUB DUP2 ADD SWAP1 PUSH2 0x215 SWAP2 SWAP1 PUSH2 0x41F0 JUMP JUMPDEST PUSH2 0x816 JUMP JUMPDEST PUSH1 0x40 MLOAD PUSH2 0x227 SWAP2 SWAP1 PUSH2 0x4238 JUMP JUMPDEST PUSH1 0x40 MLOAD DUP1 SWAP2 SUB SWAP1 RETURN JUMPDEST CALLVALUE DUP1 ISZERO PUSH2 0x23C JUMPI PUSH1 0x0 DUP1 REVERT JUMPDEST POP PUSH2 0x245 PUSH2 0x890 JUMP JUMPDEST PUSH1 0x40 MLOAD PUSH2 0x252 SWAP2 SWAP1 PUSH2 0x426C JUMP JUMPDEST PUSH1 0x40 MLOAD DUP1 SWAP2 SUB SWAP1 RETURN JUMPDEST CALLVALUE DUP1 ISZERO PUSH2 0x267 JUMPI PUSH1 0x0 DUP1 REVERT JUMPDEST POP PUSH2 0x282 PUSH1 0x4 DUP1 CALLDATASIZE SUB DUP2 ADD SWAP1 PUSH2 0x27D SWAP2 SWAP1 PUSH2 0x42BD JUMP JUMPDEST PUSH2 0x895 JUMP JUMPDEST PUSH1 0x40 MLOAD PUSH2 0x28F SWAP2 SWAP1 PUSH2 0x42F9 JUMP JUMPDEST PUSH1 0x40 MLOAD DUP1 SWAP2 SUB SWAP1 RETURN JUMPDEST CALLVALUE DUP1 ISZERO PUSH2 0x2A4 JUMPI PUSH1 0x0 DUP1 REVERT JUMPDEST POP PUSH2 0x2BF PUSH1 0x4 DUP1 CALLDATASIZE SUB DUP2 ADD SWAP1 PUSH2 0x2BA SWAP2 SWAP1 PUSH2 0x4544 JUMP JUMPDEST PUSH2 0x8C3 JUMP JUMPDEST PUSH1 0x40 MLOAD PUSH2 0x2CC SWAP2 SWAP1 PUSH2 0x426C JUMP JUMPDEST PUSH1 0x40 MLOAD DUP1 SWAP2 SUB SWAP1 RETURN JUMPDEST CALLVALUE DUP1 ISZERO PUSH2 0x2E1 JUMPI PUSH1 0x0 DUP1 REVERT JUMPDEST POP PUSH2 0x2FC PUSH1 0x4 DUP1 CALLDATASIZE SUB DUP2 ADD SWAP1 PUSH2 0x2F7 SWAP2 SWAP1 PUSH2 0x465A JUMP JUMPDEST PUSH2 0xD70 JUMP JUMPDEST STOP JUMPDEST CALLVALUE DUP1 ISZERO PUSH2 0x30A JUMPI PUSH1 0x0 DUP1 REVERT JUMPDEST POP PUSH2 0x325 PUSH1 0x4 DUP1 CALLDATASIZE SUB DUP2 ADD SWAP1 PUSH2 0x320 SWAP2 SWAP1 PUSH2 0x465A JUMP JUMPDEST PUSH2 0xD92 JUMP JUMPDEST STOP JUMPDEST CALLVALUE DUP1 ISZERO PUSH2 0x333 JUMPI PUSH1 0x0 DUP1 REVERT JUMPDEST POP PUSH2 0x34E PUSH1 0x4 DUP1 CALLDATASIZE SUB DUP2 ADD SWAP1 PUSH2 0x349 SWAP2 SWAP1 PUSH2 0x469A JUMP JUMPDEST PUSH2 0xE0D JUMP JUMPDEST PUSH1 0x40 MLOAD PUSH2 0x35B SWAP2 SWAP1 PUSH2 0x426C JUMP JUMPDEST PUSH1 0x40 MLOAD DUP1 SWAP2 SUB SWAP1 RETURN JUMPDEST CALLVALUE DUP1 ISZERO PUSH2 0x370 JUMPI PUSH1 0x0 DUP1 REVERT JUMPDEST POP PUSH2 0x38B PUSH1 0x4 DUP1 CALLDATASIZE SUB DUP2 ADD SWAP1 PUSH2 0x386 SWAP2 SWAP1 PUSH2 0x471D JUMP JUMPDEST PUSH2 0xE56 JUMP JUMPDEST PUSH1 0x40 MLOAD PUSH2 0x398 SWAP2 SWAP1 PUSH2 0x48BE JUMP JUMPDEST PUSH1 0x40 MLOAD DUP1 SWAP2 SUB SWAP1 RETURN JUMPDEST PUSH2 0x3BB PUSH1 0x4 DUP1 CALLDATASIZE SUB DUP2 ADD SWAP1 PUSH2 0x3B6 SWAP2 SWAP1 PUSH2 0x4981 JUMP JUMPDEST PUSH2 0xF6B JUMP JUMPDEST STOP JUMPDEST CALLVALUE DUP1 ISZERO PUSH2 0x3C9 JUMPI PUSH1 0x0 DUP1 REVERT JUMPDEST POP PUSH2 0x3E4 PUSH1 0x4 DUP1 CALLDATASIZE SUB DUP2 ADD SWAP1 PUSH2 0x3DF SWAP2 SWAP1 PUSH2 0x49DD JUMP JUMPDEST PUSH2 0xF8A JUMP JUMPDEST STOP JUMPDEST CALLVALUE DUP1 ISZERO PUSH2 0x3F2 JUMPI PUSH1 0x0 DUP1 REVERT JUMPDEST POP PUSH2 0x3FB PUSH2 0x11F0 JUMP JUMPDEST PUSH1 0x40 MLOAD PUSH2 0x408 SWAP2 SWAP1 PUSH2 0x42F9 JUMP JUMPDEST PUSH1 0x40 MLOAD DUP1 SWAP2 SUB SWAP1 RETURN JUMPDEST CALLVALUE DUP1 ISZERO PUSH2 0x41D JUMPI PUSH1 0x0 DUP1 REVERT JUMPDEST POP PUSH2 0x438 PUSH1 0x4 DUP1 CALLDATASIZE SUB DUP2 ADD SWAP1 PUSH2 0x433 SWAP2 SWAP1 PUSH2 0x4A0A JUMP JUMPDEST PUSH2 0x1223 JUMP JUMPDEST STOP JUMPDEST CALLVALUE DUP1 ISZERO PUSH2 0x446 JUMPI PUSH1 0x0 DUP1 REVERT JUMPDEST POP PUSH2 0x461 PUSH1 0x4 DUP1 CALLDATASIZE SUB DUP2 ADD SWAP1 PUSH2 0x45C SWAP2 SWAP1 PUSH2 0x4AA0 JUMP JUMPDEST PUSH2 0x1834 JUMP JUMPDEST STOP JUMPDEST CALLVALUE DUP1 ISZERO PUSH2 0x46F JUMPI PUSH1 0x0 DUP1 REVERT JUMPDEST POP PUSH2 0x48A PUSH1 0x4 DUP1 CALLDATASIZE SUB DUP2 ADD SWAP1 PUSH2 0x485 SWAP2 SWAP1 PUSH2 0x49DD JUMP JUMPDEST PUSH2 0x18F9 JUMP JUMPDEST PUSH1 0x40 MLOAD PUSH2 0x4A1 SWAP12 SWAP11 SWAP10 SWAP9 SWAP8 SWAP7 SWAP6 SWAP5 SWAP4 SWAP3 SWAP2 SWAP1 PUSH2 0x4B9B JUMP JUMPDEST PUSH1 0x40 MLOAD DUP1 SWAP2 SUB SWAP1 RETURN JUMPDEST CALLVALUE DUP1 ISZERO PUSH2 0x4B6 JUMPI PUSH1 0x0 DUP1 REVERT JUMPDEST POP PUSH2 0x4D1 PUSH1 0x4 DUP1 CALLDATASIZE SUB DUP2 ADD SWAP1 PUSH2 0x4CC SWAP2 SWAP1 PUSH2 0x4C62 JUMP JUMPDEST PUSH2 0x1BC0 JUMP JUMPDEST STOP JUMPDEST CALLVALUE DUP1 ISZERO PUSH2 0x4DF JUMPI PUSH1 0x0 DUP1 REVERT JUMPDEST POP PUSH2 0x4E8 PUSH2 0x1C5C JUMP JUMPDEST PUSH1 0x40 MLOAD PUSH2 0x4F5 SWAP2 SWAP1 PUSH2 0x48BE JUMP JUMPDEST PUSH1 0x40 MLOAD DUP1 SWAP2 SUB SWAP1 RETURN JUMPDEST CALLVALUE DUP1 ISZERO PUSH2 0x50A JUMPI PUSH1 0x0 DUP1 REVERT JUMPDEST POP PUSH2 0x525 PUSH1 0x4 DUP1 CALLDATASIZE SUB DUP2 ADD SWAP1 PUSH2 0x520 SWAP2 SWAP1 PUSH2 0x465A JUMP JUMPDEST PUSH2 0x1D35 JUMP JUMPDEST PUSH1 0x40 MLOAD PUSH2 0x532 SWAP2 SWAP1 PUSH2 0x4238 JUMP JUMPDEST PUSH1 0x40 MLOAD DUP1 SWAP2 SUB SWAP1 RETURN JUMPDEST CALLVALUE DUP1 ISZERO PUSH2 0x547 JUMPI PUSH1 0x0 DUP1 REVERT JUMPDEST POP PUSH2 0x550 PUSH2 0x1DAE JUMP JUMPDEST PUSH1 0x40 MLOAD PUSH2 0x55D SWAP2 SWAP1 PUSH2 0x426C JUMP JUMPDEST PUSH1 0x40 MLOAD DUP1 SWAP2 SUB SWAP1 RETURN JUMPDEST CALLVALUE DUP1 ISZERO PUSH2 0x572 JUMPI PUSH1 0x0 DUP1 REVERT JUMPDEST POP PUSH2 0x57B PUSH2 0x1DB4 JUMP JUMPDEST PUSH1 0x40 MLOAD PUSH2 0x588 SWAP2 SWAP1 PUSH2 0x42F9 JUMP JUMPDEST PUSH1 0x40 MLOAD DUP1 SWAP2 SUB SWAP1 RETURN JUMPDEST CALLVALUE DUP1 ISZERO PUSH2 0x59D JUMPI PUSH1 0x0 DUP1 REVERT JUMPDEST POP PUSH2 0x5A6 PUSH2 0x1DD8 JUMP JUMPDEST PUSH1 0x40 MLOAD PUSH2 0x5B3 SWAP2 SWAP1 PUSH2 0x42F9 JUMP JUMPDEST PUSH1 0x40 MLOAD DUP1 SWAP2 SUB SWAP1 RETURN JUMPDEST CALLVALUE DUP1 ISZERO PUSH2 0x5C8 JUMPI PUSH1 0x0 DUP1 REVERT JUMPDEST POP PUSH2 0x5D1 PUSH2 0x1DDF JUMP JUMPDEST PUSH1 0x40 MLOAD PUSH2 0x5DE SWAP2 SWAP1 PUSH2 0x4CF7 JUMP JUMPDEST PUSH1 0x40 MLOAD DUP1 SWAP2 SUB SWAP1 RETURN JUMPDEST CALLVALUE DUP1 ISZERO PUSH2 0x5F3 JUMPI PUSH1 0x0 DUP1 REVERT JUMPDEST POP PUSH2 0x60E PUSH1 0x4 DUP1 CALLDATASIZE SUB DUP2 ADD SWAP1 PUSH2 0x609 SWAP2 SWAP1 PUSH2 0x49DD JUMP JUMPDEST PUSH2 0x1E18 JUMP JUMPDEST PUSH1 0x40 MLOAD PUSH2 0x61B SWAP2 SWAP1 PUSH2 0x426C JUMP JUMPDEST PUSH1 0x40 MLOAD DUP1 SWAP2 SUB SWAP1 RETURN JUMPDEST CALLVALUE DUP1 ISZERO PUSH2 0x630 JUMPI PUSH1 0x0 DUP1 REVERT JUMPDEST POP PUSH2 0x64B PUSH1 0x4 DUP1 CALLDATASIZE SUB DUP2 ADD SWAP1 PUSH2 0x646 SWAP2 SWAP1 PUSH2 0x4D19 JUMP JUMPDEST PUSH2 0x1E38 JUMP JUMPDEST STOP JUMPDEST CALLVALUE DUP1 ISZERO PUSH2 0x659 JUMPI PUSH1 0x0 DUP1 REVERT JUMPDEST POP PUSH2 0x662 PUSH2 0x209F JUMP JUMPDEST PUSH1 0x40 MLOAD PUSH2 0x66F SWAP2 SWAP1 PUSH2 0x426C JUMP JUMPDEST PUSH1 0x40 MLOAD DUP1 SWAP2 SUB SWAP1 RETURN JUMPDEST CALLVALUE DUP1 ISZERO PUSH2 0x684 JUMPI PUSH1 0x0 DUP1 REVERT JUMPDEST POP PUSH2 0x69F PUSH1 0x4 DUP1 CALLDATASIZE SUB DUP2 ADD SWAP1 PUSH2 0x69A SWAP2 SWAP1 PUSH2 0x49DD JUMP JUMPDEST PUSH2 0x20A5 JUMP JUMPDEST STOP JUMPDEST CALLVALUE DUP1 ISZERO PUSH2 0x6AD JUMPI PUSH1 0x0 DUP1 REVERT JUMPDEST POP PUSH2 0x6B6 PUSH2 0x20BD JUMP JUMPDEST PUSH1 0x40 MLOAD PUSH2 0x6C3 SWAP2 SWAP1 PUSH2 0x4D59 JUMP JUMPDEST PUSH1 0x40 MLOAD DUP1 SWAP2 SUB SWAP1 RETURN JUMPDEST CALLVALUE DUP1 ISZERO PUSH2 0x6D8 JUMPI PUSH1 0x0 DUP1 REVERT JUMPDEST POP PUSH2 0x6F3 PUSH1 0x4 DUP1 CALLDATASIZE SUB DUP2 ADD SWAP1 PUSH2 0x6EE SWAP2 SWAP1 PUSH2 0x4A0A JUMP JUMPDEST PUSH2 0x20E1 JUMP JUMPDEST PUSH1 0x40 MLOAD PUSH2 0x700 SWAP2 SWAP1 PUSH2 0x42F9 JUMP JUMPDEST PUSH1 0x40 MLOAD DUP1 SWAP2 SUB SWAP1 RETURN JUMPDEST CALLVALUE DUP1 ISZERO PUSH2 0x715 JUMPI PUSH1 0x0 DUP1 REVERT JUMPDEST POP PUSH2 0x730 PUSH1 0x4 DUP1 CALLDATASIZE SUB DUP2 ADD SWAP1 PUSH2 0x72B SWAP2 SWAP1 PUSH2 0x465A JUMP JUMPDEST PUSH2 0x2112 JUMP JUMPDEST STOP JUMPDEST CALLVALUE DUP1 ISZERO PUSH2 0x73E JUMPI PUSH1 0x0 DUP1 REVERT JUMPDEST POP PUSH2 0x759 PUSH1 0x4 DUP1 CALLDATASIZE SUB DUP2 ADD SWAP1 PUSH2 0x754 SWAP2 SWAP1 PUSH2 0x4DF6 JUMP JUMPDEST PUSH2 0x2134 JUMP JUMPDEST STOP JUMPDEST CALLVALUE DUP1 ISZERO PUSH2 0x767 JUMPI PUSH1 0x0 DUP1 REVERT JUMPDEST POP PUSH2 0x782 PUSH1 0x4 DUP1 CALLDATASIZE SUB DUP2 ADD SWAP1 PUSH2 0x77D SWAP2 SWAP1 PUSH2 0x49DD JUMP JUMPDEST PUSH2 0x2963 JUMP JUMPDEST STOP JUMPDEST CALLVALUE DUP1 ISZERO PUSH2 0x790 JUMPI PUSH1 0x0 DUP1 REVERT JUMPDEST POP PUSH2 0x7AB PUSH1 0x4 DUP1 CALLDATASIZE SUB DUP2 ADD SWAP1 PUSH2 0x7A6 SWAP2 SWAP1 PUSH2 0x4EE6 JUMP JUMPDEST PUSH2 0x2B38 JUMP JUMPDEST STOP JUMPDEST CALLVALUE DUP1 ISZERO PUSH2 0x7B9 JUMPI PUSH1 0x0 DUP1 REVERT JUMPDEST POP PUSH2 0x7D4 PUSH1 0x4 DUP1 CALLDATASIZE SUB DUP2 ADD SWAP1 PUSH2 0x7CF SWAP2 SWAP1 PUSH2 0x4F7B JUMP JUMPDEST PUSH2 0x2E87 JUMP JUMPDEST PUSH1 0x40 MLOAD PUSH2 0x7E2 SWAP3 SWAP2 SWAP1 PUSH2 0x508C JUMP JUMPDEST PUSH1 0x40 MLOAD DUP1 SWAP2 SUB SWAP1 RETURN JUMPDEST CALLVALUE DUP1 ISZERO PUSH2 0x7F7 JUMPI PUSH1 0x0 DUP1 REVERT JUMPDEST POP PUSH2 0x800 PUSH2 0x2FA5 JUMP JUMPDEST PUSH1 0x40 MLOAD PUSH2 0x80D SWAP2 SWAP1 PUSH2 0x42F9 JUMP JUMPDEST PUSH1 0x40 MLOAD DUP1 SWAP2 SUB SWAP1 RETURN JUMPDEST PUSH1 0x0 PUSH32 0x7965DB0B00000000000000000000000000000000000000000000000000000000 PUSH28 0xFFFFFFFFFFFFFFFFFFFFFFFFFFFFFFFFFFFFFFFFFFFFFFFFFFFFFFFF NOT AND DUP3 PUSH28 0xFFFFFFFFFFFFFFFFFFFFFFFFFFFFFFFFFFFFFFFFFFFFFFFFFFFFFFFF NOT AND EQ DUP1 PUSH2 0x889 JUMPI POP PUSH2 0x888 DUP3 PUSH2 0x2FC9 JUMP JUMPDEST JUMPDEST SWAP1 POP SWAP2 SWAP1 POP JUMP JUMPDEST PUSH1 0x1 DUP2 JUMP JUMPDEST PUSH1 0x0 DUP1 PUSH2 0x8A0 PUSH2 0x3033 JUMP JUMPDEST SWAP1 POP DUP1 PUSH1 0x0 ADD PUSH1 0x0 DUP5 DUP2 MSTORE PUSH1 0x20 ADD SWAP1 DUP2 MSTORE PUSH1 0x20 ADD PUSH1 0x0 KECCAK256 PUSH1 0x1 ADD SLOAD SWAP2 POP POP SWAP2 SWAP1 POP JUMP JUMPDEST PUSH1 0x0 PUSH2 0x8DA PUSH1 0x1 SLOAD DUP4 PUSH2 0x305B SWAP1 SWAP2 SWAP1 PUSH4 0xFFFFFFFF AND JUMP JUMPDEST PUSH2 0x96D DUP3 PUSH1 0x7 PUSH1 0x0 CALLER PUSH20 0xFFFFFFFFFFFFFFFFFFFFFFFFFFFFFFFFFFFFFFFF AND PUSH20 0xFFFFFFFFFFFFFFFFFFFFFFFFFFFFFFFFFFFFFFFF AND DUP2 MSTORE PUSH1 0x20 ADD SWAP1 DUP2 MSTORE PUSH1 0x20 ADD PUSH1 0x0 KECCAK256 SLOAD PUSH1 0x6 PUSH1 0x0 CALLER PUSH20 0xFFFFFFFFFFFFFFFFFFFFFFFFFFFFFFFFFFFFFFFF AND PUSH20 0xFFFFFFFFFFFFFFFFFFFFFFFFFFFFFFFFFFFFFFFF AND DUP2 MSTORE PUSH1 0x20 ADD SWAP1 DUP2 MSTORE PUSH1 0x20 ADD PUSH1 0x0 KECCAK256 SLOAD PUSH2 0x30A2 SWAP1 SWAP3 SWAP2 SWAP1 PUSH4 0xFFFFFFFF AND JUMP JUMPDEST PUSH2 0xA51 PUSH1 0x3 DUP1 SLOAD DUP1 PUSH1 0x20 MUL PUSH1 0x20 ADD PUSH1 0x40 MLOAD SWAP1 DUP2 ADD PUSH1 0x40 MSTORE DUP1 SWAP3 SWAP2 SWAP1 DUP2 DUP2 MSTORE PUSH1 0x20 ADD PUSH1 0x0 SWAP1 JUMPDEST DUP3 DUP3 LT ISZERO PUSH2 0xA3E JUMPI DUP4 DUP3 SWAP1 PUSH1 0x0 MSTORE PUSH1 0x20 PUSH1 0x0 KECCAK256 ADD DUP1 SLOAD PUSH2 0x9B1 SWAP1 PUSH2 0x50EB JUMP JUMPDEST DUP1 PUSH1 0x1F ADD PUSH1 0x20 DUP1 SWAP2 DIV MUL PUSH1 0x20 ADD PUSH1 0x40 MLOAD SWAP1 DUP2 ADD PUSH1 0x40 MSTORE DUP1 SWAP3 SWAP2 SWAP1 DUP2 DUP2 MSTORE PUSH1 0x20 ADD DUP3 DUP1 SLOAD PUSH2 0x9DD SWAP1 PUSH2 0x50EB JUMP JUMPDEST DUP1 ISZERO PUSH2 0xA2A JUMPI DUP1 PUSH1 0x1F LT PUSH2 0x9FF JUMPI PUSH2 0x100 DUP1 DUP4 SLOAD DIV MUL DUP4 MSTORE SWAP2 PUSH1 0x20 ADD SWAP2 PUSH2 0xA2A JUMP JUMPDEST DUP3 ADD SWAP2 SWAP1 PUSH1 0x0 MSTORE PUSH1 0x20 PUSH1 0x0 KECCAK256 SWAP1 JUMPDEST DUP2 SLOAD DUP2 MSTORE SWAP1 PUSH1 0x1 ADD SWAP1 PUSH1 0x20 ADD DUP1 DUP4 GT PUSH2 0xA0D JUMPI DUP3 SWAP1 SUB PUSH1 0x1F AND DUP3 ADD SWAP2 JUMPDEST POP POP POP POP POP DUP2 MSTORE PUSH1 0x20 ADD SWAP1 PUSH1 0x1 ADD SWAP1 PUSH2 0x992 JUMP JUMPDEST POP POP POP POP DUP9 PUSH2 0x30F5 SWAP1 SWAP2 SWAP1 PUSH4 0xFFFFFFFF AND JUMP JUMPDEST PUSH2 0xA67 DUP7 PUSH1 0x8 DUP10 PUSH2 0x31CB SWAP1 SWAP3 SWAP2 SWAP1 PUSH4 0xFFFFFFFF AND JUMP JUMPDEST PUSH2 0xA7D DUP6 PUSH1 0x8 DUP10 PUSH2 0x33A5 SWAP1 SWAP3 SWAP2 SWAP1 PUSH4 0xFFFFFFFF AND JUMP JUMPDEST DUP2 PUSH1 0x7 PUSH1 0x0 CALLER PUSH20 0xFFFFFFFFFFFFFFFFFFFFFFFFFFFFFFFFFFFFFFFF AND PUSH20 0xFFFFFFFFFFFFFFFFFFFFFFFFFFFFFFFFFFFFFFFF AND DUP2 MSTORE PUSH1 0x20 ADD SWAP1 DUP2 MSTORE PUSH1 0x20 ADD PUSH1 0x0 KECCAK256 PUSH1 0x0 DUP3 DUP3 SLOAD PUSH2 0xACC SWAP2 SWAP1 PUSH2 0x514B JUMP JUMPDEST SWAP3 POP POP DUP2 SWAP1 SSTORE POP PUSH1 0x2 PUSH1 0x0 DUP2 SLOAD PUSH2 0xAE2 SWAP1 PUSH2 0x517F JUMP JUMPDEST SWAP2 SWAP1 POP DUP2 SWAP1 SSTORE SWAP1 POP PUSH1 0x40 MLOAD DUP1 PUSH2 0x160 ADD PUSH1 0x40 MSTORE DUP1 CALLER PUSH20 0xFFFFFFFFFFFFFFFFFFFFFFFFFFFFFFFFFFFFFFFF AND DUP2 MSTORE PUSH1 0x20 ADD DUP5 PUSH20 0xFFFFFFFFFFFFFFFFFFFFFFFFFFFFFFFFFFFFFFFF AND DUP2 MSTORE PUSH1 0x20 ADD DUP9 DUP2 MSTORE PUSH1 0x20 ADD DUP8 DUP2 MSTORE PUSH1 0x20 ADD DUP7 DUP2 MSTORE PUSH1 0x20 ADD DUP4 DUP2 MSTORE PUSH1 0x20 ADD PUSH1 0x0 DUP2 MSTORE PUSH1 0x20 ADD DUP11 DUP11 DUP1 DUP1 PUSH1 0x1F ADD PUSH1 0x20 DUP1 SWAP2 DIV MUL PUSH1 0x20 ADD PUSH1 0x40 MLOAD SWAP1 DUP2 ADD PUSH1 0x40 MSTORE DUP1 SWAP4 SWAP3 SWAP2 SWAP1 DUP2 DUP2 MSTORE PUSH1 0x20 ADD DUP4 DUP4 DUP1 DUP3 DUP5 CALLDATACOPY PUSH1 0x0 DUP2 DUP5 ADD MSTORE PUSH1 0x1F NOT PUSH1 0x1F DUP3 ADD AND SWAP1 POP DUP1 DUP4 ADD SWAP3 POP POP POP POP POP POP POP DUP2 MSTORE PUSH1 0x20 ADD PUSH1 0x0 ISZERO ISZERO DUP2 MSTORE PUSH1 0x20 ADD PUSH1 0x0 DUP2 MSTORE PUSH1 0x20 ADD DUP4 DUP2 MSTORE POP PUSH1 0x4 PUSH1 0x0 DUP4 DUP2 MSTORE PUSH1 0x20 ADD SWAP1 DUP2 MSTORE PUSH1 0x20 ADD PUSH1 0x0 KECCAK256 PUSH1 0x0 DUP3 ADD MLOAD DUP2 PUSH1 0x0 ADD PUSH1 0x0 PUSH2 0x100 EXP DUP2 SLOAD DUP2 PUSH20 0xFFFFFFFFFFFFFFFFFFFFFFFFFFFFFFFFFFFFFFFF MUL NOT AND SWAP1 DUP4 PUSH20 0xFFFFFFFFFFFFFFFFFFFFFFFFFFFFFFFFFFFFFFFF AND MUL OR SWAP1 SSTORE POP PUSH1 0x20 DUP3 ADD MLOAD DUP2 PUSH1 0x1 ADD PUSH1 0x0 PUSH2 0x100 EXP DUP2 SLOAD DUP2 PUSH20 0xFFFFFFFFFFFFFFFFFFFFFFFFFFFFFFFFFFFFFFFF MUL NOT AND SWAP1 DUP4 PUSH20 0xFFFFFFFFFFFFFFFFFFFFFFFFFFFFFFFFFFFFFFFF AND MUL OR SWAP1 SSTORE POP PUSH1 0x40 DUP3 ADD MLOAD DUP2 PUSH1 0x2 ADD SWAP1 DUP2 PUSH2 0xC61 SWAP2 SWAP1 PUSH2 0x5373 JUMP JUMPDEST POP PUSH1 0x60 DUP3 ADD MLOAD DUP2 PUSH1 0x3 ADD SWAP1 DUP2 PUSH2 0xC77 SWAP2 SWAP1 PUSH2 0x5373 JUMP JUMPDEST POP PUSH1 0x80 DUP3 ADD MLOAD DUP2 PUSH1 0x4 ADD SWAP1 DUP2 PUSH2 0xC8D SWAP2 SWAP1 PUSH2 0x5373 JUMP JUMPDEST POP PUSH1 0xA0 DUP3 ADD MLOAD DUP2 PUSH1 0x5 ADD SSTORE PUSH1 0xC0 DUP3 ADD MLOAD DUP2 PUSH1 0x6 ADD SSTORE PUSH1 0xE0 DUP3 ADD MLOAD DUP2 PUSH1 0x7 ADD SWAP1 DUP2 PUSH2 0xCB7 SWAP2 SWAP1 PUSH2 0x54A0 JUMP JUMPDEST POP PUSH2 0x100 DUP3 ADD MLOAD DUP2 PUSH1 0x8 ADD PUSH1 0x0 PUSH2 0x100 EXP DUP2 SLOAD DUP2 PUSH1 0xFF MUL NOT AND SWAP1 DUP4 ISZERO ISZERO MUL OR SWAP1 SSTORE POP PUSH2 0x120 DUP3 ADD MLOAD DUP2 PUSH1 0x9 ADD SSTORE PUSH2 0x140 DUP3 ADD MLOAD DUP2 PUSH1 0xA ADD SSTORE SWAP1 POP POP DUP3 PUSH20 0xFFFFFFFFFFFFFFFFFFFFFFFFFFFFFFFFFFFFFFFF AND CALLER PUSH20 0xFFFFFFFFFFFFFFFFFFFFFFFFFFFFFFFFFFFFFFFF AND DUP3 PUSH32 0x278FB7E47FFADCED893471EDBC69CF2F112E08A2854CE221FD7B5DD0BB678B1D DUP13 DUP13 DUP13 DUP13 DUP13 DUP13 DUP12 PUSH1 0x40 MLOAD PUSH2 0xD5C SWAP8 SWAP7 SWAP6 SWAP5 SWAP4 SWAP3 SWAP2 SWAP1 PUSH2 0x559F JUMP JUMPDEST PUSH1 0x40 MLOAD DUP1 SWAP2 SUB SWAP1 LOG4 SWAP9 SWAP8 POP POP POP POP POP POP POP POP JUMP JUMPDEST PUSH2 0xD79 DUP3 PUSH2 0x895 JUMP JUMPDEST PUSH2 0xD82 DUP2 PUSH2 0x3580 JUMP JUMPDEST PUSH2 0xD8C DUP4 DUP4 PUSH2 0x3594 JUMP JUMPDEST POP POP POP POP JUMP JUMPDEST PUSH2 0xD9A PUSH2 0x3695 JUMP JUMPDEST PUSH20 0xFFFFFFFFFFFFFFFFFFFFFFFFFFFFFFFFFFFFFFFF AND DUP2 PUSH20 0xFFFFFFFFFFFFFFFFFFFFFFFFFFFFFFFFFFFFFFFF AND EQ PUSH2 0xDFE JUMPI PUSH1 0x40 MLOAD PUSH32 0x6697B23200000000000000000000000000000000000000000000000000000000 DUP2 MSTORE PUSH1 0x4 ADD PUSH1 0x40 MLOAD DUP1 SWAP2 SUB SWAP1 REVERT JUMPDEST PUSH2 0xE08 DUP3 DUP3 PUSH2 0x369D JUMP JUMPDEST POP POP POP JUMP JUMPDEST PUSH1 0x0 PUSH1 0x6 PUSH1 0x0 DUP4 PUSH20 0xFFFFFFFFFFFFFFFFFFFFFFFFFFFFFFFFFFFFFFFF AND PUSH20 0xFFFFFFFFFFFFFFFFFFFFFFFFFFFFFFFFFFFFFFFF AND DUP2 MSTORE PUSH1 0x20 ADD SWAP1 DUP2 MSTORE PUSH1 0x20 ADD PUSH1 0x0 KECCAK256 SLOAD SWAP1 POP SWAP2 SWAP1 POP JUMP JUMPDEST PUSH1 0x60 PUSH2 0xE61 DUP3 PUSH2 0x379F JUMP JUMPDEST PUSH1 0x8 DUP5 DUP5 PUSH1 0x40 MLOAD PUSH2 0xE73 SWAP3 SWAP2 SWAP1 PUSH2 0x564E JUMP JUMPDEST SWAP1 DUP2 MSTORE PUSH1 0x20 ADD PUSH1 0x40 MLOAD DUP1 SWAP2 SUB SWAP1 KECCAK256 PUSH1 0x0 DUP4 DUP2 MSTORE PUSH1 0x20 ADD SWAP1 DUP2 MSTORE PUSH1 0x20 ADD PUSH1 0x0 KECCAK256 DUP1 SLOAD DUP1 PUSH1 0x20 MUL PUSH1 0x20 ADD PUSH1 0x40 MLOAD SWAP1 DUP2 ADD PUSH1 0x40 MSTORE DUP1 SWAP3 SWAP2 SWAP1 DUP2 DUP2 MSTORE PUSH1 0x20 ADD PUSH1 0x0 SWAP1 JUMPDEST DUP3 DUP3 LT ISZERO PUSH2 0xF5E JUMPI DUP4 DUP3 SWAP1 PUSH1 0x0 MSTORE PUSH1 0x20 PUSH1 0x0 KECCAK256 ADD DUP1 SLOAD PUSH2 0xED1 SWAP1 PUSH2 0x50EB JUMP JUMPDEST DUP1 PUSH1 0x1F ADD PUSH1 0x20 DUP1 SWAP2 DIV MUL PUSH1 0x20 ADD PUSH1 0x40 MLOAD SWAP1 DUP2 ADD PUSH1 0x40 MSTORE DUP1 SWAP3 SWAP2 SWAP1 DUP2 DUP2 MSTORE PUSH1 0x20 ADD DUP3 DUP1 SLOAD PUSH2 0xEFD SWAP1 PUSH2 0x50EB JUMP JUMPDEST DUP1 ISZERO PUSH2 0xF4A JUMPI DUP1 PUSH1 0x1F LT PUSH2 0xF1F JUMPI PUSH2 0x100 DUP1 DUP4 SLOAD DIV MUL DUP4 MSTORE SWAP2 PUSH1 0x20 ADD SWAP2 PUSH2 0xF4A JUMP JUMPDEST DUP3 ADD SWAP2 SWAP1 PUSH1 0x0 MSTORE PUSH1 0x20 PUSH1 0x0 KECCAK256 SWAP1 JUMPDEST DUP2 SLOAD DUP2 MSTORE SWAP1 PUSH1 0x1 ADD SWAP1 PUSH1 0x20 ADD DUP1 DUP4 GT PUSH2 0xF2D JUMPI DUP3 SWAP1 SUB PUSH1 0x1F AND DUP3 ADD SWAP2 JUMPDEST POP POP POP POP POP DUP2 MSTORE PUSH1 0x20 ADD SWAP1 PUSH1 0x1 ADD SWAP1 PUSH2 0xEB2 JUMP JUMPDEST POP POP POP POP SWAP1 POP SWAP4 SWAP3 POP POP POP JUMP JUMPDEST PUSH2 0xF73 PUSH2 0x37F0 JUMP JUMPDEST PUSH2 0xF7C DUP3 PUSH2 0x38D6 JUMP JUMPDEST PUSH2 0xF86 DUP3 DUP3 PUSH2 0x3904 JUMP JUMPDEST POP POP JUMP JUMPDEST PUSH2 0x101D PUSH1 0x7 PUSH1 0x0 CALLER PUSH20 0xFFFFFFFFFFFFFFFFFFFFFFFFFFFFFFFFFFFFFFFF AND PUSH20 0xFFFFFFFFFFFFFFFFFFFFFFFFFFFFFFFFFFFFFFFF AND DUP2 MSTORE PUSH1 0x20 ADD SWAP1 DUP2 MSTORE PUSH1 0x20 ADD PUSH1 0x0 KECCAK256 SLOAD DUP3 PUSH1 0x6 PUSH1 0x0 CALLER PUSH20 0xFFFFFFFFFFFFFFFFFFFFFFFFFFFFFFFFFFFFFFFF AND PUSH20 0xFFFFFFFFFFFFFFFFFFFFFFFFFFFFFFFFFFFFFFFF AND DUP2 MSTORE PUSH1 0x20 ADD SWAP1 DUP2 MSTORE PUSH1 0x20 ADD PUSH1 0x0 KECCAK256 SLOAD PUSH2 0x3A23 SWAP1 SWAP3 SWAP2 SWAP1 PUSH4 0xFFFFFFFF AND JUMP JUMPDEST PUSH1 0x0 PUSH1 0x6 PUSH1 0x0 CALLER PUSH20 0xFFFFFFFFFFFFFFFFFFFFFFFFFFFFFFFFFFFFFFFF AND PUSH20 0xFFFFFFFFFFFFFFFFFFFFFFFFFFFFFFFFFFFFFFFF AND DUP2 MSTORE PUSH1 0x20 ADD SWAP1 DUP2 MSTORE PUSH1 0x20 ADD PUSH1 0x0 KECCAK256 SLOAD SWAP1 POP DUP2 PUSH1 0x6 PUSH1 0x0 CALLER PUSH20 0xFFFFFFFFFFFFFFFFFFFFFFFFFFFFFFFFFFFFFFFF AND PUSH20 0xFFFFFFFFFFFFFFFFFFFFFFFFFFFFFFFFFFFFFFFF AND DUP2 MSTORE PUSH1 0x20 ADD SWAP1 DUP2 MSTORE PUSH1 0x20 ADD PUSH1 0x0 KECCAK256 PUSH1 0x0 DUP3 DUP3 SLOAD PUSH2 0x10B0 SWAP2 SWAP1 PUSH2 0x5667 JUMP JUMPDEST SWAP3 POP POP DUP2 SWAP1 SSTORE POP PUSH2 0x115D PUSH1 0x0 DUP1 SLOAD SWAP1 PUSH2 0x100 EXP SWAP1 DIV PUSH20 0xFFFFFFFFFFFFFFFFFFFFFFFFFFFFFFFFFFFFFFFF AND PUSH20 0xFFFFFFFFFFFFFFFFFFFFFFFFFFFFFFFFFFFFFFFF AND PUSH4 0xA9059CBB CALLER DUP6 PUSH1 0x40 MLOAD DUP4 PUSH4 0xFFFFFFFF AND PUSH1 0xE0 SHL DUP2 MSTORE PUSH1 0x4 ADD PUSH2 0x1115 SWAP3 SWAP2 SWAP1 PUSH2 0x569B JUMP JUMPDEST PUSH1 0x20 PUSH1 0x40 MLOAD DUP1 DUP4 SUB DUP2 PUSH1 0x0 DUP8 GAS CALL ISZERO DUP1 ISZERO PUSH2 0x1134 JUMPI RETURNDATASIZE PUSH1 0x0 DUP1 RETURNDATACOPY RETURNDATASIZE PUSH1 0x0 REVERT JUMPDEST POP POP POP POP PUSH1 0x40 MLOAD RETURNDATASIZE PUSH1 0x1F NOT PUSH1 0x1F DUP3 ADD AND DUP3 ADD DUP1 PUSH1 0x40 MSTORE POP DUP2 ADD SWAP1 PUSH2 0x1158 SWAP2 SWAP1 PUSH2 0x56D9 JUMP JUMPDEST PUSH2 0x3A76 JUMP JUMPDEST CALLER PUSH20 0xFFFFFFFFFFFFFFFFFFFFFFFFFFFFFFFFFFFFFFFF AND PUSH32 0x5E00297B9C4F8FEF460C4D7123316EEEB08A64A0930D1D9CAE0B61B7F663B254 DUP3 PUSH1 0x6 PUSH1 0x0 CALLER PUSH20 0xFFFFFFFFFFFFFFFFFFFFFFFFFFFFFFFFFFFFFFFF AND PUSH20 0xFFFFFFFFFFFFFFFFFFFFFFFFFFFFFFFFFFFFFFFF AND DUP2 MSTORE PUSH1 0x20 ADD SWAP1 DUP2 MSTORE PUSH1 0x20 ADD PUSH1 0x0 KECCAK256 SLOAD PUSH1 0x40 MLOAD PUSH2 0x11E4 SWAP3 SWAP2 SWAP1 PUSH2 0x5706 JUMP JUMPDEST PUSH1 0x40 MLOAD DUP1 SWAP2 SUB SWAP1 LOG2 POP POP JUMP JUMPDEST PUSH1 0x0 PUSH2 0x11FA PUSH2 0x3AB9 JUMP JUMPDEST PUSH32 0x360894A13BA1A3210667C828492DB98DCA3E2076CC3735A920A3CA505D382BBC PUSH1 0x0 SHL SWAP1 POP SWAP1 JUMP JUMPDEST PUSH1 0x0 PUSH1 0x4 PUSH1 0x0 DUP5 DUP2 MSTORE PUSH1 0x20 ADD SWAP1 DUP2 MSTORE PUSH1 0x20 ADD PUSH1 0x0 KECCAK256 PUSH1 0x40 MLOAD DUP1 PUSH2 0x160 ADD PUSH1 0x40 MSTORE SWAP1 DUP2 PUSH1 0x0 DUP3 ADD PUSH1 0x0 SWAP1 SLOAD SWAP1 PUSH2 0x100 EXP SWAP1 DIV PUSH20 0xFFFFFFFFFFFFFFFFFFFFFFFFFFFFFFFFFFFFFFFF AND PUSH20 0xFFFFFFFFFFFFFFFFFFFFFFFFFFFFFFFFFFFFFFFF AND PUSH20 0xFFFFFFFFFFFFFFFFFFFFFFFFFFFFFFFFFFFFFFFF AND DUP2 MSTORE PUSH1 0x20 ADD PUSH1 0x1 DUP3 ADD PUSH1 0x0 SWAP1 SLOAD SWAP1 PUSH2 0x100 EXP SWAP1 DIV PUSH20 0xFFFFFFFFFFFFFFFFFFFFFFFFFFFFFFFFFFFFFFFF AND PUSH20 0xFFFFFFFFFFFFFFFFFFFFFFFFFFFFFFFFFFFFFFFF AND PUSH20 0xFFFFFFFFFFFFFFFFFFFFFFFFFFFFFFFFFFFFFFFF AND DUP2 MSTORE PUSH1 0x20 ADD PUSH1 0x2 DUP3 ADD DUP1 SLOAD PUSH2 0x1300 SWAP1 PUSH2 0x50EB JUMP JUMPDEST DUP1 PUSH1 0x1F ADD PUSH1 0x20 DUP1 SWAP2 DIV MUL PUSH1 0x20 ADD PUSH1 0x40 MLOAD SWAP1 DUP2 ADD PUSH1 0x40 MSTORE DUP1 SWAP3 SWAP2 SWAP1 DUP2 DUP2 MSTORE PUSH1 0x20 ADD DUP3 DUP1 SLOAD PUSH2 0x132C SWAP1 PUSH2 0x50EB JUMP JUMPDEST DUP1 ISZERO PUSH2 0x1379 JUMPI DUP1 PUSH1 0x1F LT PUSH2 0x134E JUMPI PUSH2 0x100 DUP1 DUP4 SLOAD DIV MUL DUP4 MSTORE SWAP2 PUSH1 0x20 ADD SWAP2 PUSH2 0x1379 JUMP JUMPDEST DUP3 ADD SWAP2 SWAP1 PUSH1 0x0 MSTORE PUSH1 0x20 PUSH1 0x0 KECCAK256 SWAP1 JUMPDEST DUP2 SLOAD DUP2 MSTORE SWAP1 PUSH1 0x1 ADD SWAP1 PUSH1 0x20 ADD DUP1 DUP4 GT PUSH2 0x135C JUMPI DUP3 SWAP1 SUB PUSH1 0x1F AND DUP3 ADD SWAP2 JUMPDEST POP POP POP POP POP DUP2 MSTORE PUSH1 0x20 ADD PUSH1 0x3 DUP3 ADD DUP1 SLOAD PUSH2 0x1392 SWAP1 PUSH2 0x50EB JUMP JUMPDEST DUP1 PUSH1 0x1F ADD PUSH1 0x20 DUP1 SWAP2 DIV MUL PUSH1 0x20 ADD PUSH1 0x40 MLOAD SWAP1 DUP2 ADD PUSH1 0x40 MSTORE DUP1 SWAP3 SWAP2 SWAP1 DUP2 DUP2 MSTORE PUSH1 0x20 ADD DUP3 DUP1 SLOAD PUSH2 0x13BE SWAP1 PUSH2 0x50EB JUMP JUMPDEST DUP1 ISZERO PUSH2 0x140B JUMPI DUP1 PUSH1 0x1F LT PUSH2 0x13E0 JUMPI PUSH2 0x100 DUP1 DUP4 SLOAD DIV MUL DUP4 MSTORE SWAP2 PUSH1 0x20 ADD SWAP2 PUSH2 0x140B JUMP JUMPDEST DUP3 ADD SWAP2 SWAP1 PUSH1 0x0 MSTORE PUSH1 0x20 PUSH1 0x0 KECCAK256 SWAP1 JUMPDEST DUP2 SLOAD DUP2 MSTORE SWAP1 PUSH1 0x1 ADD SWAP1 PUSH1 0x20 ADD DUP1 DUP4 GT PUSH2 0x13EE JUMPI DUP3 SWAP1 SUB PUSH1 0x1F AND DUP3 ADD SWAP2 JUMPDEST POP POP POP POP POP DUP2 MSTORE PUSH1 0x20 ADD PUSH1 0x4 DUP3 ADD DUP1 SLOAD PUSH2 0x1424 SWAP1 PUSH2 0x50EB JUMP JUMPDEST DUP1 PUSH1 0x1F ADD PUSH1 0x20 DUP1 SWAP2 DIV MUL PUSH1 0x20 ADD PUSH1 0x40 MLOAD SWAP1 DUP2 ADD PUSH1 0x40 MSTORE DUP1 SWAP3 SWAP2 SWAP1 DUP2 DUP2 MSTORE PUSH1 0x20 ADD DUP3 DUP1 SLOAD PUSH2 0x1450 SWAP1 PUSH2 0x50EB JUMP JUMPDEST DUP1 ISZERO PUSH2 0x149D JUMPI DUP1 PUSH1 0x1F LT PUSH2 0x1472 JUMPI PUSH2 0x100 DUP1 DUP4 SLOAD DIV MUL DUP4 MSTORE SWAP2 PUSH1 0x20 ADD SWAP2 PUSH2 0x149D JUMP JUMPDEST DUP3 ADD SWAP2 SWAP1 PUSH1 0x0 MSTORE PUSH1 0x20 PUSH1 0x0 KECCAK256 SWAP1 JUMPDEST DUP2 SLOAD DUP2 MSTORE SWAP1 PUSH1 0x1 ADD SWAP1 PUSH1 0x20 ADD DUP1 DUP4 GT PUSH2 0x1480 JUMPI DUP3 SWAP1 SUB PUSH1 0x1F AND DUP3 ADD SWAP2 JUMPDEST POP POP POP POP POP DUP2 MSTORE PUSH1 0x20 ADD PUSH1 0x5 DUP3 ADD SLOAD DUP2 MSTORE PUSH1 0x20 ADD PUSH1 0x6 DUP3 ADD SLOAD DUP2 MSTORE PUSH1 0x20 ADD PUSH1 0x7 DUP3 ADD DUP1 SLOAD PUSH2 0x14CA SWAP1 PUSH2 0x50EB JUMP JUMPDEST DUP1 PUSH1 0x1F ADD PUSH1 0x20 DUP1 SWAP2 DIV MUL PUSH1 0x20 ADD PUSH1 0x40 MLOAD SWAP1 DUP2 ADD PUSH1 0x40 MSTORE DUP1 SWAP3 SWAP2 SWAP1 DUP2 DUP2 MSTORE PUSH1 0x20 ADD DUP3 DUP1 SLOAD PUSH2 0x14F6 SWAP1 PUSH2 0x50EB JUMP JUMPDEST DUP1 ISZERO PUSH2 0x1543 JUMPI DUP1 PUSH1 0x1F LT PUSH2 0x1518 JUMPI PUSH2 0x100 DUP1 DUP4 SLOAD DIV MUL DUP4 MSTORE SWAP2 PUSH1 0x20 ADD SWAP2 PUSH2 0x1543 JUMP JUMPDEST DUP3 ADD SWAP2 SWAP1 PUSH1 0x0 MSTORE PUSH1 0x20 PUSH1 0x0 KECCAK256 SWAP1 JUMPDEST DUP2 SLOAD DUP2 MSTORE SWAP1 PUSH1 0x1 ADD SWAP1 PUSH1 0x20 ADD DUP1 DUP4 GT PUSH2 0x1526 JUMPI DUP3 SWAP1 SUB PUSH1 0x1F AND DUP3 ADD SWAP2 JUMPDEST POP POP POP POP POP DUP2 MSTORE PUSH1 0x20 ADD PUSH1 0x8 DUP3 ADD PUSH1 0x0 SWAP1 SLOAD SWAP1 PUSH2 0x100 EXP SWAP1 DIV PUSH1 0xFF AND ISZERO ISZERO ISZERO ISZERO DUP2 MSTORE PUSH1 0x20 ADD PUSH1 0x9 DUP3 ADD SLOAD DUP2 MSTORE PUSH1 0x20 ADD PUSH1 0xA DUP3 ADD SLOAD DUP2 MSTORE POP POP SWAP1 POP PUSH2 0x158D DUP2 PUSH2 0x100 ADD MLOAD ISZERO ISZERO PUSH2 0x3B40 JUMP JUMPDEST PUSH2 0x1620 DUP3 PUSH1 0x7 PUSH1 0x0 CALLER PUSH20 0xFFFFFFFFFFFFFFFFFFFFFFFFFFFFFFFFFFFFFFFF AND PUSH20 0xFFFFFFFFFFFFFFFFFFFFFFFFFFFFFFFFFFFFFFFF AND DUP2 MSTORE PUSH1 0x20 ADD SWAP1 DUP2 MSTORE PUSH1 0x20 ADD PUSH1 0x0 KECCAK256 SLOAD PUSH1 0x6 PUSH1 0x0 CALLER PUSH20 0xFFFFFFFFFFFFFFFFFFFFFFFFFFFFFFFFFFFFFFFF AND PUSH20 0xFFFFFFFFFFFFFFFFFFFFFFFFFFFFFFFFFFFFFFFF AND DUP2 MSTORE PUSH1 0x20 ADD SWAP1 DUP2 MSTORE PUSH1 0x20 ADD PUSH1 0x0 KECCAK256 SLOAD PUSH2 0x30A2 SWAP1 SWAP3 SWAP2 SWAP1 PUSH4 0xFFFFFFFF AND JUMP JUMPDEST DUP2 PUSH1 0x7 PUSH1 0x0 CALLER PUSH20 0xFFFFFFFFFFFFFFFFFFFFFFFFFFFFFFFFFFFFFFFF AND PUSH20 0xFFFFFFFFFFFFFFFFFFFFFFFFFFFFFFFFFFFFFFFF AND DUP2 MSTORE PUSH1 0x20 ADD SWAP1 DUP2 MSTORE PUSH1 0x20 ADD PUSH1 0x0 KECCAK256 PUSH1 0x0 DUP3 DUP3 SLOAD PUSH2 0x166F SWAP2 SWAP1 PUSH2 0x514B JUMP JUMPDEST SWAP3 POP POP DUP2 SWAP1 SSTORE POP DUP2 DUP2 PUSH2 0x140 ADD DUP2 DUP2 MLOAD PUSH2 0x1689 SWAP2 SWAP1 PUSH2 0x514B JUMP JUMPDEST SWAP2 POP DUP2 DUP2 MSTORE POP POP DUP2 DUP2 PUSH1 0xA0 ADD DUP2 DUP2 MLOAD PUSH2 0x16A2 SWAP2 SWAP1 PUSH2 0x514B JUMP JUMPDEST SWAP2 POP DUP2 DUP2 MSTORE POP POP DUP1 PUSH1 0x4 PUSH1 0x0 DUP6 DUP2 MSTORE PUSH1 0x20 ADD SWAP1 DUP2 MSTORE PUSH1 0x20 ADD PUSH1 0x0 KECCAK256 PUSH1 0x0 DUP3 ADD MLOAD DUP2 PUSH1 0x0 ADD PUSH1 0x0 PUSH2 0x100 EXP DUP2 SLOAD DUP2 PUSH20 0xFFFFFFFFFFFFFFFFFFFFFFFFFFFFFFFFFFFFFFFF MUL NOT AND SWAP1 DUP4 PUSH20 0xFFFFFFFFFFFFFFFFFFFFFFFFFFFFFFFFFFFFFFFF AND MUL OR SWAP1 SSTORE POP PUSH1 0x20 DUP3 ADD MLOAD DUP2 PUSH1 0x1 ADD PUSH1 0x0 PUSH2 0x100 EXP DUP2 SLOAD DUP2 PUSH20 0xFFFFFFFFFFFFFFFFFFFFFFFFFFFFFFFFFFFFFFFF MUL NOT AND SWAP1 DUP4 PUSH20 0xFFFFFFFFFFFFFFFFFFFFFFFFFFFFFFFFFFFFFFFF AND MUL OR SWAP1 SSTORE POP PUSH1 0x40 DUP3 ADD MLOAD DUP2 PUSH1 0x2 ADD SWAP1 DUP2 PUSH2 0x1760 SWAP2 SWAP1 PUSH2 0x5373 JUMP JUMPDEST POP PUSH1 0x60 DUP3 ADD MLOAD DUP2 PUSH1 0x3 ADD SWAP1 DUP2 PUSH2 0x1776 SWAP2 SWAP1 PUSH2 0x5373 JUMP JUMPDEST POP PUSH1 0x80 DUP3 ADD MLOAD DUP2 PUSH1 0x4 ADD SWAP1 DUP2 PUSH2 0x178C SWAP2 SWAP1 PUSH2 0x5373 JUMP JUMPDEST POP PUSH1 0xA0 DUP3 ADD MLOAD DUP2 PUSH1 0x5 ADD SSTORE PUSH1 0xC0 DUP3 ADD MLOAD DUP2 PUSH1 0x6 ADD SSTORE PUSH1 0xE0 DUP3 ADD MLOAD DUP2 PUSH1 0x7 ADD SWAP1 DUP2 PUSH2 0x17B6 SWAP2 SWAP1 PUSH2 0x54A0 JUMP JUMPDEST POP PUSH2 0x100 DUP3 ADD MLOAD DUP2 PUSH1 0x8 ADD PUSH1 0x0 PUSH2 0x100 EXP DUP2 SLOAD DUP2 PUSH1 0xFF MUL NOT AND SWAP1 DUP4 ISZERO ISZERO MUL OR SWAP1 SSTORE POP PUSH2 0x120 DUP3 ADD MLOAD DUP2 PUSH1 0x9 ADD SSTORE PUSH2 0x140 DUP3 ADD MLOAD DUP2 PUSH1 0xA ADD SSTORE SWAP1 POP POP DUP3 PUSH32 0x4A6BD0FC9D177687CF47BB50BEDF10278FA3A313D12EE5498CE9478DCCB41B84 DUP4 DUP4 PUSH1 0xA0 ADD MLOAD PUSH1 0x40 MLOAD PUSH2 0x1827 SWAP3 SWAP2 SWAP1 PUSH2 0x5706 JUMP JUMPDEST PUSH1 0x40 MLOAD DUP1 SWAP2 SUB SWAP1 LOG2 POP POP POP JUMP JUMPDEST PUSH1 0x0 DUP1 SHL PUSH2 0x1841 DUP2 PUSH2 0x3580 JUMP JUMPDEST PUSH1 0x0 JUMPDEST DUP4 DUP4 SWAP1 POP DUP2 LT ISZERO PUSH2 0x18AD JUMPI DUP4 DUP4 DUP3 DUP2 DUP2 LT PUSH2 0x1862 JUMPI PUSH2 0x1861 PUSH2 0x572F JUMP JUMPDEST JUMPDEST SWAP1 POP PUSH1 0x20 MUL DUP2 ADD SWAP1 PUSH2 0x1874 SWAP2 SWAP1 PUSH2 0x576D JUMP JUMPDEST PUSH1 0x3 DUP4 DUP2 SLOAD DUP2 LT PUSH2 0x1888 JUMPI PUSH2 0x1887 PUSH2 0x572F JUMP JUMPDEST JUMPDEST SWAP1 PUSH1 0x0 MSTORE PUSH1 0x20 PUSH1 0x0 KECCAK256 ADD SWAP2 DUP3 PUSH2 0x189F SWAP3 SWAP2 SWAP1 PUSH2 0x57DB JUMP JUMPDEST POP DUP1 DUP1 PUSH1 0x1 ADD SWAP2 POP POP PUSH2 0x1844 JUMP JUMPDEST POP JUMPDEST DUP3 DUP3 SWAP1 POP PUSH1 0x3 DUP1 SLOAD SWAP1 POP GT ISZERO PUSH2 0x18F4 JUMPI PUSH1 0x3 DUP1 SLOAD DUP1 PUSH2 0x18D1 JUMPI PUSH2 0x18D0 PUSH2 0x58AB JUMP JUMPDEST JUMPDEST PUSH1 0x1 SWAP1 SUB DUP2 DUP2 SWAP1 PUSH1 0x0 MSTORE PUSH1 0x20 PUSH1 0x0 KECCAK256 ADD PUSH1 0x0 PUSH2 0x18ED SWAP2 SWAP1 PUSH2 0x4127 JUMP JUMPDEST SWAP1 SSTORE PUSH2 0x18AF JUMP JUMPDEST POP POP POP JUMP JUMPDEST PUSH1 0x4 PUSH1 0x20 MSTORE DUP1 PUSH1 0x0 MSTORE PUSH1 0x40 PUSH1 0x0 KECCAK256 PUSH1 0x0 SWAP2 POP SWAP1 POP DUP1 PUSH1 0x0 ADD PUSH1 0x0 SWAP1 SLOAD SWAP1 PUSH2 0x100 EXP SWAP1 DIV PUSH20 0xFFFFFFFFFFFFFFFFFFFFFFFFFFFFFFFFFFFFFFFF AND SWAP1 DUP1 PUSH1 0x1 ADD PUSH1 0x0 SWAP1 SLOAD SWAP1 PUSH2 0x100 EXP SWAP1 DIV PUSH20 0xFFFFFFFFFFFFFFFFFFFFFFFFFFFFFFFFFFFFFFFF AND SWAP1 DUP1 PUSH1 0x2 ADD DUP1 SLOAD PUSH2 0x1968 SWAP1 PUSH2 0x50EB JUMP JUMPDEST DUP1 PUSH1 0x1F ADD PUSH1 0x20 DUP1 SWAP2 DIV MUL PUSH1 0x20 ADD PUSH1 0x40 MLOAD SWAP1 DUP2 ADD PUSH1 0x40 MSTORE DUP1 SWAP3 SWAP2 SWAP1 DUP2 DUP2 MSTORE PUSH1 0x20 ADD DUP3 DUP1 SLOAD PUSH2 0x1994 SWAP1 PUSH2 0x50EB JUMP JUMPDEST DUP1 ISZERO PUSH2 0x19E1 JUMPI DUP1 PUSH1 0x1F LT PUSH2 0x19B6 JUMPI PUSH2 0x100 DUP1 DUP4 SLOAD DIV MUL DUP4 MSTORE SWAP2 PUSH1 0x20 ADD SWAP2 PUSH2 0x19E1 JUMP JUMPDEST DUP3 ADD SWAP2 SWAP1 PUSH1 0x0 MSTORE PUSH1 0x20 PUSH1 0x0 KECCAK256 SWAP1 JUMPDEST DUP2 SLOAD DUP2 MSTORE SWAP1 PUSH1 0x1 ADD SWAP1 PUSH1 0x20 ADD DUP1 DUP4 GT PUSH2 0x19C4 JUMPI DUP3 SWAP1 SUB PUSH1 0x1F AND DUP3 ADD SWAP2 JUMPDEST POP POP POP POP POP SWAP1 DUP1 PUSH1 0x3 ADD DUP1 SLOAD PUSH2 0x19F6 SWAP1 PUSH2 0x50EB JUMP JUMPDEST DUP1 PUSH1 0x1F ADD PUSH1 0x20 DUP1 SWAP2 DIV MUL PUSH1 0x20 ADD PUSH1 0x40 MLOAD SWAP1 DUP2 ADD PUSH1 0x40 MSTORE DUP1 SWAP3 SWAP2 SWAP1 DUP2 DUP2 MSTORE PUSH1 0x20 ADD DUP3 DUP1 SLOAD PUSH2 0x1A22 SWAP1 PUSH2 0x50EB JUMP JUMPDEST DUP1 ISZERO PUSH2 0x1A6F JUMPI DUP1 PUSH1 0x1F LT PUSH2 0x1A44 JUMPI PUSH2 0x100 DUP1 DUP4 SLOAD DIV MUL DUP4 MSTORE SWAP2 PUSH1 0x20 ADD SWAP2 PUSH2 0x1A6F JUMP JUMPDEST DUP3 ADD SWAP2 SWAP1 PUSH1 0x0 MSTORE PUSH1 0x20 PUSH1 0x0 KECCAK256 SWAP1 JUMPDEST DUP2 SLOAD DUP2 MSTORE SWAP1 PUSH1 0x1 ADD SWAP1 PUSH1 0x20 ADD DUP1 DUP4 GT PUSH2 0x1A52 JUMPI DUP3 SWAP1 SUB PUSH1 0x1F AND DUP3 ADD SWAP2 JUMPDEST POP POP POP POP POP SWAP1 DUP1 PUSH1 0x4 ADD DUP1 SLOAD PUSH2 0x1A84 SWAP1 PUSH2 0x50EB JUMP JUMPDEST DUP1 PUSH1 0x1F ADD PUSH1 0x20 DUP1 SWAP2 DIV MUL PUSH1 0x20 ADD PUSH1 0x40 MLOAD SWAP1 DUP2 ADD PUSH1 0x40 MSTORE DUP1 SWAP3 SWAP2 SWAP1 DUP2 DUP2 MSTORE PUSH1 0x20 ADD DUP3 DUP1 SLOAD PUSH2 0x1AB0 SWAP1 PUSH2 0x50EB JUMP JUMPDEST DUP1 ISZERO PUSH2 0x1AFD JUMPI DUP1 PUSH1 0x1F LT PUSH2 0x1AD2 JUMPI PUSH2 0x100 DUP1 DUP4 SLOAD DIV MUL DUP4 MSTORE SWAP2 PUSH1 0x20 ADD SWAP2 PUSH2 0x1AFD JUMP JUMPDEST DUP3 ADD SWAP2 SWAP1 PUSH1 0x0 MSTORE PUSH1 0x20 PUSH1 0x0 KECCAK256 SWAP1 JUMPDEST DUP2 SLOAD DUP2 MSTORE SWAP1 PUSH1 0x1 ADD SWAP1 PUSH1 0x20 ADD DUP1 DUP4 GT PUSH2 0x1AE0 JUMPI DUP3 SWAP1 SUB PUSH1 0x1F AND DUP3 ADD SWAP2 JUMPDEST POP POP POP POP POP SWAP1 DUP1 PUSH1 0x5 ADD SLOAD SWAP1 DUP1 PUSH1 0x6 ADD SLOAD SWAP1 DUP1 PUSH1 0x7 ADD DUP1 SLOAD PUSH2 0x1B1E SWAP1 PUSH2 0x50EB JUMP JUMPDEST DUP1 PUSH1 0x1F ADD PUSH1 0x20 DUP1 SWAP2 DIV MUL PUSH1 0x20 ADD PUSH1 0x40 MLOAD SWAP1 DUP2 ADD PUSH1 0x40 MSTORE DUP1 SWAP3 SWAP2 SWAP1 DUP2 DUP2 MSTORE PUSH1 0x20 ADD DUP3 DUP1 SLOAD PUSH2 0x1B4A SWAP1 PUSH2 0x50EB JUMP JUMPDEST DUP1 ISZERO PUSH2 0x1B97 JUMPI DUP1 PUSH1 0x1F LT PUSH2 0x1B6C JUMPI PUSH2 0x100 DUP1 DUP4 SLOAD DIV MUL DUP4 MSTORE SWAP2 PUSH1 0x20 ADD SWAP2 PUSH2 0x1B97 JUMP JUMPDEST DUP3 ADD SWAP2 SWAP1 PUSH1 0x0 MSTORE PUSH1 0x20 PUSH1 0x0 KECCAK256 SWAP1 JUMPDEST DUP2 SLOAD DUP2 MSTORE SWAP1 PUSH1 0x1 ADD SWAP1 PUSH1 0x20 ADD DUP1 DUP4 GT PUSH2 0x1B7A JUMPI DUP3 SWAP1 SUB PUSH1 0x1F AND DUP3 ADD SWAP2 JUMPDEST POP POP POP POP POP SWAP1 DUP1 PUSH1 0x8 ADD PUSH1 0x0 SWAP1 SLOAD SWAP1 PUSH2 0x100 EXP SWAP1 DIV PUSH1 0xFF AND SWAP1 DUP1 PUSH1 0x9 ADD SLOAD SWAP1 DUP1 PUSH1 0xA ADD SLOAD SWAP1 POP DUP12 JUMP JUMPDEST PUSH1 0x0 DUP1 SHL PUSH2 0x1BCD DUP2 PUSH2 0x3580 JUMP JUMPDEST PUSH1 0x0 PUSH1 0x8 DUP8 DUP8 PUSH1 0x40 MLOAD PUSH2 0x1BE1 SWAP3 SWAP2 SWAP1 PUSH2 0x564E JUMP JUMPDEST SWAP1 DUP2 MSTORE PUSH1 0x20 ADD PUSH1 0x40 MLOAD DUP1 SWAP2 SUB SWAP1 KECCAK256 PUSH1 0x0 DUP7 DUP2 MSTORE PUSH1 0x20 ADD SWAP1 DUP2 MSTORE PUSH1 0x20 ADD PUSH1 0x0 KECCAK256 SWAP1 POP JUMPDEST DUP4 DUP4 SWAP1 POP DUP2 DUP1 SLOAD SWAP1 POP GT ISZERO PUSH2 0x1C46 JUMPI DUP1 DUP1 SLOAD DUP1 PUSH2 0x1C23 JUMPI PUSH2 0x1C22 PUSH2 0x58AB JUMP JUMPDEST JUMPDEST PUSH1 0x1 SWAP1 SUB DUP2 DUP2 SWAP1 PUSH1 0x0 MSTORE PUSH1 0x20 PUSH1 0x0 KECCAK256 ADD PUSH1 0x0 PUSH2 0x1C3F SWAP2 SWAP1 PUSH2 0x4127 JUMP JUMPDEST SWAP1 SSTORE PUSH2 0x1C03 JUMP JUMPDEST PUSH2 0x1C53 DUP8 DUP8 DUP7 DUP7 DUP10 PUSH2 0x3B84 JUMP JUMPDEST POP POP POP POP POP POP POP JUMP JUMPDEST PUSH1 0x60 PUSH1 0x3 DUP1 SLOAD DUP1 PUSH1 0x20 MUL PUSH1 0x20 ADD PUSH1 0x40 MLOAD SWAP1 DUP2 ADD PUSH1 0x40 MSTORE DUP1 SWAP3 SWAP2 SWAP1 DUP2 DUP2 MSTORE PUSH1 0x20 ADD PUSH1 0x0 SWAP1 JUMPDEST DUP3 DUP3 LT ISZERO PUSH2 0x1D2C JUMPI DUP4 DUP3 SWAP1 PUSH1 0x0 MSTORE PUSH1 0x20 PUSH1 0x0 KECCAK256 ADD DUP1 SLOAD PUSH2 0x1C9F SWAP1 PUSH2 0x50EB JUMP JUMPDEST DUP1 PUSH1 0x1F ADD PUSH1 0x20 DUP1 SWAP2 DIV MUL PUSH1 0x20 ADD PUSH1 0x40 MLOAD SWAP1 DUP2 ADD PUSH1 0x40 MSTORE DUP1 SWAP3 SWAP2 SWAP1 DUP2 DUP2 MSTORE PUSH1 0x20 ADD DUP3 DUP1 SLOAD PUSH2 0x1CCB SWAP1 PUSH2 0x50EB JUMP JUMPDEST DUP1 ISZERO PUSH2 0x1D18 JUMPI DUP1 PUSH1 0x1F LT PUSH2 0x1CED JUMPI PUSH2 0x100 DUP1 DUP4 SLOAD DIV MUL DUP4 MSTORE SWAP2 PUSH1 0x20 ADD SWAP2 PUSH2 0x1D18 JUMP JUMPDEST DUP3 ADD SWAP2 SWAP1 PUSH1 0x0 MSTORE PUSH1 0x20 PUSH1 0x0 KECCAK256 SWAP1 JUMPDEST DUP2 SLOAD DUP2 MSTORE SWAP1 PUSH1 0x1 ADD SWAP1 PUSH1 0x20 ADD DUP1 DUP4 GT PUSH2 0x1CFB JUMPI DUP3 SWAP1 SUB PUSH1 0x1F AND DUP3 ADD SWAP2 JUMPDEST POP POP POP POP POP DUP2 MSTORE PUSH1 0x20 ADD SWAP1 PUSH1 0x1 ADD SWAP1 PUSH2 0x1C80 JUMP JUMPDEST POP POP POP POP SWAP1 POP SWAP1 JUMP JUMPDEST PUSH1 0x0 DUP1 PUSH2 0x1D40 PUSH2 0x3033 JUMP JUMPDEST SWAP1 POP DUP1 PUSH1 0x0 ADD PUSH1 0x0 DUP6 DUP2 MSTORE PUSH1 0x20 ADD SWAP1 DUP2 MSTORE PUSH1 0x20 ADD PUSH1 0x0 KECCAK256 PUSH1 0x0 ADD PUSH1 0x0 DUP5 PUSH20 0xFFFFFFFFFFFFFFFFFFFFFFFFFFFFFFFFFFFFFFFF AND PUSH20 0xFFFFFFFFFFFFFFFFFFFFFFFFFFFFFFFFFFFFFFFF AND DUP2 MSTORE PUSH1 0x20 ADD SWAP1 DUP2 MSTORE PUSH1 0x20 ADD PUSH1 0x0 KECCAK256 PUSH1 0x0 SWAP1 SLOAD SWAP1 PUSH2 0x100 EXP SWAP1 DIV PUSH1 0xFF AND SWAP2 POP POP SWAP3 SWAP2 POP POP JUMP JUMPDEST PUSH1 0x2 SLOAD DUP2 JUMP JUMPDEST PUSH32 0xDA1A6A1AED77F7562F9A85EA42F27E4CA1C512764F45E356D169B80C12A93A65 DUP2 JUMP JUMPDEST PUSH1 0x0 DUP1 SHL DUP2 JUMP JUMPDEST PUSH1 0x40 MLOAD DUP1 PUSH1 0x40 ADD PUSH1 0x40 MSTORE DUP1 PUSH1 0x5 DUP2 MSTORE PUSH1 0x20 ADD PUSH32 0x352E302E30000000000000000000000000000000000000000000000000000000 DUP2 MSTORE POP DUP2 JUMP JUMPDEST PUSH1 0x0 PUSH1 0x4 PUSH1 0x0 DUP4 DUP2 MSTORE PUSH1 0x20 ADD SWAP1 DUP2 MSTORE PUSH1 0x20 ADD PUSH1 0x0 KECCAK256 PUSH1 0x9 ADD SLOAD SWAP1 POP SWAP2 SWAP1 POP JUMP JUMPDEST PUSH2 0x1ECB PUSH1 0x7 PUSH1 0x0 CALLER PUSH20 0xFFFFFFFFFFFFFFFFFFFFFFFFFFFFFFFFFFFFFFFF AND PUSH20 0xFFFFFFFFFFFFFFFFFFFFFFFFFFFFFFFFFFFFFFFF AND DUP2 MSTORE PUSH1 0x20 ADD SWAP1 DUP2 MSTORE PUSH1 0x20 ADD PUSH1 0x0 KECCAK256 SLOAD DUP4 PUSH1 0x6 PUSH1 0x0 CALLER PUSH20 0xFFFFFFFFFFFFFFFFFFFFFFFFFFFFFFFFFFFFFFFF AND PUSH20 0xFFFFFFFFFFFFFFFFFFFFFFFFFFFFFFFFFFFFFFFF AND DUP2 MSTORE PUSH1 0x20 ADD SWAP1 DUP2 MSTORE PUSH1 0x20 ADD PUSH1 0x0 KECCAK256 SLOAD PUSH2 0x3A23 SWAP1 SWAP3 SWAP2 SWAP1 PUSH4 0xFFFFFFFF AND JUMP JUMPDEST PUSH1 0x0 PUSH1 0x6 PUSH1 0x0 CALLER PUSH20 0xFFFFFFFFFFFFFFFFFFFFFFFFFFFFFFFFFFFFFFFF AND PUSH20 0xFFFFFFFFFFFFFFFFFFFFFFFFFFFFFFFFFFFFFFFF AND DUP2 MSTORE PUSH1 0x20 ADD SWAP1 DUP2 MSTORE PUSH1 0x20 ADD PUSH1 0x0 KECCAK256 SLOAD SWAP1 POP DUP3 PUSH1 0x6 PUSH1 0x0 CALLER PUSH20 0xFFFFFFFFFFFFFFFFFFFFFFFFFFFFFFFFFFFFFFFF AND PUSH20 0xFFFFFFFFFFFFFFFFFFFFFFFFFFFFFFFFFFFFFFFF AND DUP2 MSTORE PUSH1 0x20 ADD SWAP1 DUP2 MSTORE PUSH1 0x20 ADD PUSH1 0x0 KECCAK256 PUSH1 0x0 DUP3 DUP3 SLOAD PUSH2 0x1F5E SWAP2 SWAP1 PUSH2 0x5667 JUMP JUMPDEST SWAP3 POP POP DUP2 SWAP1 SSTORE POP PUSH2 0x200B PUSH1 0x0 DUP1 SLOAD SWAP1 PUSH2 0x100 EXP SWAP1 DIV PUSH20 0xFFFFFFFFFFFFFFFFFFFFFFFFFFFFFFFFFFFFFFFF AND PUSH20 0xFFFFFFFFFFFFFFFFFFFFFFFFFFFFFFFFFFFFFFFF AND PUSH4 0xA9059CBB DUP5 DUP7 PUSH1 0x40 MLOAD DUP4 PUSH4 0xFFFFFFFF AND PUSH1 0xE0 SHL DUP2 MSTORE PUSH1 0x4 ADD PUSH2 0x1FC3 SWAP3 SWAP2 SWAP1 PUSH2 0x569B JUMP JUMPDEST PUSH1 0x20 PUSH1 0x40 MLOAD DUP1 DUP4 SUB DUP2 PUSH1 0x0 DUP8 GAS CALL ISZERO DUP1 ISZERO PUSH2 0x1FE2 JUMPI RETURNDATASIZE PUSH1 0x0 DUP1 RETURNDATACOPY RETURNDATASIZE PUSH1 0x0 REVERT JUMPDEST POP POP POP POP PUSH1 0x40 MLOAD RETURNDATASIZE PUSH1 0x1F NOT PUSH1 0x1F DUP3 ADD AND DUP3 ADD DUP1 PUSH1 0x40 MSTORE POP DUP2 ADD SWAP1 PUSH2 0x2006 SWAP2 SWAP1 PUSH2 0x56D9 JUMP JUMPDEST PUSH2 0x3A76 JUMP JUMPDEST CALLER PUSH20 0xFFFFFFFFFFFFFFFFFFFFFFFFFFFFFFFFFFFFFFFF AND PUSH32 0x5E00297B9C4F8FEF460C4D7123316EEEB08A64A0930D1D9CAE0B61B7F663B254 DUP3 PUSH1 0x6 PUSH1 0x0 CALLER PUSH20 0xFFFFFFFFFFFFFFFFFFFFFFFFFFFFFFFFFFFFFFFF AND PUSH20 0xFFFFFFFFFFFFFFFFFFFFFFFFFFFFFFFFFFFFFFFF AND DUP2 MSTORE PUSH1 0x20 ADD SWAP1 DUP2 MSTORE PUSH1 0x20 ADD PUSH1 0x0 KECCAK256 SLOAD PUSH1 0x40 MLOAD PUSH2 0x2092 SWAP3 SWAP2 SWAP1 PUSH2 0x5706 JUMP JUMPDEST PUSH1 0x40 MLOAD DUP1 SWAP2 SUB SWAP1 LOG2 POP POP POP JUMP JUMPDEST PUSH1 0x1 SLOAD DUP2 JUMP JUMPDEST PUSH1 0x0 DUP1 SHL PUSH2 0x20B2 DUP2 PUSH2 0x3580 JUMP JUMPDEST DUP2 PUSH1 0x1 DUP2 SWAP1 SSTORE POP POP POP JUMP JUMPDEST PUSH1 0x0 DUP1 SLOAD SWAP1 PUSH2 0x100 EXP SWAP1 DIV PUSH20 0xFFFFFFFFFFFFFFFFFFFFFFFFFFFFFFFFFFFFFFFF AND DUP2 JUMP JUMPDEST PUSH1 0x5 PUSH1 0x20 MSTORE DUP2 PUSH1 0x0 MSTORE PUSH1 0x40 PUSH1 0x0 KECCAK256 DUP2 DUP2 SLOAD DUP2 LT PUSH2 0x20FD JUMPI PUSH1 0x0 DUP1 REVERT JUMPDEST SWAP1 PUSH1 0x0 MSTORE PUSH1 0x20 PUSH1 0x0 KECCAK256 ADD PUSH1 0x0 SWAP2 POP SWAP2 POP POP SLOAD DUP2 JUMP JUMPDEST PUSH2 0x211B DUP3 PUSH2 0x895 JUMP JUMPDEST PUSH2 0x2124 DUP2 PUSH2 0x3580 JUMP JUMPDEST PUSH2 0x212E DUP4 DUP4 PUSH2 0x369D JUMP JUMPDEST POP POP POP POP JUMP JUMPDEST PUSH32 0xDA1A6A1AED77F7562F9A85EA42F27E4CA1C512764F45E356D169B80C12A93A65 PUSH2 0x215E DUP2 PUSH2 0x3580 JUMP JUMPDEST PUSH1 0x0 PUSH1 0x4 PUSH1 0x0 DUP10 DUP2 MSTORE PUSH1 0x20 ADD SWAP1 DUP2 MSTORE PUSH1 0x20 ADD PUSH1 0x0 KECCAK256 PUSH1 0x40 MLOAD DUP1 PUSH2 0x160 ADD PUSH1 0x40 MSTORE SWAP1 DUP2 PUSH1 0x0 DUP3 ADD PUSH1 0x0 SWAP1 SLOAD SWAP1 PUSH2 0x100 EXP SWAP1 DIV PUSH20 0xFFFFFFFFFFFFFFFFFFFFFFFFFFFFFFFFFFFFFFFF AND PUSH20 0xFFFFFFFFFFFFFFFFFFFFFFFFFFFFFFFFFFFFFFFF AND PUSH20 0xFFFFFFFFFFFFFFFFFFFFFFFFFFFFFFFFFFFFFFFF AND DUP2 MSTORE PUSH1 0x20 ADD PUSH1 0x1 DUP3 ADD PUSH1 0x0 SWAP1 SLOAD SWAP1 PUSH2 0x100 EXP SWAP1 DIV PUSH20 0xFFFFFFFFFFFFFFFFFFFFFFFFFFFFFFFFFFFFFFFF AND PUSH20 0xFFFFFFFFFFFFFFFFFFFFFFFFFFFFFFFFFFFFFFFF AND PUSH20 0xFFFFFFFFFFFFFFFFFFFFFFFFFFFFFFFFFFFFFFFF AND DUP2 MSTORE PUSH1 0x20 ADD PUSH1 0x2 DUP3 ADD DUP1 SLOAD PUSH2 0x223B SWAP1 PUSH2 0x50EB JUMP JUMPDEST DUP1 PUSH1 0x1F ADD PUSH1 0x20 DUP1 SWAP2 DIV MUL PUSH1 0x20 ADD PUSH1 0x40 MLOAD SWAP1 DUP2 ADD PUSH1 0x40 MSTORE DUP1 SWAP3 SWAP2 SWAP1 DUP2 DUP2 MSTORE PUSH1 0x20 ADD DUP3 DUP1 SLOAD PUSH2 0x2267 SWAP1 PUSH2 0x50EB JUMP JUMPDEST DUP1 ISZERO PUSH2 0x22B4 JUMPI DUP1 PUSH1 0x1F LT PUSH2 0x2289 JUMPI PUSH2 0x100 DUP1 DUP4 SLOAD DIV MUL DUP4 MSTORE SWAP2 PUSH1 0x20 ADD SWAP2 PUSH2 0x22B4 JUMP JUMPDEST DUP3 ADD SWAP2 SWAP1 PUSH1 0x0 MSTORE PUSH1 0x20 PUSH1 0x0 KECCAK256 SWAP1 JUMPDEST DUP2 SLOAD DUP2 MSTORE SWAP1 PUSH1 0x1 ADD SWAP1 PUSH1 0x20 ADD DUP1 DUP4 GT PUSH2 0x2297 JUMPI DUP3 SWAP1 SUB PUSH1 0x1F AND DUP3 ADD SWAP2 JUMPDEST POP POP POP POP POP DUP2 MSTORE PUSH1 0x20 ADD PUSH1 0x3 DUP3 ADD DUP1 SLOAD PUSH2 0x22CD SWAP1 PUSH2 0x50EB JUMP JUMPDEST DUP1 PUSH1 0x1F ADD PUSH1 0x20 DUP1 SWAP2 DIV MUL PUSH1 0x20 ADD PUSH1 0x40 MLOAD SWAP1 DUP2 ADD PUSH1 0x40 MSTORE DUP1 SWAP3 SWAP2 SWAP1 DUP2 DUP2 MSTORE PUSH1 0x20 ADD DUP3 DUP1 SLOAD PUSH2 0x22F9 SWAP1 PUSH2 0x50EB JUMP JUMPDEST DUP1 ISZERO PUSH2 0x2346 JUMPI DUP1 PUSH1 0x1F LT PUSH2 0x231B JUMPI PUSH2 0x100 DUP1 DUP4 SLOAD DIV MUL DUP4 MSTORE SWAP2 PUSH1 0x20 ADD SWAP2 PUSH2 0x2346 JUMP JUMPDEST DUP3 ADD SWAP2 SWAP1 PUSH1 0x0 MSTORE PUSH1 0x20 PUSH1 0x0 KECCAK256 SWAP1 JUMPDEST DUP2 SLOAD DUP2 MSTORE SWAP1 PUSH1 0x1 ADD SWAP1 PUSH1 0x20 ADD DUP1 DUP4 GT PUSH2 0x2329 JUMPI DUP3 SWAP1 SUB PUSH1 0x1F AND DUP3 ADD SWAP2 JUMPDEST POP POP POP POP POP DUP2 MSTORE PUSH1 0x20 ADD PUSH1 0x4 DUP3 ADD DUP1 SLOAD PUSH2 0x235F SWAP1 PUSH2 0x50EB JUMP JUMPDEST DUP1 PUSH1 0x1F ADD PUSH1 0x20 DUP1 SWAP2 DIV MUL PUSH1 0x20 ADD PUSH1 0x40 MLOAD SWAP1 DUP2 ADD PUSH1 0x40 MSTORE DUP1 SWAP3 SWAP2 SWAP1 DUP2 DUP2 MSTORE PUSH1 0x20 ADD DUP3 DUP1 SLOAD PUSH2 0x238B SWAP1 PUSH2 0x50EB JUMP JUMPDEST DUP1 ISZERO PUSH2 0x23D8 JUMPI DUP1 PUSH1 0x1F LT PUSH2 0x23AD JUMPI PUSH2 0x100 DUP1 DUP4 SLOAD DIV MUL DUP4 MSTORE SWAP2 PUSH1 0x20 ADD SWAP2 PUSH2 0x23D8 JUMP JUMPDEST DUP3 ADD SWAP2 SWAP1 PUSH1 0x0 MSTORE PUSH1 0x20 PUSH1 0x0 KECCAK256 SWAP1 JUMPDEST DUP2 SLOAD DUP2 MSTORE SWAP1 PUSH1 0x1 ADD SWAP1 PUSH1 0x20 ADD DUP1 DUP4 GT PUSH2 0x23BB JUMPI DUP3 SWAP1 SUB PUSH1 0x1F AND DUP3 ADD SWAP2 JUMPDEST POP POP POP POP POP DUP2 MSTORE PUSH1 0x20 ADD PUSH1 0x5 DUP3 ADD SLOAD DUP2 MSTORE PUSH1 0x20 ADD PUSH1 0x6 DUP3 ADD SLOAD DUP2 MSTORE PUSH1 0x20 ADD PUSH1 0x7 DUP3 ADD DUP1 SLOAD PUSH2 0x2405 SWAP1 PUSH2 0x50EB JUMP JUMPDEST DUP1 PUSH1 0x1F ADD PUSH1 0x20 DUP1 SWAP2 DIV MUL PUSH1 0x20 ADD PUSH1 0x40 MLOAD SWAP1 DUP2 ADD PUSH1 0x40 MSTORE DUP1 SWAP3 SWAP2 SWAP1 DUP2 DUP2 MSTORE PUSH1 0x20 ADD DUP3 DUP1 SLOAD PUSH2 0x2431 SWAP1 PUSH2 0x50EB JUMP JUMPDEST DUP1 ISZERO PUSH2 0x247E JUMPI DUP1 PUSH1 0x1F LT PUSH2 0x2453 JUMPI PUSH2 0x100 DUP1 DUP4 SLOAD DIV MUL DUP4 MSTORE SWAP2 PUSH1 0x20 ADD SWAP2 PUSH2 0x247E JUMP JUMPDEST DUP3 ADD SWAP2 SWAP1 PUSH1 0x0 MSTORE PUSH1 0x20 PUSH1 0x0 KECCAK256 SWAP1 JUMPDEST DUP2 SLOAD DUP2 MSTORE SWAP1 PUSH1 0x1 ADD SWAP1 PUSH1 0x20 ADD DUP1 DUP4 GT PUSH2 0x2461 JUMPI DUP3 SWAP1 SUB PUSH1 0x1F AND DUP3 ADD SWAP2 JUMPDEST POP POP POP POP POP DUP2 MSTORE PUSH1 0x20 ADD PUSH1 0x8 DUP3 ADD PUSH1 0x0 SWAP1 SLOAD SWAP1 PUSH2 0x100 EXP SWAP1 DIV PUSH1 0xFF AND ISZERO ISZERO ISZERO ISZERO DUP2 MSTORE PUSH1 0x20 ADD PUSH1 0x9 DUP3 ADD SLOAD DUP2 MSTORE PUSH1 0x20 ADD PUSH1 0xA DUP3 ADD SLOAD DUP2 MSTORE POP POP SWAP1 POP PUSH2 0x24C8 DUP2 PUSH2 0x100 ADD MLOAD ISZERO ISZERO PUSH2 0x3B40 JUMP JUMPDEST PUSH1 0x0 DUP5 DUP3 PUSH1 0xC0 ADD MLOAD PUSH2 0x24DA SWAP2 SWAP1 PUSH2 0x514B JUMP JUMPDEST SWAP1 POP PUSH2 0x24F3 DUP3 PUSH1 0xA0 ADD MLOAD DUP3 PUSH2 0x3C2D SWAP1 SWAP2 SWAP1 PUSH4 0xFFFFFFFF AND JUMP JUMPDEST PUSH2 0x2549 DUP6 PUSH1 0x6 PUSH1 0x0 DUP6 PUSH1 0x0 ADD MLOAD PUSH20 0xFFFFFFFFFFFFFFFFFFFFFFFFFFFFFFFFFFFFFFFF AND PUSH20 0xFFFFFFFFFFFFFFFFFFFFFFFFFFFFFFFFFFFFFFFF AND DUP2 MSTORE PUSH1 0x20 ADD SWAP1 DUP2 MSTORE PUSH1 0x20 ADD PUSH1 0x0 KECCAK256 SLOAD PUSH2 0x3C74 SWAP1 SWAP2 SWAP1 PUSH4 0xFFFFFFFF AND JUMP JUMPDEST PUSH1 0x0 PUSH1 0x5 PUSH1 0x0 DUP12 DUP2 MSTORE PUSH1 0x20 ADD SWAP1 DUP2 MSTORE PUSH1 0x20 ADD PUSH1 0x0 KECCAK256 SWAP1 POP PUSH1 0x0 JUMPDEST DUP10 DUP10 SWAP1 POP DUP2 LT ISZERO PUSH2 0x25BC JUMPI DUP2 DUP11 DUP11 DUP4 DUP2 DUP2 LT PUSH2 0x2582 JUMPI PUSH2 0x2581 PUSH2 0x572F JUMP JUMPDEST JUMPDEST SWAP1 POP PUSH1 0x20 MUL ADD CALLDATALOAD SWAP1 DUP1 PUSH1 0x1 DUP2 SLOAD ADD DUP1 DUP3 SSTORE DUP1 SWAP2 POP POP PUSH1 0x1 SWAP1 SUB SWAP1 PUSH1 0x0 MSTORE PUSH1 0x20 PUSH1 0x0 KECCAK256 ADD PUSH1 0x0 SWAP1 SWAP2 SWAP1 SWAP2 SWAP1 SWAP2 POP SSTORE DUP1 DUP1 PUSH1 0x1 ADD SWAP2 POP POP PUSH2 0x2563 JUMP JUMPDEST POP DUP6 DUP4 PUSH1 0xC0 ADD DUP2 DUP2 MLOAD PUSH2 0x25CF SWAP2 SWAP1 PUSH2 0x514B JUMP JUMPDEST SWAP2 POP DUP2 DUP2 MSTORE POP POP DUP9 DUP9 SWAP1 POP DUP4 PUSH2 0x120 ADD DUP2 DUP2 MLOAD PUSH2 0x25EC SWAP2 SWAP1 PUSH2 0x514B JUMP JUMPDEST SWAP2 POP DUP2 DUP2 MSTORE POP POP DUP7 ISZERO PUSH2 0x260C JUMPI PUSH1 0x1 DUP4 PUSH2 0x100 ADD SWAP1 ISZERO ISZERO SWAP1 DUP2 ISZERO ISZERO DUP2 MSTORE POP POP JUMPDEST DUP10 PUSH32 0x7831F30F56C572A5170B4C572A9A3120B10DF227C08E2D6DE1B0967122F06330 DUP11 DUP11 DUP11 DUP11 PUSH1 0x40 MLOAD PUSH2 0x2642 SWAP5 SWAP4 SWAP3 SWAP2 SWAP1 PUSH2 0x5944 JUMP JUMPDEST PUSH1 0x40 MLOAD DUP1 SWAP2 SUB SWAP1 LOG2 PUSH1 0x0 DUP1 SLOAD SWAP1 PUSH2 0x100 EXP SWAP1 DIV PUSH20 0xFFFFFFFFFFFFFFFFFFFFFFFFFFFFFFFFFFFFFFFF AND PUSH20 0xFFFFFFFFFFFFFFFFFFFFFFFFFFFFFFFFFFFFFFFF AND PUSH4 0x42966C68 DUP8 PUSH1 0x40 MLOAD DUP3 PUSH4 0xFFFFFFFF AND PUSH1 0xE0 SHL DUP2 MSTORE PUSH1 0x4 ADD PUSH2 0x26A3 SWAP2 SWAP1 PUSH2 0x426C JUMP JUMPDEST PUSH1 0x0 PUSH1 0x40 MLOAD DUP1 DUP4 SUB DUP2 PUSH1 0x0 DUP8 DUP1 EXTCODESIZE ISZERO DUP1 ISZERO PUSH2 0x26BD JUMPI PUSH1 0x0 DUP1 REVERT JUMPDEST POP GAS CALL ISZERO DUP1 ISZERO PUSH2 0x26D1 JUMPI RETURNDATASIZE PUSH1 0x0 DUP1 RETURNDATACOPY RETURNDATASIZE PUSH1 0x0 REVERT JUMPDEST POP POP POP POP DUP6 PUSH1 0x6 PUSH1 0x0 CALLER PUSH20 0xFFFFFFFFFFFFFFFFFFFFFFFFFFFFFFFFFFFFFFFF AND PUSH20 0xFFFFFFFFFFFFFFFFFFFFFFFFFFFFFFFFFFFFFFFF AND DUP2 MSTORE PUSH1 0x20 ADD SWAP1 DUP2 MSTORE PUSH1 0x20 ADD PUSH1 0x0 KECCAK256 PUSH1 0x0 DUP3 DUP3 SLOAD PUSH2 0x2724 SWAP2 SWAP1 PUSH2 0x5667 JUMP JUMPDEST SWAP3 POP POP DUP2 SWAP1 SSTORE POP DUP3 PUSH2 0x140 ADD MLOAD PUSH1 0x7 PUSH1 0x0 CALLER PUSH20 0xFFFFFFFFFFFFFFFFFFFFFFFFFFFFFFFFFFFFFFFF AND PUSH20 0xFFFFFFFFFFFFFFFFFFFFFFFFFFFFFFFFFFFFFFFF AND DUP2 MSTORE PUSH1 0x20 ADD SWAP1 DUP2 MSTORE PUSH1 0x20 ADD PUSH1 0x0 KECCAK256 PUSH1 0x0 DUP3 DUP3 SLOAD PUSH2 0x277F SWAP2 SWAP1 PUSH2 0x5667 JUMP JUMPDEST SWAP3 POP POP DUP2 SWAP1 SSTORE POP PUSH1 0x0 DUP4 PUSH2 0x140 ADD DUP2 DUP2 MSTORE POP POP DUP3 PUSH1 0x4 PUSH1 0x0 DUP13 DUP2 MSTORE PUSH1 0x20 ADD SWAP1 DUP2 MSTORE PUSH1 0x20 ADD PUSH1 0x0 KECCAK256 PUSH1 0x0 DUP3 ADD MLOAD DUP2 PUSH1 0x0 ADD PUSH1 0x0 PUSH2 0x100 EXP DUP2 SLOAD DUP2 PUSH20 0xFFFFFFFFFFFFFFFFFFFFFFFFFFFFFFFFFFFFFFFF MUL NOT AND SWAP1 DUP4 PUSH20 0xFFFFFFFFFFFFFFFFFFFFFFFFFFFFFFFFFFFFFFFF AND MUL OR SWAP1 SSTORE POP PUSH1 0x20 DUP3 ADD MLOAD DUP2 PUSH1 0x1 ADD PUSH1 0x0 PUSH2 0x100 EXP DUP2 SLOAD DUP2 PUSH20 0xFFFFFFFFFFFFFFFFFFFFFFFFFFFFFFFFFFFFFFFF MUL NOT AND SWAP1 DUP4 PUSH20 0xFFFFFFFFFFFFFFFFFFFFFFFFFFFFFFFFFFFFFFFF AND MUL OR SWAP1 SSTORE POP PUSH1 0x40 DUP3 ADD MLOAD DUP2 PUSH1 0x2 ADD SWAP1 DUP2 PUSH2 0x2849 SWAP2 SWAP1 PUSH2 0x5373 JUMP JUMPDEST POP PUSH1 0x60 DUP3 ADD MLOAD DUP2 PUSH1 0x3 ADD SWAP1 DUP2 PUSH2 0x285F SWAP2 SWAP1 PUSH2 0x5373 JUMP JUMPDEST POP PUSH1 0x80 DUP3 ADD MLOAD DUP2 PUSH1 0x4 ADD SWAP1 DUP2 PUSH2 0x2875 SWAP2 SWAP1 PUSH2 0x5373 JUMP JUMPDEST POP PUSH1 0xA0 DUP3 ADD MLOAD DUP2 PUSH1 0x5 ADD SSTORE PUSH1 0xC0 DUP3 ADD MLOAD DUP2 PUSH1 0x6 ADD SSTORE PUSH1 0xE0 DUP3 ADD MLOAD DUP2 PUSH1 0x7 ADD SWAP1 DUP2 PUSH2 0x289F SWAP2 SWAP1 PUSH2 0x54A0 JUMP JUMPDEST POP PUSH2 0x100 DUP3 ADD MLOAD DUP2 PUSH1 0x8 ADD PUSH1 0x0 PUSH2 0x100 EXP DUP2 SLOAD DUP2 PUSH1 0xFF MUL NOT AND SWAP1 DUP4 ISZERO ISZERO MUL OR SWAP1 SSTORE POP PUSH2 0x120 DUP3 ADD MLOAD DUP2 PUSH1 0x9 ADD SSTORE PUSH2 0x140 DUP3 ADD MLOAD DUP2 PUSH1 0xA ADD SSTORE SWAP1 POP POP PUSH1 0x0 DUP4 PUSH1 0x20 ADD MLOAD SWAP1 POP DUP1 PUSH20 0xFFFFFFFFFFFFFFFFFFFFFFFFFFFFFFFFFFFFFFFF AND PUSH4 0x936B092E DUP8 DUP14 DUP14 DUP14 DUP14 PUSH1 0x40 MLOAD DUP7 PUSH4 0xFFFFFFFF AND PUSH1 0xE0 SHL DUP2 MSTORE PUSH1 0x4 ADD PUSH2 0x2923 SWAP5 SWAP4 SWAP3 SWAP2 SWAP1 PUSH2 0x5984 JUMP JUMPDEST PUSH1 0x0 PUSH1 0x40 MLOAD DUP1 DUP4 SUB DUP2 PUSH1 0x0 DUP9 DUP1 EXTCODESIZE ISZERO DUP1 ISZERO PUSH2 0x293D JUMPI PUSH1 0x0 DUP1 REVERT JUMPDEST POP DUP8 CALL ISZERO DUP1 ISZERO PUSH2 0x2951 JUMPI RETURNDATASIZE PUSH1 0x0 DUP1 RETURNDATACOPY RETURNDATASIZE PUSH1 0x0 REVERT JUMPDEST POP POP POP POP POP POP POP POP POP POP POP POP POP POP POP POP JUMP JUMPDEST PUSH2 0x2A0B PUSH1 0x0 DUP1 SLOAD SWAP1 PUSH2 0x100 EXP SWAP1 DIV PUSH20 0xFFFFFFFFFFFFFFFFFFFFFFFFFFFFFFFFFFFFFFFF AND PUSH20 0xFFFFFFFFFFFFFFFFFFFFFFFFFFFFFFFFFFFFFFFF AND PUSH4 0x23B872DD CALLER ADDRESS DUP6 PUSH1 0x40 MLOAD DUP5 PUSH4 0xFFFFFFFF AND PUSH1 0xE0 SHL DUP2 MSTORE PUSH1 0x4 ADD PUSH2 0x29C3 SWAP4 SWAP3 SWAP2 SWAP1 PUSH2 0x59C4 JUMP JUMPDEST PUSH1 0x20 PUSH1 0x40 MLOAD DUP1 DUP4 SUB DUP2 PUSH1 0x0 DUP8 GAS CALL ISZERO DUP1 ISZERO PUSH2 0x29E2 JUMPI RETURNDATASIZE PUSH1 0x0 DUP1 RETURNDATACOPY RETURNDATASIZE PUSH1 0x0 REVERT JUMPDEST POP POP POP POP PUSH1 0x40 MLOAD RETURNDATASIZE PUSH1 0x1F NOT PUSH1 0x1F DUP3 ADD AND DUP3 ADD DUP1 PUSH1 0x40 MSTORE POP DUP2 ADD SWAP1 PUSH2 0x2A06 SWAP2 SWAP1 PUSH2 0x56D9 JUMP JUMPDEST PUSH2 0x3A76 JUMP JUMPDEST PUSH1 0x0 PUSH1 0x6 PUSH1 0x0 CALLER PUSH20 0xFFFFFFFFFFFFFFFFFFFFFFFFFFFFFFFFFFFFFFFF AND PUSH20 0xFFFFFFFFFFFFFFFFFFFFFFFFFFFFFFFFFFFFFFFF AND DUP2 MSTORE PUSH1 0x20 ADD SWAP1 DUP2 MSTORE PUSH1 0x20 ADD PUSH1 0x0 KECCAK256 SLOAD SWAP1 POP DUP2 PUSH1 0x6 PUSH1 0x0 CALLER PUSH20 0xFFFFFFFFFFFFFFFFFFFFFFFFFFFFFFFFFFFFFFFF AND PUSH20 0xFFFFFFFFFFFFFFFFFFFFFFFFFFFFFFFFFFFFFFFF AND DUP2 MSTORE PUSH1 0x20 ADD SWAP1 DUP2 MSTORE PUSH1 0x20 ADD PUSH1 0x0 KECCAK256 PUSH1 0x0 DUP3 DUP3 SLOAD PUSH2 0x2A9E SWAP2 SWAP1 PUSH2 0x514B JUMP JUMPDEST SWAP3 POP POP DUP2 SWAP1 SSTORE POP CALLER PUSH20 0xFFFFFFFFFFFFFFFFFFFFFFFFFFFFFFFFFFFFFFFF AND PUSH32 0x5E00297B9C4F8FEF460C4D7123316EEEB08A64A0930D1D9CAE0B61B7F663B254 DUP3 PUSH1 0x6 PUSH1 0x0 CALLER PUSH20 0xFFFFFFFFFFFFFFFFFFFFFFFFFFFFFFFFFFFFFFFF AND PUSH20 0xFFFFFFFFFFFFFFFFFFFFFFFFFFFFFFFFFFFFFFFF AND DUP2 MSTORE PUSH1 0x20 ADD SWAP1 DUP2 MSTORE PUSH1 0x20 ADD PUSH1 0x0 KECCAK256 SLOAD PUSH1 0x40 MLOAD PUSH2 0x2B2C SWAP3 SWAP2 SWAP1 PUSH2 0x5706 JUMP JUMPDEST PUSH1 0x40 MLOAD DUP1 SWAP2 SUB SWAP1 LOG2 POP POP JUMP JUMPDEST PUSH1 0x0 PUSH2 0x2B42 PUSH2 0x3CBB JUMP JUMPDEST SWAP1 POP PUSH1 0x0 DUP2 PUSH1 0x0 ADD PUSH1 0x8 SWAP1 SLOAD SWAP1 PUSH2 0x100 EXP SWAP1 DIV PUSH1 0xFF AND ISZERO SWAP1 POP PUSH1 0x0 DUP3 PUSH1 0x0 ADD PUSH1 0x0 SWAP1 SLOAD SWAP1 PUSH2 0x100 EXP SWAP1 DIV PUSH8 0xFFFFFFFFFFFFFFFF AND SWAP1 POP PUSH1 0x0 DUP1 DUP3 PUSH8 0xFFFFFFFFFFFFFFFF AND EQ DUP1 ISZERO PUSH2 0x2B90 JUMPI POP DUP3 JUMPDEST SWAP1 POP PUSH1 0x0 PUSH1 0x1 DUP4 PUSH8 0xFFFFFFFFFFFFFFFF AND EQ DUP1 ISZERO PUSH2 0x2BC5 JUMPI POP PUSH1 0x0 ADDRESS PUSH20 0xFFFFFFFFFFFFFFFFFFFFFFFFFFFFFFFFFFFFFFFF AND EXTCODESIZE EQ JUMPDEST SWAP1 POP DUP2 ISZERO DUP1 ISZERO PUSH2 0x2BD3 JUMPI POP DUP1 ISZERO JUMPDEST ISZERO PUSH2 0x2C0A JUMPI PUSH1 0x40 MLOAD PUSH32 0xF92EE8A900000000000000000000000000000000000000000000000000000000 DUP2 MSTORE PUSH1 0x4 ADD PUSH1 0x40 MLOAD DUP1 SWAP2 SUB SWAP1 REVERT JUMPDEST PUSH1 0x1 DUP6 PUSH1 0x0 ADD PUSH1 0x0 PUSH2 0x100 EXP DUP2 SLOAD DUP2 PUSH8 0xFFFFFFFFFFFFFFFF MUL NOT AND SWAP1 DUP4 PUSH8 0xFFFFFFFFFFFFFFFF AND MUL OR SWAP1 SSTORE POP DUP4 ISZERO PUSH2 0x2C5A JUMPI PUSH1 0x1 DUP6 PUSH1 0x0 ADD PUSH1 0x8 PUSH2 0x100 EXP DUP2 SLOAD DUP2 PUSH1 0xFF MUL NOT AND SWAP1 DUP4 ISZERO ISZERO MUL OR SWAP1 SSTORE POP JUMPDEST PUSH2 0x2C62 PUSH2 0x3CE3 JUMP JUMPDEST DUP10 PUSH1 0x0 DUP1 PUSH2 0x100 EXP DUP2 SLOAD DUP2 PUSH20 0xFFFFFFFFFFFFFFFFFFFFFFFFFFFFFFFFFFFFFFFF MUL NOT AND SWAP1 DUP4 PUSH20 0xFFFFFFFFFFFFFFFFFFFFFFFFFFFFFFFFFFFFFFFF AND MUL OR SWAP1 SSTORE POP PUSH1 0x5 PUSH1 0x1 DUP2 SWAP1 SSTORE POP DUP9 DUP9 SWAP1 POP DUP8 DUP8 SWAP1 POP EQ PUSH2 0x2CBC JUMPI PUSH1 0x0 DUP1 REVERT JUMPDEST PUSH1 0x0 JUMPDEST PUSH1 0x3 DUP1 SLOAD SWAP1 POP DUP2 LT ISZERO PUSH2 0x2D2A JUMPI DUP10 DUP10 DUP3 DUP2 DUP2 LT PUSH2 0x2CDF JUMPI PUSH2 0x2CDE PUSH2 0x572F JUMP JUMPDEST JUMPDEST SWAP1 POP PUSH1 0x20 MUL DUP2 ADD SWAP1 PUSH2 0x2CF1 SWAP2 SWAP1 PUSH2 0x576D JUMP JUMPDEST PUSH1 0x3 DUP4 DUP2 SLOAD DUP2 LT PUSH2 0x2D05 JUMPI PUSH2 0x2D04 PUSH2 0x572F JUMP JUMPDEST JUMPDEST SWAP1 PUSH1 0x0 MSTORE PUSH1 0x20 PUSH1 0x0 KECCAK256 ADD SWAP2 DUP3 PUSH2 0x2D1C SWAP3 SWAP2 SWAP1 PUSH2 0x57DB JUMP JUMPDEST POP DUP1 DUP1 PUSH1 0x1 ADD SWAP2 POP POP PUSH2 0x2CBF JUMP JUMPDEST POP PUSH1 0x0 JUMPDEST DUP10 DUP10 SWAP1 POP DUP2 LT ISZERO PUSH2 0x2E1E JUMPI CALLDATASIZE PUSH1 0x0 DUP12 DUP12 DUP5 DUP2 DUP2 LT PUSH2 0x2D4F JUMPI PUSH2 0x2D4E PUSH2 0x572F JUMP JUMPDEST JUMPDEST SWAP1 POP PUSH1 0x20 MUL DUP2 ADD SWAP1 PUSH2 0x2D61 SWAP2 SWAP1 PUSH2 0x576D JUMP JUMPDEST SWAP2 POP SWAP2 POP PUSH2 0x2DBA DUP3 DUP3 DUP13 DUP13 DUP8 DUP2 DUP2 LT PUSH2 0x2D7D JUMPI PUSH2 0x2D7C PUSH2 0x572F JUMP JUMPDEST JUMPDEST SWAP1 POP PUSH1 0x20 MUL DUP2 ADD SWAP1 PUSH2 0x2D8F SWAP2 SWAP1 PUSH2 0x59FB JUMP JUMPDEST PUSH1 0x0 DUP2 DUP2 LT PUSH2 0x2DA1 JUMPI PUSH2 0x2DA0 PUSH2 0x572F JUMP JUMPDEST JUMPDEST SWAP1 POP PUSH1 0x20 MUL DUP2 ADD SWAP1 PUSH2 0x2DB3 SWAP2 SWAP1 PUSH2 0x5A5E JUMP JUMPDEST PUSH1 0x0 PUSH2 0x3B84 JUMP JUMPDEST PUSH2 0x2E0F DUP3 DUP3 DUP13 DUP13 DUP8 DUP2 DUP2 LT PUSH2 0x2DD2 JUMPI PUSH2 0x2DD1 PUSH2 0x572F JUMP JUMPDEST JUMPDEST SWAP1 POP PUSH1 0x20 MUL DUP2 ADD SWAP1 PUSH2 0x2DE4 SWAP2 SWAP1 PUSH2 0x59FB JUMP JUMPDEST PUSH1 0x1 DUP2 DUP2 LT PUSH2 0x2DF6 JUMPI PUSH2 0x2DF5 PUSH2 0x572F JUMP JUMPDEST JUMPDEST SWAP1 POP PUSH1 0x20 MUL DUP2 ADD SWAP1 PUSH2 0x2E08 SWAP2 SWAP1 PUSH2 0x5A5E JUMP JUMPDEST PUSH1 0x1 PUSH2 0x3B84 JUMP JUMPDEST POP POP DUP1 DUP1 PUSH1 0x1 ADD SWAP2 POP POP PUSH2 0x2D2E JUMP JUMPDEST POP DUP4 ISZERO PUSH2 0x2E7B JUMPI PUSH1 0x0 DUP6 PUSH1 0x0 ADD PUSH1 0x8 PUSH2 0x100 EXP DUP2 SLOAD DUP2 PUSH1 0xFF MUL NOT AND SWAP1 DUP4 ISZERO ISZERO MUL OR SWAP1 SSTORE POP PUSH32 0xC7F505B2F371AE2175EE4913F4499E1F2633A7B5936321EED1CDAEB6115181D2 PUSH1 0x1 PUSH1 0x40 MLOAD PUSH2 0x2E72 SWAP2 SWAP1 PUSH2 0x5B10 JUMP JUMPDEST PUSH1 0x40 MLOAD DUP1 SWAP2 SUB SWAP1 LOG1 JUMPDEST POP POP POP POP POP POP POP POP POP POP JUMP JUMPDEST PUSH1 0x60 PUSH1 0x0 DUP1 PUSH1 0x4 PUSH1 0x0 DUP8 DUP2 MSTORE PUSH1 0x20 ADD SWAP1 DUP2 MSTORE PUSH1 0x20 ADD PUSH1 0x0 KECCAK256 SWAP1 POP PUSH2 0x2EB0 DUP6 DUP6 DUP4 PUSH1 0x9 ADD SLOAD PUSH2 0x3CED JUMP JUMPDEST DUP4 PUSH8 0xFFFFFFFFFFFFFFFF DUP2 GT ISZERO PUSH2 0x2ECA JUMPI PUSH2 0x2EC9 PUSH2 0x438F JUMP JUMPDEST JUMPDEST PUSH1 0x40 MLOAD SWAP1 DUP1 DUP3 MSTORE DUP1 PUSH1 0x20 MUL PUSH1 0x20 ADD DUP3 ADD PUSH1 0x40 MSTORE DUP1 ISZERO PUSH2 0x2EF8 JUMPI DUP2 PUSH1 0x20 ADD PUSH1 0x20 DUP3 MUL DUP1 CALLDATASIZE DUP4 CALLDATACOPY DUP1 DUP3 ADD SWAP2 POP POP SWAP1 POP JUMPDEST POP SWAP3 POP PUSH1 0x0 JUMPDEST DUP5 DUP2 LT ISZERO PUSH2 0x2F6D JUMPI PUSH1 0x5 PUSH1 0x0 DUP9 DUP2 MSTORE PUSH1 0x20 ADD SWAP1 DUP2 MSTORE PUSH1 0x20 ADD PUSH1 0x0 KECCAK256 DUP2 DUP8 PUSH2 0x2F25 SWAP2 SWAP1 PUSH2 0x514B JUMP JUMPDEST DUP2 SLOAD DUP2 LT PUSH2 0x2F36 JUMPI PUSH2 0x2F35 PUSH2 0x572F JUMP JUMPDEST JUMPDEST SWAP1 PUSH1 0x0 MSTORE PUSH1 0x20 PUSH1 0x0 KECCAK256 ADD SLOAD DUP5 DUP3 DUP2 MLOAD DUP2 LT PUSH2 0x2F54 JUMPI PUSH2 0x2F53 PUSH2 0x572F JUMP JUMPDEST JUMPDEST PUSH1 0x20 MUL PUSH1 0x20 ADD ADD DUP2 DUP2 MSTORE POP POP DUP1 DUP1 PUSH1 0x1 ADD SWAP2 POP POP PUSH2 0x2EFE JUMP JUMPDEST POP DUP1 PUSH1 0x8 ADD PUSH1 0x0 SWAP1 SLOAD SWAP1 PUSH2 0x100 EXP SWAP1 DIV PUSH1 0xFF AND DUP1 ISZERO PUSH2 0x2F9A JUMPI POP DUP1 PUSH1 0x9 ADD SLOAD DUP5 DUP7 PUSH2 0x2F98 SWAP2 SWAP1 PUSH2 0x514B JUMP JUMPDEST EQ JUMPDEST SWAP2 POP POP SWAP4 POP SWAP4 SWAP2 POP POP JUMP JUMPDEST PUSH32 0x189AB7A9244DF0848122154315AF71FE140F3DB0FE014031783B0946B8C9D2E3 DUP2 JUMP JUMPDEST PUSH1 0x0 PUSH32 0x1FFC9A700000000000000000000000000000000000000000000000000000000 PUSH28 0xFFFFFFFFFFFFFFFFFFFFFFFFFFFFFFFFFFFFFFFFFFFFFFFFFFFFFFFF NOT AND DUP3 PUSH28 0xFFFFFFFFFFFFFFFFFFFFFFFFFFFFFFFFFFFFFFFFFFFFFFFFFFFFFFFF NOT AND EQ SWAP1 POP SWAP2 SWAP1 POP JUMP JUMPDEST PUSH1 0x0 PUSH32 0x2DD7BC7DEC4DCEEDDA775E58DD541E08A116C6C53815C0BD028192F7B626800 SWAP1 POP SWAP1 JUMP JUMPDEST DUP1 DUP3 LT ISZERO PUSH2 0x309E JUMPI PUSH1 0x40 MLOAD PUSH32 0x8C379A000000000000000000000000000000000000000000000000000000000 DUP2 MSTORE PUSH1 0x4 ADD PUSH2 0x3095 SWAP1 PUSH2 0x5B9D JUMP JUMPDEST PUSH1 0x40 MLOAD DUP1 SWAP2 SUB SWAP1 REVERT JUMPDEST POP POP JUMP JUMPDEST DUP1 DUP3 PUSH2 0x30AE SWAP2 SWAP1 PUSH2 0x514B JUMP JUMPDEST DUP4 LT ISZERO PUSH2 0x30F0 JUMPI PUSH1 0x40 MLOAD PUSH32 0x8C379A000000000000000000000000000000000000000000000000000000000 DUP2 MSTORE PUSH1 0x4 ADD PUSH2 0x30E7 SWAP1 PUSH2 0x5C55 JUMP JUMPDEST PUSH1 0x40 MLOAD DUP1 SWAP2 SUB SWAP1 REVERT JUMPDEST POP POP POP JUMP JUMPDEST PUSH1 0x0 DUP1 JUMPDEST DUP3 MLOAD DUP2 LT ISZERO PUSH2 0x3185 JUMPI DUP3 DUP2 DUP2 MLOAD DUP2 LT PUSH2 0x3115 JUMPI PUSH2 0x3114 PUSH2 0x572F JUMP JUMPDEST JUMPDEST PUSH1 0x20 MUL PUSH1 0x20 ADD ADD MLOAD PUSH1 0x40 MLOAD PUSH1 0x20 ADD PUSH2 0x312D SWAP2 SWAP1 PUSH2 0x5CA6 JUMP JUMPDEST PUSH1 0x40 MLOAD PUSH1 0x20 DUP2 DUP4 SUB SUB DUP2 MSTORE SWAP1 PUSH1 0x40 MSTORE DUP1 MLOAD SWAP1 PUSH1 0x20 ADD KECCAK256 DUP5 PUSH1 0x40 MLOAD PUSH1 0x20 ADD PUSH2 0x3154 SWAP2 SWAP1 PUSH2 0x5CA6 JUMP JUMPDEST PUSH1 0x40 MLOAD PUSH1 0x20 DUP2 DUP4 SUB SUB DUP2 MSTORE SWAP1 PUSH1 0x40 MSTORE DUP1 MLOAD SWAP1 PUSH1 0x20 ADD KECCAK256 SUB PUSH2 0x3178 JUMPI PUSH1 0x1 SWAP2 POP PUSH2 0x3185 JUMP JUMPDEST DUP1 DUP1 PUSH1 0x1 ADD SWAP2 POP POP PUSH2 0x30F9 JUMP JUMPDEST POP DUP1 PUSH2 0x31C6 JUMPI PUSH1 0x40 MLOAD PUSH32 0x8C379A000000000000000000000000000000000000000000000000000000000 DUP2 MSTORE PUSH1 0x4 ADD PUSH2 0x31BD SWAP1 PUSH2 0x5D09 JUMP JUMPDEST PUSH1 0x40 MLOAD DUP1 SWAP2 SUB SWAP1 REVERT JUMPDEST POP POP POP JUMP JUMPDEST PUSH1 0x0 DUP1 DUP3 DUP6 PUSH1 0x40 MLOAD PUSH2 0x31DD SWAP2 SWAP1 PUSH2 0x5CA6 JUMP JUMPDEST SWAP1 DUP2 MSTORE PUSH1 0x20 ADD PUSH1 0x40 MLOAD DUP1 SWAP2 SUB SWAP1 KECCAK256 PUSH1 0x0 DUP1 DUP2 MSTORE PUSH1 0x20 ADD SWAP1 DUP2 MSTORE PUSH1 0x20 ADD PUSH1 0x0 KECCAK256 DUP1 SLOAD DUP1 PUSH1 0x20 MUL PUSH1 0x20 ADD PUSH1 0x40 MLOAD SWAP1 DUP2 ADD PUSH1 0x40 MSTORE DUP1 SWAP3 SWAP2 SWAP1 DUP2 DUP2 MSTORE PUSH1 0x20 ADD PUSH1 0x0 SWAP1 JUMPDEST DUP3 DUP3 LT ISZERO PUSH2 0x32C8 JUMPI DUP4 DUP3 SWAP1 PUSH1 0x0 MSTORE PUSH1 0x20 PUSH1 0x0 KECCAK256 ADD DUP1 SLOAD PUSH2 0x323B SWAP1 PUSH2 0x50EB JUMP JUMPDEST DUP1 PUSH1 0x1F ADD PUSH1 0x20 DUP1 SWAP2 DIV MUL PUSH1 0x20 ADD PUSH1 0x40 MLOAD SWAP1 DUP2 ADD PUSH1 0x40 MSTORE DUP1 SWAP3 SWAP2 SWAP1 DUP2 DUP2 MSTORE PUSH1 0x20 ADD DUP3 DUP1 SLOAD PUSH2 0x3267 SWAP1 PUSH2 0x50EB JUMP JUMPDEST DUP1 ISZERO PUSH2 0x32B4 JUMPI DUP1 PUSH1 0x1F LT PUSH2 0x3289 JUMPI PUSH2 0x100 DUP1 DUP4 SLOAD DIV MUL DUP4 MSTORE SWAP2 PUSH1 0x20 ADD SWAP2 PUSH2 0x32B4 JUMP JUMPDEST DUP3 ADD SWAP2 SWAP1 PUSH1 0x0 MSTORE PUSH1 0x20 PUSH1 0x0 KECCAK256 SWAP1 JUMPDEST DUP2 SLOAD DUP2 MSTORE SWAP1 PUSH1 0x1 ADD SWAP1 PUSH1 0x20 ADD DUP1 DUP4 GT PUSH2 0x3297 JUMPI DUP3 SWAP1 SUB PUSH1 0x1F AND DUP3 ADD SWAP2 JUMPDEST POP POP POP POP POP DUP2 MSTORE PUSH1 0x20 ADD SWAP1 PUSH1 0x1 ADD SWAP1 PUSH2 0x321C JUMP JUMPDEST POP POP POP POP SWAP1 POP PUSH1 0x0 JUMPDEST DUP2 MLOAD DUP2 LT ISZERO PUSH2 0x335D JUMPI DUP5 PUSH1 0x40 MLOAD PUSH1 0x20 ADD PUSH2 0x32EB SWAP2 SWAP1 PUSH2 0x5CA6 JUMP JUMPDEST PUSH1 0x40 MLOAD PUSH1 0x20 DUP2 DUP4 SUB SUB DUP2 MSTORE SWAP1 PUSH1 0x40 MSTORE DUP1 MLOAD SWAP1 PUSH1 0x20 ADD KECCAK256 DUP3 DUP3 DUP2 MLOAD DUP2 LT PUSH2 0x3314 JUMPI PUSH2 0x3313 PUSH2 0x572F JUMP JUMPDEST JUMPDEST PUSH1 0x20 MUL PUSH1 0x20 ADD ADD MLOAD PUSH1 0x40 MLOAD PUSH1 0x20 ADD PUSH2 0x332C SWAP2 SWAP1 PUSH2 0x5CA6 JUMP JUMPDEST PUSH1 0x40 MLOAD PUSH1 0x20 DUP2 DUP4 SUB SUB DUP2 MSTORE SWAP1 PUSH1 0x40 MSTORE DUP1 MLOAD SWAP1 PUSH1 0x20 ADD KECCAK256 SUB PUSH2 0x3350 JUMPI PUSH1 0x1 SWAP3 POP PUSH2 0x335D JUMP JUMPDEST DUP1 DUP1 PUSH1 0x1 ADD SWAP2 POP POP PUSH2 0x32D1 JUMP JUMPDEST POP DUP2 PUSH2 0x339E JUMPI PUSH1 0x40 MLOAD PUSH32 0x8C379A000000000000000000000000000000000000000000000000000000000 DUP2 MSTORE PUSH1 0x4 ADD PUSH2 0x3395 SWAP1 PUSH2 0x5D75 JUMP JUMPDEST PUSH1 0x40 MLOAD DUP1 SWAP2 SUB SWAP1 REVERT JUMPDEST POP POP POP POP POP JUMP JUMPDEST PUSH1 0x0 DUP1 DUP3 DUP6 PUSH1 0x40 MLOAD PUSH2 0x33B7 SWAP2 SWAP1 PUSH2 0x5CA6 JUMP JUMPDEST SWAP1 DUP2 MSTORE PUSH1 0x20 ADD PUSH1 0x40 MLOAD DUP1 SWAP2 SUB SWAP1 KECCAK256 PUSH1 0x0 PUSH1 0x1 DUP2 MSTORE PUSH1 0x20 ADD SWAP1 DUP2 MSTORE PUSH1 0x20 ADD PUSH1 0x0 KECCAK256 DUP1 SLOAD DUP1 PUSH1 0x20 MUL PUSH1 0x20 ADD PUSH1 0x40 MLOAD SWAP1 DUP2 ADD PUSH1 0x40 MSTORE DUP1 SWAP3 SWAP2 SWAP1 DUP2 DUP2 MSTORE PUSH1 0x20 ADD PUSH1 0x0 SWAP1 JUMPDEST DUP3 DUP3 LT ISZERO PUSH2 0x34A3 JUMPI DUP4 DUP3 SWAP1 PUSH1 0x0 MSTORE PUSH1 0x20 PUSH1 0x0 KECCAK256 ADD DUP1 SLOAD PUSH2 0x3416 SWAP1 PUSH2 0x50EB JUMP JUMPDEST DUP1 PUSH1 0x1F ADD PUSH1 0x20 DUP1 SWAP2 DIV MUL PUSH1 0x20 ADD PUSH1 0x40 MLOAD SWAP1 DUP2 ADD PUSH1 0x40 MSTORE DUP1 SWAP3 SWAP2 SWAP1 DUP2 DUP2 MSTORE PUSH1 0x20 ADD DUP3 DUP1 SLOAD PUSH2 0x3442 SWAP1 PUSH2 0x50EB JUMP JUMPDEST DUP1 ISZERO PUSH2 0x348F JUMPI DUP1 PUSH1 0x1F LT PUSH2 0x3464 JUMPI PUSH2 0x100 DUP1 DUP4 SLOAD DIV MUL DUP4 MSTORE SWAP2 PUSH1 0x20 ADD SWAP2 PUSH2 0x348F JUMP JUMPDEST DUP3 ADD SWAP2 SWAP1 PUSH1 0x0 MSTORE PUSH1 0x20 PUSH1 0x0 KECCAK256 SWAP1 JUMPDEST DUP2 SLOAD DUP2 MSTORE SWAP1 PUSH1 0x1 ADD SWAP1 PUSH1 0x20 ADD DUP1 DUP4 GT PUSH2 0x3472 JUMPI DUP3 SWAP1 SUB PUSH1 0x1F AND DUP3 ADD SWAP2 JUMPDEST POP POP POP POP POP DUP2 MSTORE PUSH1 0x20 ADD SWAP1 PUSH1 0x1 ADD SWAP1 PUSH2 0x33F7 JUMP JUMPDEST POP POP POP POP SWAP1 POP PUSH1 0x0 JUMPDEST DUP2 MLOAD DUP2 LT ISZERO PUSH2 0x3538 JUMPI DUP5 PUSH1 0x40 MLOAD PUSH1 0x20 ADD PUSH2 0x34C6 SWAP2 SWAP1 PUSH2 0x5CA6 JUMP JUMPDEST PUSH1 0x40 MLOAD PUSH1 0x20 DUP2 DUP4 SUB SUB DUP2 MSTORE SWAP1 PUSH1 0x40 MSTORE DUP1 MLOAD SWAP1 PUSH1 0x20 ADD KECCAK256 DUP3 DUP3 DUP2 MLOAD DUP2 LT PUSH2 0x34EF JUMPI PUSH2 0x34EE PUSH2 0x572F JUMP JUMPDEST JUMPDEST PUSH1 0x20 MUL PUSH1 0x20 ADD ADD MLOAD PUSH1 0x40 MLOAD PUSH1 0x20 ADD PUSH2 0x3507 SWAP2 SWAP1 PUSH2 0x5CA6 JUMP JUMPDEST PUSH1 0x40 MLOAD PUSH1 0x20 DUP2 DUP4 SUB SUB DUP2 MSTORE SWAP1 PUSH1 0x40 MSTORE DUP1 MLOAD SWAP1 PUSH1 0x20 ADD KECCAK256 SUB PUSH2 0x352B JUMPI PUSH1 0x1 SWAP3 POP PUSH2 0x3538 JUMP JUMPDEST DUP1 DUP1 PUSH1 0x1 ADD SWAP2 POP POP PUSH2 0x34AC JUMP JUMPDEST POP DUP2 PUSH2 0x3579 JUMPI PUSH1 0x40 MLOAD PUSH32 0x8C379A000000000000000000000000000000000000000000000000000000000 DUP2 MSTORE PUSH1 0x4 ADD PUSH2 0x3570 SWAP1 PUSH2 0x5DE1 JUMP JUMPDEST PUSH1 0x40 MLOAD DUP1 SWAP2 SUB SWAP1 REVERT JUMPDEST POP POP POP POP POP JUMP JUMPDEST PUSH2 0x3591 DUP2 PUSH2 0x358C PUSH2 0x3695 JUMP JUMPDEST PUSH2 0x3D40 JUMP JUMPDEST POP JUMP JUMPDEST PUSH1 0x0 DUP1 PUSH2 0x359F PUSH2 0x3033 JUMP JUMPDEST SWAP1 POP PUSH2 0x35AB DUP5 DUP5 PUSH2 0x1D35 JUMP JUMPDEST PUSH2 0x3689 JUMPI PUSH1 0x1 DUP2 PUSH1 0x0 ADD PUSH1 0x0 DUP7 DUP2 MSTORE PUSH1 0x20 ADD SWAP1 DUP2 MSTORE PUSH1 0x20 ADD PUSH1 0x0 KECCAK256 PUSH1 0x0 ADD PUSH1 0x0 DUP6 PUSH20 0xFFFFFFFFFFFFFFFFFFFFFFFFFFFFFFFFFFFFFFFF AND PUSH20 0xFFFFFFFFFFFFFFFFFFFFFFFFFFFFFFFFFFFFFFFF AND DUP2 MSTORE PUSH1 0x20 ADD SWAP1 DUP2 MSTORE PUSH1 0x20 ADD PUSH1 0x0 KECCAK256 PUSH1 0x0 PUSH2 0x100 EXP DUP2 SLOAD DUP2 PUSH1 0xFF MUL NOT AND SWAP1 DUP4 ISZERO ISZERO MUL OR SWAP1 SSTORE POP PUSH2 0x3625 PUSH2 0x3695 JUMP JUMPDEST PUSH20 0xFFFFFFFFFFFFFFFFFFFFFFFFFFFFFFFFFFFFFFFF AND DUP4 PUSH20 0xFFFFFFFFFFFFFFFFFFFFFFFFFFFFFFFFFFFFFFFF AND DUP6 PUSH32 0x2F8788117E7EFF1D82E926EC794901D17C78024A50270940304540A733656F0D PUSH1 0x40 MLOAD PUSH1 0x40 MLOAD DUP1 SWAP2 SUB SWAP1 LOG4 PUSH1 0x1 SWAP2 POP POP PUSH2 0x368F JUMP JUMPDEST PUSH1 0x0 SWAP2 POP POP JUMPDEST SWAP3 SWAP2 POP POP JUMP JUMPDEST PUSH1 0x0 CALLER SWAP1 POP SWAP1 JUMP JUMPDEST PUSH1 0x0 DUP1 PUSH2 0x36A8 PUSH2 0x3033 JUMP JUMPDEST SWAP1 POP PUSH2 0x36B4 DUP5 DUP5 PUSH2 0x1D35 JUMP JUMPDEST ISZERO PUSH2 0x3793 JUMPI PUSH1 0x0 DUP2 PUSH1 0x0 ADD PUSH1 0x0 DUP7 DUP2 MSTORE PUSH1 0x20 ADD SWAP1 DUP2 MSTORE PUSH1 0x20 ADD PUSH1 0x0 KECCAK256 PUSH1 0x0 ADD PUSH1 0x0 DUP6 PUSH20 0xFFFFFFFFFFFFFFFFFFFFFFFFFFFFFFFFFFFFFFFF AND PUSH20 0xFFFFFFFFFFFFFFFFFFFFFFFFFFFFFFFFFFFFFFFF AND DUP2 MSTORE PUSH1 0x20 ADD SWAP1 DUP2 MSTORE PUSH1 0x20 ADD PUSH1 0x0 KECCAK256 PUSH1 0x0 PUSH2 0x100 EXP DUP2 SLOAD DUP2 PUSH1 0xFF MUL NOT AND SWAP1 DUP4 ISZERO ISZERO MUL OR SWAP1 SSTORE POP PUSH2 0x372F PUSH2 0x3695 JUMP JUMPDEST PUSH20 0xFFFFFFFFFFFFFFFFFFFFFFFFFFFFFFFFFFFFFFFF AND DUP4 PUSH20 0xFFFFFFFFFFFFFFFFFFFFFFFFFFFFFFFFFFFFFFFF AND DUP6 PUSH32 0xF6391F5C32D9C69D2A47EA670B442974B53935D1EDC7FD64EB21E047A839171B PUSH1 0x40 MLOAD PUSH1 0x40 MLOAD DUP1 SWAP2 SUB SWAP1 LOG4 PUSH1 0x1 SWAP2 POP POP PUSH2 0x3799 JUMP JUMPDEST PUSH1 0x0 SWAP2 POP POP JUMPDEST SWAP3 SWAP2 POP POP JUMP JUMPDEST PUSH1 0x0 DUP2 EQ DUP1 PUSH2 0x37AE JUMPI POP PUSH1 0x1 DUP2 EQ JUMPDEST PUSH2 0x37ED JUMPI PUSH1 0x40 MLOAD PUSH32 0x8C379A000000000000000000000000000000000000000000000000000000000 DUP2 MSTORE PUSH1 0x4 ADD PUSH2 0x37E4 SWAP1 PUSH2 0x5E4D JUMP JUMPDEST PUSH1 0x40 MLOAD DUP1 SWAP2 SUB SWAP1 REVERT JUMPDEST POP JUMP JUMPDEST PUSH32 0x0 PUSH20 0xFFFFFFFFFFFFFFFFFFFFFFFFFFFFFFFFFFFFFFFF AND ADDRESS PUSH20 0xFFFFFFFFFFFFFFFFFFFFFFFFFFFFFFFFFFFFFFFF AND EQ DUP1 PUSH2 0x389D JUMPI POP PUSH32 0x0 PUSH20 0xFFFFFFFFFFFFFFFFFFFFFFFFFFFFFFFFFFFFFFFF AND PUSH2 0x3884 PUSH2 0x3D91 JUMP JUMPDEST PUSH20 0xFFFFFFFFFFFFFFFFFFFFFFFFFFFFFFFFFFFFFFFF AND EQ ISZERO JUMPDEST ISZERO PUSH2 0x38D4 JUMPI PUSH1 0x40 MLOAD PUSH32 0xE07C8DBA00000000000000000000000000000000000000000000000000000000 DUP2 MSTORE PUSH1 0x4 ADD PUSH1 0x40 MLOAD DUP1 SWAP2 SUB SWAP1 REVERT JUMPDEST JUMP JUMPDEST PUSH32 0x189AB7A9244DF0848122154315AF71FE140F3DB0FE014031783B0946B8C9D2E3 PUSH2 0x3900 DUP2 PUSH2 0x3580 JUMP JUMPDEST POP POP JUMP JUMPDEST DUP2 PUSH20 0xFFFFFFFFFFFFFFFFFFFFFFFFFFFFFFFFFFFFFFFF AND PUSH4 0x52D1902D PUSH1 0x40 MLOAD DUP2 PUSH4 0xFFFFFFFF AND PUSH1 0xE0 SHL DUP2 MSTORE PUSH1 0x4 ADD PUSH1 0x20 PUSH1 0x40 MLOAD DUP1 DUP4 SUB DUP2 DUP7 GAS STATICCALL SWAP3 POP POP POP DUP1 ISZERO PUSH2 0x396C JUMPI POP PUSH1 0x40 MLOAD RETURNDATASIZE PUSH1 0x1F NOT PUSH1 0x1F DUP3 ADD AND DUP3 ADD DUP1 PUSH1 0x40 MSTORE POP DUP2 ADD SWAP1 PUSH2 0x3969 SWAP2 SWAP1 PUSH2 0x5E82 JUMP JUMPDEST PUSH1 0x1 JUMPDEST PUSH2 0x39AD JUMPI DUP2 PUSH1 0x40 MLOAD PUSH32 0x4C9C8CE300000000000000000000000000000000000000000000000000000000 DUP2 MSTORE PUSH1 0x4 ADD PUSH2 0x39A4 SWAP2 SWAP1 PUSH2 0x4D59 JUMP JUMPDEST PUSH1 0x40 MLOAD DUP1 SWAP2 SUB SWAP1 REVERT JUMPDEST PUSH32 0x360894A13BA1A3210667C828492DB98DCA3E2076CC3735A920A3CA505D382BBC PUSH1 0x0 SHL DUP2 EQ PUSH2 0x3A14 JUMPI DUP1 PUSH1 0x40 MLOAD PUSH32 0xAA1D49A400000000000000000000000000000000000000000000000000000000 DUP2 MSTORE PUSH1 0x4 ADD PUSH2 0x3A0B SWAP2 SWAP1 PUSH2 0x42F9 JUMP JUMPDEST PUSH1 0x40 MLOAD DUP1 SWAP2 SUB SWAP1 REVERT JUMPDEST PUSH2 0x3A1E DUP4 DUP4 PUSH2 0x3DE8 JUMP JUMPDEST POP POP POP JUMP JUMPDEST DUP1 DUP3 DUP5 PUSH2 0x3A30 SWAP2 SWAP1 PUSH2 0x5667 JUMP JUMPDEST LT ISZERO PUSH2 0x3A71 JUMPI PUSH1 0x40 MLOAD PUSH32 0x8C379A000000000000000000000000000000000000000000000000000000000 DUP2 MSTORE PUSH1 0x4 ADD PUSH2 0x3A68 SWAP1 PUSH2 0x5EFB JUMP JUMPDEST PUSH1 0x40 MLOAD DUP1 SWAP2 SUB SWAP1 REVERT JUMPDEST POP POP POP JUMP JUMPDEST DUP1 PUSH2 0x3AB6 JUMPI PUSH1 0x40 MLOAD PUSH32 0x8C379A000000000000000000000000000000000000000000000000000000000 DUP2 MSTORE PUSH1 0x4 ADD PUSH2 0x3AAD SWAP1 PUSH2 0x5F67 JUMP JUMPDEST PUSH1 0x40 MLOAD DUP1 SWAP2 SUB SWAP1 REVERT JUMPDEST POP JUMP JUMPDEST PUSH32 0x0 PUSH20 0xFFFFFFFFFFFFFFFFFFFFFFFFFFFFFFFFFFFFFFFF AND ADDRESS PUSH20 0xFFFFFFFFFFFFFFFFFFFFFFFFFFFFFFFFFFFFFFFF AND EQ PUSH2 0x3B3E JUMPI PUSH1 0x40 MLOAD PUSH32 0xE07C8DBA00000000000000000000000000000000000000000000000000000000 DUP2 MSTORE PUSH1 0x4 ADD PUSH1 0x40 MLOAD DUP1 SWAP2 SUB SWAP1 REVERT JUMPDEST JUMP JUMPDEST DUP1 ISZERO PUSH2 0x3B81 JUMPI PUSH1 0x40 MLOAD PUSH32 0x8C379A000000000000000000000000000000000000000000000000000000000 DUP2 MSTORE PUSH1 0x4 ADD PUSH2 0x3B78 SWAP1 PUSH2 0x5FD3 JUMP JUMPDEST PUSH1 0x40 MLOAD DUP1 SWAP2 SUB SWAP1 REVERT JUMPDEST POP JUMP JUMPDEST PUSH1 0x0 PUSH1 0x8 DUP7 DUP7 PUSH1 0x40 MLOAD PUSH2 0x3B98 SWAP3 SWAP2 SWAP1 PUSH2 0x564E JUMP JUMPDEST SWAP1 DUP2 MSTORE PUSH1 0x20 ADD PUSH1 0x40 MLOAD DUP1 SWAP2 SUB SWAP1 KECCAK256 PUSH1 0x0 DUP4 DUP2 MSTORE PUSH1 0x20 ADD SWAP1 DUP2 MSTORE PUSH1 0x20 ADD PUSH1 0x0 KECCAK256 SWAP1 POP PUSH1 0x0 JUMPDEST DUP5 DUP5 SWAP1 POP DUP2 LT ISZERO PUSH2 0x3C24 JUMPI DUP5 DUP5 DUP3 DUP2 DUP2 LT PUSH2 0x3BDA JUMPI PUSH2 0x3BD9 PUSH2 0x572F JUMP JUMPDEST JUMPDEST SWAP1 POP PUSH1 0x20 MUL DUP2 ADD SWAP1 PUSH2 0x3BEC SWAP2 SWAP1 PUSH2 0x576D JUMP JUMPDEST DUP4 DUP4 DUP2 SLOAD DUP2 LT PUSH2 0x3BFF JUMPI PUSH2 0x3BFE PUSH2 0x572F JUMP JUMPDEST JUMPDEST SWAP1 PUSH1 0x0 MSTORE PUSH1 0x20 PUSH1 0x0 KECCAK256 ADD SWAP2 DUP3 PUSH2 0x3C16 SWAP3 SWAP2 SWAP1 PUSH2 0x57DB JUMP JUMPDEST POP DUP1 DUP1 PUSH1 0x1 ADD SWAP2 POP POP PUSH2 0x3BBC JUMP JUMPDEST POP POP POP POP POP POP POP JUMP JUMPDEST DUP1 DUP3 GT ISZERO PUSH2 0x3C70 JUMPI PUSH1 0x40 MLOAD PUSH32 0x8C379A000000000000000000000000000000000000000000000000000000000 DUP2 MSTORE PUSH1 0x4 ADD PUSH2 0x3C67 SWAP1 PUSH2 0x603F JUMP JUMPDEST PUSH1 0x40 MLOAD DUP1 SWAP2 SUB SWAP1 REVERT JUMPDEST POP POP JUMP JUMPDEST DUP1 DUP3 LT ISZERO PUSH2 0x3CB7 JUMPI PUSH1 0x40 MLOAD PUSH32 0x8C379A000000000000000000000000000000000000000000000000000000000 DUP2 MSTORE PUSH1 0x4 ADD PUSH2 0x3CAE SWAP1 PUSH2 0x60F7 JUMP JUMPDEST PUSH1 0x40 MLOAD DUP1 SWAP2 SUB SWAP1 REVERT JUMPDEST POP POP JUMP JUMPDEST PUSH1 0x0 PUSH32 0xF0C57E16840DF040F15088DC2F81FE391C3923BEC73E23A9662EFC9C229C6A00 SWAP1 POP SWAP1 JUMP JUMPDEST PUSH2 0x3CEB PUSH2 0x3E5B JUMP JUMPDEST JUMP JUMPDEST DUP1 DUP3 DUP5 PUSH2 0x3CFA SWAP2 SWAP1 PUSH2 0x514B JUMP JUMPDEST GT ISZERO PUSH2 0x3D3B JUMPI PUSH1 0x40 MLOAD PUSH32 0x8C379A000000000000000000000000000000000000000000000000000000000 DUP2 MSTORE PUSH1 0x4 ADD PUSH2 0x3D32 SWAP1 PUSH2 0x6163 JUMP JUMPDEST PUSH1 0x40 MLOAD DUP1 SWAP2 SUB SWAP1 REVERT JUMPDEST POP POP POP JUMP JUMPDEST PUSH2 0x3D4A DUP3 DUP3 PUSH2 0x1D35 JUMP JUMPDEST PUSH2 0x3D8D JUMPI DUP1 DUP3 PUSH1 0x40 MLOAD PUSH32 0xE2517D3F00000000000000000000000000000000000000000000000000000000 DUP2 MSTORE PUSH1 0x4 ADD PUSH2 0x3D84 SWAP3 SWAP2 SWAP1 PUSH2 0x6183 JUMP JUMPDEST PUSH1 0x40 MLOAD DUP1 SWAP2 SUB SWAP1 REVERT JUMPDEST POP POP JUMP JUMPDEST PUSH1 0x0 PUSH2 0x3DBF PUSH32 0x360894A13BA1A3210667C828492DB98DCA3E2076CC3735A920A3CA505D382BBC PUSH1 0x0 SHL PUSH2 0x3E9B JUMP JUMPDEST PUSH1 0x0 ADD PUSH1 0x0 SWAP1 SLOAD SWAP1 PUSH2 0x100 EXP SWAP1 DIV PUSH20 0xFFFFFFFFFFFFFFFFFFFFFFFFFFFFFFFFFFFFFFFF AND SWAP1 POP SWAP1 JUMP JUMPDEST PUSH2 0x3DF1 DUP3 PUSH2 0x3EA5 JUMP JUMPDEST DUP2 PUSH20 0xFFFFFFFFFFFFFFFFFFFFFFFFFFFFFFFFFFFFFFFF AND PUSH32 0xBC7CD75A20EE27FD9ADEBAB32041F755214DBC6BFFA90CC0225B39DA2E5C2D3B PUSH1 0x40 MLOAD PUSH1 0x40 MLOAD DUP1 SWAP2 SUB SWAP1 LOG2 PUSH1 0x0 DUP2 MLOAD GT ISZERO PUSH2 0x3E4E JUMPI PUSH2 0x3E48 DUP3 DUP3 PUSH2 0x3F72 JUMP JUMPDEST POP PUSH2 0x3E57 JUMP JUMPDEST PUSH2 0x3E56 PUSH2 0x3FF6 JUMP JUMPDEST JUMPDEST POP POP JUMP JUMPDEST PUSH2 0x3E63 PUSH2 0x4033 JUMP JUMPDEST PUSH2 0x3E99 JUMPI PUSH1 0x40 MLOAD PUSH32 0xD7E6BCF800000000000000000000000000000000000000000000000000000000 DUP2 MSTORE PUSH1 0x4 ADD PUSH1 0x40 MLOAD DUP1 SWAP2 SUB SWAP1 REVERT JUMPDEST JUMP JUMPDEST PUSH1 0x0 DUP2 SWAP1 POP SWAP2 SWAP1 POP JUMP JUMPDEST PUSH1 0x0 DUP2 PUSH20 0xFFFFFFFFFFFFFFFFFFFFFFFFFFFFFFFFFFFFFFFF AND EXTCODESIZE SUB PUSH2 0x3F01 JUMPI DUP1 PUSH1 0x40 MLOAD PUSH32 0x4C9C8CE300000000000000000000000000000000000000000000000000000000 DUP2 MSTORE PUSH1 0x4 ADD PUSH2 0x3EF8 SWAP2 SWAP1 PUSH2 0x4D59 JUMP JUMPDEST PUSH1 0x40 MLOAD DUP1 SWAP2 SUB SWAP1 REVERT JUMPDEST DUP1 PUSH2 0x3F2E PUSH32 0x360894A13BA1A3210667C828492DB98DCA3E2076CC3735A920A3CA505D382BBC PUSH1 0x0 SHL PUSH2 0x3E9B JUMP JUMPDEST PUSH1 0x0 ADD PUSH1 0x0 PUSH2 0x100 EXP DUP2 SLOAD DUP2 PUSH20 0xFFFFFFFFFFFFFFFFFFFFFFFFFFFFFFFFFFFFFFFF MUL NOT AND SWAP1 DUP4 PUSH20 0xFFFFFFFFFFFFFFFFFFFFFFFFFFFFFFFFFFFFFFFF AND MUL OR SWAP1 SSTORE POP POP JUMP JUMPDEST PUSH1 0x60 PUSH1 0x0 DUP1 DUP5 PUSH20 0xFFFFFFFFFFFFFFFFFFFFFFFFFFFFFFFFFFFFFFFF AND DUP5 PUSH1 0x40 MLOAD PUSH2 0x3F9C SWAP2 SWAP1 PUSH2 0x61E8 JUMP JUMPDEST PUSH1 0x0 PUSH1 0x40 MLOAD DUP1 DUP4 SUB DUP2 DUP6 GAS DELEGATECALL SWAP2 POP POP RETURNDATASIZE DUP1 PUSH1 0x0 DUP2 EQ PUSH2 0x3FD7 JUMPI PUSH1 0x40 MLOAD SWAP2 POP PUSH1 0x1F NOT PUSH1 0x3F RETURNDATASIZE ADD AND DUP3 ADD PUSH1 0x40 MSTORE RETURNDATASIZE DUP3 MSTORE RETURNDATASIZE PUSH1 0x0 PUSH1 0x20 DUP5 ADD RETURNDATACOPY PUSH2 0x3FDC JUMP JUMPDEST PUSH1 0x60 SWAP2 POP JUMPDEST POP SWAP2 POP SWAP2 POP PUSH2 0x3FEC DUP6 DUP4 DUP4 PUSH2 0x4053 JUMP JUMPDEST SWAP3 POP POP POP SWAP3 SWAP2 POP POP JUMP JUMPDEST PUSH1 0x0 CALLVALUE GT ISZERO PUSH2 0x4031 JUMPI PUSH1 0x40 MLOAD PUSH32 0xB398979F00000000000000000000000000000000000000000000000000000000 DUP2 MSTORE PUSH1 0x4 ADD PUSH1 0x40 MLOAD DUP1 SWAP2 SUB SWAP1 REVERT JUMPDEST JUMP JUMPDEST PUSH1 0x0 PUSH2 0x403D PUSH2 0x3CBB JUMP JUMPDEST PUSH1 0x0 ADD PUSH1 0x8 SWAP1 SLOAD SWAP1 PUSH2 0x100 EXP SWAP1 DIV PUSH1 0xFF AND SWAP1 POP SWAP1 JUMP JUMPDEST PUSH1 0x60 DUP3 PUSH2 0x4068 JUMPI PUSH2 0x4063 DUP3 PUSH2 0x40E2 JUMP JUMPDEST PUSH2 0x40DA JUMP JUMPDEST PUSH1 0x0 DUP3 MLOAD EQ DUP1 ISZERO PUSH2 0x4090 JUMPI POP PUSH1 0x0 DUP5 PUSH20 0xFFFFFFFFFFFFFFFFFFFFFFFFFFFFFFFFFFFFFFFF AND EXTCODESIZE EQ JUMPDEST ISZERO PUSH2 0x40D2 JUMPI DUP4 PUSH1 0x40 MLOAD PUSH32 0x9996B31500000000000000000000000000000000000000000000000000000000 DUP2 MSTORE PUSH1 0x4 ADD PUSH2 0x40C9 SWAP2 SWAP1 PUSH2 0x4D59 JUMP JUMPDEST PUSH1 0x40 MLOAD DUP1 SWAP2 SUB SWAP1 REVERT JUMPDEST DUP2 SWAP1 POP PUSH2 0x40DB JUMP JUMPDEST JUMPDEST SWAP4 SWAP3 POP POP POP JUMP JUMPDEST PUSH1 0x0 DUP2 MLOAD GT ISZERO PUSH2 0x40F5 JUMPI DUP1 MLOAD DUP1 DUP3 PUSH1 0x20 ADD REVERT JUMPDEST PUSH1 0x40 MLOAD PUSH32 0x1425EA4200000000000000000000000000000000000000000000000000000000 DUP2 MSTORE PUSH1 0x4 ADD PUSH1 0x40 MLOAD DUP1 SWAP2 SUB SWAP1 REVERT JUMPDEST POP DUP1 SLOAD PUSH2 0x4133 SWAP1 PUSH2 0x50EB JUMP JUMPDEST PUSH1 0x0 DUP3 SSTORE DUP1 PUSH1 0x1F LT PUSH2 0x4145 JUMPI POP PUSH2 0x4164 JUMP JUMPDEST PUSH1 0x1F ADD PUSH1 0x20 SWAP1 DIV SWAP1 PUSH1 0x0 MSTORE PUSH1 0x20 PUSH1 0x0 KECCAK256 SWAP1 DUP2 ADD SWAP1 PUSH2 0x4163 SWAP2 SWAP1 PUSH2 0x4167 JUMP JUMPDEST JUMPDEST POP JUMP JUMPDEST JUMPDEST DUP1 DUP3 GT ISZERO PUSH2 0x4180 JUMPI PUSH1 0x0 DUP2 PUSH1 0x0 SWAP1 SSTORE POP PUSH1 0x1 ADD PUSH2 0x4168 JUMP JUMPDEST POP SWAP1 JUMP JUMPDEST PUSH1 0x0 PUSH1 0x40 MLOAD SWAP1 POP SWAP1 JUMP JUMPDEST PUSH1 0x0 DUP1 REVERT JUMPDEST PUSH1 0x0 DUP1 REVERT JUMPDEST PUSH1 0x0 PUSH32 0xFFFFFFFF00000000000000000000000000000000000000000000000000000000 DUP3 AND SWAP1 POP SWAP2 SWAP1 POP JUMP JUMPDEST PUSH2 0x41CD DUP2 PUSH2 0x4198 JUMP JUMPDEST DUP2 EQ PUSH2 0x41D8 JUMPI PUSH1 0x0 DUP1 REVERT JUMPDEST POP JUMP JUMPDEST PUSH1 0x0 DUP2 CALLDATALOAD SWAP1 POP PUSH2 0x41EA DUP2 PUSH2 0x41C4 JUMP JUMPDEST SWAP3 SWAP2 POP POP JUMP JUMPDEST PUSH1 0x0 PUSH1 0x20 DUP3 DUP5 SUB SLT ISZERO PUSH2 0x4206 JUMPI PUSH2 0x4205 PUSH2 0x418E JUMP JUMPDEST JUMPDEST PUSH1 0x0 PUSH2 0x4214 DUP5 DUP3 DUP6 ADD PUSH2 0x41DB JUMP JUMPDEST SWAP2 POP POP SWAP3 SWAP2 POP POP JUMP JUMPDEST PUSH1 0x0 DUP2 ISZERO ISZERO SWAP1 POP SWAP2 SWAP1 POP JUMP JUMPDEST PUSH2 0x4232 DUP2 PUSH2 0x421D JUMP JUMPDEST DUP3 MSTORE POP POP JUMP JUMPDEST PUSH1 0x0 PUSH1 0x20 DUP3 ADD SWAP1 POP PUSH2 0x424D PUSH1 0x0 DUP4 ADD DUP5 PUSH2 0x4229 JUMP JUMPDEST SWAP3 SWAP2 POP POP JUMP JUMPDEST PUSH1 0x0 DUP2 SWAP1 POP SWAP2 SWAP1 POP JUMP JUMPDEST PUSH2 0x4266 DUP2 PUSH2 0x4253 JUMP JUMPDEST DUP3 MSTORE POP POP JUMP JUMPDEST PUSH1 0x0 PUSH1 0x20 DUP3 ADD SWAP1 POP PUSH2 0x4281 PUSH1 0x0 DUP4 ADD DUP5 PUSH2 0x425D JUMP JUMPDEST SWAP3 SWAP2 POP POP JUMP JUMPDEST PUSH1 0x0 DUP2 SWAP1 POP SWAP2 SWAP1 POP JUMP JUMPDEST PUSH2 0x429A DUP2 PUSH2 0x4287 JUMP JUMPDEST DUP2 EQ PUSH2 0x42A5 JUMPI PUSH1 0x0 DUP1 REVERT JUMPDEST POP JUMP JUMPDEST PUSH1 0x0 DUP2 CALLDATALOAD SWAP1 POP PUSH2 0x42B7 DUP2 PUSH2 0x4291 JUMP JUMPDEST SWAP3 SWAP2 POP POP JUMP JUMPDEST PUSH1 0x0 PUSH1 0x20 DUP3 DUP5 SUB SLT ISZERO PUSH2 0x42D3 JUMPI PUSH2 0x42D2 PUSH2 0x418E JUMP JUMPDEST JUMPDEST PUSH1 0x0 PUSH2 0x42E1 DUP5 DUP3 DUP6 ADD PUSH2 0x42A8 JUMP JUMPDEST SWAP2 POP POP SWAP3 SWAP2 POP POP JUMP JUMPDEST PUSH2 0x42F3 DUP2 PUSH2 0x4287 JUMP JUMPDEST DUP3 MSTORE POP POP JUMP JUMPDEST PUSH1 0x0 PUSH1 0x20 DUP3 ADD SWAP1 POP PUSH2 0x430E PUSH1 0x0 DUP4 ADD DUP5 PUSH2 0x42EA JUMP JUMPDEST SWAP3 SWAP2 POP POP JUMP JUMPDEST PUSH1 0x0 DUP1 REVERT JUMPDEST PUSH1 0x0 DUP1 REVERT JUMPDEST PUSH1 0x0 DUP1 REVERT JUMPDEST PUSH1 0x0 DUP1 DUP4 PUSH1 0x1F DUP5 ADD SLT PUSH2 0x4339 JUMPI PUSH2 0x4338 PUSH2 0x4314 JUMP JUMPDEST JUMPDEST DUP3 CALLDATALOAD SWAP1 POP PUSH8 0xFFFFFFFFFFFFFFFF DUP2 GT ISZERO PUSH2 0x4356 JUMPI PUSH2 0x4355 PUSH2 0x4319 JUMP JUMPDEST JUMPDEST PUSH1 0x20 DUP4 ADD SWAP2 POP DUP4 PUSH1 0x1 DUP3 MUL DUP4 ADD GT ISZERO PUSH2 0x4372 JUMPI PUSH2 0x4371 PUSH2 0x431E JUMP JUMPDEST JUMPDEST SWAP3 POP SWAP3 SWAP1 POP JUMP JUMPDEST PUSH1 0x0 DUP1 REVERT JUMPDEST PUSH1 0x0 PUSH1 0x1F NOT PUSH1 0x1F DUP4 ADD AND SWAP1 POP SWAP2 SWAP1 POP JUMP JUMPDEST PUSH32 0x4E487B7100000000000000000000000000000000000000000000000000000000 PUSH1 0x0 MSTORE PUSH1 0x41 PUSH1 0x4 MSTORE PUSH1 0x24 PUSH1 0x0 REVERT JUMPDEST PUSH2 0x43C7 DUP3 PUSH2 0x437E JUMP JUMPDEST DUP2 ADD DUP2 DUP2 LT PUSH8 0xFFFFFFFFFFFFFFFF DUP3 GT OR ISZERO PUSH2 0x43E6 JUMPI PUSH2 0x43E5 PUSH2 0x438F JUMP JUMPDEST JUMPDEST DUP1 PUSH1 0x40 MSTORE POP POP POP JUMP JUMPDEST PUSH1 0x0 PUSH2 0x43F9 PUSH2 0x4184 JUMP JUMPDEST SWAP1 POP PUSH2 0x4405 DUP3 DUP3 PUSH2 0x43BE JUMP JUMPDEST SWAP2 SWAP1 POP JUMP JUMPDEST PUSH1 0x0 PUSH8 0xFFFFFFFFFFFFFFFF DUP3 GT ISZERO PUSH2 0x4425 JUMPI PUSH2 0x4424 PUSH2 0x438F JUMP JUMPDEST JUMPDEST PUSH2 0x442E DUP3 PUSH2 0x437E JUMP JUMPDEST SWAP1 POP PUSH1 0x20 DUP2 ADD SWAP1 POP SWAP2 SWAP1 POP JUMP JUMPDEST DUP3 DUP2 DUP4 CALLDATACOPY PUSH1 0x0 DUP4 DUP4 ADD MSTORE POP POP POP JUMP JUMPDEST PUSH1 0x0 PUSH2 0x445D PUSH2 0x4458 DUP5 PUSH2 0x440A JUMP JUMPDEST PUSH2 0x43EF JUMP JUMPDEST SWAP1 POP DUP3 DUP2 MSTORE PUSH1 0x20 DUP2 ADD DUP5 DUP5 DUP5 ADD GT ISZERO PUSH2 0x4479 JUMPI PUSH2 0x4478 PUSH2 0x4379 JUMP JUMPDEST JUMPDEST PUSH2 0x4484 DUP5 DUP3 DUP6 PUSH2 0x443B JUMP JUMPDEST POP SWAP4 SWAP3 POP POP POP JUMP JUMPDEST PUSH1 0x0 DUP3 PUSH1 0x1F DUP4 ADD SLT PUSH2 0x44A1 JUMPI PUSH2 0x44A0 PUSH2 0x4314 JUMP JUMPDEST JUMPDEST DUP2 CALLDATALOAD PUSH2 0x44B1 DUP5 DUP3 PUSH1 0x20 DUP7 ADD PUSH2 0x444A JUMP JUMPDEST SWAP2 POP POP SWAP3 SWAP2 POP POP JUMP JUMPDEST PUSH2 0x44C3 DUP2 PUSH2 0x4253 JUMP JUMPDEST DUP2 EQ PUSH2 0x44CE JUMPI PUSH1 0x0 DUP1 REVERT JUMPDEST POP JUMP JUMPDEST PUSH1 0x0 DUP2 CALLDATALOAD SWAP1 POP PUSH2 0x44E0 DUP2 PUSH2 0x44BA JUMP JUMPDEST SWAP3 SWAP2 POP POP JUMP JUMPDEST PUSH1 0x0 PUSH20 0xFFFFFFFFFFFFFFFFFFFFFFFFFFFFFFFFFFFFFFFF DUP3 AND SWAP1 POP SWAP2 SWAP1 POP JUMP JUMPDEST PUSH1 0x0 PUSH2 0x4511 DUP3 PUSH2 0x44E6 JUMP JUMPDEST SWAP1 POP SWAP2 SWAP1 POP JUMP JUMPDEST PUSH2 0x4521 DUP2 PUSH2 0x4506 JUMP JUMPDEST DUP2 EQ PUSH2 0x452C JUMPI PUSH1 0x0 DUP1 REVERT JUMPDEST POP JUMP JUMPDEST PUSH1 0x0 DUP2 CALLDATALOAD SWAP1 POP PUSH2 0x453E DUP2 PUSH2 0x4518 JUMP JUMPDEST SWAP3 SWAP2 POP POP JUMP JUMPDEST PUSH1 0x0 DUP1 PUSH1 0x0 DUP1 PUSH1 0x0 DUP1 PUSH1 0x0 DUP1 PUSH1 0xE0 DUP10 DUP12 SUB SLT ISZERO PUSH2 0x4564 JUMPI PUSH2 0x4563 PUSH2 0x418E JUMP JUMPDEST JUMPDEST PUSH1 0x0 DUP10 ADD CALLDATALOAD PUSH8 0xFFFFFFFFFFFFFFFF DUP2 GT ISZERO PUSH2 0x4582 JUMPI PUSH2 0x4581 PUSH2 0x4193 JUMP JUMPDEST JUMPDEST PUSH2 0x458E DUP12 DUP3 DUP13 ADD PUSH2 0x4323 JUMP JUMPDEST SWAP9 POP SWAP9 POP POP PUSH1 0x20 DUP10 ADD CALLDATALOAD PUSH8 0xFFFFFFFFFFFFFFFF DUP2 GT ISZERO PUSH2 0x45B1 JUMPI PUSH2 0x45B0 PUSH2 0x4193 JUMP JUMPDEST JUMPDEST PUSH2 0x45BD DUP12 DUP3 DUP13 ADD PUSH2 0x448C JUMP JUMPDEST SWAP7 POP POP PUSH1 0x40 DUP10 ADD CALLDATALOAD PUSH8 0xFFFFFFFFFFFFFFFF DUP2 GT ISZERO PUSH2 0x45DE JUMPI PUSH2 0x45DD PUSH2 0x4193 JUMP JUMPDEST JUMPDEST PUSH2 0x45EA DUP12 DUP3 DUP13 ADD PUSH2 0x448C JUMP JUMPDEST SWAP6 POP POP PUSH1 0x60 DUP10 ADD CALLDATALOAD PUSH8 0xFFFFFFFFFFFFFFFF DUP2 GT ISZERO PUSH2 0x460B JUMPI PUSH2 0x460A PUSH2 0x4193 JUMP JUMPDEST JUMPDEST PUSH2 0x4617 DUP12 DUP3 DUP13 ADD PUSH2 0x448C JUMP JUMPDEST SWAP5 POP POP PUSH1 0x80 PUSH2 0x4628 DUP12 DUP3 DUP13 ADD PUSH2 0x44D1 JUMP JUMPDEST SWAP4 POP POP PUSH1 0xA0 PUSH2 0x4639 DUP12 DUP3 DUP13 ADD PUSH2 0x452F JUMP JUMPDEST SWAP3 POP POP PUSH1 0xC0 PUSH2 0x464A DUP12 DUP3 DUP13 ADD PUSH2 0x44D1 JUMP JUMPDEST SWAP2 POP POP SWAP3 SWAP6 SWAP9 POP SWAP3 SWAP6 SWAP9 SWAP1 SWAP4 SWAP7 POP JUMP JUMPDEST PUSH1 0x0 DUP1 PUSH1 0x40 DUP4 DUP6 SUB SLT ISZERO PUSH2 0x4671 JUMPI PUSH2 0x4670 PUSH2 0x418E JUMP JUMPDEST JUMPDEST PUSH1 0x0 PUSH2 0x467F DUP6 DUP3 DUP7 ADD PUSH2 0x42A8 JUMP JUMPDEST SWAP3 POP POP PUSH1 0x20 PUSH2 0x4690 DUP6 DUP3 DUP7 ADD PUSH2 0x452F JUMP JUMPDEST SWAP2 POP POP SWAP3 POP SWAP3 SWAP1 POP JUMP JUMPDEST PUSH1 0x0 PUSH1 0x20 DUP3 DUP5 SUB SLT ISZERO PUSH2 0x46B0 JUMPI PUSH2 0x46AF PUSH2 0x418E JUMP JUMPDEST JUMPDEST PUSH1 0x0 PUSH2 0x46BE DUP5 DUP3 DUP6 ADD PUSH2 0x452F JUMP JUMPDEST SWAP2 POP POP SWAP3 SWAP2 POP POP JUMP JUMPDEST PUSH1 0x0 DUP1 DUP4 PUSH1 0x1F DUP5 ADD SLT PUSH2 0x46DD JUMPI PUSH2 0x46DC PUSH2 0x4314 JUMP JUMPDEST JUMPDEST DUP3 CALLDATALOAD SWAP1 POP PUSH8 0xFFFFFFFFFFFFFFFF DUP2 GT ISZERO PUSH2 0x46FA JUMPI PUSH2 0x46F9 PUSH2 0x4319 JUMP JUMPDEST JUMPDEST PUSH1 0x20 DUP4 ADD SWAP2 POP DUP4 PUSH1 0x1 DUP3 MUL DUP4 ADD GT ISZERO PUSH2 0x4716 JUMPI PUSH2 0x4715 PUSH2 0x431E JUMP JUMPDEST JUMPDEST SWAP3 POP SWAP3 SWAP1 POP JUMP JUMPDEST PUSH1 0x0 DUP1 PUSH1 0x0 PUSH1 0x40 DUP5 DUP7 SUB SLT ISZERO PUSH2 0x4736 JUMPI PUSH2 0x4735 PUSH2 0x418E JUMP JUMPDEST JUMPDEST PUSH1 0x0 DUP5 ADD CALLDATALOAD PUSH8 0xFFFFFFFFFFFFFFFF DUP2 GT ISZERO PUSH2 0x4754 JUMPI PUSH2 0x4753 PUSH2 0x4193 JUMP JUMPDEST JUMPDEST PUSH2 0x4760 DUP7 DUP3 DUP8 ADD PUSH2 0x46C7 JUMP JUMPDEST SWAP4 POP SWAP4 POP POP PUSH1 0x20 PUSH2 0x4773 DUP7 DUP3 DUP8 ADD PUSH2 0x44D1 JUMP JUMPDEST SWAP2 POP POP SWAP3 POP SWAP3 POP SWAP3 JUMP JUMPDEST PUSH1 0x0 DUP2 MLOAD SWAP1 POP SWAP2 SWAP1 POP JUMP JUMPDEST PUSH1 0x0 DUP3 DUP3 MSTORE PUSH1 0x20 DUP3 ADD SWAP1 POP SWAP3 SWAP2 POP POP JUMP JUMPDEST PUSH1 0x0 DUP2 SWAP1 POP PUSH1 0x20 DUP3 ADD SWAP1 POP SWAP2 SWAP1 POP JUMP JUMPDEST PUSH1 0x0 DUP2 MLOAD SWAP1 POP SWAP2 SWAP1 POP JUMP JUMPDEST PUSH1 0x0 DUP3 DUP3 MSTORE PUSH1 0x20 DUP3 ADD SWAP1 POP SWAP3 SWAP2 POP POP JUMP JUMPDEST PUSH1 0x0 JUMPDEST DUP4 DUP2 LT ISZERO PUSH2 0x47E3 JUMPI DUP1 DUP3 ADD MLOAD DUP2 DUP5 ADD MSTORE PUSH1 0x20 DUP2 ADD SWAP1 POP PUSH2 0x47C8 JUMP JUMPDEST PUSH1 0x0 DUP5 DUP5 ADD MSTORE POP POP POP POP JUMP JUMPDEST PUSH1 0x0 PUSH2 0x47FA DUP3 PUSH2 0x47A9 JUMP JUMPDEST PUSH2 0x4804 DUP2 DUP6 PUSH2 0x47B4 JUMP JUMPDEST SWAP4 POP PUSH2 0x4814 DUP2 DUP6 PUSH1 0x20 DUP7 ADD PUSH2 0x47C5 JUMP JUMPDEST PUSH2 0x481D DUP2 PUSH2 0x437E JUMP JUMPDEST DUP5 ADD SWAP2 POP POP SWAP3 SWAP2 POP POP JUMP JUMPDEST PUSH1 0x0 PUSH2 0x4834 DUP4 DUP4 PUSH2 0x47EF JUMP JUMPDEST SWAP1 POP SWAP3 SWAP2 POP POP JUMP JUMPDEST PUSH1 0x0 PUSH1 0x20 DUP3 ADD SWAP1 POP SWAP2 SWAP1 POP JUMP JUMPDEST PUSH1 0x0 PUSH2 0x4854 DUP3 PUSH2 0x477D JUMP JUMPDEST PUSH2 0x485E DUP2 DUP6 PUSH2 0x4788 JUMP JUMPDEST SWAP4 POP DUP4 PUSH1 0x20 DUP3 MUL DUP6 ADD PUSH2 0x4870 DUP6 PUSH2 0x4799 JUMP JUMPDEST DUP1 PUSH1 0x0 JUMPDEST DUP6 DUP2 LT ISZERO PUSH2 0x48AC JUMPI DUP5 DUP5 SUB DUP10 MSTORE DUP2 MLOAD PUSH2 0x488D DUP6 DUP3 PUSH2 0x4828 JUMP JUMPDEST SWAP5 POP PUSH2 0x4898 DUP4 PUSH2 0x483C JUMP JUMPDEST SWAP3 POP PUSH1 0x20 DUP11 ADD SWAP10 POP POP PUSH1 0x1 DUP2 ADD SWAP1 POP PUSH2 0x4874 JUMP JUMPDEST POP DUP3 SWAP8 POP DUP8 SWAP6 POP POP POP POP POP POP SWAP3 SWAP2 POP POP JUMP JUMPDEST PUSH1 0x0 PUSH1 0x20 DUP3 ADD SWAP1 POP DUP2 DUP2 SUB PUSH1 0x0 DUP4 ADD MSTORE PUSH2 0x48D8 DUP2 DUP5 PUSH2 0x4849 JUMP JUMPDEST SWAP1 POP SWAP3 SWAP2 POP POP JUMP JUMPDEST PUSH1 0x0 PUSH8 0xFFFFFFFFFFFFFFFF DUP3 GT ISZERO PUSH2 0x48FB JUMPI PUSH2 0x48FA PUSH2 0x438F JUMP JUMPDEST JUMPDEST PUSH2 0x4904 DUP3 PUSH2 0x437E JUMP JUMPDEST SWAP1 POP PUSH1 0x20 DUP2 ADD SWAP1 POP SWAP2 SWAP1 POP JUMP JUMPDEST PUSH1 0x0 PUSH2 0x4924 PUSH2 0x491F DUP5 PUSH2 0x48E0 JUMP JUMPDEST PUSH2 0x43EF JUMP JUMPDEST SWAP1 POP DUP3 DUP2 MSTORE PUSH1 0x20 DUP2 ADD DUP5 DUP5 DUP5 ADD GT ISZERO PUSH2 0x4940 JUMPI PUSH2 0x493F PUSH2 0x4379 JUMP JUMPDEST JUMPDEST PUSH2 0x494B DUP5 DUP3 DUP6 PUSH2 0x443B JUMP JUMPDEST POP SWAP4 SWAP3 POP POP POP JUMP JUMPDEST PUSH1 0x0 DUP3 PUSH1 0x1F DUP4 ADD SLT PUSH2 0x4968 JUMPI PUSH2 0x4967 PUSH2 0x4314 JUMP JUMPDEST JUMPDEST DUP2 CALLDATALOAD PUSH2 0x4978 DUP5 DUP3 PUSH1 0x20 DUP7 ADD PUSH2 0x4911 JUMP JUMPDEST SWAP2 POP POP SWAP3 SWAP2 POP POP JUMP JUMPDEST PUSH1 0x0 DUP1 PUSH1 0x40 DUP4 DUP6 SUB SLT ISZERO PUSH2 0x4998 JUMPI PUSH2 0x4997 PUSH2 0x418E JUMP JUMPDEST JUMPDEST PUSH1 0x0 PUSH2 0x49A6 DUP6 DUP3 DUP7 ADD PUSH2 0x452F JUMP JUMPDEST SWAP3 POP POP PUSH1 0x20 DUP4 ADD CALLDATALOAD PUSH8 0xFFFFFFFFFFFFFFFF DUP2 GT ISZERO PUSH2 0x49C7 JUMPI PUSH2 0x49C6 PUSH2 0x4193 JUMP JUMPDEST JUMPDEST PUSH2 0x49D3 DUP6 DUP3 DUP7 ADD PUSH2 0x4953 JUMP JUMPDEST SWAP2 POP POP SWAP3 POP SWAP3 SWAP1 POP JUMP JUMPDEST PUSH1 0x0 PUSH1 0x20 DUP3 DUP5 SUB SLT ISZERO PUSH2 0x49F3 JUMPI PUSH2 0x49F2 PUSH2 0x418E JUMP JUMPDEST JUMPDEST PUSH1 0x0 PUSH2 0x4A01 DUP5 DUP3 DUP6 ADD PUSH2 0x44D1 JUMP JUMPDEST SWAP2 POP POP SWAP3 SWAP2 POP POP JUMP JUMPDEST PUSH1 0x0 DUP1 PUSH1 0x40 DUP4 DUP6 SUB SLT ISZERO PUSH2 0x4A21 JUMPI PUSH2 0x4A20 PUSH2 0x418E JUMP JUMPDEST JUMPDEST PUSH1 0x0 PUSH2 0x4A2F DUP6 DUP3 DUP7 ADD PUSH2 0x44D1 JUMP JUMPDEST SWAP3 POP POP PUSH1 0x20 PUSH2 0x4A40 DUP6 DUP3 DUP7 ADD PUSH2 0x44D1 JUMP JUMPDEST SWAP2 POP POP SWAP3 POP SWAP3 SWAP1 POP JUMP JUMPDEST PUSH1 0x0 DUP1 DUP4 PUSH1 0x1F DUP5 ADD SLT PUSH2 0x4A60 JUMPI PUSH2 0x4A5F PUSH2 0x4314 JUMP JUMPDEST JUMPDEST DUP3 CALLDATALOAD SWAP1 POP PUSH8 0xFFFFFFFFFFFFFFFF DUP2 GT ISZERO PUSH2 0x4A7D JUMPI PUSH2 0x4A7C PUSH2 0x4319 JUMP JUMPDEST JUMPDEST PUSH1 0x20 DUP4 ADD SWAP2 POP DUP4 PUSH1 0x20 DUP3 MUL DUP4 ADD GT ISZERO PUSH2 0x4A99 JUMPI PUSH2 0x4A98 PUSH2 0x431E JUMP JUMPDEST JUMPDEST SWAP3 POP SWAP3 SWAP1 POP JUMP JUMPDEST PUSH1 0x0 DUP1 PUSH1 0x20 DUP4 DUP6 SUB SLT ISZERO PUSH2 0x4AB7 JUMPI PUSH2 0x4AB6 PUSH2 0x418E JUMP JUMPDEST JUMPDEST PUSH1 0x0 DUP4 ADD CALLDATALOAD PUSH8 0xFFFFFFFFFFFFFFFF DUP2 GT ISZERO PUSH2 0x4AD5 JUMPI PUSH2 0x4AD4 PUSH2 0x4193 JUMP JUMPDEST JUMPDEST PUSH2 0x4AE1 DUP6 DUP3 DUP7 ADD PUSH2 0x4A4A JUMP JUMPDEST SWAP3 POP SWAP3 POP POP SWAP3 POP SWAP3 SWAP1 POP JUMP JUMPDEST PUSH2 0x4AF6 DUP2 PUSH2 0x4506 JUMP JUMPDEST DUP3 MSTORE POP POP JUMP JUMPDEST PUSH1 0x0 DUP3 DUP3 MSTORE PUSH1 0x20 DUP3 ADD SWAP1 POP SWAP3 SWAP2 POP POP JUMP JUMPDEST PUSH1 0x0 PUSH2 0x4B18 DUP3 PUSH2 0x47A9 JUMP JUMPDEST PUSH2 0x4B22 DUP2 DUP6 PUSH2 0x4AFC JUMP JUMPDEST SWAP4 POP PUSH2 0x4B32 DUP2 DUP6 PUSH1 0x20 DUP7 ADD PUSH2 0x47C5 JUMP JUMPDEST PUSH2 0x4B3B DUP2 PUSH2 0x437E JUMP JUMPDEST DUP5 ADD SWAP2 POP POP SWAP3 SWAP2 POP POP JUMP JUMPDEST PUSH1 0x0 DUP2 MLOAD SWAP1 POP SWAP2 SWAP1 POP JUMP JUMPDEST PUSH1 0x0 DUP3 DUP3 MSTORE PUSH1 0x20 DUP3 ADD SWAP1 POP SWAP3 SWAP2 POP POP JUMP JUMPDEST PUSH1 0x0 PUSH2 0x4B6D DUP3 PUSH2 0x4B46 JUMP JUMPDEST PUSH2 0x4B77 DUP2 DUP6 PUSH2 0x4B51 JUMP JUMPDEST SWAP4 POP PUSH2 0x4B87 DUP2 DUP6 PUSH1 0x20 DUP7 ADD PUSH2 0x47C5 JUMP JUMPDEST PUSH2 0x4B90 DUP2 PUSH2 0x437E JUMP JUMPDEST DUP5 ADD SWAP2 POP POP SWAP3 SWAP2 POP POP JUMP JUMPDEST PUSH1 0x0 PUSH2 0x160 DUP3 ADD SWAP1 POP PUSH2 0x4BB1 PUSH1 0x0 DUP4 ADD DUP15 PUSH2 0x4AED JUMP JUMPDEST PUSH2 0x4BBE PUSH1 0x20 DUP4 ADD DUP14 PUSH2 0x4AED JUMP JUMPDEST DUP2 DUP2 SUB PUSH1 0x40 DUP4 ADD MSTORE PUSH2 0x4BD0 DUP2 DUP13 PUSH2 0x4B0D JUMP JUMPDEST SWAP1 POP DUP2 DUP2 SUB PUSH1 0x60 DUP4 ADD MSTORE PUSH2 0x4BE4 DUP2 DUP12 PUSH2 0x4B0D JUMP JUMPDEST SWAP1 POP DUP2 DUP2 SUB PUSH1 0x80 DUP4 ADD MSTORE PUSH2 0x4BF8 DUP2 DUP11 PUSH2 0x4B0D JUMP JUMPDEST SWAP1 POP PUSH2 0x4C07 PUSH1 0xA0 DUP4 ADD DUP10 PUSH2 0x425D JUMP JUMPDEST PUSH2 0x4C14 PUSH1 0xC0 DUP4 ADD DUP9 PUSH2 0x425D JUMP JUMPDEST DUP2 DUP2 SUB PUSH1 0xE0 DUP4 ADD MSTORE PUSH2 0x4C26 DUP2 DUP8 PUSH2 0x4B62 JUMP JUMPDEST SWAP1 POP PUSH2 0x4C36 PUSH2 0x100 DUP4 ADD DUP7 PUSH2 0x4229 JUMP JUMPDEST PUSH2 0x4C44 PUSH2 0x120 DUP4 ADD DUP6 PUSH2 0x425D JUMP JUMPDEST PUSH2 0x4C52 PUSH2 0x140 DUP4 ADD DUP5 PUSH2 0x425D JUMP JUMPDEST SWAP13 SWAP12 POP POP POP POP POP POP POP POP POP POP POP POP JUMP JUMPDEST PUSH1 0x0 DUP1 PUSH1 0x0 DUP1 PUSH1 0x0 PUSH1 0x60 DUP7 DUP9 SUB SLT ISZERO PUSH2 0x4C7E JUMPI PUSH2 0x4C7D PUSH2 0x418E JUMP JUMPDEST JUMPDEST PUSH1 0x0 DUP7 ADD CALLDATALOAD PUSH8 0xFFFFFFFFFFFFFFFF DUP2 GT ISZERO PUSH2 0x4C9C JUMPI PUSH2 0x4C9B PUSH2 0x4193 JUMP JUMPDEST JUMPDEST PUSH2 0x4CA8 DUP9 DUP3 DUP10 ADD PUSH2 0x46C7 JUMP JUMPDEST SWAP6 POP SWAP6 POP POP PUSH1 0x20 PUSH2 0x4CBB DUP9 DUP3 DUP10 ADD PUSH2 0x44D1 JUMP JUMPDEST SWAP4 POP POP PUSH1 0x40 DUP7 ADD CALLDATALOAD PUSH8 0xFFFFFFFFFFFFFFFF DUP2 GT ISZERO PUSH2 0x4CDC JUMPI PUSH2 0x4CDB PUSH2 0x4193 JUMP JUMPDEST JUMPDEST PUSH2 0x4CE8 DUP9 DUP3 DUP10 ADD PUSH2 0x4A4A JUMP JUMPDEST SWAP3 POP SWAP3 POP POP SWAP3 SWAP6 POP SWAP3 SWAP6 SWAP1 SWAP4 POP JUMP JUMPDEST PUSH1 0x0 PUSH1 0x20 DUP3 ADD SWAP1 POP DUP2 DUP2 SUB PUSH1 0x0 DUP4 ADD MSTORE PUSH2 0x4D11 DUP2 DUP5 PUSH2 0x4B0D JUMP JUMPDEST SWAP1 POP SWAP3 SWAP2 POP POP JUMP JUMPDEST PUSH1 0x0 DUP1 PUSH1 0x40 DUP4 DUP6 SUB SLT ISZERO PUSH2 0x4D30 JUMPI PUSH2 0x4D2F PUSH2 0x418E JUMP JUMPDEST JUMPDEST PUSH1 0x0 PUSH2 0x4D3E DUP6 DUP3 DUP7 ADD PUSH2 0x44D1 JUMP JUMPDEST SWAP3 POP POP PUSH1 0x20 PUSH2 0x4D4F DUP6 DUP3 DUP7 ADD PUSH2 0x452F JUMP JUMPDEST SWAP2 POP POP SWAP3 POP SWAP3 SWAP1 POP JUMP JUMPDEST PUSH1 0x0 PUSH1 0x20 DUP3 ADD SWAP1 POP PUSH2 0x4D6E PUSH1 0x0 DUP4 ADD DUP5 PUSH2 0x4AED JUMP JUMPDEST SWAP3 SWAP2 POP POP JUMP JUMPDEST PUSH1 0x0 DUP1 DUP4 PUSH1 0x1F DUP5 ADD SLT PUSH2 0x4D8A JUMPI PUSH2 0x4D89 PUSH2 0x4314 JUMP JUMPDEST JUMPDEST DUP3 CALLDATALOAD SWAP1 POP PUSH8 0xFFFFFFFFFFFFFFFF DUP2 GT ISZERO PUSH2 0x4DA7 JUMPI PUSH2 0x4DA6 PUSH2 0x4319 JUMP JUMPDEST JUMPDEST PUSH1 0x20 DUP4 ADD SWAP2 POP DUP4 PUSH1 0x20 DUP3 MUL DUP4 ADD GT ISZERO PUSH2 0x4DC3 JUMPI PUSH2 0x4DC2 PUSH2 0x431E JUMP JUMPDEST JUMPDEST SWAP3 POP SWAP3 SWAP1 POP JUMP JUMPDEST PUSH2 0x4DD3 DUP2 PUSH2 0x421D JUMP JUMPDEST DUP2 EQ PUSH2 0x4DDE JUMPI PUSH1 0x0 DUP1 REVERT JUMPDEST POP JUMP JUMPDEST PUSH1 0x0 DUP2 CALLDATALOAD SWAP1 POP PUSH2 0x4DF0 DUP2 PUSH2 0x4DCA JUMP JUMPDEST SWAP3 SWAP2 POP POP JUMP JUMPDEST PUSH1 0x0 DUP1 PUSH1 0x0 DUP1 PUSH1 0x0 DUP1 PUSH1 0xA0 DUP8 DUP10 SUB SLT ISZERO PUSH2 0x4E13 JUMPI PUSH2 0x4E12 PUSH2 0x418E JUMP JUMPDEST JUMPDEST PUSH1 0x0 PUSH2 0x4E21 DUP10 DUP3 DUP11 ADD PUSH2 0x44D1 JUMP JUMPDEST SWAP7 POP POP PUSH1 0x20 DUP8 ADD CALLDATALOAD PUSH8 0xFFFFFFFFFFFFFFFF DUP2 GT ISZERO PUSH2 0x4E42 JUMPI PUSH2 0x4E41 PUSH2 0x4193 JUMP JUMPDEST JUMPDEST PUSH2 0x4E4E DUP10 DUP3 DUP11 ADD PUSH2 0x4D74 JUMP JUMPDEST SWAP6 POP SWAP6 POP POP PUSH1 0x40 PUSH2 0x4E61 DUP10 DUP3 DUP11 ADD PUSH2 0x4DE1 JUMP JUMPDEST SWAP4 POP POP PUSH1 0x60 PUSH2 0x4E72 DUP10 DUP3 DUP11 ADD PUSH2 0x44D1 JUMP JUMPDEST SWAP3 POP POP PUSH1 0x80 PUSH2 0x4E83 DUP10 DUP3 DUP11 ADD PUSH2 0x44D1 JUMP JUMPDEST SWAP2 POP POP SWAP3 SWAP6 POP SWAP3 SWAP6 POP SWAP3 SWAP6 JUMP JUMPDEST PUSH1 0x0 DUP1 DUP4 PUSH1 0x1F DUP5 ADD SLT PUSH2 0x4EA6 JUMPI PUSH2 0x4EA5 PUSH2 0x4314 JUMP JUMPDEST JUMPDEST DUP3 CALLDATALOAD SWAP1 POP PUSH8 0xFFFFFFFFFFFFFFFF DUP2 GT ISZERO PUSH2 0x4EC3 JUMPI PUSH2 0x4EC2 PUSH2 0x4319 JUMP JUMPDEST JUMPDEST PUSH1 0x20 DUP4 ADD SWAP2 POP DUP4 PUSH1 0x20 DUP3 MUL DUP4 ADD GT ISZERO PUSH2 0x4EDF JUMPI PUSH2 0x4EDE PUSH2 0x431E JUMP JUMPDEST JUMPDEST SWAP3 POP SWAP3 SWAP1 POP JUMP JUMPDEST PUSH1 0x0 DUP1 PUSH1 0x0 DUP1 PUSH1 0x0 PUSH1 0x60 DUP7 DUP9 SUB SLT ISZERO PUSH2 0x4F02 JUMPI PUSH2 0x4F01 PUSH2 0x418E JUMP JUMPDEST JUMPDEST PUSH1 0x0 PUSH2 0x4F10 DUP9 DUP3 DUP10 ADD PUSH2 0x452F JUMP JUMPDEST SWAP6 POP POP PUSH1 0x20 DUP7 ADD CALLDATALOAD PUSH8 0xFFFFFFFFFFFFFFFF DUP2 GT ISZERO PUSH2 0x4F31 JUMPI PUSH2 0x4F30 PUSH2 0x4193 JUMP JUMPDEST JUMPDEST PUSH2 0x4F3D DUP9 DUP3 DUP10 ADD PUSH2 0x4A4A JUMP JUMPDEST SWAP5 POP SWAP5 POP POP PUSH1 0x40 DUP7 ADD CALLDATALOAD PUSH8 0xFFFFFFFFFFFFFFFF DUP2 GT ISZERO PUSH2 0x4F60 JUMPI PUSH2 0x4F5F PUSH2 0x4193 JUMP JUMPDEST JUMPDEST PUSH2 0x4F6C DUP9 DUP3 DUP10 ADD PUSH2 0x4E90 JUMP JUMPDEST SWAP3 POP SWAP3 POP POP SWAP3 SWAP6 POP SWAP3 SWAP6 SWAP1 SWAP4 POP JUMP JUMPDEST PUSH1 0x0 DUP1 PUSH1 0x0 PUSH1 0x60 DUP5 DUP7 SUB SLT ISZERO PUSH2 0x4F94 JUMPI PUSH2 0x4F93 PUSH2 0x418E JUMP JUMPDEST JUMPDEST PUSH1 0x0 PUSH2 0x4FA2 DUP7 DUP3 DUP8 ADD PUSH2 0x44D1 JUMP JUMPDEST SWAP4 POP POP PUSH1 0x20 PUSH2 0x4FB3 DUP7 DUP3 DUP8 ADD PUSH2 0x44D1 JUMP JUMPDEST SWAP3 POP POP PUSH1 0x40 PUSH2 0x4FC4 DUP7 DUP3 DUP8 ADD PUSH2 0x44D1 JUMP JUMPDEST SWAP2 POP POP SWAP3 POP SWAP3 POP SWAP3 JUMP JUMPDEST PUSH1 0x0 DUP2 MLOAD SWAP1 POP SWAP2 SWAP1 POP JUMP JUMPDEST PUSH1 0x0 DUP3 DUP3 MSTORE PUSH1 0x20 DUP3 ADD SWAP1 POP SWAP3 SWAP2 POP POP JUMP JUMPDEST PUSH1 0x0 DUP2 SWAP1 POP PUSH1 0x20 DUP3 ADD SWAP1 POP SWAP2 SWAP1 POP JUMP JUMPDEST PUSH2 0x5003 DUP2 PUSH2 0x4287 JUMP JUMPDEST DUP3 MSTORE POP POP JUMP JUMPDEST PUSH1 0x0 PUSH2 0x5015 DUP4 DUP4 PUSH2 0x4FFA JUMP JUMPDEST PUSH1 0x20 DUP4 ADD SWAP1 POP SWAP3 SWAP2 POP POP JUMP JUMPDEST PUSH1 0x0 PUSH1 0x20 DUP3 ADD SWAP1 POP SWAP2 SWAP1 POP JUMP JUMPDEST PUSH1 0x0 PUSH2 0x5039 DUP3 PUSH2 0x4FCE JUMP JUMPDEST PUSH2 0x5043 DUP2 DUP6 PUSH2 0x4FD9 JUMP JUMPDEST SWAP4 POP PUSH2 0x504E DUP4 PUSH2 0x4FEA JUMP JUMPDEST DUP1 PUSH1 0x0 JUMPDEST DUP4 DUP2 LT ISZERO PUSH2 0x507F JUMPI DUP2 MLOAD PUSH2 0x5066 DUP9 DUP3 PUSH2 0x5009 JUMP JUMPDEST SWAP8 POP PUSH2 0x5071 DUP4 PUSH2 0x5021 JUMP JUMPDEST SWAP3 POP POP PUSH1 0x1 DUP2 ADD SWAP1 POP PUSH2 0x5052 JUMP JUMPDEST POP DUP6 SWAP4 POP POP POP POP SWAP3 SWAP2 POP POP JUMP JUMPDEST PUSH1 0x0 PUSH1 0x40 DUP3 ADD SWAP1 POP DUP2 DUP2 SUB PUSH1 0x0 DUP4 ADD MSTORE PUSH2 0x50A6 DUP2 DUP6 PUSH2 0x502E JUMP JUMPDEST SWAP1 POP PUSH2 0x50B5 PUSH1 0x20 DUP4 ADD DUP5 PUSH2 0x4229 JUMP JUMPDEST SWAP4 SWAP3 POP POP POP JUMP JUMPDEST PUSH32 0x4E487B7100000000000000000000000000000000000000000000000000000000 PUSH1 0x0 MSTORE PUSH1 0x22 PUSH1 0x4 MSTORE PUSH1 0x24 PUSH1 0x0 REVERT JUMPDEST PUSH1 0x0 PUSH1 0x2 DUP3 DIV SWAP1 POP PUSH1 0x1 DUP3 AND DUP1 PUSH2 0x5103 JUMPI PUSH1 0x7F DUP3 AND SWAP2 POP JUMPDEST PUSH1 0x20 DUP3 LT DUP2 SUB PUSH2 0x5116 JUMPI PUSH2 0x5115 PUSH2 0x50BC JUMP JUMPDEST JUMPDEST POP SWAP2 SWAP1 POP JUMP JUMPDEST PUSH32 0x4E487B7100000000000000000000000000000000000000000000000000000000 PUSH1 0x0 MSTORE PUSH1 0x11 PUSH1 0x4 MSTORE PUSH1 0x24 PUSH1 0x0 REVERT JUMPDEST PUSH1 0x0 PUSH2 0x5156 DUP3 PUSH2 0x4253 JUMP JUMPDEST SWAP2 POP PUSH2 0x5161 DUP4 PUSH2 0x4253 JUMP JUMPDEST SWAP3 POP DUP3 DUP3 ADD SWAP1 POP DUP1 DUP3 GT ISZERO PUSH2 0x5179 JUMPI PUSH2 0x5178 PUSH2 0x511C JUMP JUMPDEST JUMPDEST SWAP3 SWAP2 POP POP JUMP JUMPDEST PUSH1 0x0 PUSH2 0x518A DUP3 PUSH2 0x4253 JUMP JUMPDEST SWAP2 POP PUSH32 0xFFFFFFFFFFFFFFFFFFFFFFFFFFFFFFFFFFFFFFFFFFFFFFFFFFFFFFFFFFFFFFFF DUP3 SUB PUSH2 0x51BC JUMPI PUSH2 0x51BB PUSH2 0x511C JUMP JUMPDEST JUMPDEST PUSH1 0x1 DUP3 ADD SWAP1 POP SWAP2 SWAP1 POP JUMP JUMPDEST PUSH1 0x0 DUP2 SWAP1 POP DUP2 PUSH1 0x0 MSTORE PUSH1 0x20 PUSH1 0x0 KECCAK256 SWAP1 POP SWAP2 SWAP1 POP JUMP JUMPDEST PUSH1 0x0 PUSH1 0x20 PUSH1 0x1F DUP4 ADD DIV SWAP1 POP SWAP2 SWAP1 POP JUMP JUMPDEST PUSH1 0x0 DUP3 DUP3 SHL SWAP1 POP SWAP3 SWAP2 POP POP JUMP JUMPDEST PUSH1 0x0 PUSH1 0x8 DUP4 MUL PUSH2 0x5229 PUSH32 0xFFFFFFFFFFFFFFFFFFFFFFFFFFFFFFFFFFFFFFFFFFFFFFFFFFFFFFFFFFFFFFFF DUP3 PUSH2 0x51EC JUMP JUMPDEST PUSH2 0x5233 DUP7 DUP4 PUSH2 0x51EC JUMP JUMPDEST SWAP6 POP DUP1 NOT DUP5 AND SWAP4 POP DUP1 DUP7 AND DUP5 OR SWAP3 POP POP POP SWAP4 SWAP3 POP POP POP JUMP JUMPDEST PUSH1 0x0 DUP2 SWAP1 POP SWAP2 SWAP1 POP JUMP JUMPDEST PUSH1 0x0 PUSH2 0x5270 PUSH2 0x526B PUSH2 0x5266 DUP5 PUSH2 0x4253 JUMP JUMPDEST PUSH2 0x524B JUMP JUMPDEST PUSH2 0x4253 JUMP JUMPDEST SWAP1 POP SWAP2 SWAP1 POP JUMP JUMPDEST PUSH1 0x0 DUP2 SWAP1 POP SWAP2 SWAP1 POP JUMP JUMPDEST PUSH2 0x528A DUP4 PUSH2 0x5255 JUMP JUMPDEST PUSH2 0x529E PUSH2 0x5296 DUP3 PUSH2 0x5277 JUMP JUMPDEST DUP5 DUP5 SLOAD PUSH2 0x51F9 JUMP JUMPDEST DUP3 SSTORE POP POP POP POP JUMP JUMPDEST PUSH1 0x0 SWAP1 JUMP JUMPDEST PUSH2 0x52B3 PUSH2 0x52A6 JUMP JUMPDEST PUSH2 0x52BE DUP2 DUP5 DUP5 PUSH2 0x5281 JUMP JUMPDEST POP POP POP JUMP JUMPDEST JUMPDEST DUP2 DUP2 LT ISZERO PUSH2 0x52E2 JUMPI PUSH2 0x52D7 PUSH1 0x0 DUP3 PUSH2 0x52AB JUMP JUMPDEST PUSH1 0x1 DUP2 ADD SWAP1 POP PUSH2 0x52C4 JUMP JUMPDEST POP POP JUMP JUMPDEST PUSH1 0x1F DUP3 GT ISZERO PUSH2 0x5327 JUMPI PUSH2 0x52F8 DUP2 PUSH2 0x51C7 JUMP JUMPDEST PUSH2 0x5301 DUP5 PUSH2 0x51DC JUMP JUMPDEST DUP2 ADD PUSH1 0x20 DUP6 LT ISZERO PUSH2 0x5310 JUMPI DUP2 SWAP1 POP JUMPDEST PUSH2 0x5324 PUSH2 0x531C DUP6 PUSH2 0x51DC JUMP JUMPDEST DUP4 ADD DUP3 PUSH2 0x52C3 JUMP JUMPDEST POP POP JUMPDEST POP POP POP JUMP JUMPDEST PUSH1 0x0 DUP3 DUP3 SHR SWAP1 POP SWAP3 SWAP2 POP POP JUMP JUMPDEST PUSH1 0x0 PUSH2 0x534A PUSH1 0x0 NOT DUP5 PUSH1 0x8 MUL PUSH2 0x532C JUMP JUMPDEST NOT DUP1 DUP4 AND SWAP2 POP POP SWAP3 SWAP2 POP POP JUMP JUMPDEST PUSH1 0x0 PUSH2 0x5363 DUP4 DUP4 PUSH2 0x5339 JUMP JUMPDEST SWAP2 POP DUP3 PUSH1 0x2 MUL DUP3 OR SWAP1 POP SWAP3 SWAP2 POP POP JUMP JUMPDEST PUSH2 0x537C DUP3 PUSH2 0x47A9 JUMP JUMPDEST PUSH8 0xFFFFFFFFFFFFFFFF DUP2 GT ISZERO PUSH2 0x5395 JUMPI PUSH2 0x5394 PUSH2 0x438F JUMP JUMPDEST JUMPDEST PUSH2 0x539F DUP3 SLOAD PUSH2 0x50EB JUMP JUMPDEST PUSH2 0x53AA DUP3 DUP3 DUP6 PUSH2 0x52E6 JUMP JUMPDEST PUSH1 0x0 PUSH1 0x20 SWAP1 POP PUSH1 0x1F DUP4 GT PUSH1 0x1 DUP2 EQ PUSH2 0x53DD JUMPI PUSH1 0x0 DUP5 ISZERO PUSH2 0x53CB JUMPI DUP3 DUP8 ADD MLOAD SWAP1 POP JUMPDEST PUSH2 0x53D5 DUP6 DUP3 PUSH2 0x5357 JUMP JUMPDEST DUP7 SSTORE POP PUSH2 0x543D JUMP JUMPDEST PUSH1 0x1F NOT DUP5 AND PUSH2 0x53EB DUP7 PUSH2 0x51C7 JUMP JUMPDEST PUSH1 0x0 JUMPDEST DUP3 DUP2 LT ISZERO PUSH2 0x5413 JUMPI DUP5 DUP10 ADD MLOAD DUP3 SSTORE PUSH1 0x1 DUP3 ADD SWAP2 POP PUSH1 0x20 DUP6 ADD SWAP5 POP PUSH1 0x20 DUP2 ADD SWAP1 POP PUSH2 0x53EE JUMP JUMPDEST DUP7 DUP4 LT ISZERO PUSH2 0x5430 JUMPI DUP5 DUP10 ADD MLOAD PUSH2 0x542C PUSH1 0x1F DUP10 AND DUP3 PUSH2 0x5339 JUMP JUMPDEST DUP4 SSTORE POP JUMPDEST PUSH1 0x1 PUSH1 0x2 DUP9 MUL ADD DUP9 SSTORE POP POP POP JUMPDEST POP POP POP POP POP POP JUMP JUMPDEST PUSH1 0x0 DUP2 SWAP1 POP DUP2 PUSH1 0x0 MSTORE PUSH1 0x20 PUSH1 0x0 KECCAK256 SWAP1 POP SWAP2 SWAP1 POP JUMP JUMPDEST PUSH1 0x1F DUP3 GT ISZERO PUSH2 0x549B JUMPI PUSH2 0x546C DUP2 PUSH2 0x5445 JUMP JUMPDEST PUSH2 0x5475 DUP5 PUSH2 0x51DC JUMP JUMPDEST DUP2 ADD PUSH1 0x20 DUP6 LT ISZERO PUSH2 0x5484 JUMPI DUP2 SWAP1 POP JUMPDEST PUSH2 0x5498 PUSH2 0x5490 DUP6 PUSH2 0x51DC JUMP JUMPDEST DUP4 ADD DUP3 PUSH2 0x52C3 JUMP JUMPDEST POP POP JUMPDEST POP POP POP JUMP JUMPDEST PUSH2 0x54A9 DUP3 PUSH2 0x4B46 JUMP JUMPDEST PUSH8 0xFFFFFFFFFFFFFFFF DUP2 GT ISZERO PUSH2 0x54C2 JUMPI PUSH2 0x54C1 PUSH2 0x438F JUMP JUMPDEST JUMPDEST PUSH2 0x54CC DUP3 SLOAD PUSH2 0x50EB JUMP JUMPDEST PUSH2 0x54D7 DUP3 DUP3 DUP6 PUSH2 0x545A JUMP JUMPDEST PUSH1 0x0 PUSH1 0x20 SWAP1 POP PUSH1 0x1F DUP4 GT PUSH1 0x1 DUP2 EQ PUSH2 0x550A JUMPI PUSH1 0x0 DUP5 ISZERO PUSH2 0x54F8 JUMPI DUP3 DUP8 ADD MLOAD SWAP1 POP JUMPDEST PUSH2 0x5502 DUP6 DUP3 PUSH2 0x5357 JUMP JUMPDEST DUP7 SSTORE POP PUSH2 0x556A JUMP JUMPDEST PUSH1 0x1F NOT DUP5 AND PUSH2 0x5518 DUP7 PUSH2 0x5445 JUMP JUMPDEST PUSH1 0x0 JUMPDEST DUP3 DUP2 LT ISZERO PUSH2 0x5540 JUMPI DUP5 DUP10 ADD MLOAD DUP3 SSTORE PUSH1 0x1 DUP3 ADD SWAP2 POP PUSH1 0x20 DUP6 ADD SWAP5 POP PUSH1 0x20 DUP2 ADD SWAP1 POP PUSH2 0x551B JUMP JUMPDEST DUP7 DUP4 LT ISZERO PUSH2 0x555D JUMPI DUP5 DUP10 ADD MLOAD PUSH2 0x5559 PUSH1 0x1F DUP10 AND DUP3 PUSH2 0x5339 JUMP JUMPDEST DUP4 SSTORE POP JUMPDEST PUSH1 0x1 PUSH1 0x2 DUP9 MUL ADD DUP9 SSTORE POP POP POP JUMPDEST POP POP POP POP POP POP JUMP JUMPDEST PUSH1 0x0 PUSH2 0x557E DUP4 DUP6 PUSH2 0x4B51 JUMP JUMPDEST SWAP4 POP PUSH2 0x558B DUP4 DUP6 DUP5 PUSH2 0x443B JUMP JUMPDEST PUSH2 0x5594 DUP4 PUSH2 0x437E JUMP JUMPDEST DUP5 ADD SWAP1 POP SWAP4 SWAP3 POP POP POP JUMP JUMPDEST PUSH1 0x0 PUSH1 0xC0 DUP3 ADD SWAP1 POP DUP2 DUP2 SUB PUSH1 0x0 DUP4 ADD MSTORE PUSH2 0x55BA DUP2 DUP10 DUP12 PUSH2 0x5572 JUMP JUMPDEST SWAP1 POP DUP2 DUP2 SUB PUSH1 0x20 DUP4 ADD MSTORE PUSH2 0x55CE DUP2 DUP9 PUSH2 0x4B0D JUMP JUMPDEST SWAP1 POP DUP2 DUP2 SUB PUSH1 0x40 DUP4 ADD MSTORE PUSH2 0x55E2 DUP2 DUP8 PUSH2 0x4B0D JUMP JUMPDEST SWAP1 POP DUP2 DUP2 SUB PUSH1 0x60 DUP4 ADD MSTORE PUSH2 0x55F6 DUP2 DUP7 PUSH2 0x4B0D JUMP JUMPDEST SWAP1 POP PUSH2 0x5605 PUSH1 0x80 DUP4 ADD DUP6 PUSH2 0x425D JUMP JUMPDEST PUSH2 0x5612 PUSH1 0xA0 DUP4 ADD DUP5 PUSH2 0x425D JUMP JUMPDEST SWAP9 SWAP8 POP POP POP POP POP POP POP POP JUMP JUMPDEST PUSH1 0x0 DUP2 SWAP1 POP SWAP3 SWAP2 POP POP JUMP JUMPDEST PUSH1 0x0 PUSH2 0x5635 DUP4 DUP6 PUSH2 0x561E JUMP JUMPDEST SWAP4 POP PUSH2 0x5642 DUP4 DUP6 DUP5 PUSH2 0x443B JUMP JUMPDEST DUP3 DUP5 ADD SWAP1 POP SWAP4 SWAP3 POP POP POP JUMP JUMPDEST PUSH1 0x0 PUSH2 0x565B DUP3 DUP5 DUP7 PUSH2 0x5629 JUMP JUMPDEST SWAP2 POP DUP2 SWAP1 POP SWAP4 SWAP3 POP POP POP JUMP JUMPDEST PUSH1 0x0 PUSH2 0x5672 DUP3 PUSH2 0x4253 JUMP JUMPDEST SWAP2 POP PUSH2 0x567D DUP4 PUSH2 0x4253 JUMP JUMPDEST SWAP3 POP DUP3 DUP3 SUB SWAP1 POP DUP2 DUP2 GT ISZERO PUSH2 0x5695 JUMPI PUSH2 0x5694 PUSH2 0x511C JUMP JUMPDEST JUMPDEST SWAP3 SWAP2 POP POP JUMP JUMPDEST PUSH1 0x0 PUSH1 0x40 DUP3 ADD SWAP1 POP PUSH2 0x56B0 PUSH1 0x0 DUP4 ADD DUP6 PUSH2 0x4AED JUMP JUMPDEST PUSH2 0x56BD PUSH1 0x20 DUP4 ADD DUP5 PUSH2 0x425D JUMP JUMPDEST SWAP4 SWAP3 POP POP POP JUMP JUMPDEST PUSH1 0x0 DUP2 MLOAD SWAP1 POP PUSH2 0x56D3 DUP2 PUSH2 0x4DCA JUMP JUMPDEST SWAP3 SWAP2 POP POP JUMP JUMPDEST PUSH1 0x0 PUSH1 0x20 DUP3 DUP5 SUB SLT ISZERO PUSH2 0x56EF JUMPI PUSH2 0x56EE PUSH2 0x418E JUMP JUMPDEST JUMPDEST PUSH1 0x0 PUSH2 0x56FD DUP5 DUP3 DUP6 ADD PUSH2 0x56C4 JUMP JUMPDEST SWAP2 POP POP SWAP3 SWAP2 POP POP JUMP JUMPDEST PUSH1 0x0 PUSH1 0x40 DUP3 ADD SWAP1 POP PUSH2 0x571B PUSH1 0x0 DUP4 ADD DUP6 PUSH2 0x425D JUMP JUMPDEST PUSH2 0x5728 PUSH1 0x20 DUP4 ADD DUP5 PUSH2 0x425D JUMP JUMPDEST SWAP4 SWAP3 POP POP POP JUMP JUMPDEST PUSH32 0x4E487B7100000000000000000000000000000000000000000000000000000000 PUSH1 0x0 MSTORE PUSH1 0x32 PUSH1 0x4 MSTORE PUSH1 0x24 PUSH1 0x0 REVERT JUMPDEST PUSH1 0x0 DUP1 REVERT JUMPDEST PUSH1 0x0 DUP1 REVERT JUMPDEST PUSH1 0x0 DUP1 REVERT JUMPDEST PUSH1 0x0 DUP1 DUP4 CALLDATALOAD PUSH1 0x1 PUSH1 0x20 SUB DUP5 CALLDATASIZE SUB SUB DUP2 SLT PUSH2 0x578A JUMPI PUSH2 0x5789 PUSH2 0x575E JUMP JUMPDEST JUMPDEST DUP1 DUP5 ADD SWAP3 POP DUP3 CALLDATALOAD SWAP2 POP PUSH8 0xFFFFFFFFFFFFFFFF DUP3 GT ISZERO PUSH2 0x57AC JUMPI PUSH2 0x57AB PUSH2 0x5763 JUMP JUMPDEST JUMPDEST PUSH1 0x20 DUP4 ADD SWAP3 POP PUSH1 0x1 DUP3 MUL CALLDATASIZE SUB DUP4 SGT ISZERO PUSH2 0x57C8 JUMPI PUSH2 0x57C7 PUSH2 0x5768 JUMP JUMPDEST JUMPDEST POP SWAP3 POP SWAP3 SWAP1 POP JUMP JUMPDEST PUSH1 0x0 DUP3 SWAP1 POP SWAP3 SWAP2 POP POP JUMP JUMPDEST PUSH2 0x57E5 DUP4 DUP4 PUSH2 0x57D0 JUMP JUMPDEST PUSH8 0xFFFFFFFFFFFFFFFF DUP2 GT ISZERO PUSH2 0x57FE JUMPI PUSH2 0x57FD PUSH2 0x438F JUMP JUMPDEST JUMPDEST PUSH2 0x5808 DUP3 SLOAD PUSH2 0x50EB JUMP JUMPDEST PUSH2 0x5813 DUP3 DUP3 DUP6 PUSH2 0x52E6 JUMP JUMPDEST PUSH1 0x0 PUSH1 0x1F DUP4 GT PUSH1 0x1 DUP2 EQ PUSH2 0x5842 JUMPI PUSH1 0x0 DUP5 ISZERO PUSH2 0x5830 JUMPI DUP3 DUP8 ADD CALLDATALOAD SWAP1 POP JUMPDEST PUSH2 0x583A DUP6 DUP3 PUSH2 0x5357 JUMP JUMPDEST DUP7 SSTORE POP PUSH2 0x58A2 JUMP JUMPDEST PUSH1 0x1F NOT DUP5 AND PUSH2 0x5850 DUP7 PUSH2 0x51C7 JUMP JUMPDEST PUSH1 0x0 JUMPDEST DUP3 DUP2 LT ISZERO PUSH2 0x5878 JUMPI DUP5 DUP10 ADD CALLDATALOAD DUP3 SSTORE PUSH1 0x1 DUP3 ADD SWAP2 POP PUSH1 0x20 DUP6 ADD SWAP5 POP PUSH1 0x20 DUP2 ADD SWAP1 POP PUSH2 0x5853 JUMP JUMPDEST DUP7 DUP4 LT ISZERO PUSH2 0x5895 JUMPI DUP5 DUP10 ADD CALLDATALOAD PUSH2 0x5891 PUSH1 0x1F DUP10 AND DUP3 PUSH2 0x5339 JUMP JUMPDEST DUP4 SSTORE POP JUMPDEST PUSH1 0x1 PUSH1 0x2 DUP9 MUL ADD DUP9 SSTORE POP POP POP JUMPDEST POP POP POP POP POP POP POP JUMP JUMPDEST PUSH32 0x4E487B7100000000000000000000000000000000000000000000000000000000 PUSH1 0x0 MSTORE PUSH1 0x31 PUSH1 0x4 MSTORE PUSH1 0x24 PUSH1 0x0 REVERT JUMPDEST PUSH1 0x0 DUP1 REVERT JUMPDEST DUP3 DUP2 DUP4 CALLDATACOPY POP POP POP JUMP JUMPDEST PUSH1 0x0 PUSH2 0x58F4 DUP4 DUP6 PUSH2 0x4FD9 JUMP JUMPDEST SWAP4 POP PUSH32 0x7FFFFFFFFFFFFFFFFFFFFFFFFFFFFFFFFFFFFFFFFFFFFFFFFFFFFFFFFFFFFFF DUP4 GT ISZERO PUSH2 0x5927 JUMPI PUSH2 0x5926 PUSH2 0x58DA JUMP JUMPDEST JUMPDEST PUSH1 0x20 DUP4 MUL SWAP3 POP PUSH2 0x5938 DUP4 DUP6 DUP5 PUSH2 0x58DF JUMP JUMPDEST DUP3 DUP5 ADD SWAP1 POP SWAP4 SWAP3 POP POP POP JUMP JUMPDEST PUSH1 0x0 PUSH1 0x60 DUP3 ADD SWAP1 POP DUP2 DUP2 SUB PUSH1 0x0 DUP4 ADD MSTORE PUSH2 0x595F DUP2 DUP7 DUP9 PUSH2 0x58E8 JUMP JUMPDEST SWAP1 POP PUSH2 0x596E PUSH1 0x20 DUP4 ADD DUP6 PUSH2 0x4229 JUMP JUMPDEST PUSH2 0x597B PUSH1 0x40 DUP4 ADD DUP5 PUSH2 0x425D JUMP JUMPDEST SWAP6 SWAP5 POP POP POP POP POP JUMP JUMPDEST PUSH1 0x0 PUSH1 0x60 DUP3 ADD SWAP1 POP PUSH2 0x5999 PUSH1 0x0 DUP4 ADD DUP8 PUSH2 0x425D JUMP JUMPDEST DUP2 DUP2 SUB PUSH1 0x20 DUP4 ADD MSTORE PUSH2 0x59AC DUP2 DUP6 DUP8 PUSH2 0x58E8 JUMP JUMPDEST SWAP1 POP PUSH2 0x59BB PUSH1 0x40 DUP4 ADD DUP5 PUSH2 0x4229 JUMP JUMPDEST SWAP6 SWAP5 POP POP POP POP POP JUMP JUMPDEST PUSH1 0x0 PUSH1 0x60 DUP3 ADD SWAP1 POP PUSH2 0x59D9 PUSH1 0x0 DUP4 ADD DUP7 PUSH2 0x4AED JUMP JUMPDEST PUSH2 0x59E6 PUSH1 0x20 DUP4 ADD DUP6 PUSH2 0x4AED JUMP JUMPDEST PUSH2 0x59F3 PUSH1 0x40 DUP4 ADD DUP5 PUSH2 0x425D JUMP JUMPDEST SWAP5 SWAP4 POP POP POP POP JUMP JUMPDEST PUSH1 0x0 DUP1 DUP4 CALLDATALOAD PUSH1 0x1 PUSH1 0x20 SUB DUP5 CALLDATASIZE SUB SUB DUP2 SLT PUSH2 0x5A18 JUMPI PUSH2 0x5A17 PUSH2 0x575E JUMP JUMPDEST JUMPDEST DUP1 DUP5 ADD SWAP3 POP DUP3 CALLDATALOAD SWAP2 POP PUSH8 0xFFFFFFFFFFFFFFFF DUP3 GT ISZERO PUSH2 0x5A3A JUMPI PUSH2 0x5A39 PUSH2 0x5763 JUMP JUMPDEST JUMPDEST PUSH1 0x20 DUP4 ADD SWAP3 POP PUSH1 0x20 DUP3 MUL CALLDATASIZE SUB DUP4 SGT ISZERO PUSH2 0x5A56 JUMPI PUSH2 0x5A55 PUSH2 0x5768 JUMP JUMPDEST JUMPDEST POP SWAP3 POP SWAP3 SWAP1 POP JUMP JUMPDEST PUSH1 0x0 DUP1 DUP4 CALLDATALOAD PUSH1 0x1 PUSH1 0x20 SUB DUP5 CALLDATASIZE SUB SUB DUP2 SLT PUSH2 0x5A7B JUMPI PUSH2 0x5A7A PUSH2 0x575E JUMP JUMPDEST JUMPDEST DUP1 DUP5 ADD SWAP3 POP DUP3 CALLDATALOAD SWAP2 POP PUSH8 0xFFFFFFFFFFFFFFFF DUP3 GT ISZERO PUSH2 0x5A9D JUMPI PUSH2 0x5A9C PUSH2 0x5763 JUMP JUMPDEST JUMPDEST PUSH1 0x20 DUP4 ADD SWAP3 POP PUSH1 0x20 DUP3 MUL CALLDATASIZE SUB DUP4 SGT ISZERO PUSH2 0x5AB9 JUMPI PUSH2 0x5AB8 PUSH2 0x5768 JUMP JUMPDEST JUMPDEST POP SWAP3 POP SWAP3 SWAP1 POP JUMP JUMPDEST PUSH1 0x0 DUP2 SWAP1 POP SWAP2 SWAP1 POP JUMP JUMPDEST PUSH1 0x0 PUSH8 0xFFFFFFFFFFFFFFFF DUP3 AND SWAP1 POP SWAP2 SWAP1 POP JUMP JUMPDEST PUSH1 0x0 PUSH2 0x5AFA PUSH2 0x5AF5 PUSH2 0x5AF0 DUP5 PUSH2 0x5AC1 JUMP JUMPDEST PUSH2 0x524B JUMP JUMPDEST PUSH2 0x5ACB JUMP JUMPDEST SWAP1 POP SWAP2 SWAP1 POP JUMP JUMPDEST PUSH2 0x5B0A DUP2 PUSH2 0x5ADF JUMP JUMPDEST DUP3 MSTORE POP POP JUMP JUMPDEST PUSH1 0x0 PUSH1 0x20 DUP3 ADD SWAP1 POP PUSH2 0x5B25 PUSH1 0x0 DUP4 ADD DUP5 PUSH2 0x5B01 JUMP JUMPDEST SWAP3 SWAP2 POP POP JUMP JUMPDEST PUSH32 0x546F6B656E206C696D69742069732062656C6F7720746865206D696E696D756D PUSH1 0x0 DUP3 ADD MSTORE PUSH32 0x2072657175697265642E00000000000000000000000000000000000000000000 PUSH1 0x20 DUP3 ADD MSTORE POP JUMP JUMPDEST PUSH1 0x0 PUSH2 0x5B87 PUSH1 0x2A DUP4 PUSH2 0x4AFC JUMP JUMPDEST SWAP2 POP PUSH2 0x5B92 DUP3 PUSH2 0x5B2B JUMP JUMPDEST PUSH1 0x40 DUP3 ADD SWAP1 POP SWAP2 SWAP1 POP JUMP JUMPDEST PUSH1 0x0 PUSH1 0x20 DUP3 ADD SWAP1 POP DUP2 DUP2 SUB PUSH1 0x0 DUP4 ADD MSTORE PUSH2 0x5BB6 DUP2 PUSH2 0x5B7A JUMP JUMPDEST SWAP1 POP SWAP2 SWAP1 POP JUMP JUMPDEST PUSH32 0x496E73756666696369656E742062616C616E636520746F20636F766572207468 PUSH1 0x0 DUP3 ADD MSTORE PUSH32 0x6520726571756972656420616D6F756E7420616E642066726F7A656E2062616C PUSH1 0x20 DUP3 ADD MSTORE PUSH32 0x616E63652E000000000000000000000000000000000000000000000000000000 PUSH1 0x40 DUP3 ADD MSTORE POP JUMP JUMPDEST PUSH1 0x0 PUSH2 0x5C3F PUSH1 0x45 DUP4 PUSH2 0x4AFC JUMP JUMPDEST SWAP2 POP PUSH2 0x5C4A DUP3 PUSH2 0x5BBD JUMP JUMPDEST PUSH1 0x60 DUP3 ADD SWAP1 POP SWAP2 SWAP1 POP JUMP JUMPDEST PUSH1 0x0 PUSH1 0x20 DUP3 ADD SWAP1 POP DUP2 DUP2 SUB PUSH1 0x0 DUP4 ADD MSTORE PUSH2 0x5C6E DUP2 PUSH2 0x5C32 JUMP JUMPDEST SWAP1 POP SWAP2 SWAP1 POP JUMP JUMPDEST PUSH1 0x0 PUSH2 0x5C80 DUP3 PUSH2 0x47A9 JUMP JUMPDEST PUSH2 0x5C8A DUP2 DUP6 PUSH2 0x561E JUMP JUMPDEST SWAP4 POP PUSH2 0x5C9A DUP2 DUP6 PUSH1 0x20 DUP7 ADD PUSH2 0x47C5 JUMP JUMPDEST DUP1 DUP5 ADD SWAP2 POP POP SWAP3 SWAP2 POP POP JUMP JUMPDEST PUSH1 0x0 PUSH2 0x5CB2 DUP3 DUP5 PUSH2 0x5C75 JUMP JUMPDEST SWAP2 POP DUP2 SWAP1 POP SWAP3 SWAP2 POP POP JUMP JUMPDEST PUSH32 0x4D6F64656C206973206E6F7420616C6C6F7765642E0000000000000000000000 PUSH1 0x0 DUP3 ADD MSTORE POP JUMP JUMPDEST PUSH1 0x0 PUSH2 0x5CF3 PUSH1 0x15 DUP4 PUSH2 0x4AFC JUMP JUMPDEST SWAP2 POP PUSH2 0x5CFE DUP3 PUSH2 0x5CBD JUMP JUMPDEST PUSH1 0x20 DUP3 ADD SWAP1 POP SWAP2 SWAP1 POP JUMP JUMPDEST PUSH1 0x0 PUSH1 0x20 DUP3 ADD SWAP1 POP DUP2 DUP2 SUB PUSH1 0x0 DUP4 ADD MSTORE PUSH2 0x5D22 DUP2 PUSH2 0x5CE6 JUMP JUMPDEST SWAP1 POP SWAP2 SWAP1 POP JUMP JUMPDEST PUSH32 0x5265717565737420646174612074797065206E6F7420616C6C6F776564000000 PUSH1 0x0 DUP3 ADD MSTORE POP JUMP JUMPDEST PUSH1 0x0 PUSH2 0x5D5F PUSH1 0x1D DUP4 PUSH2 0x4AFC JUMP JUMPDEST SWAP2 POP PUSH2 0x5D6A DUP3 PUSH2 0x5D29 JUMP JUMPDEST PUSH1 0x20 DUP3 ADD SWAP1 POP SWAP2 SWAP1 POP JUMP JUMPDEST PUSH1 0x0 PUSH1 0x20 DUP3 ADD SWAP1 POP DUP2 DUP2 SUB PUSH1 0x0 DUP4 ADD MSTORE PUSH2 0x5D8E DUP2 PUSH2 0x5D52 JUMP JUMPDEST SWAP1 POP SWAP2 SWAP1 POP JUMP JUMPDEST PUSH32 0x526573706F6E736520646174612074797065206E6F7420616C6C6F7765640000 PUSH1 0x0 DUP3 ADD MSTORE POP JUMP JUMPDEST PUSH1 0x0 PUSH2 0x5DCB PUSH1 0x1E DUP4 PUSH2 0x4AFC JUMP JUMPDEST SWAP2 POP PUSH2 0x5DD6 DUP3 PUSH2 0x5D95 JUMP JUMPDEST PUSH1 0x20 DUP3 ADD SWAP1 POP SWAP2 SWAP1 POP JUMP JUMPDEST PUSH1 0x0 PUSH1 0x20 DUP3 ADD SWAP1 POP DUP2 DUP2 SUB PUSH1 0x0 DUP4 ADD MSTORE PUSH2 0x5DFA DUP2 PUSH2 0x5DBE JUMP JUMPDEST SWAP1 POP SWAP2 SWAP1 POP JUMP JUMPDEST PUSH32 0x496E76616C6964206F7065726174696F6E207479706500000000000000000000 PUSH1 0x0 DUP3 ADD MSTORE POP JUMP JUMPDEST PUSH1 0x0 PUSH2 0x5E37 PUSH1 0x16 DUP4 PUSH2 0x4AFC JUMP JUMPDEST SWAP2 POP PUSH2 0x5E42 DUP3 PUSH2 0x5E01 JUMP JUMPDEST PUSH1 0x20 DUP3 ADD SWAP1 POP SWAP2 SWAP1 POP JUMP JUMPDEST PUSH1 0x0 PUSH1 0x20 DUP3 ADD SWAP1 POP DUP2 DUP2 SUB PUSH1 0x0 DUP4 ADD MSTORE PUSH2 0x5E66 DUP2 PUSH2 0x5E2A JUMP JUMPDEST SWAP1 POP SWAP2 SWAP1 POP JUMP JUMPDEST PUSH1 0x0 DUP2 MLOAD SWAP1 POP PUSH2 0x5E7C DUP2 PUSH2 0x4291 JUMP JUMPDEST SWAP3 SWAP2 POP POP JUMP JUMPDEST PUSH1 0x0 PUSH1 0x20 DUP3 DUP5 SUB SLT ISZERO PUSH2 0x5E98 JUMPI PUSH2 0x5E97 PUSH2 0x418E JUMP JUMPDEST JUMPDEST PUSH1 0x0 PUSH2 0x5EA6 DUP5 DUP3 DUP6 ADD PUSH2 0x5E6D JUMP JUMPDEST SWAP2 POP POP SWAP3 SWAP2 POP POP JUMP JUMPDEST PUSH32 0x496E73756666696369656E742062616C616E6365000000000000000000000000 PUSH1 0x0 DUP3 ADD MSTORE POP JUMP JUMPDEST PUSH1 0x0 PUSH2 0x5EE5 PUSH1 0x14 DUP4 PUSH2 0x4AFC JUMP JUMPDEST SWAP2 POP PUSH2 0x5EF0 DUP3 PUSH2 0x5EAF JUMP JUMPDEST PUSH1 0x20 DUP3 ADD SWAP1 POP SWAP2 SWAP1 POP JUMP JUMPDEST PUSH1 0x0 PUSH1 0x20 DUP3 ADD SWAP1 POP DUP2 DUP2 SUB PUSH1 0x0 DUP4 ADD MSTORE PUSH2 0x5F14 DUP2 PUSH2 0x5ED8 JUMP JUMPDEST SWAP1 POP SWAP2 SWAP1 POP JUMP JUMPDEST PUSH32 0x5472616E73666572206661696C65640000000000000000000000000000000000 PUSH1 0x0 DUP3 ADD MSTORE POP JUMP JUMPDEST PUSH1 0x0 PUSH2 0x5F51 PUSH1 0xF DUP4 PUSH2 0x4AFC JUMP JUMPDEST SWAP2 POP PUSH2 0x5F5C DUP3 PUSH2 0x5F1B JUMP JUMPDEST PUSH1 0x20 DUP3 ADD SWAP1 POP SWAP2 SWAP1 POP JUMP JUMPDEST PUSH1 0x0 PUSH1 0x20 DUP3 ADD SWAP1 POP DUP2 DUP2 SUB PUSH1 0x0 DUP4 ADD MSTORE PUSH2 0x5F80 DUP2 PUSH2 0x5F44 JUMP JUMPDEST SWAP1 POP SWAP2 SWAP1 POP JUMP JUMPDEST PUSH32 0x5265717565737420616C72656164792066696E616C697A656400000000000000 PUSH1 0x0 DUP3 ADD MSTORE POP JUMP JUMPDEST PUSH1 0x0 PUSH2 0x5FBD PUSH1 0x19 DUP4 PUSH2 0x4AFC JUMP JUMPDEST SWAP2 POP PUSH2 0x5FC8 DUP3 PUSH2 0x5F87 JUMP JUMPDEST PUSH1 0x20 DUP3 ADD SWAP1 POP SWAP2 SWAP1 POP JUMP JUMPDEST PUSH1 0x0 PUSH1 0x20 DUP3 ADD SWAP1 POP DUP2 DUP2 SUB PUSH1 0x0 DUP4 ADD MSTORE PUSH2 0x5FEC DUP2 PUSH2 0x5FB0 JUMP JUMPDEST SWAP1 POP SWAP2 SWAP1 POP JUMP JUMPDEST PUSH32 0x546F6B656E206C696D6974206578636565646564000000000000000000000000 PUSH1 0x0 DUP3 ADD MSTORE POP JUMP JUMPDEST PUSH1 0x0 PUSH2 0x6029 PUSH1 0x14 DUP4 PUSH2 0x4AFC JUMP JUMPDEST SWAP2 POP PUSH2 0x6034 DUP3 PUSH2 0x5FF3 JUMP JUMPDEST PUSH1 0x20 DUP3 ADD SWAP1 POP SWAP2 SWAP1 POP JUMP JUMPDEST PUSH1 0x0 PUSH1 0x20 DUP3 ADD SWAP1 POP DUP2 DUP2 SUB PUSH1 0x0 DUP4 ADD MSTORE PUSH2 0x6058 DUP2 PUSH2 0x601C JUMP JUMPDEST SWAP1 POP SWAP2 SWAP1 POP JUMP JUMPDEST PUSH32 0x5265717565737465722068617320696E73756666696369656E742062616C616E PUSH1 0x0 DUP3 ADD MSTORE PUSH32 0x636520746F20636F7665722074686520746F6B656E20636F6E73756D7074696F PUSH1 0x20 DUP3 ADD MSTORE PUSH32 0x6E2E000000000000000000000000000000000000000000000000000000000000 PUSH1 0x40 DUP3 ADD MSTORE POP JUMP JUMPDEST PUSH1 0x0 PUSH2 0x60E1 PUSH1 0x42 DUP4 PUSH2 0x4AFC JUMP JUMPDEST SWAP2 POP PUSH2 0x60EC DUP3 PUSH2 0x605F JUMP JUMPDEST PUSH1 0x60 DUP3 ADD SWAP1 POP SWAP2 SWAP1 POP JUMP JUMPDEST PUSH1 0x0 PUSH1 0x20 DUP3 ADD SWAP1 POP DUP2 DUP2 SUB PUSH1 0x0 DUP4 ADD MSTORE PUSH2 0x6110 DUP2 PUSH2 0x60D4 JUMP JUMPDEST SWAP1 POP SWAP2 SWAP1 POP JUMP JUMPDEST PUSH32 0x4F7574206F662072616E67650000000000000000000000000000000000000000 PUSH1 0x0 DUP3 ADD MSTORE POP JUMP JUMPDEST PUSH1 0x0 PUSH2 0x614D PUSH1 0xC DUP4 PUSH2 0x4AFC JUMP JUMPDEST SWAP2 POP PUSH2 0x6158 DUP3 PUSH2 0x6117 JUMP JUMPDEST PUSH1 0x20 DUP3 ADD SWAP1 POP SWAP2 SWAP1 POP JUMP JUMPDEST PUSH1 0x0 PUSH1 0x20 DUP3 ADD SWAP1 POP DUP2 DUP2 SUB PUSH1 0x0 DUP4 ADD MSTORE PUSH2 0x617C DUP2 PUSH2 0x6140 JUMP JUMPDEST SWAP1 POP SWAP2 SWAP1 POP JUMP JUMPDEST PUSH1 0x0 PUSH1 0x40 DUP3 ADD SWAP1 POP PUSH2 0x6198 PUSH1 0x0 DUP4 ADD DUP6 PUSH2 0x4AED JUMP JUMPDEST PUSH2 0x61A5 PUSH1 0x20 DUP4 ADD DUP5 PUSH2 0x42EA JUMP JUMPDEST SWAP4 SWAP3 POP POP POP JUMP JUMPDEST PUSH1 0x0 DUP2 SWAP1 POP SWAP3 SWAP2 POP POP JUMP JUMPDEST PUSH1 0x0 PUSH2 0x61C2 DUP3 PUSH2 0x4B46 JUMP JUMPDEST PUSH2 0x61CC DUP2 DUP6 PUSH2 0x61AC JUMP JUMPDEST SWAP4 POP PUSH2 0x61DC DUP2 DUP6 PUSH1 0x20 DUP7 ADD PUSH2 0x47C5 JUMP JUMPDEST DUP1 DUP5 ADD SWAP2 POP POP SWAP3 SWAP2 POP POP JUMP JUMPDEST PUSH1 0x0 PUSH2 0x61F4 DUP3 DUP5 PUSH2 0x61B7 JUMP JUMPDEST SWAP2 POP DUP2 SWAP1 POP SWAP3 SWAP2 POP POP JUMP INVALID LOG2 PUSH5 0x6970667358 0x22 SLT KECCAK256 0xAF PUSH11 0xE4085AD8B0FE21C253DBB6 0x21 0x28 0x23 0xFC 0xE OR 0x2D ADDMOD TLOAD DUP8 0xB9 NOT DUP11 0xC3 PUSH1 0xE9 0xCE STOP PUSH18 0x64736F6C6343000818003300000000000000 "},"methodIdentifiers":{"DEFAULT_ADMIN_ROLE()":"a217fddf","RESPONSE_ROLE()":"9ad04197","TOKEN_PER_SEGMENT()":"221fcbdf","UPGRADER_ROLE()":"f72c0d8b","UPGRADE_INTERFACE_VERSION()":"ad3cb1cc","aiToken()":"c8203521","continueAIResponse(uint256,uint256)":"6800e7c8","createAIRequest(bytes,string,string,string,uint256,address,uint256)":"263c9077","depositTokens(uint256)":"dd49756e","getAIResponseSegmentCount(uint256)":"b189e2db","getAIResponseSegments(uint256,uint256,uint256)":"eb1defe7","getAllowedDataTypes(string,uint256)":"4247ae1b","getAllowedModels()":"9067df1a","getRoleAdmin(bytes32)":"248a9ca3","getTokenBalance(address)":"3aecd0e3","grantRole(bytes32,address)":"2f2ff15d","hasRole(bytes32,address)":"91d14854","initialize(address,string[],string[][][])":"e7f80316","minTokenLimit()":"bcdf10ad","proxiableUUID()":"52d1902d","renounceRole(bytes32,address)":"36568abe","requestCounter()":"973a814e","requests(uint256)":"81d12c58","responseSegments(uint256,uint256)":"c97a339d","revokeRole(bytes32,address)":"d547741f","setAllowedDataTypes(string,uint256,string[])":"82dbe9e6","setAllowedModels(string[])":"781d8dd3","setMinTokenLimit(uint256)":"c2400fae","submitAIResponseSegments(uint256,bytes32[],bool,uint256,uint256)":"d7926ab7","supportsInterface(bytes4)":"01ffc9a7","upgradeToAndCall(address,bytes)":"4f1ef286","withdrawToken(uint256)":"50baa622","withdrawTokenTo(uint256,address)":"bc7ef6c9"}},"storageLayout":{"storage":[{"astId":2574,"contract":"contracts/AIOracle.sol:AIOracle","label":"aiToken","offset":0,"slot":"0","type":"t_address"},{"astId":2576,"contract":"contracts/AIOracle.sol:AIOracle","label":"minTokenLimit","offset":0,"slot":"1","type":"t_uint256"},{"astId":2578,"contract":"contracts/AIOracle.sol:AIOracle","label":"requestCounter","offset":0,"slot":"2","type":"t_uint256"},{"astId":2581,"contract":"contracts/AIOracle.sol:AIOracle","label":"allowedModels","offset":0,"slot":"3","type":"t_array(t_string_storage)dyn_storage"},{"astId":2586,"contract":"contracts/AIOracle.sol:AIOracle","label":"requests","offset":0,"slot":"4","type":"t_mapping(t_uint256,t_struct(Request)2572_storage)"},{"astId":2591,"contract":"contracts/AIOracle.sol:AIOracle","label":"responseSegments","offset":0,"slot":"5","type":"t_mapping(t_uint256,t_array(t_bytes32)dyn_storage)"},{"astId":2595,"contract":"contracts/AIOracle.sol:AIOracle","label":"balances","offset":0,"slot":"6","type":"t_mapping(t_address,t_uint256)"},{"astId":2599,"contract":"contracts/AIOracle.sol:AIOracle","label":"freezeBalances","offset":0,"slot":"7","type":"t_mapping(t_address,t_uint256)"},{"astId":2606,"contract":"contracts/AIOracle.sol:AIOracle","label":"allowedDataTypes","offset":0,"slot":"8","type":"t_mapping(t_string_memory_ptr,t_mapping(t_uint256,t_array(t_string_storage)dyn_storage))"}],"types":{"t_address":{"encoding":"inplace","label":"address","numberOfBytes":"20"},"t_array(t_bytes32)dyn_storage":{"base":"t_bytes32","encoding":"dynamic_array","label":"bytes32[]","numberOfBytes":"32"},"t_array(t_string_storage)dyn_storage":{"base":"t_string_storage","encoding":"dynamic_array","label":"string[]","numberOfBytes":"32"},"t_bool":{"encoding":"inplace","label":"bool","numberOfBytes":"1"},"t_bytes32":{"encoding":"inplace","label":"bytes32","numberOfBytes":"32"},"t_bytes_storage":{"encoding":"bytes","label":"bytes","numberOfBytes":"32"},"t_mapping(t_address,t_uint256)":{"encoding":"mapping","key":"t_address","label":"mapping(address => uint256)","numberOfBytes":"32","value":"t_uint256"},"t_mapping(t_string_memory_ptr,t_mapping(t_uint256,t_array(t_string_storage)dyn_storage))":{"encoding":"mapping","key":"t_string_memory_ptr","label":"mapping(string => mapping(uint256 => string[]))","numberOfBytes":"32","value":"t_mapping(t_uint256,t_array(t_string_storage)dyn_storage)"},"t_mapping(t_uint256,t_array(t_bytes32)dyn_storage)":{"encoding":"mapping","key":"t_uint256","label":"mapping(uint256 => bytes32[])","numberOfBytes":"32","value":"t_array(t_bytes32)dyn_storage"},"t_mapping(t_uint256,t_array(t_string_storage)dyn_storage)":{"encoding":"mapping","key":"t_uint256","label":"mapping(uint256 => string[])","numberOfBytes":"32","value":"t_array(t_string_storage)dyn_storage"},"t_mapping(t_uint256,t_struct(Request)2572_storage)":{"encoding":"mapping","key":"t_uint256","label":"mapping(uint256 => struct AIOracle.Request)","numberOfBytes":"32","value":"t_struct(Request)2572_storage"},"t_string_memory_ptr":{"encoding":"bytes","label":"string","numberOfBytes":"32"},"t_string_storage":{"encoding":"bytes","label":"string","numberOfBytes":"32"},"t_struct(Request)2572_storage":{"encoding":"inplace","label":"struct AIOracle.Request","members":[{"astId":2551,"contract":"contracts/AIOracle.sol:AIOracle","label":"requester","offset":0,"slot":"0","type":"t_address"},{"astId":2553,"contract":"contracts/AIOracle.sol:AIOracle","label":"receiver","offset":0,"slot":"1","type":"t_address"},{"astId":2555,"contract":"contracts/AIOracle.sol:AIOracle","label":"model","offset":0,"slot":"2","type":"t_string_storage"},{"astId":2557,"contract":"contracts/AIOracle.sol:AIOracle","label":"requestDataType","offset":0,"slot":"3","type":"t_string_storage"},{"astId":2559,"contract":"contracts/AIOracle.sol:AIOracle","label":"responseDataType","offset":0,"slot":"4","type":"t_string_storage"},{"astId":2561,"contract":"contracts/AIOracle.sol:AIOracle","label":"tokenLimit","offset":0,"slot":"5","type":"t_uint256"},{"astId":2563,"contract":"contracts/AIOracle.sol:AIOracle","label":"tokenConsumed","offset":0,"slot":"6","type":"t_uint256"},{"astId":2565,"contract":"contracts/AIOracle.sol:AIOracle","label":"data","offset":0,"slot":"7","type":"t_bytes_storage"},{"astId":2567,"contract":"contracts/AIOracle.sol:AIOracle","label":"isFinalized","offset":0,"slot":"8","type":"t_bool"},{"astId":2569,"contract":"contracts/AIOracle.sol:AIOracle","label":"segmentCount","offset":0,"slot":"9","type":"t_uint256"},{"astId":2571,"contract":"contracts/AIOracle.sol:AIOracle","label":"tokenFreezed","offset":0,"slot":"10","type":"t_uint256"}],"numberOfBytes":"352"},"t_uint256":{"encoding":"inplace","label":"uint256","numberOfBytes":"32"}}}}}}