{"contracts/AIOracle.sol":{"AIOracle":{"abi":[{"inputs":[],"stateMutability":"nonpayable","type":"constructor"},{"inputs":[],"name":"AccessControlBadConfirmation","type":"error"},{"inputs":[{"internalType":"address","name":"account","type":"address"},{"internalType":"bytes32","name":"neededRole","type":"bytes32"}],"name":"AccessControlUnauthorizedAccount","type":"error"},{"inputs":[{"internalType":"address","name":"target","type":"address"}],"name":"AddressEmptyCode","type":"error"},{"inputs":[{"internalType":"address","name":"implementation","type":"address"}],"name":"ERC1967InvalidImplementation","type":"error"},{"inputs":[],"name":"ERC1967NonPayable","type":"error"},{"inputs":[],"name":"FailedInnerCall","type":"error"},{"inputs":[],"name":"InvalidInitialization","type":"error"},{"inputs":[],"name":"NotInitializing","type":"error"},{"inputs":[],"name":"UUPSUnauthorizedCallContext","type":"error"},{"inputs":[{"internalType":"bytes32","name":"slot","type":"bytes32"}],"name":"UUPSUnsupportedProxiableUUID","type":"error"},{"anonymous":false,"inputs":[{"indexed":false,"internalType":"uint64","name":"version","type":"uint64"}],"name":"Initialized","type":"event"},{"anonymous":false,"inputs":[{"indexed":true,"internalType":"bytes32","name":"role","type":"bytes32"},{"indexed":true,"internalType":"bytes32","name":"previousAdminRole","type":"bytes32"},{"indexed":true,"internalType":"bytes32","name":"newAdminRole","type":"bytes32"}],"name":"RoleAdminChanged","type":"event"},{"anonymous":false,"inputs":[{"indexed":true,"internalType":"bytes32","name":"role","type":"bytes32"},{"indexed":true,"internalType":"address","name":"account","type":"address"},{"indexed":true,"internalType":"address","name":"sender","type":"address"}],"name":"RoleGranted","type":"event"},{"anonymous":false,"inputs":[{"indexed":true,"internalType":"bytes32","name":"role","type":"bytes32"},{"indexed":true,"internalType":"address","name":"account","type":"address"},{"indexed":true,"internalType":"address","name":"sender","type":"address"}],"name":"RoleRevoked","type":"event"},{"anonymous":false,"inputs":[{"indexed":true,"internalType":"address","name":"implementation","type":"address"}],"name":"Upgraded","type":"event"},{"inputs":[],"name":"DEFAULT_ADMIN_ROLE","outputs":[{"internalType":"bytes32","name":"","type":"bytes32"}],"stateMutability":"view","type":"function"},{"inputs":[],"name":"RESPONSE_ROLE","outputs":[{"internalType":"bytes32","name":"","type":"bytes32"}],"stateMutability":"view","type":"function"},{"inputs":[],"name":"TOKEN_PER_SEGMENT","outputs":[{"internalType":"uint256","name":"","type":"uint256"}],"stateMutability":"view","type":"function"},{"inputs":[],"name":"UPGRADER_ROLE","outputs":[{"internalType":"bytes32","name":"","type":"bytes32"}],"stateMutability":"view","type":"function"},{"inputs":[],"name":"UPGRADE_INTERFACE_VERSION","outputs":[{"internalType":"string","name":"","type":"string"}],"stateMutability":"view","type":"function"},{"inputs":[],"name":"aiToken","outputs":[{"internalType":"address","name":"","type":"address"}],"stateMutability":"view","type":"function"},{"inputs":[{"internalType":"uint256","name":"requestId","type":"uint256"},{"internalType":"uint256","name":"additionalTokenLimit","type":"uint256"}],"name":"continueAIResponse","outputs":[],"stateMutability":"nonpayable","type":"function"},{"inputs":[{"internalType":"bytes","name":"data","type":"bytes"},{"internalType":"string","name":"model","type":"string"},{"internalType":"string","name":"requestDataType","type":"string"},{"internalType":"string","name":"responseDataType","type":"string"},{"internalType":"uint256","name":"previousRequestId","type":"uint256"},{"internalType":"address","name":"receiver","type":"address"},{"internalType":"uint256","name":"tokenLimit","type":"uint256"}],"name":"createAIRequest","outputs":[{"internalType":"uint256","name":"requestId","type":"uint256"}],"stateMutability":"nonpayable","type":"function"},{"inputs":[{"internalType":"uint256","name":"amount","type":"uint256"}],"name":"depositTokens","outputs":[],"stateMutability":"nonpayable","type":"function"},{"inputs":[{"internalType":"uint256","name":"requestId","type":"uint256"}],"name":"getAIResponseSegmentCount","outputs":[{"internalType":"uint256","name":"segmentCount","type":"uint256"}],"stateMutability":"view","type":"function"},{"inputs":[{"internalType":"uint256","name":"requestId","type":"uint256"},{"internalType":"uint256","name":"segmentIndex","type":"uint256"},{"internalType":"uint256","name":"segmentCount","type":"uint256"}],"name":"getAIResponseSegments","outputs":[{"internalType":"bytes32[]","name":"resultSegments","type":"bytes32[]"},{"internalType":"bool","name":"isFinalSegment","type":"bool"}],"stateMutability":"view","type":"function"},{"inputs":[{"internalType":"string","name":"model","type":"string"},{"internalType":"uint256","name":"operationType","type":"uint256"}],"name":"getAllowedDataTypes","outputs":[{"internalType":"string[]","name":"dataTypes","type":"string[]"}],"stateMutability":"view","type":"function"},{"inputs":[],"name":"getAllowedModels","outputs":[{"internalType":"string[]","name":"models","type":"string[]"}],"stateMutability":"view","type":"function"},{"inputs":[{"internalType":"bytes32","name":"role","type":"bytes32"}],"name":"getRoleAdmin","outputs":[{"internalType":"bytes32","name":"","type":"bytes32"}],"stateMutability":"view","type":"function"},{"inputs":[{"internalType":"address","name":"user","type":"address"}],"name":"getTokenBalance","outputs":[{"internalType":"uint256","name":"balance","type":"uint256"}],"stateMutability":"view","type":"function"},{"inputs":[{"internalType":"bytes32","name":"role","type":"bytes32"},{"internalType":"address","name":"account","type":"address"}],"name":"grantRole","outputs":[],"stateMutability":"nonpayable","type":"function"},{"inputs":[{"internalType":"bytes32","name":"role","type":"bytes32"},{"internalType":"address","name":"account","type":"address"}],"name":"hasRole","outputs":[{"internalType":"bool","name":"","type":"bool"}],"stateMutability":"view","type":"function"},{"inputs":[{"internalType":"address","name":"_aiToken","type":"address"}],"name":"initialize","outputs":[],"stateMutability":"nonpayable","type":"function"},{"inputs":[],"name":"minTokenLimit","outputs":[{"internalType":"uint256","name":"","type":"uint256"}],"stateMutability":"view","type":"function"},{"inputs":[],"name":"proxiableUUID","outputs":[{"internalType":"bytes32","name":"","type":"bytes32"}],"stateMutability":"view","type":"function"},{"inputs":[{"internalType":"bytes32","name":"role","type":"bytes32"},{"internalType":"address","name":"callerConfirmation","type":"address"}],"name":"renounceRole","outputs":[],"stateMutability":"nonpayable","type":"function"},{"inputs":[],"name":"requestCounter","outputs":[{"internalType":"uint256","name":"","type":"uint256"}],"stateMutability":"view","type":"function"},{"inputs":[{"internalType":"uint256","name":"","type":"uint256"}],"name":"requests","outputs":[{"internalType":"address","name":"requester","type":"address"},{"internalType":"address","name":"receiver","type":"address"},{"internalType":"string","name":"model","type":"string"},{"internalType":"string","name":"requestDataType","type":"string"},{"internalType":"string","name":"responseDataType","type":"string"},{"internalType":"uint256","name":"tokenLimit","type":"uint256"},{"internalType":"uint256","name":"tokenConsumed","type":"uint256"},{"internalType":"bytes","name":"data","type":"bytes"},{"internalType":"bool","name":"isFinalized","type":"bool"},{"internalType":"uint256","name":"segmentCount","type":"uint256"},{"internalType":"uint256","name":"tokenFreezed","type":"uint256"}],"stateMutability":"view","type":"function"},{"inputs":[{"internalType":"uint256","name":"","type":"uint256"},{"internalType":"uint256","name":"","type":"uint256"}],"name":"responseSegments","outputs":[{"internalType":"bytes32","name":"","type":"bytes32"}],"stateMutability":"view","type":"function"},{"inputs":[{"internalType":"bytes32","name":"role","type":"bytes32"},{"internalType":"address","name":"account","type":"address"}],"name":"revokeRole","outputs":[],"stateMutability":"nonpayable","type":"function"},{"inputs":[{"internalType":"string","name":"model","type":"string"},{"internalType":"uint256","name":"operationType","type":"uint256"},{"internalType":"string[]","name":"newAllowedDataTypes","type":"string[]"}],"name":"setAllowedDataTypes","outputs":[],"stateMutability":"nonpayable","type":"function"},{"inputs":[{"internalType":"string[]","name":"newAllowedModels","type":"string[]"}],"name":"setAllowedModels","outputs":[],"stateMutability":"nonpayable","type":"function"},{"inputs":[{"internalType":"uint256","name":"newTokenLimit","type":"uint256"}],"name":"setMinTokenLimit","outputs":[],"stateMutability":"nonpayable","type":"function"},{"inputs":[{"internalType":"uint256","name":"requestId","type":"uint256"},{"internalType":"bytes32[]","name":"resultSegments","type":"bytes32[]"},{"internalType":"bool","name":"isFinalSegment","type":"bool"},{"internalType":"uint256","name":"tokenConsumed","type":"uint256"},{"internalType":"uint256","name":"gasLimit","type":"uint256"}],"name":"submitAIResponseSegments","outputs":[],"stateMutability":"nonpayable","type":"function"},{"inputs":[{"internalType":"bytes4","name":"interfaceId","type":"bytes4"}],"name":"supportsInterface","outputs":[{"internalType":"bool","name":"","type":"bool"}],"stateMutability":"view","type":"function"},{"inputs":[{"internalType":"address","name":"newImplementation","type":"address"},{"internalType":"bytes","name":"data","type":"bytes"}],"name":"upgradeToAndCall","outputs":[],"stateMutability":"payable","type":"function"},{"inputs":[{"internalType":"uint256","name":"amount","type":"uint256"}],"name":"withdrawToken","outputs":[],"stateMutability":"nonpayable","type":"function"},{"inputs":[{"internalType":"uint256","name":"amount","type":"uint256"},{"internalType":"address","name":"to","type":"address"}],"name":"withdrawTokenTo","outputs":[],"stateMutability":"nonpayable","type":"function"}],"evm":{"bytecode":{"linkReferences":{},"object":"60a06040523073ffffffffffffffffffffffffffffffffffffffff1660809073ffffffffffffffffffffffffffffffffffffffff168152503480156200004457600080fd5b50620000556200005b60201b60201c565b620001cf565b60006200006d6200016560201b60201c565b90508060000160089054906101000a900460ff1615620000b9576040517ff92ee8a900000000000000000000000000000000000000000000000000000000815260040160405180910390fd5b67ffffffffffffffff80168160000160009054906101000a900467ffffffffffffffff1667ffffffffffffffff1614620001625767ffffffffffffffff8160000160006101000a81548167ffffffffffffffff021916908367ffffffffffffffff1602179055507fc7f505b2f371ae2175ee4913f4499e1f2633a7b5936321eed1cdaeb6115181d267ffffffffffffffff604051620001599190620001b2565b60405180910390a15b50565b60007ff0c57e16840df040f15088dc2f81fe391c3923bec73e23a9662efc9c229c6a00905090565b600067ffffffffffffffff82169050919050565b620001ac816200018d565b82525050565b6000602082019050620001c96000830184620001a1565b92915050565b608051615754620001f96000396000818161341401528181613469015261364701526157546000f3fe6080604052600436106101ee5760003560e01c806391d148541161010d578063c2400fae116100a0578063d547741f1161006f578063d547741f14610732578063d7926ab71461075b578063dd49756e14610784578063eb1defe7146107ad578063f72c0d8b146107eb576101ee565b8063c2400fae14610678578063c4d66de8146106a1578063c8203521146106ca578063c97a339d146106f5576101ee565b8063ad3cb1cc116100dc578063ad3cb1cc146105bc578063b189e2db146105e7578063bc7ef6c914610624578063bcdf10ad1461064d576101ee565b806391d14854146104fe578063973a814e1461053b5780639ad0419714610566578063a217fddf14610591576101ee565b80634f1ef28611610185578063781d8dd311610154578063781d8dd31461043a57806381d12c581461046357806382dbe9e6146104aa5780639067df1a146104d3576101ee565b80634f1ef286146103a157806350baa622146103bd57806352d1902d146103e65780636800e7c814610411576101ee565b80632f2ff15d116101c15780632f2ff15d146102d557806336568abe146102fe5780633aecd0e3146103275780634247ae1b14610364576101ee565b806301ffc9a7146101f3578063221fcbdf14610230578063248a9ca31461025b578063263c907714610298575b600080fd5b3480156101ff57600080fd5b5061021a60048036038101906102159190613b51565b610816565b6040516102279190613b99565b60405180910390f35b34801561023c57600080fd5b50610245610890565b6040516102529190613bcd565b60405180910390f35b34801561026757600080fd5b50610282600480360381019061027d9190613c1e565b610895565b60405161028f9190613c5a565b60405180910390f35b3480156102a457600080fd5b506102bf60048036038101906102ba9190613ea5565b6108c3565b6040516102cc9190613bcd565b60405180910390f35b3480156102e157600080fd5b506102fc60048036038101906102f79190613fbb565b610c74565b005b34801561030a57600080fd5b5061032560048036038101906103209190613fbb565b610c96565b005b34801561033357600080fd5b5061034e60048036038101906103499190613ffb565b610d11565b60405161035b9190613bcd565b60405180910390f35b34801561037057600080fd5b5061038b6004803603810190610386919061407e565b610d5a565b604051610398919061421f565b60405180910390f35b6103bb60048036038101906103b691906142e2565b610eb4565b005b3480156103c957600080fd5b506103e460048036038101906103df919061433e565b610ed3565b005b3480156103f257600080fd5b506103fb61111a565b6040516104089190613c5a565b60405180910390f35b34801561041d57600080fd5b506104386004803603810190610433919061436b565b61114d565b005b34801561044657600080fd5b50610461600480360381019061045c9190614401565b61178f565b005b34801561046f57600080fd5b5061048a6004803603810190610485919061433e565b6117a1565b6040516104a19b9a999897969594939291906144fc565b60405180910390f35b3480156104b657600080fd5b506104d160048036038101906104cc91906145c3565b611a68565b005b3480156104df57600080fd5b506104e8611a7d565b6040516104f5919061421f565b60405180910390f35b34801561050a57600080fd5b5061052560048036038101906105209190613fbb565b611b56565b6040516105329190613b99565b60405180910390f35b34801561054757600080fd5b50610550611bcf565b60405161055d9190613bcd565b60405180910390f35b34801561057257600080fd5b5061057b611bd5565b6040516105889190613c5a565b60405180910390f35b34801561059d57600080fd5b506105a6611bf9565b6040516105b39190613c5a565b60405180910390f35b3480156105c857600080fd5b506105d1611c00565b6040516105de9190614658565b60405180910390f35b3480156105f357600080fd5b5061060e6004803603810190610609919061433e565b611c39565b60405161061b9190613bcd565b60405180910390f35b34801561063057600080fd5b5061064b6004803603810190610646919061467a565b611c59565b005b34801561065957600080fd5b50610662611ea1565b60405161066f9190613bcd565b60405180910390f35b34801561068457600080fd5b5061069f600480360381019061069a919061433e565b611ea7565b005b3480156106ad57600080fd5b506106c860048036038101906106c39190613ffb565b611ebf565b005b3480156106d657600080fd5b506106df612095565b6040516106ec91906146ba565b60405180910390f35b34801561070157600080fd5b5061071c6004803603810190610717919061436b565b6120b9565b6040516107299190613c5a565b60405180910390f35b34801561073e57600080fd5b5061075960048036038101906107549190613fbb565b6120ea565b005b34801561076757600080fd5b50610782600480360381019061077d9190614757565b61210c565b005b34801561079057600080fd5b506107ab60048036038101906107a6919061433e565b612930565b005b3480156107b957600080fd5b506107d460048036038101906107cf91906147f1565b612aad565b6040516107e2929190614902565b60405180910390f35b3480156107f757600080fd5b50610800612c0e565b60405161080d9190613c5a565b60405180910390f35b60007f7965db0b000000000000000000000000000000000000000000000000000000007bffffffffffffffffffffffffffffffffffffffffffffffffffffffff1916827bffffffffffffffffffffffffffffffffffffffffffffffffffffffff19161480610889575061088882612c32565b5b9050919050565b600181565b6000806108a0612c9c565b905080600001600084815260200190815260200160002060010154915050919050565b600060015482101561090a576040517f08c379a0000000000000000000000000000000000000000000000000000000008152600401610901906149a4565b60405180910390fd5b600760003373ffffffffffffffffffffffffffffffffffffffff1673ffffffffffffffffffffffffffffffffffffffff168152602001908152602001600020548261095591906149f3565b600660003373ffffffffffffffffffffffffffffffffffffffff1673ffffffffffffffffffffffffffffffffffffffff1681526020019081526020016000205410156109d6576040517f08c379a00000000000000000000000000000000000000000000000000000000081526004016109cd90614abf565b60405180910390fd5b6109df87612cc4565b6109e98787612e30565b6109f38786613011565b81600760003373ffffffffffffffffffffffffffffffffffffffff1673ffffffffffffffffffffffffffffffffffffffff1681526020019081526020016000206000828254610a4291906149f3565b92505081905550600260008154610a5890614adf565b91905081905590506040518061016001604052803373ffffffffffffffffffffffffffffffffffffffff1681526020018473ffffffffffffffffffffffffffffffffffffffff168152602001888152602001878152602001868152602001838152602001600081526020018a8a8080601f016020809104026020016040519081016040528093929190818152602001838380828437600081840152601f19601f82011690508083019250505050505050815260200160001515815260200160008152602001838152506004600083815260200190815260200160002060008201518160000160006101000a81548173ffffffffffffffffffffffffffffffffffffffff021916908373ffffffffffffffffffffffffffffffffffffffff16021790555060208201518160010160006101000a81548173ffffffffffffffffffffffffffffffffffffffff021916908373ffffffffffffffffffffffffffffffffffffffff1602179055506040820151816002019081610bd79190614d33565b506060820151816003019081610bed9190614d33565b506080820151816004019081610c039190614d33565b5060a0820151816005015560c0820151816006015560e0820151816007019081610c2d9190614e60565b506101008201518160080160006101000a81548160ff021916908315150217905550610120820151816009015561014082015181600a015590505098975050505050505050565b610c7d82610895565b610c86816131f3565b610c908383613207565b50505050565b610c9e613308565b73ffffffffffffffffffffffffffffffffffffffff168173ffffffffffffffffffffffffffffffffffffffff1614610d02576040517f6697b23200000000000000000000000000000000000000000000000000000000815260040160405180910390fd5b610d0c8282613310565b505050565b6000600660008373ffffffffffffffffffffffffffffffffffffffff1673ffffffffffffffffffffffffffffffffffffffff168152602001908152602001600020549050919050565b60606000821480610d6b5750600182145b610daa576040517f08c379a0000000000000000000000000000000000000000000000000000000008152600401610da190614f7e565b60405180910390fd5b60088484604051610dbc929190614fce565b90815260200160405180910390206000838152602001908152602001600020805480602002602001604051908101604052809291908181526020016000905b82821015610ea7578382906000526020600020018054610e1a90614b56565b80601f0160208091040260200160405190810160405280929190818152602001828054610e4690614b56565b8015610e935780601f10610e6857610100808354040283529160200191610e93565b820191906000526020600020905b815481529060010190602001808311610e7657829003601f168201915b505050505081526020019060010190610dfb565b5050505090509392505050565b610ebc613412565b610ec5826134f8565b610ecf8282613526565b5050565b80600760003373ffffffffffffffffffffffffffffffffffffffff1673ffffffffffffffffffffffffffffffffffffffff16815260200190815260200160002054600660003373ffffffffffffffffffffffffffffffffffffffff1673ffffffffffffffffffffffffffffffffffffffff16815260200190815260200160002054610f5e9190614fe7565b1015610f9f576040517f08c379a0000000000000000000000000000000000000000000000000000000008152600401610f9690615067565b60405180910390fd5b6000600660003373ffffffffffffffffffffffffffffffffffffffff1673ffffffffffffffffffffffffffffffffffffffff16815260200190815260200160002054905081600660003373ffffffffffffffffffffffffffffffffffffffff1673ffffffffffffffffffffffffffffffffffffffff16815260200190815260200160002060008282546110329190614fe7565b9250508190555060008054906101000a900473ffffffffffffffffffffffffffffffffffffffff1673ffffffffffffffffffffffffffffffffffffffff1663a9059cbb33846040518363ffffffff1660e01b8152600401611094929190615087565b6020604051808303816000875af11580156110b3573d6000803e3d6000fd5b505050506040513d601f19601f820116820180604052508101906110d791906150c5565b611116576040517f08c379a000000000000000000000000000000000000000000000000000000000815260040161110d9061513e565b60405180910390fd5b5050565b6000611124613645565b7f360894a13ba1a3210667c828492db98dca3e2076cc3735a920a3ca505d382bbc60001b905090565b600060046000848152602001908152602001600020604051806101600160405290816000820160009054906101000a900473ffffffffffffffffffffffffffffffffffffffff1673ffffffffffffffffffffffffffffffffffffffff1673ffffffffffffffffffffffffffffffffffffffff1681526020016001820160009054906101000a900473ffffffffffffffffffffffffffffffffffffffff1673ffffffffffffffffffffffffffffffffffffffff1673ffffffffffffffffffffffffffffffffffffffff16815260200160028201805461122a90614b56565b80601f016020809104026020016040519081016040528092919081815260200182805461125690614b56565b80156112a35780601f10611278576101008083540402835291602001916112a3565b820191906000526020600020905b81548152906001019060200180831161128657829003601f168201915b505050505081526020016003820180546112bc90614b56565b80601f01602080910402602001604051908101604052809291908181526020018280546112e890614b56565b80156113355780601f1061130a57610100808354040283529160200191611335565b820191906000526020600020905b81548152906001019060200180831161131857829003601f168201915b5050505050815260200160048201805461134e90614b56565b80601f016020809104026020016040519081016040528092919081815260200182805461137a90614b56565b80156113c75780601f1061139c576101008083540402835291602001916113c7565b820191906000526020600020905b8154815290600101906020018083116113aa57829003601f168201915b5050505050815260200160058201548152602001600682015481526020016007820180546113f490614b56565b80601f016020809104026020016040519081016040528092919081815260200182805461142090614b56565b801561146d5780601f106114425761010080835404028352916020019161146d565b820191906000526020600020905b81548152906001019060200180831161145057829003601f168201915b505050505081526020016008820160009054906101000a900460ff1615151515815260200160098201548152602001600a820154815250509050806101000151156114ed576040517f08c379a00000000000000000000000000000000000000000000000000000000081526004016114e4906151aa565b60405180910390fd5b81600760003373ffffffffffffffffffffffffffffffffffffffff1673ffffffffffffffffffffffffffffffffffffffff16815260200190815260200160002054600660003373ffffffffffffffffffffffffffffffffffffffff1673ffffffffffffffffffffffffffffffffffffffff168152602001908152602001600020546115789190614fe7565b10156115b9576040517f08c379a00000000000000000000000000000000000000000000000000000000081526004016115b090615216565b60405180910390fd5b81600760003373ffffffffffffffffffffffffffffffffffffffff1673ffffffffffffffffffffffffffffffffffffffff168152602001908152602001600020600082825461160891906149f3565b9250508190555081816101400181815161162291906149f3565b91508181525050818160a00181815161163b91906149f3565b91508181525050806004600085815260200190815260200160002060008201518160000160006101000a81548173ffffffffffffffffffffffffffffffffffffffff021916908373ffffffffffffffffffffffffffffffffffffffff16021790555060208201518160010160006101000a81548173ffffffffffffffffffffffffffffffffffffffff021916908373ffffffffffffffffffffffffffffffffffffffff16021790555060408201518160020190816116f99190614d33565b50606082015181600301908161170f9190614d33565b5060808201518160040190816117259190614d33565b5060a0820151816005015560c0820151816006015560e082015181600701908161174f9190614e60565b506101008201518160080160006101000a81548160ff021916908315150217905550610120820151816009015561014082015181600a0155905050505050565b6000801b61179c816131f3565b505050565b60046020528060005260406000206000915090508060000160009054906101000a900473ffffffffffffffffffffffffffffffffffffffff16908060010160009054906101000a900473ffffffffffffffffffffffffffffffffffffffff169080600201805461181090614b56565b80601f016020809104026020016040519081016040528092919081815260200182805461183c90614b56565b80156118895780601f1061185e57610100808354040283529160200191611889565b820191906000526020600020905b81548152906001019060200180831161186c57829003601f168201915b50505050509080600301805461189e90614b56565b80601f01602080910402602001604051908101604052809291908181526020018280546118ca90614b56565b80156119175780601f106118ec57610100808354040283529160200191611917565b820191906000526020600020905b8154815290600101906020018083116118fa57829003601f168201915b50505050509080600401805461192c90614b56565b80601f016020809104026020016040519081016040528092919081815260200182805461195890614b56565b80156119a55780601f1061197a576101008083540402835291602001916119a5565b820191906000526020600020905b81548152906001019060200180831161198857829003601f168201915b5050505050908060050154908060060154908060070180546119c690614b56565b80601f01602080910402602001604051908101604052809291908181526020018280546119f290614b56565b8015611a3f5780601f10611a1457610100808354040283529160200191611a3f565b820191906000526020600020905b815481529060010190602001808311611a2257829003601f168201915b5050505050908060080160009054906101000a900460ff169080600901549080600a015490508b565b6000801b611a75816131f3565b505050505050565b60606003805480602002602001604051908101604052809291908181526020016000905b82821015611b4d578382906000526020600020018054611ac090614b56565b80601f0160208091040260200160405190810160405280929190818152602001828054611aec90614b56565b8015611b395780601f10611b0e57610100808354040283529160200191611b39565b820191906000526020600020905b815481529060010190602001808311611b1c57829003601f168201915b505050505081526020019060010190611aa1565b50505050905090565b600080611b61612c9c565b905080600001600085815260200190815260200160002060000160008473ffffffffffffffffffffffffffffffffffffffff1673ffffffffffffffffffffffffffffffffffffffff16815260200190815260200160002060009054906101000a900460ff1691505092915050565b60025481565b7fda1a6a1aed77f7562f9a85ea42f27e4ca1c512764f45e356d169b80c12a93a6581565b6000801b81565b6040518060400160405280600581526020017f352e302e3000000000000000000000000000000000000000000000000000000081525081565b600060046000838152602001908152602001600020600901549050919050565b81600760003373ffffffffffffffffffffffffffffffffffffffff1673ffffffffffffffffffffffffffffffffffffffff16815260200190815260200160002054600660003373ffffffffffffffffffffffffffffffffffffffff1673ffffffffffffffffffffffffffffffffffffffff16815260200190815260200160002054611ce49190614fe7565b1015611d25576040517f08c379a0000000000000000000000000000000000000000000000000000000008152600401611d1c90615067565b60405180910390fd5b6000600660003373ffffffffffffffffffffffffffffffffffffffff1673ffffffffffffffffffffffffffffffffffffffff16815260200190815260200160002054905082600660003373ffffffffffffffffffffffffffffffffffffffff1673ffffffffffffffffffffffffffffffffffffffff1681526020019081526020016000206000828254611db89190614fe7565b9250508190555060008054906101000a900473ffffffffffffffffffffffffffffffffffffffff1673ffffffffffffffffffffffffffffffffffffffff1663a9059cbb83856040518363ffffffff1660e01b8152600401611e1a929190615087565b6020604051808303816000875af1158015611e39573d6000803e3d6000fd5b505050506040513d601f19601f82011682018060405250810190611e5d91906150c5565b611e9c576040517f08c379a0000000000000000000000000000000000000000000000000000000008152600401611e939061513e565b60405180910390fd5b505050565b60015481565b6000801b611eb4816131f3565b816001819055505050565b6000611ec96136cc565b905060008160000160089054906101000a900460ff1615905060008260000160009054906101000a900467ffffffffffffffff1690506000808267ffffffffffffffff16148015611f175750825b9050600060018367ffffffffffffffff16148015611f4c575060003073ffffffffffffffffffffffffffffffffffffffff163b145b905081158015611f5a575080155b15611f91576040517ff92ee8a900000000000000000000000000000000000000000000000000000000815260040160405180910390fd5b60018560000160006101000a81548167ffffffffffffffff021916908367ffffffffffffffff1602179055508315611fe15760018560000160086101000a81548160ff0219169083151502179055505b611fe96136f4565b856000806101000a81548173ffffffffffffffffffffffffffffffffffffffff021916908373ffffffffffffffffffffffffffffffffffffffff1602179055506005600181905550831561208d5760008560000160086101000a81548160ff0219169083151502179055507fc7f505b2f371ae2175ee4913f4499e1f2633a7b5936321eed1cdaeb6115181d260016040516120849190615285565b60405180910390a15b505050505050565b60008054906101000a900473ffffffffffffffffffffffffffffffffffffffff1681565b600560205281600052604060002081815481106120d557600080fd5b90600052602060002001600091509150505481565b6120f382610895565b6120fc816131f3565b6121068383613310565b50505050565b7fda1a6a1aed77f7562f9a85ea42f27e4ca1c512764f45e356d169b80c12a93a65612136816131f3565b600060046000898152602001908152602001600020604051806101600160405290816000820160009054906101000a900473ffffffffffffffffffffffffffffffffffffffff1673ffffffffffffffffffffffffffffffffffffffff1673ffffffffffffffffffffffffffffffffffffffff1681526020016001820160009054906101000a900473ffffffffffffffffffffffffffffffffffffffff1673ffffffffffffffffffffffffffffffffffffffff1673ffffffffffffffffffffffffffffffffffffffff16815260200160028201805461221390614b56565b80601f016020809104026020016040519081016040528092919081815260200182805461223f90614b56565b801561228c5780601f106122615761010080835404028352916020019161228c565b820191906000526020600020905b81548152906001019060200180831161226f57829003601f168201915b505050505081526020016003820180546122a590614b56565b80601f01602080910402602001604051908101604052809291908181526020018280546122d190614b56565b801561231e5780601f106122f35761010080835404028352916020019161231e565b820191906000526020600020905b81548152906001019060200180831161230157829003601f168201915b5050505050815260200160048201805461233790614b56565b80601f016020809104026020016040519081016040528092919081815260200182805461236390614b56565b80156123b05780601f10612385576101008083540402835291602001916123b0565b820191906000526020600020905b81548152906001019060200180831161239357829003601f168201915b5050505050815260200160058201548152602001600682015481526020016007820180546123dd90614b56565b80601f016020809104026020016040519081016040528092919081815260200182805461240990614b56565b80156124565780601f1061242b57610100808354040283529160200191612456565b820191906000526020600020905b81548152906001019060200180831161243957829003601f168201915b505050505081526020016008820160009054906101000a900460ff1615151515815260200160098201548152602001600a820154815250509050806101000151156124d6576040517f08c379a00000000000000000000000000000000000000000000000000000000081526004016124cd906151aa565b60405180910390fd5b8060a00151848260c001516124eb91906149f3565b111561252c576040517f08c379a000000000000000000000000000000000000000000000000000000000815260040161252390615216565b60405180910390fd5b8360066000836000015173ffffffffffffffffffffffffffffffffffffffff1673ffffffffffffffffffffffffffffffffffffffff1681526020019081526020016000205410156125b2576040517f08c379a00000000000000000000000000000000000000000000000000000000081526004016125a990615338565b60405180910390fd5b6000600560008a81526020019081526020016000209050848260c0018181516125db91906149f3565b915081815250508787905082610120018181516125f891906149f3565b915081815250508515612618576001826101000190151590811515815250505b60008054906101000a900473ffffffffffffffffffffffffffffffffffffffff1673ffffffffffffffffffffffffffffffffffffffff166342966c68866040518263ffffffff1660e01b81526004016126719190613bcd565b600060405180830381600087803b15801561268b57600080fd5b505af115801561269f573d6000803e3d6000fd5b5050505084600660003373ffffffffffffffffffffffffffffffffffffffff1673ffffffffffffffffffffffffffffffffffffffff16815260200190815260200160002060008282546126f29190614fe7565b92505081905550816101400151600760003373ffffffffffffffffffffffffffffffffffffffff1673ffffffffffffffffffffffffffffffffffffffff168152602001908152602001600020600082825461274d9190614fe7565b9250508190555060008261014001818152505081600460008b815260200190815260200160002060008201518160000160006101000a81548173ffffffffffffffffffffffffffffffffffffffff021916908373ffffffffffffffffffffffffffffffffffffffff16021790555060208201518160010160006101000a81548173ffffffffffffffffffffffffffffffffffffffff021916908373ffffffffffffffffffffffffffffffffffffffff16021790555060408201518160020190816128179190614d33565b50606082015181600301908161282d9190614d33565b5060808201518160040190816128439190614d33565b5060a0820151816005015560c0820151816006015560e082015181600701908161286d9190614e60565b506101008201518160080160006101000a81548160ff021916908315150217905550610120820151816009015561014082015181600a01559050506000826020015190508073ffffffffffffffffffffffffffffffffffffffff1663936b092e868c8c8c8c6040518663ffffffff1660e01b81526004016128f194939291906153c2565b600060405180830381600088803b15801561290b57600080fd5b5087f115801561291f573d6000803e3d6000fd5b505050505050505050505050505050565b60008054906101000a900473ffffffffffffffffffffffffffffffffffffffff1673ffffffffffffffffffffffffffffffffffffffff166323b872dd3330846040518463ffffffff1660e01b815260040161298d93929190615402565b6020604051808303816000875af11580156129ac573d6000803e3d6000fd5b505050506040513d601f19601f820116820180604052508101906129d091906150c5565b612a0f576040517f08c379a0000000000000000000000000000000000000000000000000000000008152600401612a069061513e565b60405180910390fd5b6000600660003373ffffffffffffffffffffffffffffffffffffffff1673ffffffffffffffffffffffffffffffffffffffff16815260200190815260200160002054905081600660003373ffffffffffffffffffffffffffffffffffffffff1673ffffffffffffffffffffffffffffffffffffffff1681526020019081526020016000206000828254612aa291906149f3565b925050819055505050565b606060008060046000878152602001908152602001600020905080600901548486612ad891906149f3565b1115612b19576040517f08c379a0000000000000000000000000000000000000000000000000000000008152600401612b1090615485565b60405180910390fd5b8367ffffffffffffffff811115612b3357612b32613cf0565b5b604051908082528060200260200182016040528015612b615781602001602082028036833780820191505090505b50925060005b84811015612bd657600560008881526020019081526020016000208187612b8e91906149f3565b81548110612b9f57612b9e6154a5565b5b9060005260206000200154848281518110612bbd57612bbc6154a5565b5b6020026020010181815250508080600101915050612b67565b508060080160009054906101000a900460ff168015612c03575080600901548486612c0191906149f3565b145b915050935093915050565b7f189ab7a9244df0848122154315af71fe140f3db0fe014031783b0946b8c9d2e381565b60007f01ffc9a7000000000000000000000000000000000000000000000000000000007bffffffffffffffffffffffffffffffffffffffffffffffffffffffff1916827bffffffffffffffffffffffffffffffffffffffffffffffffffffffff1916149050919050565b60007f02dd7bc7dec4dceedda775e58dd541e08a116c6c53815c0bd028192f7b626800905090565b6000805b600380549050811015612deb57600060038281548110612ceb57612cea6154a5565b5b906000526020600020018054612d0090614b56565b80601f0160208091040260200160405190810160405280929190818152602001828054612d2c90614b56565b8015612d795780601f10612d4e57610100808354040283529160200191612d79565b820191906000526020600020905b815481529060010190602001808311612d5c57829003601f168201915b5050505050905080604051602001612d919190615505565b6040516020818303038152906040528051906020012084604051602001612db89190615505565b6040516020818303038152906040528051906020012003612ddd576001925050612deb565b508080600101915050612cc8565b5080612e2c576040517f08c379a0000000000000000000000000000000000000000000000000000000008152600401612e2390615568565b60405180910390fd5b5050565b600080600884604051612e439190615505565b90815260200160405180910390206000808152602001908152602001600020805480602002602001604051908101604052809291908181526020016000905b82821015612f2e578382906000526020600020018054612ea190614b56565b80601f0160208091040260200160405190810160405280929190818152602001828054612ecd90614b56565b8015612f1a5780601f10612eef57610100808354040283529160200191612f1a565b820191906000526020600020905b815481529060010190602001808311612efd57829003601f168201915b505050505081526020019060010190612e82565b50505050905060005b8151811015612fca576000828281518110612f5557612f546154a5565b5b6020026020010151905084604051602001612f709190615505565b6040516020818303038152906040528051906020012081604051602001612f979190615505565b6040516020818303038152906040528051906020012003612fbc576001935050612fca565b508080600101915050612f37565b508161300b576040517f08c379a0000000000000000000000000000000000000000000000000000000008152600401613002906155d4565b60405180910390fd5b50505050565b6000806008846040516130249190615505565b9081526020016040518091039020600060018152602001908152602001600020805480602002602001604051908101604052809291908181526020016000905b8282101561311057838290600052602060002001805461308390614b56565b80601f01602080910402602001604051908101604052809291908181526020018280546130af90614b56565b80156130fc5780601f106130d1576101008083540402835291602001916130fc565b820191906000526020600020905b8154815290600101906020018083116130df57829003601f168201915b505050505081526020019060010190613064565b50505050905060005b81518110156131ac576000828281518110613137576131366154a5565b5b60200260200101519050846040516020016131529190615505565b60405160208183030381529060405280519060200120816040516020016131799190615505565b604051602081830303815290604052805190602001200361319e5760019350506131ac565b508080600101915050613119565b50816131ed576040517f08c379a00000000000000000000000000000000000000000000000000000000081526004016131e490615640565b60405180910390fd5b50505050565b613204816131ff613308565b6136fe565b50565b600080613212612c9c565b905061321e8484611b56565b6132fc57600181600001600086815260200190815260200160002060000160008573ffffffffffffffffffffffffffffffffffffffff1673ffffffffffffffffffffffffffffffffffffffff16815260200190815260200160002060006101000a81548160ff021916908315150217905550613298613308565b73ffffffffffffffffffffffffffffffffffffffff168373ffffffffffffffffffffffffffffffffffffffff16857f2f8788117e7eff1d82e926ec794901d17c78024a50270940304540a733656f0d60405160405180910390a46001915050613302565b60009150505b92915050565b600033905090565b60008061331b612c9c565b90506133278484611b56565b1561340657600081600001600086815260200190815260200160002060000160008573ffffffffffffffffffffffffffffffffffffffff1673ffffffffffffffffffffffffffffffffffffffff16815260200190815260200160002060006101000a81548160ff0219169083151502179055506133a2613308565b73ffffffffffffffffffffffffffffffffffffffff168373ffffffffffffffffffffffffffffffffffffffff16857ff6391f5c32d9c69d2a47ea670b442974b53935d1edc7fd64eb21e047a839171b60405160405180910390a4600191505061340c565b60009150505b92915050565b7f000000000000000000000000000000000000000000000000000000000000000073ffffffffffffffffffffffffffffffffffffffff163073ffffffffffffffffffffffffffffffffffffffff1614806134bf57507f000000000000000000000000000000000000000000000000000000000000000073ffffffffffffffffffffffffffffffffffffffff166134a661374f565b73ffffffffffffffffffffffffffffffffffffffff1614155b156134f6576040517fe07c8dba00000000000000000000000000000000000000000000000000000000815260040160405180910390fd5b565b7f189ab7a9244df0848122154315af71fe140f3db0fe014031783b0946b8c9d2e3613522816131f3565b5050565b8173ffffffffffffffffffffffffffffffffffffffff166352d1902d6040518163ffffffff1660e01b8152600401602060405180830381865afa92505050801561358e57506040513d601f19601f8201168201806040525081019061358b9190615675565b60015b6135cf57816040517f4c9c8ce30000000000000000000000000000000000000000000000000000000081526004016135c691906146ba565b60405180910390fd5b7f360894a13ba1a3210667c828492db98dca3e2076cc3735a920a3ca505d382bbc60001b811461363657806040517faa1d49a400000000000000000000000000000000000000000000000000000000815260040161362d9190613c5a565b60405180910390fd5b61364083836137a6565b505050565b7f000000000000000000000000000000000000000000000000000000000000000073ffffffffffffffffffffffffffffffffffffffff163073ffffffffffffffffffffffffffffffffffffffff16146136ca576040517fe07c8dba00000000000000000000000000000000000000000000000000000000815260040160405180910390fd5b565b60007ff0c57e16840df040f15088dc2f81fe391c3923bec73e23a9662efc9c229c6a00905090565b6136fc613819565b565b6137088282611b56565b61374b5780826040517fe2517d3f0000000000000000000000000000000000000000000000000000000081526004016137429291906156a2565b60405180910390fd5b5050565b600061377d7f360894a13ba1a3210667c828492db98dca3e2076cc3735a920a3ca505d382bbc60001b613859565b60000160009054906101000a900473ffffffffffffffffffffffffffffffffffffffff16905090565b6137af82613863565b8173ffffffffffffffffffffffffffffffffffffffff167fbc7cd75a20ee27fd9adebab32041f755214dbc6bffa90cc0225b39da2e5c2d3b60405160405180910390a260008151111561380c576138068282613930565b50613815565b6138146139b4565b5b5050565b6138216139f1565b613857576040517fd7e6bcf800000000000000000000000000000000000000000000000000000000815260040160405180910390fd5b565b6000819050919050565b60008173ffffffffffffffffffffffffffffffffffffffff163b036138bf57806040517f4c9c8ce30000000000000000000000000000000000000000000000000000000081526004016138b691906146ba565b60405180910390fd5b806138ec7f360894a13ba1a3210667c828492db98dca3e2076cc3735a920a3ca505d382bbc60001b613859565b60000160006101000a81548173ffffffffffffffffffffffffffffffffffffffff021916908373ffffffffffffffffffffffffffffffffffffffff16021790555050565b60606000808473ffffffffffffffffffffffffffffffffffffffff168460405161395a9190615707565b600060405180830381855af49150503d8060008114613995576040519150601f19603f3d011682016040523d82523d6000602084013e61399a565b606091505b50915091506139aa858383613a11565b9250505092915050565b60003411156139ef576040517fb398979f00000000000000000000000000000000000000000000000000000000815260040160405180910390fd5b565b60006139fb6136cc565b60000160089054906101000a900460ff16905090565b606082613a2657613a2182613aa0565b613a98565b60008251148015613a4e575060008473ffffffffffffffffffffffffffffffffffffffff163b145b15613a9057836040517f9996b315000000000000000000000000000000000000000000000000000000008152600401613a8791906146ba565b60405180910390fd5b819050613a99565b5b9392505050565b600081511115613ab35780518082602001fd5b6040517f1425ea4200000000000000000000000000000000000000000000000000000000815260040160405180910390fd5b6000604051905090565b600080fd5b600080fd5b60007fffffffff0000000000000000000000000000000000000000000000000000000082169050919050565b613b2e81613af9565b8114613b3957600080fd5b50565b600081359050613b4b81613b25565b92915050565b600060208284031215613b6757613b66613aef565b5b6000613b7584828501613b3c565b91505092915050565b60008115159050919050565b613b9381613b7e565b82525050565b6000602082019050613bae6000830184613b8a565b92915050565b6000819050919050565b613bc781613bb4565b82525050565b6000602082019050613be26000830184613bbe565b92915050565b6000819050919050565b613bfb81613be8565b8114613c0657600080fd5b50565b600081359050613c1881613bf2565b92915050565b600060208284031215613c3457613c33613aef565b5b6000613c4284828501613c09565b91505092915050565b613c5481613be8565b82525050565b6000602082019050613c6f6000830184613c4b565b92915050565b600080fd5b600080fd5b600080fd5b60008083601f840112613c9a57613c99613c75565b5b8235905067ffffffffffffffff811115613cb757613cb6613c7a565b5b602083019150836001820283011115613cd357613cd2613c7f565b5b9250929050565b600080fd5b6000601f19601f8301169050919050565b7f4e487b7100000000000000000000000000000000000000000000000000000000600052604160045260246000fd5b613d2882613cdf565b810181811067ffffffffffffffff82111715613d4757613d46613cf0565b5b80604052505050565b6000613d5a613ae5565b9050613d668282613d1f565b919050565b600067ffffffffffffffff821115613d8657613d85613cf0565b5b613d8f82613cdf565b9050602081019050919050565b82818337600083830152505050565b6000613dbe613db984613d6b565b613d50565b905082815260208101848484011115613dda57613dd9613cda565b5b613de5848285613d9c565b509392505050565b600082601f830112613e0257613e01613c75565b5b8135613e12848260208601613dab565b91505092915050565b613e2481613bb4565b8114613e2f57600080fd5b50565b600081359050613e4181613e1b565b92915050565b600073ffffffffffffffffffffffffffffffffffffffff82169050919050565b6000613e7282613e47565b9050919050565b613e8281613e67565b8114613e8d57600080fd5b50565b600081359050613e9f81613e79565b92915050565b60008060008060008060008060e0898b031215613ec557613ec4613aef565b5b600089013567ffffffffffffffff811115613ee357613ee2613af4565b5b613eef8b828c01613c84565b9850985050602089013567ffffffffffffffff811115613f1257613f11613af4565b5b613f1e8b828c01613ded565b965050604089013567ffffffffffffffff811115613f3f57613f3e613af4565b5b613f4b8b828c01613ded565b955050606089013567ffffffffffffffff811115613f6c57613f6b613af4565b5b613f788b828c01613ded565b9450506080613f898b828c01613e32565b93505060a0613f9a8b828c01613e90565b92505060c0613fab8b828c01613e32565b9150509295985092959890939650565b60008060408385031215613fd257613fd1613aef565b5b6000613fe085828601613c09565b9250506020613ff185828601613e90565b9150509250929050565b60006020828403121561401157614010613aef565b5b600061401f84828501613e90565b91505092915050565b60008083601f84011261403e5761403d613c75565b5b8235905067ffffffffffffffff81111561405b5761405a613c7a565b5b60208301915083600182028301111561407757614076613c7f565b5b9250929050565b60008060006040848603121561409757614096613aef565b5b600084013567ffffffffffffffff8111156140b5576140b4613af4565b5b6140c186828701614028565b935093505060206140d486828701613e32565b9150509250925092565b600081519050919050565b600082825260208201905092915050565b6000819050602082019050919050565b600081519050919050565b600082825260208201905092915050565b60005b83811015614144578082015181840152602081019050614129565b60008484015250505050565b600061415b8261410a565b6141658185614115565b9350614175818560208601614126565b61417e81613cdf565b840191505092915050565b60006141958383614150565b905092915050565b6000602082019050919050565b60006141b5826140de565b6141bf81856140e9565b9350836020820285016141d1856140fa565b8060005b8581101561420d57848403895281516141ee8582614189565b94506141f98361419d565b925060208a019950506001810190506141d5565b50829750879550505050505092915050565b6000602082019050818103600083015261423981846141aa565b905092915050565b600067ffffffffffffffff82111561425c5761425b613cf0565b5b61426582613cdf565b9050602081019050919050565b600061428561428084614241565b613d50565b9050828152602081018484840111156142a1576142a0613cda565b5b6142ac848285613d9c565b509392505050565b600082601f8301126142c9576142c8613c75565b5b81356142d9848260208601614272565b91505092915050565b600080604083850312156142f9576142f8613aef565b5b600061430785828601613e90565b925050602083013567ffffffffffffffff81111561432857614327613af4565b5b614334858286016142b4565b9150509250929050565b60006020828403121561435457614353613aef565b5b600061436284828501613e32565b91505092915050565b6000806040838503121561438257614381613aef565b5b600061439085828601613e32565b92505060206143a185828601613e32565b9150509250929050565b60008083601f8401126143c1576143c0613c75565b5b8235905067ffffffffffffffff8111156143de576143dd613c7a565b5b6020830191508360208202830111156143fa576143f9613c7f565b5b9250929050565b6000806020838503121561441857614417613aef565b5b600083013567ffffffffffffffff81111561443657614435613af4565b5b614442858286016143ab565b92509250509250929050565b61445781613e67565b82525050565b600082825260208201905092915050565b60006144798261410a565b614483818561445d565b9350614493818560208601614126565b61449c81613cdf565b840191505092915050565b600081519050919050565b600082825260208201905092915050565b60006144ce826144a7565b6144d881856144b2565b93506144e8818560208601614126565b6144f181613cdf565b840191505092915050565b600061016082019050614512600083018e61444e565b61451f602083018d61444e565b8181036040830152614531818c61446e565b90508181036060830152614545818b61446e565b90508181036080830152614559818a61446e565b905061456860a0830189613bbe565b61457560c0830188613bbe565b81810360e083015261458781876144c3565b9050614597610100830186613b8a565b6145a5610120830185613bbe565b6145b3610140830184613bbe565b9c9b505050505050505050505050565b6000806000806000606086880312156145df576145de613aef565b5b600086013567ffffffffffffffff8111156145fd576145fc613af4565b5b61460988828901614028565b9550955050602061461c88828901613e32565b935050604086013567ffffffffffffffff81111561463d5761463c613af4565b5b614649888289016143ab565b92509250509295509295909350565b60006020820190508181036000830152614672818461446e565b905092915050565b6000806040838503121561469157614690613aef565b5b600061469f85828601613e32565b92505060206146b085828601613e90565b9150509250929050565b60006020820190506146cf600083018461444e565b92915050565b60008083601f8401126146eb576146ea613c75565b5b8235905067ffffffffffffffff81111561470857614707613c7a565b5b60208301915083602082028301111561472457614723613c7f565b5b9250929050565b61473481613b7e565b811461473f57600080fd5b50565b6000813590506147518161472b565b92915050565b60008060008060008060a0878903121561477457614773613aef565b5b600061478289828a01613e32565b965050602087013567ffffffffffffffff8111156147a3576147a2613af4565b5b6147af89828a016146d5565b955095505060406147c289828a01614742565b93505060606147d389828a01613e32565b92505060806147e489828a01613e32565b9150509295509295509295565b60008060006060848603121561480a57614809613aef565b5b600061481886828701613e32565b935050602061482986828701613e32565b925050604061483a86828701613e32565b9150509250925092565b600081519050919050565b600082825260208201905092915050565b6000819050602082019050919050565b61487981613be8565b82525050565b600061488b8383614870565b60208301905092915050565b6000602082019050919050565b60006148af82614844565b6148b9818561484f565b93506148c483614860565b8060005b838110156148f55781516148dc888261487f565b97506148e783614897565b9250506001810190506148c8565b5085935050505092915050565b6000604082019050818103600083015261491c81856148a4565b905061492b6020830184613b8a565b9392505050565b7f546f6b656e206c696d69742069732062656c6f7720746865206d696e696d756d60008201527f2072657175697265642e00000000000000000000000000000000000000000000602082015250565b600061498e602a8361445d565b915061499982614932565b604082019050919050565b600060208201905081810360008301526149bd81614981565b9050919050565b7f4e487b7100000000000000000000000000000000000000000000000000000000600052601160045260246000fd5b60006149fe82613bb4565b9150614a0983613bb4565b9250828201905080821115614a2157614a206149c4565b5b92915050565b7f496e73756666696369656e742062616c616e636520746f20636f76657220746860008201527f6520746f6b656e206c696d697420616e642066726f7a656e2062616c616e636560208201527f2e00000000000000000000000000000000000000000000000000000000000000604082015250565b6000614aa960418361445d565b9150614ab482614a27565b606082019050919050565b60006020820190508181036000830152614ad881614a9c565b9050919050565b6000614aea82613bb4565b91507fffffffffffffffffffffffffffffffffffffffffffffffffffffffffffffffff8203614b1c57614b1b6149c4565b5b600182019050919050565b7f4e487b7100000000000000000000000000000000000000000000000000000000600052602260045260246000fd5b60006002820490506001821680614b6e57607f821691505b602082108103614b8157614b80614b27565b5b50919050565b60008190508160005260206000209050919050565b60006020601f8301049050919050565b600082821b905092915050565b600060088302614be97fffffffffffffffffffffffffffffffffffffffffffffffffffffffffffffffff82614bac565b614bf38683614bac565b95508019841693508086168417925050509392505050565b6000819050919050565b6000614c30614c2b614c2684613bb4565b614c0b565b613bb4565b9050919050565b6000819050919050565b614c4a83614c15565b614c5e614c5682614c37565b848454614bb9565b825550505050565b600090565b614c73614c66565b614c7e818484614c41565b505050565b5b81811015614ca257614c97600082614c6b565b600181019050614c84565b5050565b601f821115614ce757614cb881614b87565b614cc184614b9c565b81016020851015614cd0578190505b614ce4614cdc85614b9c565b830182614c83565b50505b505050565b600082821c905092915050565b6000614d0a60001984600802614cec565b1980831691505092915050565b6000614d238383614cf9565b9150826002028217905092915050565b614d3c8261410a565b67ffffffffffffffff811115614d5557614d54613cf0565b5b614d5f8254614b56565b614d6a828285614ca6565b600060209050601f831160018114614d9d5760008415614d8b578287015190505b614d958582614d17565b865550614dfd565b601f198416614dab86614b87565b60005b82811015614dd357848901518255600182019150602085019450602081019050614dae565b86831015614df05784890151614dec601f891682614cf9565b8355505b6001600288020188555050505b505050505050565b60008190508160005260206000209050919050565b601f821115614e5b57614e2c81614e05565b614e3584614b9c565b81016020851015614e44578190505b614e58614e5085614b9c565b830182614c83565b50505b505050565b614e69826144a7565b67ffffffffffffffff811115614e8257614e81613cf0565b5b614e8c8254614b56565b614e97828285614e1a565b600060209050601f831160018114614eca5760008415614eb8578287015190505b614ec28582614d17565b865550614f2a565b601f198416614ed886614e05565b60005b82811015614f0057848901518255600182019150602085019450602081019050614edb565b86831015614f1d5784890151614f19601f891682614cf9565b8355505b6001600288020188555050505b505050505050565b7f496e76616c6964206f7065726174696f6e207479706500000000000000000000600082015250565b6000614f6860168361445d565b9150614f7382614f32565b602082019050919050565b60006020820190508181036000830152614f9781614f5b565b9050919050565b600081905092915050565b6000614fb58385614f9e565b9350614fc2838584613d9c565b82840190509392505050565b6000614fdb828486614fa9565b91508190509392505050565b6000614ff282613bb4565b9150614ffd83613bb4565b9250828203905081811115615015576150146149c4565b5b92915050565b7f496e73756666696369656e742062616c616e6365000000000000000000000000600082015250565b600061505160148361445d565b915061505c8261501b565b602082019050919050565b6000602082019050818103600083015261508081615044565b9050919050565b600060408201905061509c600083018561444e565b6150a96020830184613bbe565b9392505050565b6000815190506150bf8161472b565b92915050565b6000602082840312156150db576150da613aef565b5b60006150e9848285016150b0565b91505092915050565b7f5472616e73666572206661696c65640000000000000000000000000000000000600082015250565b6000615128600f8361445d565b9150615133826150f2565b602082019050919050565b600060208201905081810360008301526151578161511b565b9050919050565b7f5265717565737420616c72656164792066696e616c697a656400000000000000600082015250565b600061519460198361445d565b915061519f8261515e565b602082019050919050565b600060208201905081810360008301526151c381615187565b9050919050565b7f546f6b656e206c696d6974206578636565646564000000000000000000000000600082015250565b600061520060148361445d565b915061520b826151ca565b602082019050919050565b6000602082019050818103600083015261522f816151f3565b9050919050565b6000819050919050565b600067ffffffffffffffff82169050919050565b600061526f61526a61526584615236565b614c0b565b615240565b9050919050565b61527f81615254565b82525050565b600060208201905061529a6000830184615276565b92915050565b7f5265717565737465722068617320696e73756666696369656e742062616c616e60008201527f636520746f20636f7665722074686520746f6b656e20636f6e73756d7074696f60208201527f6e2e000000000000000000000000000000000000000000000000000000000000604082015250565b600061532260428361445d565b915061532d826152a0565b606082019050919050565b6000602082019050818103600083015261535181615315565b9050919050565b600080fd5b82818337505050565b6000615372838561484f565b93507f07ffffffffffffffffffffffffffffffffffffffffffffffffffffffffffffff8311156153a5576153a4615358565b5b6020830292506153b683858461535d565b82840190509392505050565b60006060820190506153d76000830187613bbe565b81810360208301526153ea818587615366565b90506153f96040830184613b8a565b95945050505050565b6000606082019050615417600083018661444e565b615424602083018561444e565b6154316040830184613bbe565b949350505050565b7f4f7574206f662072616e67650000000000000000000000000000000000000000600082015250565b600061546f600c8361445d565b915061547a82615439565b602082019050919050565b6000602082019050818103600083015261549e81615462565b9050919050565b7f4e487b7100000000000000000000000000000000000000000000000000000000600052603260045260246000fd5b60006154df8261410a565b6154e98185614f9e565b93506154f9818560208601614126565b80840191505092915050565b600061551182846154d4565b915081905092915050565b7f4d6f64656c206973206e6f7420616c6c6f7765642e0000000000000000000000600082015250565b600061555260158361445d565b915061555d8261551c565b602082019050919050565b6000602082019050818103600083015261558181615545565b9050919050565b7f5265717565737420646174612074797065206e6f7420616c6c6f776564000000600082015250565b60006155be601d8361445d565b91506155c982615588565b602082019050919050565b600060208201905081810360008301526155ed816155b1565b9050919050565b7f526573706f6e736520646174612074797065206e6f7420616c6c6f7765640000600082015250565b600061562a601e8361445d565b9150615635826155f4565b602082019050919050565b600060208201905081810360008301526156598161561d565b9050919050565b60008151905061566f81613bf2565b92915050565b60006020828403121561568b5761568a613aef565b5b600061569984828501615660565b91505092915050565b60006040820190506156b7600083018561444e565b6156c46020830184613c4b565b9392505050565b600081905092915050565b60006156e1826144a7565b6156eb81856156cb565b93506156fb818560208601614126565b80840191505092915050565b600061571382846156d6565b91508190509291505056fea2646970667358221220bd37604b89d6ef9c20f435d57b62a855d9ac8b101590de802c13782e4faf345b64736f6c63430008180033","opcodes":"PUSH1 0xA0 PUSH1 0x40 MSTORE ADDRESS PUSH20 0xFFFFFFFFFFFFFFFFFFFFFFFFFFFFFFFFFFFFFFFF AND PUSH1 0x80 SWAP1 PUSH20 0xFFFFFFFFFFFFFFFFFFFFFFFFFFFFFFFFFFFFFFFF AND DUP2 MSTORE POP CALLVALUE DUP1 ISZERO PUSH3 0x44 JUMPI PUSH1 0x0 DUP1 REVERT JUMPDEST POP PUSH3 0x55 PUSH3 0x5B PUSH1 0x20 SHL PUSH1 0x20 SHR JUMP JUMPDEST PUSH3 0x1CF JUMP JUMPDEST PUSH1 0x0 PUSH3 0x6D PUSH3 0x165 PUSH1 0x20 SHL PUSH1 0x20 SHR JUMP JUMPDEST SWAP1 POP DUP1 PUSH1 0x0 ADD PUSH1 0x8 SWAP1 SLOAD SWAP1 PUSH2 0x100 EXP SWAP1 DIV PUSH1 0xFF AND ISZERO PUSH3 0xB9 JUMPI PUSH1 0x40 MLOAD PUSH32 0xF92EE8A900000000000000000000000000000000000000000000000000000000 DUP2 MSTORE PUSH1 0x4 ADD PUSH1 0x40 MLOAD DUP1 SWAP2 SUB SWAP1 REVERT JUMPDEST PUSH8 0xFFFFFFFFFFFFFFFF DUP1 AND DUP2 PUSH1 0x0 ADD PUSH1 0x0 SWAP1 SLOAD SWAP1 PUSH2 0x100 EXP SWAP1 DIV PUSH8 0xFFFFFFFFFFFFFFFF AND PUSH8 0xFFFFFFFFFFFFFFFF AND EQ PUSH3 0x162 JUMPI PUSH8 0xFFFFFFFFFFFFFFFF DUP2 PUSH1 0x0 ADD PUSH1 0x0 PUSH2 0x100 EXP DUP2 SLOAD DUP2 PUSH8 0xFFFFFFFFFFFFFFFF MUL NOT AND SWAP1 DUP4 PUSH8 0xFFFFFFFFFFFFFFFF AND MUL OR SWAP1 SSTORE POP PUSH32 0xC7F505B2F371AE2175EE4913F4499E1F2633A7B5936321EED1CDAEB6115181D2 PUSH8 0xFFFFFFFFFFFFFFFF PUSH1 0x40 MLOAD PUSH3 0x159 SWAP2 SWAP1 PUSH3 0x1B2 JUMP JUMPDEST PUSH1 0x40 MLOAD DUP1 SWAP2 SUB SWAP1 LOG1 JUMPDEST POP JUMP JUMPDEST PUSH1 0x0 PUSH32 0xF0C57E16840DF040F15088DC2F81FE391C3923BEC73E23A9662EFC9C229C6A00 SWAP1 POP SWAP1 JUMP JUMPDEST PUSH1 0x0 PUSH8 0xFFFFFFFFFFFFFFFF DUP3 AND SWAP1 POP SWAP2 SWAP1 POP JUMP JUMPDEST PUSH3 0x1AC DUP2 PUSH3 0x18D JUMP JUMPDEST DUP3 MSTORE POP POP JUMP JUMPDEST PUSH1 0x0 PUSH1 0x20 DUP3 ADD SWAP1 POP PUSH3 0x1C9 PUSH1 0x0 DUP4 ADD DUP5 PUSH3 0x1A1 JUMP JUMPDEST SWAP3 SWAP2 POP POP JUMP JUMPDEST PUSH1 0x80 MLOAD PUSH2 0x5754 PUSH3 0x1F9 PUSH1 0x0 CODECOPY PUSH1 0x0 DUP2 DUP2 PUSH2 0x3414 ADD MSTORE DUP2 DUP2 PUSH2 0x3469 ADD MSTORE PUSH2 0x3647 ADD MSTORE PUSH2 0x5754 PUSH1 0x0 RETURN INVALID PUSH1 0x80 PUSH1 0x40 MSTORE PUSH1 0x4 CALLDATASIZE LT PUSH2 0x1EE JUMPI PUSH1 0x0 CALLDATALOAD PUSH1 0xE0 SHR DUP1 PUSH4 0x91D14854 GT PUSH2 0x10D JUMPI DUP1 PUSH4 0xC2400FAE GT PUSH2 0xA0 JUMPI DUP1 PUSH4 0xD547741F GT PUSH2 0x6F JUMPI DUP1 PUSH4 0xD547741F EQ PUSH2 0x732 JUMPI DUP1 PUSH4 0xD7926AB7 EQ PUSH2 0x75B JUMPI DUP1 PUSH4 0xDD49756E EQ PUSH2 0x784 JUMPI DUP1 PUSH4 0xEB1DEFE7 EQ PUSH2 0x7AD JUMPI DUP1 PUSH4 0xF72C0D8B EQ PUSH2 0x7EB JUMPI PUSH2 0x1EE JUMP JUMPDEST DUP1 PUSH4 0xC2400FAE EQ PUSH2 0x678 JUMPI DUP1 PUSH4 0xC4D66DE8 EQ PUSH2 0x6A1 JUMPI DUP1 PUSH4 0xC8203521 EQ PUSH2 0x6CA JUMPI DUP1 PUSH4 0xC97A339D EQ PUSH2 0x6F5 JUMPI PUSH2 0x1EE JUMP JUMPDEST DUP1 PUSH4 0xAD3CB1CC GT PUSH2 0xDC JUMPI DUP1 PUSH4 0xAD3CB1CC EQ PUSH2 0x5BC JUMPI DUP1 PUSH4 0xB189E2DB EQ PUSH2 0x5E7 JUMPI DUP1 PUSH4 0xBC7EF6C9 EQ PUSH2 0x624 JUMPI DUP1 PUSH4 0xBCDF10AD EQ PUSH2 0x64D JUMPI PUSH2 0x1EE JUMP JUMPDEST DUP1 PUSH4 0x91D14854 EQ PUSH2 0x4FE JUMPI DUP1 PUSH4 0x973A814E EQ PUSH2 0x53B JUMPI DUP1 PUSH4 0x9AD04197 EQ PUSH2 0x566 JUMPI DUP1 PUSH4 0xA217FDDF EQ PUSH2 0x591 JUMPI PUSH2 0x1EE JUMP JUMPDEST DUP1 PUSH4 0x4F1EF286 GT PUSH2 0x185 JUMPI DUP1 PUSH4 0x781D8DD3 GT PUSH2 0x154 JUMPI DUP1 PUSH4 0x781D8DD3 EQ PUSH2 0x43A JUMPI DUP1 PUSH4 0x81D12C58 EQ PUSH2 0x463 JUMPI DUP1 PUSH4 0x82DBE9E6 EQ PUSH2 0x4AA JUMPI DUP1 PUSH4 0x9067DF1A EQ PUSH2 0x4D3 JUMPI PUSH2 0x1EE JUMP JUMPDEST DUP1 PUSH4 0x4F1EF286 EQ PUSH2 0x3A1 JUMPI DUP1 PUSH4 0x50BAA622 EQ PUSH2 0x3BD JUMPI DUP1 PUSH4 0x52D1902D EQ PUSH2 0x3E6 JUMPI DUP1 PUSH4 0x6800E7C8 EQ PUSH2 0x411 JUMPI PUSH2 0x1EE JUMP JUMPDEST DUP1 PUSH4 0x2F2FF15D GT PUSH2 0x1C1 JUMPI DUP1 PUSH4 0x2F2FF15D EQ PUSH2 0x2D5 JUMPI DUP1 PUSH4 0x36568ABE EQ PUSH2 0x2FE JUMPI DUP1 PUSH4 0x3AECD0E3 EQ PUSH2 0x327 JUMPI DUP1 PUSH4 0x4247AE1B EQ PUSH2 0x364 JUMPI PUSH2 0x1EE JUMP JUMPDEST DUP1 PUSH4 0x1FFC9A7 EQ PUSH2 0x1F3 JUMPI DUP1 PUSH4 0x221FCBDF EQ PUSH2 0x230 JUMPI DUP1 PUSH4 0x248A9CA3 EQ PUSH2 0x25B JUMPI DUP1 PUSH4 0x263C9077 EQ PUSH2 0x298 JUMPI JUMPDEST PUSH1 0x0 DUP1 REVERT JUMPDEST CALLVALUE DUP1 ISZERO PUSH2 0x1FF JUMPI PUSH1 0x0 DUP1 REVERT JUMPDEST POP PUSH2 0x21A PUSH1 0x4 DUP1 CALLDATASIZE SUB DUP2 ADD SWAP1 PUSH2 0x215 SWAP2 SWAP1 PUSH2 0x3B51 JUMP JUMPDEST PUSH2 0x816 JUMP JUMPDEST PUSH1 0x40 MLOAD PUSH2 0x227 SWAP2 SWAP1 PUSH2 0x3B99 JUMP JUMPDEST PUSH1 0x40 MLOAD DUP1 SWAP2 SUB SWAP1 RETURN JUMPDEST CALLVALUE DUP1 ISZERO PUSH2 0x23C JUMPI PUSH1 0x0 DUP1 REVERT JUMPDEST POP PUSH2 0x245 PUSH2 0x890 JUMP JUMPDEST PUSH1 0x40 MLOAD PUSH2 0x252 SWAP2 SWAP1 PUSH2 0x3BCD JUMP JUMPDEST PUSH1 0x40 MLOAD DUP1 SWAP2 SUB SWAP1 RETURN JUMPDEST CALLVALUE DUP1 ISZERO PUSH2 0x267 JUMPI PUSH1 0x0 DUP1 REVERT JUMPDEST POP PUSH2 0x282 PUSH1 0x4 DUP1 CALLDATASIZE SUB DUP2 ADD SWAP1 PUSH2 0x27D SWAP2 SWAP1 PUSH2 0x3C1E JUMP JUMPDEST PUSH2 0x895 JUMP JUMPDEST PUSH1 0x40 MLOAD PUSH2 0x28F SWAP2 SWAP1 PUSH2 0x3C5A JUMP JUMPDEST PUSH1 0x40 MLOAD DUP1 SWAP2 SUB SWAP1 RETURN JUMPDEST CALLVALUE DUP1 ISZERO PUSH2 0x2A4 JUMPI PUSH1 0x0 DUP1 REVERT JUMPDEST POP PUSH2 0x2BF PUSH1 0x4 DUP1 CALLDATASIZE SUB DUP2 ADD SWAP1 PUSH2 0x2BA SWAP2 SWAP1 PUSH2 0x3EA5 JUMP JUMPDEST PUSH2 0x8C3 JUMP JUMPDEST PUSH1 0x40 MLOAD PUSH2 0x2CC SWAP2 SWAP1 PUSH2 0x3BCD JUMP JUMPDEST PUSH1 0x40 MLOAD DUP1 SWAP2 SUB SWAP1 RETURN JUMPDEST CALLVALUE DUP1 ISZERO PUSH2 0x2E1 JUMPI PUSH1 0x0 DUP1 REVERT JUMPDEST POP PUSH2 0x2FC PUSH1 0x4 DUP1 CALLDATASIZE SUB DUP2 ADD SWAP1 PUSH2 0x2F7 SWAP2 SWAP1 PUSH2 0x3FBB JUMP JUMPDEST PUSH2 0xC74 JUMP JUMPDEST STOP JUMPDEST CALLVALUE DUP1 ISZERO PUSH2 0x30A JUMPI PUSH1 0x0 DUP1 REVERT JUMPDEST POP PUSH2 0x325 PUSH1 0x4 DUP1 CALLDATASIZE SUB DUP2 ADD SWAP1 PUSH2 0x320 SWAP2 SWAP1 PUSH2 0x3FBB JUMP JUMPDEST PUSH2 0xC96 JUMP JUMPDEST STOP JUMPDEST CALLVALUE DUP1 ISZERO PUSH2 0x333 JUMPI PUSH1 0x0 DUP1 REVERT JUMPDEST POP PUSH2 0x34E PUSH1 0x4 DUP1 CALLDATASIZE SUB DUP2 ADD SWAP1 PUSH2 0x349 SWAP2 SWAP1 PUSH2 0x3FFB JUMP JUMPDEST PUSH2 0xD11 JUMP JUMPDEST PUSH1 0x40 MLOAD PUSH2 0x35B SWAP2 SWAP1 PUSH2 0x3BCD JUMP JUMPDEST PUSH1 0x40 MLOAD DUP1 SWAP2 SUB SWAP1 RETURN JUMPDEST CALLVALUE DUP1 ISZERO PUSH2 0x370 JUMPI PUSH1 0x0 DUP1 REVERT JUMPDEST POP PUSH2 0x38B PUSH1 0x4 DUP1 CALLDATASIZE SUB DUP2 ADD SWAP1 PUSH2 0x386 SWAP2 SWAP1 PUSH2 0x407E JUMP JUMPDEST PUSH2 0xD5A JUMP JUMPDEST PUSH1 0x40 MLOAD PUSH2 0x398 SWAP2 SWAP1 PUSH2 0x421F JUMP JUMPDEST PUSH1 0x40 MLOAD DUP1 SWAP2 SUB SWAP1 RETURN JUMPDEST PUSH2 0x3BB PUSH1 0x4 DUP1 CALLDATASIZE SUB DUP2 ADD SWAP1 PUSH2 0x3B6 SWAP2 SWAP1 PUSH2 0x42E2 JUMP JUMPDEST PUSH2 0xEB4 JUMP JUMPDEST STOP JUMPDEST CALLVALUE DUP1 ISZERO PUSH2 0x3C9 JUMPI PUSH1 0x0 DUP1 REVERT JUMPDEST POP PUSH2 0x3E4 PUSH1 0x4 DUP1 CALLDATASIZE SUB DUP2 ADD SWAP1 PUSH2 0x3DF SWAP2 SWAP1 PUSH2 0x433E JUMP JUMPDEST PUSH2 0xED3 JUMP JUMPDEST STOP JUMPDEST CALLVALUE DUP1 ISZERO PUSH2 0x3F2 JUMPI PUSH1 0x0 DUP1 REVERT JUMPDEST POP PUSH2 0x3FB PUSH2 0x111A JUMP JUMPDEST PUSH1 0x40 MLOAD PUSH2 0x408 SWAP2 SWAP1 PUSH2 0x3C5A JUMP JUMPDEST PUSH1 0x40 MLOAD DUP1 SWAP2 SUB SWAP1 RETURN JUMPDEST CALLVALUE DUP1 ISZERO PUSH2 0x41D JUMPI PUSH1 0x0 DUP1 REVERT JUMPDEST POP PUSH2 0x438 PUSH1 0x4 DUP1 CALLDATASIZE SUB DUP2 ADD SWAP1 PUSH2 0x433 SWAP2 SWAP1 PUSH2 0x436B JUMP JUMPDEST PUSH2 0x114D JUMP JUMPDEST STOP JUMPDEST CALLVALUE DUP1 ISZERO PUSH2 0x446 JUMPI PUSH1 0x0 DUP1 REVERT JUMPDEST POP PUSH2 0x461 PUSH1 0x4 DUP1 CALLDATASIZE SUB DUP2 ADD SWAP1 PUSH2 0x45C SWAP2 SWAP1 PUSH2 0x4401 JUMP JUMPDEST PUSH2 0x178F JUMP JUMPDEST STOP JUMPDEST CALLVALUE DUP1 ISZERO PUSH2 0x46F JUMPI PUSH1 0x0 DUP1 REVERT JUMPDEST POP PUSH2 0x48A PUSH1 0x4 DUP1 CALLDATASIZE SUB DUP2 ADD SWAP1 PUSH2 0x485 SWAP2 SWAP1 PUSH2 0x433E JUMP JUMPDEST PUSH2 0x17A1 JUMP JUMPDEST PUSH1 0x40 MLOAD PUSH2 0x4A1 SWAP12 SWAP11 SWAP10 SWAP9 SWAP8 SWAP7 SWAP6 SWAP5 SWAP4 SWAP3 SWAP2 SWAP1 PUSH2 0x44FC JUMP JUMPDEST PUSH1 0x40 MLOAD DUP1 SWAP2 SUB SWAP1 RETURN JUMPDEST CALLVALUE DUP1 ISZERO PUSH2 0x4B6 JUMPI PUSH1 0x0 DUP1 REVERT JUMPDEST POP PUSH2 0x4D1 PUSH1 0x4 DUP1 CALLDATASIZE SUB DUP2 ADD SWAP1 PUSH2 0x4CC SWAP2 SWAP1 PUSH2 0x45C3 JUMP JUMPDEST PUSH2 0x1A68 JUMP JUMPDEST STOP JUMPDEST CALLVALUE DUP1 ISZERO PUSH2 0x4DF JUMPI PUSH1 0x0 DUP1 REVERT JUMPDEST POP PUSH2 0x4E8 PUSH2 0x1A7D JUMP JUMPDEST PUSH1 0x40 MLOAD PUSH2 0x4F5 SWAP2 SWAP1 PUSH2 0x421F JUMP JUMPDEST PUSH1 0x40 MLOAD DUP1 SWAP2 SUB SWAP1 RETURN JUMPDEST CALLVALUE DUP1 ISZERO PUSH2 0x50A JUMPI PUSH1 0x0 DUP1 REVERT JUMPDEST POP PUSH2 0x525 PUSH1 0x4 DUP1 CALLDATASIZE SUB DUP2 ADD SWAP1 PUSH2 0x520 SWAP2 SWAP1 PUSH2 0x3FBB JUMP JUMPDEST PUSH2 0x1B56 JUMP JUMPDEST PUSH1 0x40 MLOAD PUSH2 0x532 SWAP2 SWAP1 PUSH2 0x3B99 JUMP JUMPDEST PUSH1 0x40 MLOAD DUP1 SWAP2 SUB SWAP1 RETURN JUMPDEST CALLVALUE DUP1 ISZERO PUSH2 0x547 JUMPI PUSH1 0x0 DUP1 REVERT JUMPDEST POP PUSH2 0x550 PUSH2 0x1BCF JUMP JUMPDEST PUSH1 0x40 MLOAD PUSH2 0x55D SWAP2 SWAP1 PUSH2 0x3BCD JUMP JUMPDEST PUSH1 0x40 MLOAD DUP1 SWAP2 SUB SWAP1 RETURN JUMPDEST CALLVALUE DUP1 ISZERO PUSH2 0x572 JUMPI PUSH1 0x0 DUP1 REVERT JUMPDEST POP PUSH2 0x57B PUSH2 0x1BD5 JUMP JUMPDEST PUSH1 0x40 MLOAD PUSH2 0x588 SWAP2 SWAP1 PUSH2 0x3C5A JUMP JUMPDEST PUSH1 0x40 MLOAD DUP1 SWAP2 SUB SWAP1 RETURN JUMPDEST CALLVALUE DUP1 ISZERO PUSH2 0x59D JUMPI PUSH1 0x0 DUP1 REVERT JUMPDEST POP PUSH2 0x5A6 PUSH2 0x1BF9 JUMP JUMPDEST PUSH1 0x40 MLOAD PUSH2 0x5B3 SWAP2 SWAP1 PUSH2 0x3C5A JUMP JUMPDEST PUSH1 0x40 MLOAD DUP1 SWAP2 SUB SWAP1 RETURN JUMPDEST CALLVALUE DUP1 ISZERO PUSH2 0x5C8 JUMPI PUSH1 0x0 DUP1 REVERT JUMPDEST POP PUSH2 0x5D1 PUSH2 0x1C00 JUMP JUMPDEST PUSH1 0x40 MLOAD PUSH2 0x5DE SWAP2 SWAP1 PUSH2 0x4658 JUMP JUMPDEST PUSH1 0x40 MLOAD DUP1 SWAP2 SUB SWAP1 RETURN JUMPDEST CALLVALUE DUP1 ISZERO PUSH2 0x5F3 JUMPI PUSH1 0x0 DUP1 REVERT JUMPDEST POP PUSH2 0x60E PUSH1 0x4 DUP1 CALLDATASIZE SUB DUP2 ADD SWAP1 PUSH2 0x609 SWAP2 SWAP1 PUSH2 0x433E JUMP JUMPDEST PUSH2 0x1C39 JUMP JUMPDEST PUSH1 0x40 MLOAD PUSH2 0x61B SWAP2 SWAP1 PUSH2 0x3BCD JUMP JUMPDEST PUSH1 0x40 MLOAD DUP1 SWAP2 SUB SWAP1 RETURN JUMPDEST CALLVALUE DUP1 ISZERO PUSH2 0x630 JUMPI PUSH1 0x0 DUP1 REVERT JUMPDEST POP PUSH2 0x64B PUSH1 0x4 DUP1 CALLDATASIZE SUB DUP2 ADD SWAP1 PUSH2 0x646 SWAP2 SWAP1 PUSH2 0x467A JUMP JUMPDEST PUSH2 0x1C59 JUMP JUMPDEST STOP JUMPDEST CALLVALUE DUP1 ISZERO PUSH2 0x659 JUMPI PUSH1 0x0 DUP1 REVERT JUMPDEST POP PUSH2 0x662 PUSH2 0x1EA1 JUMP JUMPDEST PUSH1 0x40 MLOAD PUSH2 0x66F SWAP2 SWAP1 PUSH2 0x3BCD JUMP JUMPDEST PUSH1 0x40 MLOAD DUP1 SWAP2 SUB SWAP1 RETURN JUMPDEST CALLVALUE DUP1 ISZERO PUSH2 0x684 JUMPI PUSH1 0x0 DUP1 REVERT JUMPDEST POP PUSH2 0x69F PUSH1 0x4 DUP1 CALLDATASIZE SUB DUP2 ADD SWAP1 PUSH2 0x69A SWAP2 SWAP1 PUSH2 0x433E JUMP JUMPDEST PUSH2 0x1EA7 JUMP JUMPDEST STOP JUMPDEST CALLVALUE DUP1 ISZERO PUSH2 0x6AD JUMPI PUSH1 0x0 DUP1 REVERT JUMPDEST POP PUSH2 0x6C8 PUSH1 0x4 DUP1 CALLDATASIZE SUB DUP2 ADD SWAP1 PUSH2 0x6C3 SWAP2 SWAP1 PUSH2 0x3FFB JUMP JUMPDEST PUSH2 0x1EBF JUMP JUMPDEST STOP JUMPDEST CALLVALUE DUP1 ISZERO PUSH2 0x6D6 JUMPI PUSH1 0x0 DUP1 REVERT JUMPDEST POP PUSH2 0x6DF PUSH2 0x2095 JUMP JUMPDEST PUSH1 0x40 MLOAD PUSH2 0x6EC SWAP2 SWAP1 PUSH2 0x46BA JUMP JUMPDEST PUSH1 0x40 MLOAD DUP1 SWAP2 SUB SWAP1 RETURN JUMPDEST CALLVALUE DUP1 ISZERO PUSH2 0x701 JUMPI PUSH1 0x0 DUP1 REVERT JUMPDEST POP PUSH2 0x71C PUSH1 0x4 DUP1 CALLDATASIZE SUB DUP2 ADD SWAP1 PUSH2 0x717 SWAP2 SWAP1 PUSH2 0x436B JUMP JUMPDEST PUSH2 0x20B9 JUMP JUMPDEST PUSH1 0x40 MLOAD PUSH2 0x729 SWAP2 SWAP1 PUSH2 0x3C5A JUMP JUMPDEST PUSH1 0x40 MLOAD DUP1 SWAP2 SUB SWAP1 RETURN JUMPDEST CALLVALUE DUP1 ISZERO PUSH2 0x73E JUMPI PUSH1 0x0 DUP1 REVERT JUMPDEST POP PUSH2 0x759 PUSH1 0x4 DUP1 CALLDATASIZE SUB DUP2 ADD SWAP1 PUSH2 0x754 SWAP2 SWAP1 PUSH2 0x3FBB JUMP JUMPDEST PUSH2 0x20EA JUMP JUMPDEST STOP JUMPDEST CALLVALUE DUP1 ISZERO PUSH2 0x767 JUMPI PUSH1 0x0 DUP1 REVERT JUMPDEST POP PUSH2 0x782 PUSH1 0x4 DUP1 CALLDATASIZE SUB DUP2 ADD SWAP1 PUSH2 0x77D SWAP2 SWAP1 PUSH2 0x4757 JUMP JUMPDEST PUSH2 0x210C JUMP JUMPDEST STOP JUMPDEST CALLVALUE DUP1 ISZERO PUSH2 0x790 JUMPI PUSH1 0x0 DUP1 REVERT JUMPDEST POP PUSH2 0x7AB PUSH1 0x4 DUP1 CALLDATASIZE SUB DUP2 ADD SWAP1 PUSH2 0x7A6 SWAP2 SWAP1 PUSH2 0x433E JUMP JUMPDEST PUSH2 0x2930 JUMP JUMPDEST STOP JUMPDEST CALLVALUE DUP1 ISZERO PUSH2 0x7B9 JUMPI PUSH1 0x0 DUP1 REVERT JUMPDEST POP PUSH2 0x7D4 PUSH1 0x4 DUP1 CALLDATASIZE SUB DUP2 ADD SWAP1 PUSH2 0x7CF SWAP2 SWAP1 PUSH2 0x47F1 JUMP JUMPDEST PUSH2 0x2AAD JUMP JUMPDEST PUSH1 0x40 MLOAD PUSH2 0x7E2 SWAP3 SWAP2 SWAP1 PUSH2 0x4902 JUMP JUMPDEST PUSH1 0x40 MLOAD DUP1 SWAP2 SUB SWAP1 RETURN JUMPDEST CALLVALUE DUP1 ISZERO PUSH2 0x7F7 JUMPI PUSH1 0x0 DUP1 REVERT JUMPDEST POP PUSH2 0x800 PUSH2 0x2C0E JUMP JUMPDEST PUSH1 0x40 MLOAD PUSH2 0x80D SWAP2 SWAP1 PUSH2 0x3C5A JUMP JUMPDEST PUSH1 0x40 MLOAD DUP1 SWAP2 SUB SWAP1 RETURN JUMPDEST PUSH1 0x0 PUSH32 0x7965DB0B00000000000000000000000000000000000000000000000000000000 PUSH28 0xFFFFFFFFFFFFFFFFFFFFFFFFFFFFFFFFFFFFFFFFFFFFFFFFFFFFFFFF NOT AND DUP3 PUSH28 0xFFFFFFFFFFFFFFFFFFFFFFFFFFFFFFFFFFFFFFFFFFFFFFFFFFFFFFFF NOT AND EQ DUP1 PUSH2 0x889 JUMPI POP PUSH2 0x888 DUP3 PUSH2 0x2C32 JUMP JUMPDEST JUMPDEST SWAP1 POP SWAP2 SWAP1 POP JUMP JUMPDEST PUSH1 0x1 DUP2 JUMP JUMPDEST PUSH1 0x0 DUP1 PUSH2 0x8A0 PUSH2 0x2C9C JUMP JUMPDEST SWAP1 POP DUP1 PUSH1 0x0 ADD PUSH1 0x0 DUP5 DUP2 MSTORE PUSH1 0x20 ADD SWAP1 DUP2 MSTORE PUSH1 0x20 ADD PUSH1 0x0 KECCAK256 PUSH1 0x1 ADD SLOAD SWAP2 POP POP SWAP2 SWAP1 POP JUMP JUMPDEST PUSH1 0x0 PUSH1 0x1 SLOAD DUP3 LT ISZERO PUSH2 0x90A JUMPI PUSH1 0x40 MLOAD PUSH32 0x8C379A000000000000000000000000000000000000000000000000000000000 DUP2 MSTORE PUSH1 0x4 ADD PUSH2 0x901 SWAP1 PUSH2 0x49A4 JUMP JUMPDEST PUSH1 0x40 MLOAD DUP1 SWAP2 SUB SWAP1 REVERT JUMPDEST PUSH1 0x7 PUSH1 0x0 CALLER PUSH20 0xFFFFFFFFFFFFFFFFFFFFFFFFFFFFFFFFFFFFFFFF AND PUSH20 0xFFFFFFFFFFFFFFFFFFFFFFFFFFFFFFFFFFFFFFFF AND DUP2 MSTORE PUSH1 0x20 ADD SWAP1 DUP2 MSTORE PUSH1 0x20 ADD PUSH1 0x0 KECCAK256 SLOAD DUP3 PUSH2 0x955 SWAP2 SWAP1 PUSH2 0x49F3 JUMP JUMPDEST PUSH1 0x6 PUSH1 0x0 CALLER PUSH20 0xFFFFFFFFFFFFFFFFFFFFFFFFFFFFFFFFFFFFFFFF AND PUSH20 0xFFFFFFFFFFFFFFFFFFFFFFFFFFFFFFFFFFFFFFFF AND DUP2 MSTORE PUSH1 0x20 ADD SWAP1 DUP2 MSTORE PUSH1 0x20 ADD PUSH1 0x0 KECCAK256 SLOAD LT ISZERO PUSH2 0x9D6 JUMPI PUSH1 0x40 MLOAD PUSH32 0x8C379A000000000000000000000000000000000000000000000000000000000 DUP2 MSTORE PUSH1 0x4 ADD PUSH2 0x9CD SWAP1 PUSH2 0x4ABF JUMP JUMPDEST PUSH1 0x40 MLOAD DUP1 SWAP2 SUB SWAP1 REVERT JUMPDEST PUSH2 0x9DF DUP8 PUSH2 0x2CC4 JUMP JUMPDEST PUSH2 0x9E9 DUP8 DUP8 PUSH2 0x2E30 JUMP JUMPDEST PUSH2 0x9F3 DUP8 DUP7 PUSH2 0x3011 JUMP JUMPDEST DUP2 PUSH1 0x7 PUSH1 0x0 CALLER PUSH20 0xFFFFFFFFFFFFFFFFFFFFFFFFFFFFFFFFFFFFFFFF AND PUSH20 0xFFFFFFFFFFFFFFFFFFFFFFFFFFFFFFFFFFFFFFFF AND DUP2 MSTORE PUSH1 0x20 ADD SWAP1 DUP2 MSTORE PUSH1 0x20 ADD PUSH1 0x0 KECCAK256 PUSH1 0x0 DUP3 DUP3 SLOAD PUSH2 0xA42 SWAP2 SWAP1 PUSH2 0x49F3 JUMP JUMPDEST SWAP3 POP POP DUP2 SWAP1 SSTORE POP PUSH1 0x2 PUSH1 0x0 DUP2 SLOAD PUSH2 0xA58 SWAP1 PUSH2 0x4ADF JUMP JUMPDEST SWAP2 SWAP1 POP DUP2 SWAP1 SSTORE SWAP1 POP PUSH1 0x40 MLOAD DUP1 PUSH2 0x160 ADD PUSH1 0x40 MSTORE DUP1 CALLER PUSH20 0xFFFFFFFFFFFFFFFFFFFFFFFFFFFFFFFFFFFFFFFF AND DUP2 MSTORE PUSH1 0x20 ADD DUP5 PUSH20 0xFFFFFFFFFFFFFFFFFFFFFFFFFFFFFFFFFFFFFFFF AND DUP2 MSTORE PUSH1 0x20 ADD DUP9 DUP2 MSTORE PUSH1 0x20 ADD DUP8 DUP2 MSTORE PUSH1 0x20 ADD DUP7 DUP2 MSTORE PUSH1 0x20 ADD DUP4 DUP2 MSTORE PUSH1 0x20 ADD PUSH1 0x0 DUP2 MSTORE PUSH1 0x20 ADD DUP11 DUP11 DUP1 DUP1 PUSH1 0x1F ADD PUSH1 0x20 DUP1 SWAP2 DIV MUL PUSH1 0x20 ADD PUSH1 0x40 MLOAD SWAP1 DUP2 ADD PUSH1 0x40 MSTORE DUP1 SWAP4 SWAP3 SWAP2 SWAP1 DUP2 DUP2 MSTORE PUSH1 0x20 ADD DUP4 DUP4 DUP1 DUP3 DUP5 CALLDATACOPY PUSH1 0x0 DUP2 DUP5 ADD MSTORE PUSH1 0x1F NOT PUSH1 0x1F DUP3 ADD AND SWAP1 POP DUP1 DUP4 ADD SWAP3 POP POP POP POP POP POP POP DUP2 MSTORE PUSH1 0x20 ADD PUSH1 0x0 ISZERO ISZERO DUP2 MSTORE PUSH1 0x20 ADD PUSH1 0x0 DUP2 MSTORE PUSH1 0x20 ADD DUP4 DUP2 MSTORE POP PUSH1 0x4 PUSH1 0x0 DUP4 DUP2 MSTORE PUSH1 0x20 ADD SWAP1 DUP2 MSTORE PUSH1 0x20 ADD PUSH1 0x0 KECCAK256 PUSH1 0x0 DUP3 ADD MLOAD DUP2 PUSH1 0x0 ADD PUSH1 0x0 PUSH2 0x100 EXP DUP2 SLOAD DUP2 PUSH20 0xFFFFFFFFFFFFFFFFFFFFFFFFFFFFFFFFFFFFFFFF MUL NOT AND SWAP1 DUP4 PUSH20 0xFFFFFFFFFFFFFFFFFFFFFFFFFFFFFFFFFFFFFFFF AND MUL OR SWAP1 SSTORE POP PUSH1 0x20 DUP3 ADD MLOAD DUP2 PUSH1 0x1 ADD PUSH1 0x0 PUSH2 0x100 EXP DUP2 SLOAD DUP2 PUSH20 0xFFFFFFFFFFFFFFFFFFFFFFFFFFFFFFFFFFFFFFFF MUL NOT AND SWAP1 DUP4 PUSH20 0xFFFFFFFFFFFFFFFFFFFFFFFFFFFFFFFFFFFFFFFF AND MUL OR SWAP1 SSTORE POP PUSH1 0x40 DUP3 ADD MLOAD DUP2 PUSH1 0x2 ADD SWAP1 DUP2 PUSH2 0xBD7 SWAP2 SWAP1 PUSH2 0x4D33 JUMP JUMPDEST POP PUSH1 0x60 DUP3 ADD MLOAD DUP2 PUSH1 0x3 ADD SWAP1 DUP2 PUSH2 0xBED SWAP2 SWAP1 PUSH2 0x4D33 JUMP JUMPDEST POP PUSH1 0x80 DUP3 ADD MLOAD DUP2 PUSH1 0x4 ADD SWAP1 DUP2 PUSH2 0xC03 SWAP2 SWAP1 PUSH2 0x4D33 JUMP JUMPDEST POP PUSH1 0xA0 DUP3 ADD MLOAD DUP2 PUSH1 0x5 ADD SSTORE PUSH1 0xC0 DUP3 ADD MLOAD DUP2 PUSH1 0x6 ADD SSTORE PUSH1 0xE0 DUP3 ADD MLOAD DUP2 PUSH1 0x7 ADD SWAP1 DUP2 PUSH2 0xC2D SWAP2 SWAP1 PUSH2 0x4E60 JUMP JUMPDEST POP PUSH2 0x100 DUP3 ADD MLOAD DUP2 PUSH1 0x8 ADD PUSH1 0x0 PUSH2 0x100 EXP DUP2 SLOAD DUP2 PUSH1 0xFF MUL NOT AND SWAP1 DUP4 ISZERO ISZERO MUL OR SWAP1 SSTORE POP PUSH2 0x120 DUP3 ADD MLOAD DUP2 PUSH1 0x9 ADD SSTORE PUSH2 0x140 DUP3 ADD MLOAD DUP2 PUSH1 0xA ADD SSTORE SWAP1 POP POP SWAP9 SWAP8 POP POP POP POP POP POP POP POP JUMP JUMPDEST PUSH2 0xC7D DUP3 PUSH2 0x895 JUMP JUMPDEST PUSH2 0xC86 DUP2 PUSH2 0x31F3 JUMP JUMPDEST PUSH2 0xC90 DUP4 DUP4 PUSH2 0x3207 JUMP JUMPDEST POP POP POP POP JUMP JUMPDEST PUSH2 0xC9E PUSH2 0x3308 JUMP JUMPDEST PUSH20 0xFFFFFFFFFFFFFFFFFFFFFFFFFFFFFFFFFFFFFFFF AND DUP2 PUSH20 0xFFFFFFFFFFFFFFFFFFFFFFFFFFFFFFFFFFFFFFFF AND EQ PUSH2 0xD02 JUMPI PUSH1 0x40 MLOAD PUSH32 0x6697B23200000000000000000000000000000000000000000000000000000000 DUP2 MSTORE PUSH1 0x4 ADD PUSH1 0x40 MLOAD DUP1 SWAP2 SUB SWAP1 REVERT JUMPDEST PUSH2 0xD0C DUP3 DUP3 PUSH2 0x3310 JUMP JUMPDEST POP POP POP JUMP JUMPDEST PUSH1 0x0 PUSH1 0x6 PUSH1 0x0 DUP4 PUSH20 0xFFFFFFFFFFFFFFFFFFFFFFFFFFFFFFFFFFFFFFFF AND PUSH20 0xFFFFFFFFFFFFFFFFFFFFFFFFFFFFFFFFFFFFFFFF AND DUP2 MSTORE PUSH1 0x20 ADD SWAP1 DUP2 MSTORE PUSH1 0x20 ADD PUSH1 0x0 KECCAK256 SLOAD SWAP1 POP SWAP2 SWAP1 POP JUMP JUMPDEST PUSH1 0x60 PUSH1 0x0 DUP3 EQ DUP1 PUSH2 0xD6B JUMPI POP PUSH1 0x1 DUP3 EQ JUMPDEST PUSH2 0xDAA JUMPI PUSH1 0x40 MLOAD PUSH32 0x8C379A000000000000000000000000000000000000000000000000000000000 DUP2 MSTORE PUSH1 0x4 ADD PUSH2 0xDA1 SWAP1 PUSH2 0x4F7E JUMP JUMPDEST PUSH1 0x40 MLOAD DUP1 SWAP2 SUB SWAP1 REVERT JUMPDEST PUSH1 0x8 DUP5 DUP5 PUSH1 0x40 MLOAD PUSH2 0xDBC SWAP3 SWAP2 SWAP1 PUSH2 0x4FCE JUMP JUMPDEST SWAP1 DUP2 MSTORE PUSH1 0x20 ADD PUSH1 0x40 MLOAD DUP1 SWAP2 SUB SWAP1 KECCAK256 PUSH1 0x0 DUP4 DUP2 MSTORE PUSH1 0x20 ADD SWAP1 DUP2 MSTORE PUSH1 0x20 ADD PUSH1 0x0 KECCAK256 DUP1 SLOAD DUP1 PUSH1 0x20 MUL PUSH1 0x20 ADD PUSH1 0x40 MLOAD SWAP1 DUP2 ADD PUSH1 0x40 MSTORE DUP1 SWAP3 SWAP2 SWAP1 DUP2 DUP2 MSTORE PUSH1 0x20 ADD PUSH1 0x0 SWAP1 JUMPDEST DUP3 DUP3 LT ISZERO PUSH2 0xEA7 JUMPI DUP4 DUP3 SWAP1 PUSH1 0x0 MSTORE PUSH1 0x20 PUSH1 0x0 KECCAK256 ADD DUP1 SLOAD PUSH2 0xE1A SWAP1 PUSH2 0x4B56 JUMP JUMPDEST DUP1 PUSH1 0x1F ADD PUSH1 0x20 DUP1 SWAP2 DIV MUL PUSH1 0x20 ADD PUSH1 0x40 MLOAD SWAP1 DUP2 ADD PUSH1 0x40 MSTORE DUP1 SWAP3 SWAP2 SWAP1 DUP2 DUP2 MSTORE PUSH1 0x20 ADD DUP3 DUP1 SLOAD PUSH2 0xE46 SWAP1 PUSH2 0x4B56 JUMP JUMPDEST DUP1 ISZERO PUSH2 0xE93 JUMPI DUP1 PUSH1 0x1F LT PUSH2 0xE68 JUMPI PUSH2 0x100 DUP1 DUP4 SLOAD DIV MUL DUP4 MSTORE SWAP2 PUSH1 0x20 ADD SWAP2 PUSH2 0xE93 JUMP JUMPDEST DUP3 ADD SWAP2 SWAP1 PUSH1 0x0 MSTORE PUSH1 0x20 PUSH1 0x0 KECCAK256 SWAP1 JUMPDEST DUP2 SLOAD DUP2 MSTORE SWAP1 PUSH1 0x1 ADD SWAP1 PUSH1 0x20 ADD DUP1 DUP4 GT PUSH2 0xE76 JUMPI DUP3 SWAP1 SUB PUSH1 0x1F AND DUP3 ADD SWAP2 JUMPDEST POP POP POP POP POP DUP2 MSTORE PUSH1 0x20 ADD SWAP1 PUSH1 0x1 ADD SWAP1 PUSH2 0xDFB JUMP JUMPDEST POP POP POP POP SWAP1 POP SWAP4 SWAP3 POP POP POP JUMP JUMPDEST PUSH2 0xEBC PUSH2 0x3412 JUMP JUMPDEST PUSH2 0xEC5 DUP3 PUSH2 0x34F8 JUMP JUMPDEST PUSH2 0xECF DUP3 DUP3 PUSH2 0x3526 JUMP JUMPDEST POP POP JUMP JUMPDEST DUP1 PUSH1 0x7 PUSH1 0x0 CALLER PUSH20 0xFFFFFFFFFFFFFFFFFFFFFFFFFFFFFFFFFFFFFFFF AND PUSH20 0xFFFFFFFFFFFFFFFFFFFFFFFFFFFFFFFFFFFFFFFF AND DUP2 MSTORE PUSH1 0x20 ADD SWAP1 DUP2 MSTORE PUSH1 0x20 ADD PUSH1 0x0 KECCAK256 SLOAD PUSH1 0x6 PUSH1 0x0 CALLER PUSH20 0xFFFFFFFFFFFFFFFFFFFFFFFFFFFFFFFFFFFFFFFF AND PUSH20 0xFFFFFFFFFFFFFFFFFFFFFFFFFFFFFFFFFFFFFFFF AND DUP2 MSTORE PUSH1 0x20 ADD SWAP1 DUP2 MSTORE PUSH1 0x20 ADD PUSH1 0x0 KECCAK256 SLOAD PUSH2 0xF5E SWAP2 SWAP1 PUSH2 0x4FE7 JUMP JUMPDEST LT ISZERO PUSH2 0xF9F JUMPI PUSH1 0x40 MLOAD PUSH32 0x8C379A000000000000000000000000000000000000000000000000000000000 DUP2 MSTORE PUSH1 0x4 ADD PUSH2 0xF96 SWAP1 PUSH2 0x5067 JUMP JUMPDEST PUSH1 0x40 MLOAD DUP1 SWAP2 SUB SWAP1 REVERT JUMPDEST PUSH1 0x0 PUSH1 0x6 PUSH1 0x0 CALLER PUSH20 0xFFFFFFFFFFFFFFFFFFFFFFFFFFFFFFFFFFFFFFFF AND PUSH20 0xFFFFFFFFFFFFFFFFFFFFFFFFFFFFFFFFFFFFFFFF AND DUP2 MSTORE PUSH1 0x20 ADD SWAP1 DUP2 MSTORE PUSH1 0x20 ADD PUSH1 0x0 KECCAK256 SLOAD SWAP1 POP DUP2 PUSH1 0x6 PUSH1 0x0 CALLER PUSH20 0xFFFFFFFFFFFFFFFFFFFFFFFFFFFFFFFFFFFFFFFF AND PUSH20 0xFFFFFFFFFFFFFFFFFFFFFFFFFFFFFFFFFFFFFFFF AND DUP2 MSTORE PUSH1 0x20 ADD SWAP1 DUP2 MSTORE PUSH1 0x20 ADD PUSH1 0x0 KECCAK256 PUSH1 0x0 DUP3 DUP3 SLOAD PUSH2 0x1032 SWAP2 SWAP1 PUSH2 0x4FE7 JUMP JUMPDEST SWAP3 POP POP DUP2 SWAP1 SSTORE POP PUSH1 0x0 DUP1 SLOAD SWAP1 PUSH2 0x100 EXP SWAP1 DIV PUSH20 0xFFFFFFFFFFFFFFFFFFFFFFFFFFFFFFFFFFFFFFFF AND PUSH20 0xFFFFFFFFFFFFFFFFFFFFFFFFFFFFFFFFFFFFFFFF AND PUSH4 0xA9059CBB CALLER DUP5 PUSH1 0x40 MLOAD DUP4 PUSH4 0xFFFFFFFF AND PUSH1 0xE0 SHL DUP2 MSTORE PUSH1 0x4 ADD PUSH2 0x1094 SWAP3 SWAP2 SWAP1 PUSH2 0x5087 JUMP JUMPDEST PUSH1 0x20 PUSH1 0x40 MLOAD DUP1 DUP4 SUB DUP2 PUSH1 0x0 DUP8 GAS CALL ISZERO DUP1 ISZERO PUSH2 0x10B3 JUMPI RETURNDATASIZE PUSH1 0x0 DUP1 RETURNDATACOPY RETURNDATASIZE PUSH1 0x0 REVERT JUMPDEST POP POP POP POP PUSH1 0x40 MLOAD RETURNDATASIZE PUSH1 0x1F NOT PUSH1 0x1F DUP3 ADD AND DUP3 ADD DUP1 PUSH1 0x40 MSTORE POP DUP2 ADD SWAP1 PUSH2 0x10D7 SWAP2 SWAP1 PUSH2 0x50C5 JUMP JUMPDEST PUSH2 0x1116 JUMPI PUSH1 0x40 MLOAD PUSH32 0x8C379A000000000000000000000000000000000000000000000000000000000 DUP2 MSTORE PUSH1 0x4 ADD PUSH2 0x110D SWAP1 PUSH2 0x513E JUMP JUMPDEST PUSH1 0x40 MLOAD DUP1 SWAP2 SUB SWAP1 REVERT JUMPDEST POP POP JUMP JUMPDEST PUSH1 0x0 PUSH2 0x1124 PUSH2 0x3645 JUMP JUMPDEST PUSH32 0x360894A13BA1A3210667C828492DB98DCA3E2076CC3735A920A3CA505D382BBC PUSH1 0x0 SHL SWAP1 POP SWAP1 JUMP JUMPDEST PUSH1 0x0 PUSH1 0x4 PUSH1 0x0 DUP5 DUP2 MSTORE PUSH1 0x20 ADD SWAP1 DUP2 MSTORE PUSH1 0x20 ADD PUSH1 0x0 KECCAK256 PUSH1 0x40 MLOAD DUP1 PUSH2 0x160 ADD PUSH1 0x40 MSTORE SWAP1 DUP2 PUSH1 0x0 DUP3 ADD PUSH1 0x0 SWAP1 SLOAD SWAP1 PUSH2 0x100 EXP SWAP1 DIV PUSH20 0xFFFFFFFFFFFFFFFFFFFFFFFFFFFFFFFFFFFFFFFF AND PUSH20 0xFFFFFFFFFFFFFFFFFFFFFFFFFFFFFFFFFFFFFFFF AND PUSH20 0xFFFFFFFFFFFFFFFFFFFFFFFFFFFFFFFFFFFFFFFF AND DUP2 MSTORE PUSH1 0x20 ADD PUSH1 0x1 DUP3 ADD PUSH1 0x0 SWAP1 SLOAD SWAP1 PUSH2 0x100 EXP SWAP1 DIV PUSH20 0xFFFFFFFFFFFFFFFFFFFFFFFFFFFFFFFFFFFFFFFF AND PUSH20 0xFFFFFFFFFFFFFFFFFFFFFFFFFFFFFFFFFFFFFFFF AND PUSH20 0xFFFFFFFFFFFFFFFFFFFFFFFFFFFFFFFFFFFFFFFF AND DUP2 MSTORE PUSH1 0x20 ADD PUSH1 0x2 DUP3 ADD DUP1 SLOAD PUSH2 0x122A SWAP1 PUSH2 0x4B56 JUMP JUMPDEST DUP1 PUSH1 0x1F ADD PUSH1 0x20 DUP1 SWAP2 DIV MUL PUSH1 0x20 ADD PUSH1 0x40 MLOAD SWAP1 DUP2 ADD PUSH1 0x40 MSTORE DUP1 SWAP3 SWAP2 SWAP1 DUP2 DUP2 MSTORE PUSH1 0x20 ADD DUP3 DUP1 SLOAD PUSH2 0x1256 SWAP1 PUSH2 0x4B56 JUMP JUMPDEST DUP1 ISZERO PUSH2 0x12A3 JUMPI DUP1 PUSH1 0x1F LT PUSH2 0x1278 JUMPI PUSH2 0x100 DUP1 DUP4 SLOAD DIV MUL DUP4 MSTORE SWAP2 PUSH1 0x20 ADD SWAP2 PUSH2 0x12A3 JUMP JUMPDEST DUP3 ADD SWAP2 SWAP1 PUSH1 0x0 MSTORE PUSH1 0x20 PUSH1 0x0 KECCAK256 SWAP1 JUMPDEST DUP2 SLOAD DUP2 MSTORE SWAP1 PUSH1 0x1 ADD SWAP1 PUSH1 0x20 ADD DUP1 DUP4 GT PUSH2 0x1286 JUMPI DUP3 SWAP1 SUB PUSH1 0x1F AND DUP3 ADD SWAP2 JUMPDEST POP POP POP POP POP DUP2 MSTORE PUSH1 0x20 ADD PUSH1 0x3 DUP3 ADD DUP1 SLOAD PUSH2 0x12BC SWAP1 PUSH2 0x4B56 JUMP JUMPDEST DUP1 PUSH1 0x1F ADD PUSH1 0x20 DUP1 SWAP2 DIV MUL PUSH1 0x20 ADD PUSH1 0x40 MLOAD SWAP1 DUP2 ADD PUSH1 0x40 MSTORE DUP1 SWAP3 SWAP2 SWAP1 DUP2 DUP2 MSTORE PUSH1 0x20 ADD DUP3 DUP1 SLOAD PUSH2 0x12E8 SWAP1 PUSH2 0x4B56 JUMP JUMPDEST DUP1 ISZERO PUSH2 0x1335 JUMPI DUP1 PUSH1 0x1F LT PUSH2 0x130A JUMPI PUSH2 0x100 DUP1 DUP4 SLOAD DIV MUL DUP4 MSTORE SWAP2 PUSH1 0x20 ADD SWAP2 PUSH2 0x1335 JUMP JUMPDEST DUP3 ADD SWAP2 SWAP1 PUSH1 0x0 MSTORE PUSH1 0x20 PUSH1 0x0 KECCAK256 SWAP1 JUMPDEST DUP2 SLOAD DUP2 MSTORE SWAP1 PUSH1 0x1 ADD SWAP1 PUSH1 0x20 ADD DUP1 DUP4 GT PUSH2 0x1318 JUMPI DUP3 SWAP1 SUB PUSH1 0x1F AND DUP3 ADD SWAP2 JUMPDEST POP POP POP POP POP DUP2 MSTORE PUSH1 0x20 ADD PUSH1 0x4 DUP3 ADD DUP1 SLOAD PUSH2 0x134E SWAP1 PUSH2 0x4B56 JUMP JUMPDEST DUP1 PUSH1 0x1F ADD PUSH1 0x20 DUP1 SWAP2 DIV MUL PUSH1 0x20 ADD PUSH1 0x40 MLOAD SWAP1 DUP2 ADD PUSH1 0x40 MSTORE DUP1 SWAP3 SWAP2 SWAP1 DUP2 DUP2 MSTORE PUSH1 0x20 ADD DUP3 DUP1 SLOAD PUSH2 0x137A SWAP1 PUSH2 0x4B56 JUMP JUMPDEST DUP1 ISZERO PUSH2 0x13C7 JUMPI DUP1 PUSH1 0x1F LT PUSH2 0x139C JUMPI PUSH2 0x100 DUP1 DUP4 SLOAD DIV MUL DUP4 MSTORE SWAP2 PUSH1 0x20 ADD SWAP2 PUSH2 0x13C7 JUMP JUMPDEST DUP3 ADD SWAP2 SWAP1 PUSH1 0x0 MSTORE PUSH1 0x20 PUSH1 0x0 KECCAK256 SWAP1 JUMPDEST DUP2 SLOAD DUP2 MSTORE SWAP1 PUSH1 0x1 ADD SWAP1 PUSH1 0x20 ADD DUP1 DUP4 GT PUSH2 0x13AA JUMPI DUP3 SWAP1 SUB PUSH1 0x1F AND DUP3 ADD SWAP2 JUMPDEST POP POP POP POP POP DUP2 MSTORE PUSH1 0x20 ADD PUSH1 0x5 DUP3 ADD SLOAD DUP2 MSTORE PUSH1 0x20 ADD PUSH1 0x6 DUP3 ADD SLOAD DUP2 MSTORE PUSH1 0x20 ADD PUSH1 0x7 DUP3 ADD DUP1 SLOAD PUSH2 0x13F4 SWAP1 PUSH2 0x4B56 JUMP JUMPDEST DUP1 PUSH1 0x1F ADD PUSH1 0x20 DUP1 SWAP2 DIV MUL PUSH1 0x20 ADD PUSH1 0x40 MLOAD SWAP1 DUP2 ADD PUSH1 0x40 MSTORE DUP1 SWAP3 SWAP2 SWAP1 DUP2 DUP2 MSTORE PUSH1 0x20 ADD DUP3 DUP1 SLOAD PUSH2 0x1420 SWAP1 PUSH2 0x4B56 JUMP JUMPDEST DUP1 ISZERO PUSH2 0x146D JUMPI DUP1 PUSH1 0x1F LT PUSH2 0x1442 JUMPI PUSH2 0x100 DUP1 DUP4 SLOAD DIV MUL DUP4 MSTORE SWAP2 PUSH1 0x20 ADD SWAP2 PUSH2 0x146D JUMP JUMPDEST DUP3 ADD SWAP2 SWAP1 PUSH1 0x0 MSTORE PUSH1 0x20 PUSH1 0x0 KECCAK256 SWAP1 JUMPDEST DUP2 SLOAD DUP2 MSTORE SWAP1 PUSH1 0x1 ADD SWAP1 PUSH1 0x20 ADD DUP1 DUP4 GT PUSH2 0x1450 JUMPI DUP3 SWAP1 SUB PUSH1 0x1F AND DUP3 ADD SWAP2 JUMPDEST POP POP POP POP POP DUP2 MSTORE PUSH1 0x20 ADD PUSH1 0x8 DUP3 ADD PUSH1 0x0 SWAP1 SLOAD SWAP1 PUSH2 0x100 EXP SWAP1 DIV PUSH1 0xFF AND ISZERO ISZERO ISZERO ISZERO DUP2 MSTORE PUSH1 0x20 ADD PUSH1 0x9 DUP3 ADD SLOAD DUP2 MSTORE PUSH1 0x20 ADD PUSH1 0xA DUP3 ADD SLOAD DUP2 MSTORE POP POP SWAP1 POP DUP1 PUSH2 0x100 ADD MLOAD ISZERO PUSH2 0x14ED JUMPI PUSH1 0x40 MLOAD PUSH32 0x8C379A000000000000000000000000000000000000000000000000000000000 DUP2 MSTORE PUSH1 0x4 ADD PUSH2 0x14E4 SWAP1 PUSH2 0x51AA JUMP JUMPDEST PUSH1 0x40 MLOAD DUP1 SWAP2 SUB SWAP1 REVERT JUMPDEST DUP2 PUSH1 0x7 PUSH1 0x0 CALLER PUSH20 0xFFFFFFFFFFFFFFFFFFFFFFFFFFFFFFFFFFFFFFFF AND PUSH20 0xFFFFFFFFFFFFFFFFFFFFFFFFFFFFFFFFFFFFFFFF AND DUP2 MSTORE PUSH1 0x20 ADD SWAP1 DUP2 MSTORE PUSH1 0x20 ADD PUSH1 0x0 KECCAK256 SLOAD PUSH1 0x6 PUSH1 0x0 CALLER PUSH20 0xFFFFFFFFFFFFFFFFFFFFFFFFFFFFFFFFFFFFFFFF AND PUSH20 0xFFFFFFFFFFFFFFFFFFFFFFFFFFFFFFFFFFFFFFFF AND DUP2 MSTORE PUSH1 0x20 ADD SWAP1 DUP2 MSTORE PUSH1 0x20 ADD PUSH1 0x0 KECCAK256 SLOAD PUSH2 0x1578 SWAP2 SWAP1 PUSH2 0x4FE7 JUMP JUMPDEST LT ISZERO PUSH2 0x15B9 JUMPI PUSH1 0x40 MLOAD PUSH32 0x8C379A000000000000000000000000000000000000000000000000000000000 DUP2 MSTORE PUSH1 0x4 ADD PUSH2 0x15B0 SWAP1 PUSH2 0x5216 JUMP JUMPDEST PUSH1 0x40 MLOAD DUP1 SWAP2 SUB SWAP1 REVERT JUMPDEST DUP2 PUSH1 0x7 PUSH1 0x0 CALLER PUSH20 0xFFFFFFFFFFFFFFFFFFFFFFFFFFFFFFFFFFFFFFFF AND PUSH20 0xFFFFFFFFFFFFFFFFFFFFFFFFFFFFFFFFFFFFFFFF AND DUP2 MSTORE PUSH1 0x20 ADD SWAP1 DUP2 MSTORE PUSH1 0x20 ADD PUSH1 0x0 KECCAK256 PUSH1 0x0 DUP3 DUP3 SLOAD PUSH2 0x1608 SWAP2 SWAP1 PUSH2 0x49F3 JUMP JUMPDEST SWAP3 POP POP DUP2 SWAP1 SSTORE POP DUP2 DUP2 PUSH2 0x140 ADD DUP2 DUP2 MLOAD PUSH2 0x1622 SWAP2 SWAP1 PUSH2 0x49F3 JUMP JUMPDEST SWAP2 POP DUP2 DUP2 MSTORE POP POP DUP2 DUP2 PUSH1 0xA0 ADD DUP2 DUP2 MLOAD PUSH2 0x163B SWAP2 SWAP1 PUSH2 0x49F3 JUMP JUMPDEST SWAP2 POP DUP2 DUP2 MSTORE POP POP DUP1 PUSH1 0x4 PUSH1 0x0 DUP6 DUP2 MSTORE PUSH1 0x20 ADD SWAP1 DUP2 MSTORE PUSH1 0x20 ADD PUSH1 0x0 KECCAK256 PUSH1 0x0 DUP3 ADD MLOAD DUP2 PUSH1 0x0 ADD PUSH1 0x0 PUSH2 0x100 EXP DUP2 SLOAD DUP2 PUSH20 0xFFFFFFFFFFFFFFFFFFFFFFFFFFFFFFFFFFFFFFFF MUL NOT AND SWAP1 DUP4 PUSH20 0xFFFFFFFFFFFFFFFFFFFFFFFFFFFFFFFFFFFFFFFF AND MUL OR SWAP1 SSTORE POP PUSH1 0x20 DUP3 ADD MLOAD DUP2 PUSH1 0x1 ADD PUSH1 0x0 PUSH2 0x100 EXP DUP2 SLOAD DUP2 PUSH20 0xFFFFFFFFFFFFFFFFFFFFFFFFFFFFFFFFFFFFFFFF MUL NOT AND SWAP1 DUP4 PUSH20 0xFFFFFFFFFFFFFFFFFFFFFFFFFFFFFFFFFFFFFFFF AND MUL OR SWAP1 SSTORE POP PUSH1 0x40 DUP3 ADD MLOAD DUP2 PUSH1 0x2 ADD SWAP1 DUP2 PUSH2 0x16F9 SWAP2 SWAP1 PUSH2 0x4D33 JUMP JUMPDEST POP PUSH1 0x60 DUP3 ADD MLOAD DUP2 PUSH1 0x3 ADD SWAP1 DUP2 PUSH2 0x170F SWAP2 SWAP1 PUSH2 0x4D33 JUMP JUMPDEST POP PUSH1 0x80 DUP3 ADD MLOAD DUP2 PUSH1 0x4 ADD SWAP1 DUP2 PUSH2 0x1725 SWAP2 SWAP1 PUSH2 0x4D33 JUMP JUMPDEST POP PUSH1 0xA0 DUP3 ADD MLOAD DUP2 PUSH1 0x5 ADD SSTORE PUSH1 0xC0 DUP3 ADD MLOAD DUP2 PUSH1 0x6 ADD SSTORE PUSH1 0xE0 DUP3 ADD MLOAD DUP2 PUSH1 0x7 ADD SWAP1 DUP2 PUSH2 0x174F SWAP2 SWAP1 PUSH2 0x4E60 JUMP JUMPDEST POP PUSH2 0x100 DUP3 ADD MLOAD DUP2 PUSH1 0x8 ADD PUSH1 0x0 PUSH2 0x100 EXP DUP2 SLOAD DUP2 PUSH1 0xFF MUL NOT AND SWAP1 DUP4 ISZERO ISZERO MUL OR SWAP1 SSTORE POP PUSH2 0x120 DUP3 ADD MLOAD DUP2 PUSH1 0x9 ADD SSTORE PUSH2 0x140 DUP3 ADD MLOAD DUP2 PUSH1 0xA ADD SSTORE SWAP1 POP POP POP POP POP JUMP JUMPDEST PUSH1 0x0 DUP1 SHL PUSH2 0x179C DUP2 PUSH2 0x31F3 JUMP JUMPDEST POP POP POP JUMP JUMPDEST PUSH1 0x4 PUSH1 0x20 MSTORE DUP1 PUSH1 0x0 MSTORE PUSH1 0x40 PUSH1 0x0 KECCAK256 PUSH1 0x0 SWAP2 POP SWAP1 POP DUP1 PUSH1 0x0 ADD PUSH1 0x0 SWAP1 SLOAD SWAP1 PUSH2 0x100 EXP SWAP1 DIV PUSH20 0xFFFFFFFFFFFFFFFFFFFFFFFFFFFFFFFFFFFFFFFF AND SWAP1 DUP1 PUSH1 0x1 ADD PUSH1 0x0 SWAP1 SLOAD SWAP1 PUSH2 0x100 EXP SWAP1 DIV PUSH20 0xFFFFFFFFFFFFFFFFFFFFFFFFFFFFFFFFFFFFFFFF AND SWAP1 DUP1 PUSH1 0x2 ADD DUP1 SLOAD PUSH2 0x1810 SWAP1 PUSH2 0x4B56 JUMP JUMPDEST DUP1 PUSH1 0x1F ADD PUSH1 0x20 DUP1 SWAP2 DIV MUL PUSH1 0x20 ADD PUSH1 0x40 MLOAD SWAP1 DUP2 ADD PUSH1 0x40 MSTORE DUP1 SWAP3 SWAP2 SWAP1 DUP2 DUP2 MSTORE PUSH1 0x20 ADD DUP3 DUP1 SLOAD PUSH2 0x183C SWAP1 PUSH2 0x4B56 JUMP JUMPDEST DUP1 ISZERO PUSH2 0x1889 JUMPI DUP1 PUSH1 0x1F LT PUSH2 0x185E JUMPI PUSH2 0x100 DUP1 DUP4 SLOAD DIV MUL DUP4 MSTORE SWAP2 PUSH1 0x20 ADD SWAP2 PUSH2 0x1889 JUMP JUMPDEST DUP3 ADD SWAP2 SWAP1 PUSH1 0x0 MSTORE PUSH1 0x20 PUSH1 0x0 KECCAK256 SWAP1 JUMPDEST DUP2 SLOAD DUP2 MSTORE SWAP1 PUSH1 0x1 ADD SWAP1 PUSH1 0x20 ADD DUP1 DUP4 GT PUSH2 0x186C JUMPI DUP3 SWAP1 SUB PUSH1 0x1F AND DUP3 ADD SWAP2 JUMPDEST POP POP POP POP POP SWAP1 DUP1 PUSH1 0x3 ADD DUP1 SLOAD PUSH2 0x189E SWAP1 PUSH2 0x4B56 JUMP JUMPDEST DUP1 PUSH1 0x1F ADD PUSH1 0x20 DUP1 SWAP2 DIV MUL PUSH1 0x20 ADD PUSH1 0x40 MLOAD SWAP1 DUP2 ADD PUSH1 0x40 MSTORE DUP1 SWAP3 SWAP2 SWAP1 DUP2 DUP2 MSTORE PUSH1 0x20 ADD DUP3 DUP1 SLOAD PUSH2 0x18CA SWAP1 PUSH2 0x4B56 JUMP JUMPDEST DUP1 ISZERO PUSH2 0x1917 JUMPI DUP1 PUSH1 0x1F LT PUSH2 0x18EC JUMPI PUSH2 0x100 DUP1 DUP4 SLOAD DIV MUL DUP4 MSTORE SWAP2 PUSH1 0x20 ADD SWAP2 PUSH2 0x1917 JUMP JUMPDEST DUP3 ADD SWAP2 SWAP1 PUSH1 0x0 MSTORE PUSH1 0x20 PUSH1 0x0 KECCAK256 SWAP1 JUMPDEST DUP2 SLOAD DUP2 MSTORE SWAP1 PUSH1 0x1 ADD SWAP1 PUSH1 0x20 ADD DUP1 DUP4 GT PUSH2 0x18FA JUMPI DUP3 SWAP1 SUB PUSH1 0x1F AND DUP3 ADD SWAP2 JUMPDEST POP POP POP POP POP SWAP1 DUP1 PUSH1 0x4 ADD DUP1 SLOAD PUSH2 0x192C SWAP1 PUSH2 0x4B56 JUMP JUMPDEST DUP1 PUSH1 0x1F ADD PUSH1 0x20 DUP1 SWAP2 DIV MUL PUSH1 0x20 ADD PUSH1 0x40 MLOAD SWAP1 DUP2 ADD PUSH1 0x40 MSTORE DUP1 SWAP3 SWAP2 SWAP1 DUP2 DUP2 MSTORE PUSH1 0x20 ADD DUP3 DUP1 SLOAD PUSH2 0x1958 SWAP1 PUSH2 0x4B56 JUMP JUMPDEST DUP1 ISZERO PUSH2 0x19A5 JUMPI DUP1 PUSH1 0x1F LT PUSH2 0x197A JUMPI PUSH2 0x100 DUP1 DUP4 SLOAD DIV MUL DUP4 MSTORE SWAP2 PUSH1 0x20 ADD SWAP2 PUSH2 0x19A5 JUMP JUMPDEST DUP3 ADD SWAP2 SWAP1 PUSH1 0x0 MSTORE PUSH1 0x20 PUSH1 0x0 KECCAK256 SWAP1 JUMPDEST DUP2 SLOAD DUP2 MSTORE SWAP1 PUSH1 0x1 ADD SWAP1 PUSH1 0x20 ADD DUP1 DUP4 GT PUSH2 0x1988 JUMPI DUP3 SWAP1 SUB PUSH1 0x1F AND DUP3 ADD SWAP2 JUMPDEST POP POP POP POP POP SWAP1 DUP1 PUSH1 0x5 ADD SLOAD SWAP1 DUP1 PUSH1 0x6 ADD SLOAD SWAP1 DUP1 PUSH1 0x7 ADD DUP1 SLOAD PUSH2 0x19C6 SWAP1 PUSH2 0x4B56 JUMP JUMPDEST DUP1 PUSH1 0x1F ADD PUSH1 0x20 DUP1 SWAP2 DIV MUL PUSH1 0x20 ADD PUSH1 0x40 MLOAD SWAP1 DUP2 ADD PUSH1 0x40 MSTORE DUP1 SWAP3 SWAP2 SWAP1 DUP2 DUP2 MSTORE PUSH1 0x20 ADD DUP3 DUP1 SLOAD PUSH2 0x19F2 SWAP1 PUSH2 0x4B56 JUMP JUMPDEST DUP1 ISZERO PUSH2 0x1A3F JUMPI DUP1 PUSH1 0x1F LT PUSH2 0x1A14 JUMPI PUSH2 0x100 DUP1 DUP4 SLOAD DIV MUL DUP4 MSTORE SWAP2 PUSH1 0x20 ADD SWAP2 PUSH2 0x1A3F JUMP JUMPDEST DUP3 ADD SWAP2 SWAP1 PUSH1 0x0 MSTORE PUSH1 0x20 PUSH1 0x0 KECCAK256 SWAP1 JUMPDEST DUP2 SLOAD DUP2 MSTORE SWAP1 PUSH1 0x1 ADD SWAP1 PUSH1 0x20 ADD DUP1 DUP4 GT PUSH2 0x1A22 JUMPI DUP3 SWAP1 SUB PUSH1 0x1F AND DUP3 ADD SWAP2 JUMPDEST POP POP POP POP POP SWAP1 DUP1 PUSH1 0x8 ADD PUSH1 0x0 SWAP1 SLOAD SWAP1 PUSH2 0x100 EXP SWAP1 DIV PUSH1 0xFF AND SWAP1 DUP1 PUSH1 0x9 ADD SLOAD SWAP1 DUP1 PUSH1 0xA ADD SLOAD SWAP1 POP DUP12 JUMP JUMPDEST PUSH1 0x0 DUP1 SHL PUSH2 0x1A75 DUP2 PUSH2 0x31F3 JUMP JUMPDEST POP POP POP POP POP POP JUMP JUMPDEST PUSH1 0x60 PUSH1 0x3 DUP1 SLOAD DUP1 PUSH1 0x20 MUL PUSH1 0x20 ADD PUSH1 0x40 MLOAD SWAP1 DUP2 ADD PUSH1 0x40 MSTORE DUP1 SWAP3 SWAP2 SWAP1 DUP2 DUP2 MSTORE PUSH1 0x20 ADD PUSH1 0x0 SWAP1 JUMPDEST DUP3 DUP3 LT ISZERO PUSH2 0x1B4D JUMPI DUP4 DUP3 SWAP1 PUSH1 0x0 MSTORE PUSH1 0x20 PUSH1 0x0 KECCAK256 ADD DUP1 SLOAD PUSH2 0x1AC0 SWAP1 PUSH2 0x4B56 JUMP JUMPDEST DUP1 PUSH1 0x1F ADD PUSH1 0x20 DUP1 SWAP2 DIV MUL PUSH1 0x20 ADD PUSH1 0x40 MLOAD SWAP1 DUP2 ADD PUSH1 0x40 MSTORE DUP1 SWAP3 SWAP2 SWAP1 DUP2 DUP2 MSTORE PUSH1 0x20 ADD DUP3 DUP1 SLOAD PUSH2 0x1AEC SWAP1 PUSH2 0x4B56 JUMP JUMPDEST DUP1 ISZERO PUSH2 0x1B39 JUMPI DUP1 PUSH1 0x1F LT PUSH2 0x1B0E JUMPI PUSH2 0x100 DUP1 DUP4 SLOAD DIV MUL DUP4 MSTORE SWAP2 PUSH1 0x20 ADD SWAP2 PUSH2 0x1B39 JUMP JUMPDEST DUP3 ADD SWAP2 SWAP1 PUSH1 0x0 MSTORE PUSH1 0x20 PUSH1 0x0 KECCAK256 SWAP1 JUMPDEST DUP2 SLOAD DUP2 MSTORE SWAP1 PUSH1 0x1 ADD SWAP1 PUSH1 0x20 ADD DUP1 DUP4 GT PUSH2 0x1B1C JUMPI DUP3 SWAP1 SUB PUSH1 0x1F AND DUP3 ADD SWAP2 JUMPDEST POP POP POP POP POP DUP2 MSTORE PUSH1 0x20 ADD SWAP1 PUSH1 0x1 ADD SWAP1 PUSH2 0x1AA1 JUMP JUMPDEST POP POP POP POP SWAP1 POP SWAP1 JUMP JUMPDEST PUSH1 0x0 DUP1 PUSH2 0x1B61 PUSH2 0x2C9C JUMP JUMPDEST SWAP1 POP DUP1 PUSH1 0x0 ADD PUSH1 0x0 DUP6 DUP2 MSTORE PUSH1 0x20 ADD SWAP1 DUP2 MSTORE PUSH1 0x20 ADD PUSH1 0x0 KECCAK256 PUSH1 0x0 ADD PUSH1 0x0 DUP5 PUSH20 0xFFFFFFFFFFFFFFFFFFFFFFFFFFFFFFFFFFFFFFFF AND PUSH20 0xFFFFFFFFFFFFFFFFFFFFFFFFFFFFFFFFFFFFFFFF AND DUP2 MSTORE PUSH1 0x20 ADD SWAP1 DUP2 MSTORE PUSH1 0x20 ADD PUSH1 0x0 KECCAK256 PUSH1 0x0 SWAP1 SLOAD SWAP1 PUSH2 0x100 EXP SWAP1 DIV PUSH1 0xFF AND SWAP2 POP POP SWAP3 SWAP2 POP POP JUMP JUMPDEST PUSH1 0x2 SLOAD DUP2 JUMP JUMPDEST PUSH32 0xDA1A6A1AED77F7562F9A85EA42F27E4CA1C512764F45E356D169B80C12A93A65 DUP2 JUMP JUMPDEST PUSH1 0x0 DUP1 SHL DUP2 JUMP JUMPDEST PUSH1 0x40 MLOAD DUP1 PUSH1 0x40 ADD PUSH1 0x40 MSTORE DUP1 PUSH1 0x5 DUP2 MSTORE PUSH1 0x20 ADD PUSH32 0x352E302E30000000000000000000000000000000000000000000000000000000 DUP2 MSTORE POP DUP2 JUMP JUMPDEST PUSH1 0x0 PUSH1 0x4 PUSH1 0x0 DUP4 DUP2 MSTORE PUSH1 0x20 ADD SWAP1 DUP2 MSTORE PUSH1 0x20 ADD PUSH1 0x0 KECCAK256 PUSH1 0x9 ADD SLOAD SWAP1 POP SWAP2 SWAP1 POP JUMP JUMPDEST DUP2 PUSH1 0x7 PUSH1 0x0 CALLER PUSH20 0xFFFFFFFFFFFFFFFFFFFFFFFFFFFFFFFFFFFFFFFF AND PUSH20 0xFFFFFFFFFFFFFFFFFFFFFFFFFFFFFFFFFFFFFFFF AND DUP2 MSTORE PUSH1 0x20 ADD SWAP1 DUP2 MSTORE PUSH1 0x20 ADD PUSH1 0x0 KECCAK256 SLOAD PUSH1 0x6 PUSH1 0x0 CALLER PUSH20 0xFFFFFFFFFFFFFFFFFFFFFFFFFFFFFFFFFFFFFFFF AND PUSH20 0xFFFFFFFFFFFFFFFFFFFFFFFFFFFFFFFFFFFFFFFF AND DUP2 MSTORE PUSH1 0x20 ADD SWAP1 DUP2 MSTORE PUSH1 0x20 ADD PUSH1 0x0 KECCAK256 SLOAD PUSH2 0x1CE4 SWAP2 SWAP1 PUSH2 0x4FE7 JUMP JUMPDEST LT ISZERO PUSH2 0x1D25 JUMPI PUSH1 0x40 MLOAD PUSH32 0x8C379A000000000000000000000000000000000000000000000000000000000 DUP2 MSTORE PUSH1 0x4 ADD PUSH2 0x1D1C SWAP1 PUSH2 0x5067 JUMP JUMPDEST PUSH1 0x40 MLOAD DUP1 SWAP2 SUB SWAP1 REVERT JUMPDEST PUSH1 0x0 PUSH1 0x6 PUSH1 0x0 CALLER PUSH20 0xFFFFFFFFFFFFFFFFFFFFFFFFFFFFFFFFFFFFFFFF AND PUSH20 0xFFFFFFFFFFFFFFFFFFFFFFFFFFFFFFFFFFFFFFFF AND DUP2 MSTORE PUSH1 0x20 ADD SWAP1 DUP2 MSTORE PUSH1 0x20 ADD PUSH1 0x0 KECCAK256 SLOAD SWAP1 POP DUP3 PUSH1 0x6 PUSH1 0x0 CALLER PUSH20 0xFFFFFFFFFFFFFFFFFFFFFFFFFFFFFFFFFFFFFFFF AND PUSH20 0xFFFFFFFFFFFFFFFFFFFFFFFFFFFFFFFFFFFFFFFF AND DUP2 MSTORE PUSH1 0x20 ADD SWAP1 DUP2 MSTORE PUSH1 0x20 ADD PUSH1 0x0 KECCAK256 PUSH1 0x0 DUP3 DUP3 SLOAD PUSH2 0x1DB8 SWAP2 SWAP1 PUSH2 0x4FE7 JUMP JUMPDEST SWAP3 POP POP DUP2 SWAP1 SSTORE POP PUSH1 0x0 DUP1 SLOAD SWAP1 PUSH2 0x100 EXP SWAP1 DIV PUSH20 0xFFFFFFFFFFFFFFFFFFFFFFFFFFFFFFFFFFFFFFFF AND PUSH20 0xFFFFFFFFFFFFFFFFFFFFFFFFFFFFFFFFFFFFFFFF AND PUSH4 0xA9059CBB DUP4 DUP6 PUSH1 0x40 MLOAD DUP4 PUSH4 0xFFFFFFFF AND PUSH1 0xE0 SHL DUP2 MSTORE PUSH1 0x4 ADD PUSH2 0x1E1A SWAP3 SWAP2 SWAP1 PUSH2 0x5087 JUMP JUMPDEST PUSH1 0x20 PUSH1 0x40 MLOAD DUP1 DUP4 SUB DUP2 PUSH1 0x0 DUP8 GAS CALL ISZERO DUP1 ISZERO PUSH2 0x1E39 JUMPI RETURNDATASIZE PUSH1 0x0 DUP1 RETURNDATACOPY RETURNDATASIZE PUSH1 0x0 REVERT JUMPDEST POP POP POP POP PUSH1 0x40 MLOAD RETURNDATASIZE PUSH1 0x1F NOT PUSH1 0x1F DUP3 ADD AND DUP3 ADD DUP1 PUSH1 0x40 MSTORE POP DUP2 ADD SWAP1 PUSH2 0x1E5D SWAP2 SWAP1 PUSH2 0x50C5 JUMP JUMPDEST PUSH2 0x1E9C JUMPI PUSH1 0x40 MLOAD PUSH32 0x8C379A000000000000000000000000000000000000000000000000000000000 DUP2 MSTORE PUSH1 0x4 ADD PUSH2 0x1E93 SWAP1 PUSH2 0x513E JUMP JUMPDEST PUSH1 0x40 MLOAD DUP1 SWAP2 SUB SWAP1 REVERT JUMPDEST POP POP POP JUMP JUMPDEST PUSH1 0x1 SLOAD DUP2 JUMP JUMPDEST PUSH1 0x0 DUP1 SHL PUSH2 0x1EB4 DUP2 PUSH2 0x31F3 JUMP JUMPDEST DUP2 PUSH1 0x1 DUP2 SWAP1 SSTORE POP POP POP JUMP JUMPDEST PUSH1 0x0 PUSH2 0x1EC9 PUSH2 0x36CC JUMP JUMPDEST SWAP1 POP PUSH1 0x0 DUP2 PUSH1 0x0 ADD PUSH1 0x8 SWAP1 SLOAD SWAP1 PUSH2 0x100 EXP SWAP1 DIV PUSH1 0xFF AND ISZERO SWAP1 POP PUSH1 0x0 DUP3 PUSH1 0x0 ADD PUSH1 0x0 SWAP1 SLOAD SWAP1 PUSH2 0x100 EXP SWAP1 DIV PUSH8 0xFFFFFFFFFFFFFFFF AND SWAP1 POP PUSH1 0x0 DUP1 DUP3 PUSH8 0xFFFFFFFFFFFFFFFF AND EQ DUP1 ISZERO PUSH2 0x1F17 JUMPI POP DUP3 JUMPDEST SWAP1 POP PUSH1 0x0 PUSH1 0x1 DUP4 PUSH8 0xFFFFFFFFFFFFFFFF AND EQ DUP1 ISZERO PUSH2 0x1F4C JUMPI POP PUSH1 0x0 ADDRESS PUSH20 0xFFFFFFFFFFFFFFFFFFFFFFFFFFFFFFFFFFFFFFFF AND EXTCODESIZE EQ JUMPDEST SWAP1 POP DUP2 ISZERO DUP1 ISZERO PUSH2 0x1F5A JUMPI POP DUP1 ISZERO JUMPDEST ISZERO PUSH2 0x1F91 JUMPI PUSH1 0x40 MLOAD PUSH32 0xF92EE8A900000000000000000000000000000000000000000000000000000000 DUP2 MSTORE PUSH1 0x4 ADD PUSH1 0x40 MLOAD DUP1 SWAP2 SUB SWAP1 REVERT JUMPDEST PUSH1 0x1 DUP6 PUSH1 0x0 ADD PUSH1 0x0 PUSH2 0x100 EXP DUP2 SLOAD DUP2 PUSH8 0xFFFFFFFFFFFFFFFF MUL NOT AND SWAP1 DUP4 PUSH8 0xFFFFFFFFFFFFFFFF AND MUL OR SWAP1 SSTORE POP DUP4 ISZERO PUSH2 0x1FE1 JUMPI PUSH1 0x1 DUP6 PUSH1 0x0 ADD PUSH1 0x8 PUSH2 0x100 EXP DUP2 SLOAD DUP2 PUSH1 0xFF MUL NOT AND SWAP1 DUP4 ISZERO ISZERO MUL OR SWAP1 SSTORE POP JUMPDEST PUSH2 0x1FE9 PUSH2 0x36F4 JUMP JUMPDEST DUP6 PUSH1 0x0 DUP1 PUSH2 0x100 EXP DUP2 SLOAD DUP2 PUSH20 0xFFFFFFFFFFFFFFFFFFFFFFFFFFFFFFFFFFFFFFFF MUL NOT AND SWAP1 DUP4 PUSH20 0xFFFFFFFFFFFFFFFFFFFFFFFFFFFFFFFFFFFFFFFF AND MUL OR SWAP1 SSTORE POP PUSH1 0x5 PUSH1 0x1 DUP2 SWAP1 SSTORE POP DUP4 ISZERO PUSH2 0x208D JUMPI PUSH1 0x0 DUP6 PUSH1 0x0 ADD PUSH1 0x8 PUSH2 0x100 EXP DUP2 SLOAD DUP2 PUSH1 0xFF MUL NOT AND SWAP1 DUP4 ISZERO ISZERO MUL OR SWAP1 SSTORE POP PUSH32 0xC7F505B2F371AE2175EE4913F4499E1F2633A7B5936321EED1CDAEB6115181D2 PUSH1 0x1 PUSH1 0x40 MLOAD PUSH2 0x2084 SWAP2 SWAP1 PUSH2 0x5285 JUMP JUMPDEST PUSH1 0x40 MLOAD DUP1 SWAP2 SUB SWAP1 LOG1 JUMPDEST POP POP POP POP POP POP JUMP JUMPDEST PUSH1 0x0 DUP1 SLOAD SWAP1 PUSH2 0x100 EXP SWAP1 DIV PUSH20 0xFFFFFFFFFFFFFFFFFFFFFFFFFFFFFFFFFFFFFFFF AND DUP2 JUMP JUMPDEST PUSH1 0x5 PUSH1 0x20 MSTORE DUP2 PUSH1 0x0 MSTORE PUSH1 0x40 PUSH1 0x0 KECCAK256 DUP2 DUP2 SLOAD DUP2 LT PUSH2 0x20D5 JUMPI PUSH1 0x0 DUP1 REVERT JUMPDEST SWAP1 PUSH1 0x0 MSTORE PUSH1 0x20 PUSH1 0x0 KECCAK256 ADD PUSH1 0x0 SWAP2 POP SWAP2 POP POP SLOAD DUP2 JUMP JUMPDEST PUSH2 0x20F3 DUP3 PUSH2 0x895 JUMP JUMPDEST PUSH2 0x20FC DUP2 PUSH2 0x31F3 JUMP JUMPDEST PUSH2 0x2106 DUP4 DUP4 PUSH2 0x3310 JUMP JUMPDEST POP POP POP POP JUMP JUMPDEST PUSH32 0xDA1A6A1AED77F7562F9A85EA42F27E4CA1C512764F45E356D169B80C12A93A65 PUSH2 0x2136 DUP2 PUSH2 0x31F3 JUMP JUMPDEST PUSH1 0x0 PUSH1 0x4 PUSH1 0x0 DUP10 DUP2 MSTORE PUSH1 0x20 ADD SWAP1 DUP2 MSTORE PUSH1 0x20 ADD PUSH1 0x0 KECCAK256 PUSH1 0x40 MLOAD DUP1 PUSH2 0x160 ADD PUSH1 0x40 MSTORE SWAP1 DUP2 PUSH1 0x0 DUP3 ADD PUSH1 0x0 SWAP1 SLOAD SWAP1 PUSH2 0x100 EXP SWAP1 DIV PUSH20 0xFFFFFFFFFFFFFFFFFFFFFFFFFFFFFFFFFFFFFFFF AND PUSH20 0xFFFFFFFFFFFFFFFFFFFFFFFFFFFFFFFFFFFFFFFF AND PUSH20 0xFFFFFFFFFFFFFFFFFFFFFFFFFFFFFFFFFFFFFFFF AND DUP2 MSTORE PUSH1 0x20 ADD PUSH1 0x1 DUP3 ADD PUSH1 0x0 SWAP1 SLOAD SWAP1 PUSH2 0x100 EXP SWAP1 DIV PUSH20 0xFFFFFFFFFFFFFFFFFFFFFFFFFFFFFFFFFFFFFFFF AND PUSH20 0xFFFFFFFFFFFFFFFFFFFFFFFFFFFFFFFFFFFFFFFF AND PUSH20 0xFFFFFFFFFFFFFFFFFFFFFFFFFFFFFFFFFFFFFFFF AND DUP2 MSTORE PUSH1 0x20 ADD PUSH1 0x2 DUP3 ADD DUP1 SLOAD PUSH2 0x2213 SWAP1 PUSH2 0x4B56 JUMP JUMPDEST DUP1 PUSH1 0x1F ADD PUSH1 0x20 DUP1 SWAP2 DIV MUL PUSH1 0x20 ADD PUSH1 0x40 MLOAD SWAP1 DUP2 ADD PUSH1 0x40 MSTORE DUP1 SWAP3 SWAP2 SWAP1 DUP2 DUP2 MSTORE PUSH1 0x20 ADD DUP3 DUP1 SLOAD PUSH2 0x223F SWAP1 PUSH2 0x4B56 JUMP JUMPDEST DUP1 ISZERO PUSH2 0x228C JUMPI DUP1 PUSH1 0x1F LT PUSH2 0x2261 JUMPI PUSH2 0x100 DUP1 DUP4 SLOAD DIV MUL DUP4 MSTORE SWAP2 PUSH1 0x20 ADD SWAP2 PUSH2 0x228C JUMP JUMPDEST DUP3 ADD SWAP2 SWAP1 PUSH1 0x0 MSTORE PUSH1 0x20 PUSH1 0x0 KECCAK256 SWAP1 JUMPDEST DUP2 SLOAD DUP2 MSTORE SWAP1 PUSH1 0x1 ADD SWAP1 PUSH1 0x20 ADD DUP1 DUP4 GT PUSH2 0x226F JUMPI DUP3 SWAP1 SUB PUSH1 0x1F AND DUP3 ADD SWAP2 JUMPDEST POP POP POP POP POP DUP2 MSTORE PUSH1 0x20 ADD PUSH1 0x3 DUP3 ADD DUP1 SLOAD PUSH2 0x22A5 SWAP1 PUSH2 0x4B56 JUMP JUMPDEST DUP1 PUSH1 0x1F ADD PUSH1 0x20 DUP1 SWAP2 DIV MUL PUSH1 0x20 ADD PUSH1 0x40 MLOAD SWAP1 DUP2 ADD PUSH1 0x40 MSTORE DUP1 SWAP3 SWAP2 SWAP1 DUP2 DUP2 MSTORE PUSH1 0x20 ADD DUP3 DUP1 SLOAD PUSH2 0x22D1 SWAP1 PUSH2 0x4B56 JUMP JUMPDEST DUP1 ISZERO PUSH2 0x231E JUMPI DUP1 PUSH1 0x1F LT PUSH2 0x22F3 JUMPI PUSH2 0x100 DUP1 DUP4 SLOAD DIV MUL DUP4 MSTORE SWAP2 PUSH1 0x20 ADD SWAP2 PUSH2 0x231E JUMP JUMPDEST DUP3 ADD SWAP2 SWAP1 PUSH1 0x0 MSTORE PUSH1 0x20 PUSH1 0x0 KECCAK256 SWAP1 JUMPDEST DUP2 SLOAD DUP2 MSTORE SWAP1 PUSH1 0x1 ADD SWAP1 PUSH1 0x20 ADD DUP1 DUP4 GT PUSH2 0x2301 JUMPI DUP3 SWAP1 SUB PUSH1 0x1F AND DUP3 ADD SWAP2 JUMPDEST POP POP POP POP POP DUP2 MSTORE PUSH1 0x20 ADD PUSH1 0x4 DUP3 ADD DUP1 SLOAD PUSH2 0x2337 SWAP1 PUSH2 0x4B56 JUMP JUMPDEST DUP1 PUSH1 0x1F ADD PUSH1 0x20 DUP1 SWAP2 DIV MUL PUSH1 0x20 ADD PUSH1 0x40 MLOAD SWAP1 DUP2 ADD PUSH1 0x40 MSTORE DUP1 SWAP3 SWAP2 SWAP1 DUP2 DUP2 MSTORE PUSH1 0x20 ADD DUP3 DUP1 SLOAD PUSH2 0x2363 SWAP1 PUSH2 0x4B56 JUMP JUMPDEST DUP1 ISZERO PUSH2 0x23B0 JUMPI DUP1 PUSH1 0x1F LT PUSH2 0x2385 JUMPI PUSH2 0x100 DUP1 DUP4 SLOAD DIV MUL DUP4 MSTORE SWAP2 PUSH1 0x20 ADD SWAP2 PUSH2 0x23B0 JUMP JUMPDEST DUP3 ADD SWAP2 SWAP1 PUSH1 0x0 MSTORE PUSH1 0x20 PUSH1 0x0 KECCAK256 SWAP1 JUMPDEST DUP2 SLOAD DUP2 MSTORE SWAP1 PUSH1 0x1 ADD SWAP1 PUSH1 0x20 ADD DUP1 DUP4 GT PUSH2 0x2393 JUMPI DUP3 SWAP1 SUB PUSH1 0x1F AND DUP3 ADD SWAP2 JUMPDEST POP POP POP POP POP DUP2 MSTORE PUSH1 0x20 ADD PUSH1 0x5 DUP3 ADD SLOAD DUP2 MSTORE PUSH1 0x20 ADD PUSH1 0x6 DUP3 ADD SLOAD DUP2 MSTORE PUSH1 0x20 ADD PUSH1 0x7 DUP3 ADD DUP1 SLOAD PUSH2 0x23DD SWAP1 PUSH2 0x4B56 JUMP JUMPDEST DUP1 PUSH1 0x1F ADD PUSH1 0x20 DUP1 SWAP2 DIV MUL PUSH1 0x20 ADD PUSH1 0x40 MLOAD SWAP1 DUP2 ADD PUSH1 0x40 MSTORE DUP1 SWAP3 SWAP2 SWAP1 DUP2 DUP2 MSTORE PUSH1 0x20 ADD DUP3 DUP1 SLOAD PUSH2 0x2409 SWAP1 PUSH2 0x4B56 JUMP JUMPDEST DUP1 ISZERO PUSH2 0x2456 JUMPI DUP1 PUSH1 0x1F LT PUSH2 0x242B JUMPI PUSH2 0x100 DUP1 DUP4 SLOAD DIV MUL DUP4 MSTORE SWAP2 PUSH1 0x20 ADD SWAP2 PUSH2 0x2456 JUMP JUMPDEST DUP3 ADD SWAP2 SWAP1 PUSH1 0x0 MSTORE PUSH1 0x20 PUSH1 0x0 KECCAK256 SWAP1 JUMPDEST DUP2 SLOAD DUP2 MSTORE SWAP1 PUSH1 0x1 ADD SWAP1 PUSH1 0x20 ADD DUP1 DUP4 GT PUSH2 0x2439 JUMPI DUP3 SWAP1 SUB PUSH1 0x1F AND DUP3 ADD SWAP2 JUMPDEST POP POP POP POP POP DUP2 MSTORE PUSH1 0x20 ADD PUSH1 0x8 DUP3 ADD PUSH1 0x0 SWAP1 SLOAD SWAP1 PUSH2 0x100 EXP SWAP1 DIV PUSH1 0xFF AND ISZERO ISZERO ISZERO ISZERO DUP2 MSTORE PUSH1 0x20 ADD PUSH1 0x9 DUP3 ADD SLOAD DUP2 MSTORE PUSH1 0x20 ADD PUSH1 0xA DUP3 ADD SLOAD DUP2 MSTORE POP POP SWAP1 POP DUP1 PUSH2 0x100 ADD MLOAD ISZERO PUSH2 0x24D6 JUMPI PUSH1 0x40 MLOAD PUSH32 0x8C379A000000000000000000000000000000000000000000000000000000000 DUP2 MSTORE PUSH1 0x4 ADD PUSH2 0x24CD SWAP1 PUSH2 0x51AA JUMP JUMPDEST PUSH1 0x40 MLOAD DUP1 SWAP2 SUB SWAP1 REVERT JUMPDEST DUP1 PUSH1 0xA0 ADD MLOAD DUP5 DUP3 PUSH1 0xC0 ADD MLOAD PUSH2 0x24EB SWAP2 SWAP1 PUSH2 0x49F3 JUMP JUMPDEST GT ISZERO PUSH2 0x252C JUMPI PUSH1 0x40 MLOAD PUSH32 0x8C379A000000000000000000000000000000000000000000000000000000000 DUP2 MSTORE PUSH1 0x4 ADD PUSH2 0x2523 SWAP1 PUSH2 0x5216 JUMP JUMPDEST PUSH1 0x40 MLOAD DUP1 SWAP2 SUB SWAP1 REVERT JUMPDEST DUP4 PUSH1 0x6 PUSH1 0x0 DUP4 PUSH1 0x0 ADD MLOAD PUSH20 0xFFFFFFFFFFFFFFFFFFFFFFFFFFFFFFFFFFFFFFFF AND PUSH20 0xFFFFFFFFFFFFFFFFFFFFFFFFFFFFFFFFFFFFFFFF AND DUP2 MSTORE PUSH1 0x20 ADD SWAP1 DUP2 MSTORE PUSH1 0x20 ADD PUSH1 0x0 KECCAK256 SLOAD LT ISZERO PUSH2 0x25B2 JUMPI PUSH1 0x40 MLOAD PUSH32 0x8C379A000000000000000000000000000000000000000000000000000000000 DUP2 MSTORE PUSH1 0x4 ADD PUSH2 0x25A9 SWAP1 PUSH2 0x5338 JUMP JUMPDEST PUSH1 0x40 MLOAD DUP1 SWAP2 SUB SWAP1 REVERT JUMPDEST PUSH1 0x0 PUSH1 0x5 PUSH1 0x0 DUP11 DUP2 MSTORE PUSH1 0x20 ADD SWAP1 DUP2 MSTORE PUSH1 0x20 ADD PUSH1 0x0 KECCAK256 SWAP1 POP DUP5 DUP3 PUSH1 0xC0 ADD DUP2 DUP2 MLOAD PUSH2 0x25DB SWAP2 SWAP1 PUSH2 0x49F3 JUMP JUMPDEST SWAP2 POP DUP2 DUP2 MSTORE POP POP DUP8 DUP8 SWAP1 POP DUP3 PUSH2 0x120 ADD DUP2 DUP2 MLOAD PUSH2 0x25F8 SWAP2 SWAP1 PUSH2 0x49F3 JUMP JUMPDEST SWAP2 POP DUP2 DUP2 MSTORE POP POP DUP6 ISZERO PUSH2 0x2618 JUMPI PUSH1 0x1 DUP3 PUSH2 0x100 ADD SWAP1 ISZERO ISZERO SWAP1 DUP2 ISZERO ISZERO DUP2 MSTORE POP POP JUMPDEST PUSH1 0x0 DUP1 SLOAD SWAP1 PUSH2 0x100 EXP SWAP1 DIV PUSH20 0xFFFFFFFFFFFFFFFFFFFFFFFFFFFFFFFFFFFFFFFF AND PUSH20 0xFFFFFFFFFFFFFFFFFFFFFFFFFFFFFFFFFFFFFFFF AND PUSH4 0x42966C68 DUP7 PUSH1 0x40 MLOAD DUP3 PUSH4 0xFFFFFFFF AND PUSH1 0xE0 SHL DUP2 MSTORE PUSH1 0x4 ADD PUSH2 0x2671 SWAP2 SWAP1 PUSH2 0x3BCD JUMP JUMPDEST PUSH1 0x0 PUSH1 0x40 MLOAD DUP1 DUP4 SUB DUP2 PUSH1 0x0 DUP8 DUP1 EXTCODESIZE ISZERO DUP1 ISZERO PUSH2 0x268B JUMPI PUSH1 0x0 DUP1 REVERT JUMPDEST POP GAS CALL ISZERO DUP1 ISZERO PUSH2 0x269F JUMPI RETURNDATASIZE PUSH1 0x0 DUP1 RETURNDATACOPY RETURNDATASIZE PUSH1 0x0 REVERT JUMPDEST POP POP POP POP DUP5 PUSH1 0x6 PUSH1 0x0 CALLER PUSH20 0xFFFFFFFFFFFFFFFFFFFFFFFFFFFFFFFFFFFFFFFF AND PUSH20 0xFFFFFFFFFFFFFFFFFFFFFFFFFFFFFFFFFFFFFFFF AND DUP2 MSTORE PUSH1 0x20 ADD SWAP1 DUP2 MSTORE PUSH1 0x20 ADD PUSH1 0x0 KECCAK256 PUSH1 0x0 DUP3 DUP3 SLOAD PUSH2 0x26F2 SWAP2 SWAP1 PUSH2 0x4FE7 JUMP JUMPDEST SWAP3 POP POP DUP2 SWAP1 SSTORE POP DUP2 PUSH2 0x140 ADD MLOAD PUSH1 0x7 PUSH1 0x0 CALLER PUSH20 0xFFFFFFFFFFFFFFFFFFFFFFFFFFFFFFFFFFFFFFFF AND PUSH20 0xFFFFFFFFFFFFFFFFFFFFFFFFFFFFFFFFFFFFFFFF AND DUP2 MSTORE PUSH1 0x20 ADD SWAP1 DUP2 MSTORE PUSH1 0x20 ADD PUSH1 0x0 KECCAK256 PUSH1 0x0 DUP3 DUP3 SLOAD PUSH2 0x274D SWAP2 SWAP1 PUSH2 0x4FE7 JUMP JUMPDEST SWAP3 POP POP DUP2 SWAP1 SSTORE POP PUSH1 0x0 DUP3 PUSH2 0x140 ADD DUP2 DUP2 MSTORE POP POP DUP2 PUSH1 0x4 PUSH1 0x0 DUP12 DUP2 MSTORE PUSH1 0x20 ADD SWAP1 DUP2 MSTORE PUSH1 0x20 ADD PUSH1 0x0 KECCAK256 PUSH1 0x0 DUP3 ADD MLOAD DUP2 PUSH1 0x0 ADD PUSH1 0x0 PUSH2 0x100 EXP DUP2 SLOAD DUP2 PUSH20 0xFFFFFFFFFFFFFFFFFFFFFFFFFFFFFFFFFFFFFFFF MUL NOT AND SWAP1 DUP4 PUSH20 0xFFFFFFFFFFFFFFFFFFFFFFFFFFFFFFFFFFFFFFFF AND MUL OR SWAP1 SSTORE POP PUSH1 0x20 DUP3 ADD MLOAD DUP2 PUSH1 0x1 ADD PUSH1 0x0 PUSH2 0x100 EXP DUP2 SLOAD DUP2 PUSH20 0xFFFFFFFFFFFFFFFFFFFFFFFFFFFFFFFFFFFFFFFF MUL NOT AND SWAP1 DUP4 PUSH20 0xFFFFFFFFFFFFFFFFFFFFFFFFFFFFFFFFFFFFFFFF AND MUL OR SWAP1 SSTORE POP PUSH1 0x40 DUP3 ADD MLOAD DUP2 PUSH1 0x2 ADD SWAP1 DUP2 PUSH2 0x2817 SWAP2 SWAP1 PUSH2 0x4D33 JUMP JUMPDEST POP PUSH1 0x60 DUP3 ADD MLOAD DUP2 PUSH1 0x3 ADD SWAP1 DUP2 PUSH2 0x282D SWAP2 SWAP1 PUSH2 0x4D33 JUMP JUMPDEST POP PUSH1 0x80 DUP3 ADD MLOAD DUP2 PUSH1 0x4 ADD SWAP1 DUP2 PUSH2 0x2843 SWAP2 SWAP1 PUSH2 0x4D33 JUMP JUMPDEST POP PUSH1 0xA0 DUP3 ADD MLOAD DUP2 PUSH1 0x5 ADD SSTORE PUSH1 0xC0 DUP3 ADD MLOAD DUP2 PUSH1 0x6 ADD SSTORE PUSH1 0xE0 DUP3 ADD MLOAD DUP2 PUSH1 0x7 ADD SWAP1 DUP2 PUSH2 0x286D SWAP2 SWAP1 PUSH2 0x4E60 JUMP JUMPDEST POP PUSH2 0x100 DUP3 ADD MLOAD DUP2 PUSH1 0x8 ADD PUSH1 0x0 PUSH2 0x100 EXP DUP2 SLOAD DUP2 PUSH1 0xFF MUL NOT AND SWAP1 DUP4 ISZERO ISZERO MUL OR SWAP1 SSTORE POP PUSH2 0x120 DUP3 ADD MLOAD DUP2 PUSH1 0x9 ADD SSTORE PUSH2 0x140 DUP3 ADD MLOAD DUP2 PUSH1 0xA ADD SSTORE SWAP1 POP POP PUSH1 0x0 DUP3 PUSH1 0x20 ADD MLOAD SWAP1 POP DUP1 PUSH20 0xFFFFFFFFFFFFFFFFFFFFFFFFFFFFFFFFFFFFFFFF AND PUSH4 0x936B092E DUP7 DUP13 DUP13 DUP13 DUP13 PUSH1 0x40 MLOAD DUP7 PUSH4 0xFFFFFFFF AND PUSH1 0xE0 SHL DUP2 MSTORE PUSH1 0x4 ADD PUSH2 0x28F1 SWAP5 SWAP4 SWAP3 SWAP2 SWAP1 PUSH2 0x53C2 JUMP JUMPDEST PUSH1 0x0 PUSH1 0x40 MLOAD DUP1 DUP4 SUB DUP2 PUSH1 0x0 DUP9 DUP1 EXTCODESIZE ISZERO DUP1 ISZERO PUSH2 0x290B JUMPI PUSH1 0x0 DUP1 REVERT JUMPDEST POP DUP8 CALL ISZERO DUP1 ISZERO PUSH2 0x291F JUMPI RETURNDATASIZE PUSH1 0x0 DUP1 RETURNDATACOPY RETURNDATASIZE PUSH1 0x0 REVERT JUMPDEST POP POP POP POP POP POP POP POP POP POP POP POP POP POP POP JUMP JUMPDEST PUSH1 0x0 DUP1 SLOAD SWAP1 PUSH2 0x100 EXP SWAP1 DIV PUSH20 0xFFFFFFFFFFFFFFFFFFFFFFFFFFFFFFFFFFFFFFFF AND PUSH20 0xFFFFFFFFFFFFFFFFFFFFFFFFFFFFFFFFFFFFFFFF AND PUSH4 0x23B872DD CALLER ADDRESS DUP5 PUSH1 0x40 MLOAD DUP5 PUSH4 0xFFFFFFFF AND PUSH1 0xE0 SHL DUP2 MSTORE PUSH1 0x4 ADD PUSH2 0x298D SWAP4 SWAP3 SWAP2 SWAP1 PUSH2 0x5402 JUMP JUMPDEST PUSH1 0x20 PUSH1 0x40 MLOAD DUP1 DUP4 SUB DUP2 PUSH1 0x0 DUP8 GAS CALL ISZERO DUP1 ISZERO PUSH2 0x29AC JUMPI RETURNDATASIZE PUSH1 0x0 DUP1 RETURNDATACOPY RETURNDATASIZE PUSH1 0x0 REVERT JUMPDEST POP POP POP POP PUSH1 0x40 MLOAD RETURNDATASIZE PUSH1 0x1F NOT PUSH1 0x1F DUP3 ADD AND DUP3 ADD DUP1 PUSH1 0x40 MSTORE POP DUP2 ADD SWAP1 PUSH2 0x29D0 SWAP2 SWAP1 PUSH2 0x50C5 JUMP JUMPDEST PUSH2 0x2A0F JUMPI PUSH1 0x40 MLOAD PUSH32 0x8C379A000000000000000000000000000000000000000000000000000000000 DUP2 MSTORE PUSH1 0x4 ADD PUSH2 0x2A06 SWAP1 PUSH2 0x513E JUMP JUMPDEST PUSH1 0x40 MLOAD DUP1 SWAP2 SUB SWAP1 REVERT JUMPDEST PUSH1 0x0 PUSH1 0x6 PUSH1 0x0 CALLER PUSH20 0xFFFFFFFFFFFFFFFFFFFFFFFFFFFFFFFFFFFFFFFF AND PUSH20 0xFFFFFFFFFFFFFFFFFFFFFFFFFFFFFFFFFFFFFFFF AND DUP2 MSTORE PUSH1 0x20 ADD SWAP1 DUP2 MSTORE PUSH1 0x20 ADD PUSH1 0x0 KECCAK256 SLOAD SWAP1 POP DUP2 PUSH1 0x6 PUSH1 0x0 CALLER PUSH20 0xFFFFFFFFFFFFFFFFFFFFFFFFFFFFFFFFFFFFFFFF AND PUSH20 0xFFFFFFFFFFFFFFFFFFFFFFFFFFFFFFFFFFFFFFFF AND DUP2 MSTORE PUSH1 0x20 ADD SWAP1 DUP2 MSTORE PUSH1 0x20 ADD PUSH1 0x0 KECCAK256 PUSH1 0x0 DUP3 DUP3 SLOAD PUSH2 0x2AA2 SWAP2 SWAP1 PUSH2 0x49F3 JUMP JUMPDEST SWAP3 POP POP DUP2 SWAP1 SSTORE POP POP POP JUMP JUMPDEST PUSH1 0x60 PUSH1 0x0 DUP1 PUSH1 0x4 PUSH1 0x0 DUP8 DUP2 MSTORE PUSH1 0x20 ADD SWAP1 DUP2 MSTORE PUSH1 0x20 ADD PUSH1 0x0 KECCAK256 SWAP1 POP DUP1 PUSH1 0x9 ADD SLOAD DUP5 DUP7 PUSH2 0x2AD8 SWAP2 SWAP1 PUSH2 0x49F3 JUMP JUMPDEST GT ISZERO PUSH2 0x2B19 JUMPI PUSH1 0x40 MLOAD PUSH32 0x8C379A000000000000000000000000000000000000000000000000000000000 DUP2 MSTORE PUSH1 0x4 ADD PUSH2 0x2B10 SWAP1 PUSH2 0x5485 JUMP JUMPDEST PUSH1 0x40 MLOAD DUP1 SWAP2 SUB SWAP1 REVERT JUMPDEST DUP4 PUSH8 0xFFFFFFFFFFFFFFFF DUP2 GT ISZERO PUSH2 0x2B33 JUMPI PUSH2 0x2B32 PUSH2 0x3CF0 JUMP JUMPDEST JUMPDEST PUSH1 0x40 MLOAD SWAP1 DUP1 DUP3 MSTORE DUP1 PUSH1 0x20 MUL PUSH1 0x20 ADD DUP3 ADD PUSH1 0x40 MSTORE DUP1 ISZERO PUSH2 0x2B61 JUMPI DUP2 PUSH1 0x20 ADD PUSH1 0x20 DUP3 MUL DUP1 CALLDATASIZE DUP4 CALLDATACOPY DUP1 DUP3 ADD SWAP2 POP POP SWAP1 POP JUMPDEST POP SWAP3 POP PUSH1 0x0 JUMPDEST DUP5 DUP2 LT ISZERO PUSH2 0x2BD6 JUMPI PUSH1 0x5 PUSH1 0x0 DUP9 DUP2 MSTORE PUSH1 0x20 ADD SWAP1 DUP2 MSTORE PUSH1 0x20 ADD PUSH1 0x0 KECCAK256 DUP2 DUP8 PUSH2 0x2B8E SWAP2 SWAP1 PUSH2 0x49F3 JUMP JUMPDEST DUP2 SLOAD DUP2 LT PUSH2 0x2B9F JUMPI PUSH2 0x2B9E PUSH2 0x54A5 JUMP JUMPDEST JUMPDEST SWAP1 PUSH1 0x0 MSTORE PUSH1 0x20 PUSH1 0x0 KECCAK256 ADD SLOAD DUP5 DUP3 DUP2 MLOAD DUP2 LT PUSH2 0x2BBD JUMPI PUSH2 0x2BBC PUSH2 0x54A5 JUMP JUMPDEST JUMPDEST PUSH1 0x20 MUL PUSH1 0x20 ADD ADD DUP2 DUP2 MSTORE POP POP DUP1 DUP1 PUSH1 0x1 ADD SWAP2 POP POP PUSH2 0x2B67 JUMP JUMPDEST POP DUP1 PUSH1 0x8 ADD PUSH1 0x0 SWAP1 SLOAD SWAP1 PUSH2 0x100 EXP SWAP1 DIV PUSH1 0xFF AND DUP1 ISZERO PUSH2 0x2C03 JUMPI POP DUP1 PUSH1 0x9 ADD SLOAD DUP5 DUP7 PUSH2 0x2C01 SWAP2 SWAP1 PUSH2 0x49F3 JUMP JUMPDEST EQ JUMPDEST SWAP2 POP POP SWAP4 POP SWAP4 SWAP2 POP POP JUMP JUMPDEST PUSH32 0x189AB7A9244DF0848122154315AF71FE140F3DB0FE014031783B0946B8C9D2E3 DUP2 JUMP JUMPDEST PUSH1 0x0 PUSH32 0x1FFC9A700000000000000000000000000000000000000000000000000000000 PUSH28 0xFFFFFFFFFFFFFFFFFFFFFFFFFFFFFFFFFFFFFFFFFFFFFFFFFFFFFFFF NOT AND DUP3 PUSH28 0xFFFFFFFFFFFFFFFFFFFFFFFFFFFFFFFFFFFFFFFFFFFFFFFFFFFFFFFF NOT AND EQ SWAP1 POP SWAP2 SWAP1 POP JUMP JUMPDEST PUSH1 0x0 PUSH32 0x2DD7BC7DEC4DCEEDDA775E58DD541E08A116C6C53815C0BD028192F7B626800 SWAP1 POP SWAP1 JUMP JUMPDEST PUSH1 0x0 DUP1 JUMPDEST PUSH1 0x3 DUP1 SLOAD SWAP1 POP DUP2 LT ISZERO PUSH2 0x2DEB JUMPI PUSH1 0x0 PUSH1 0x3 DUP3 DUP2 SLOAD DUP2 LT PUSH2 0x2CEB JUMPI PUSH2 0x2CEA PUSH2 0x54A5 JUMP JUMPDEST JUMPDEST SWAP1 PUSH1 0x0 MSTORE PUSH1 0x20 PUSH1 0x0 KECCAK256 ADD DUP1 SLOAD PUSH2 0x2D00 SWAP1 PUSH2 0x4B56 JUMP JUMPDEST DUP1 PUSH1 0x1F ADD PUSH1 0x20 DUP1 SWAP2 DIV MUL PUSH1 0x20 ADD PUSH1 0x40 MLOAD SWAP1 DUP2 ADD PUSH1 0x40 MSTORE DUP1 SWAP3 SWAP2 SWAP1 DUP2 DUP2 MSTORE PUSH1 0x20 ADD DUP3 DUP1 SLOAD PUSH2 0x2D2C SWAP1 PUSH2 0x4B56 JUMP JUMPDEST DUP1 ISZERO PUSH2 0x2D79 JUMPI DUP1 PUSH1 0x1F LT PUSH2 0x2D4E JUMPI PUSH2 0x100 DUP1 DUP4 SLOAD DIV MUL DUP4 MSTORE SWAP2 PUSH1 0x20 ADD SWAP2 PUSH2 0x2D79 JUMP JUMPDEST DUP3 ADD SWAP2 SWAP1 PUSH1 0x0 MSTORE PUSH1 0x20 PUSH1 0x0 KECCAK256 SWAP1 JUMPDEST DUP2 SLOAD DUP2 MSTORE SWAP1 PUSH1 0x1 ADD SWAP1 PUSH1 0x20 ADD DUP1 DUP4 GT PUSH2 0x2D5C JUMPI DUP3 SWAP1 SUB PUSH1 0x1F AND DUP3 ADD SWAP2 JUMPDEST POP POP POP POP POP SWAP1 POP DUP1 PUSH1 0x40 MLOAD PUSH1 0x20 ADD PUSH2 0x2D91 SWAP2 SWAP1 PUSH2 0x5505 JUMP JUMPDEST PUSH1 0x40 MLOAD PUSH1 0x20 DUP2 DUP4 SUB SUB DUP2 MSTORE SWAP1 PUSH1 0x40 MSTORE DUP1 MLOAD SWAP1 PUSH1 0x20 ADD KECCAK256 DUP5 PUSH1 0x40 MLOAD PUSH1 0x20 ADD PUSH2 0x2DB8 SWAP2 SWAP1 PUSH2 0x5505 JUMP JUMPDEST PUSH1 0x40 MLOAD PUSH1 0x20 DUP2 DUP4 SUB SUB DUP2 MSTORE SWAP1 PUSH1 0x40 MSTORE DUP1 MLOAD SWAP1 PUSH1 0x20 ADD KECCAK256 SUB PUSH2 0x2DDD JUMPI PUSH1 0x1 SWAP3 POP POP PUSH2 0x2DEB JUMP JUMPDEST POP DUP1 DUP1 PUSH1 0x1 ADD SWAP2 POP POP PUSH2 0x2CC8 JUMP JUMPDEST POP DUP1 PUSH2 0x2E2C JUMPI PUSH1 0x40 MLOAD PUSH32 0x8C379A000000000000000000000000000000000000000000000000000000000 DUP2 MSTORE PUSH1 0x4 ADD PUSH2 0x2E23 SWAP1 PUSH2 0x5568 JUMP JUMPDEST PUSH1 0x40 MLOAD DUP1 SWAP2 SUB SWAP1 REVERT JUMPDEST POP POP JUMP JUMPDEST PUSH1 0x0 DUP1 PUSH1 0x8 DUP5 PUSH1 0x40 MLOAD PUSH2 0x2E43 SWAP2 SWAP1 PUSH2 0x5505 JUMP JUMPDEST SWAP1 DUP2 MSTORE PUSH1 0x20 ADD PUSH1 0x40 MLOAD DUP1 SWAP2 SUB SWAP1 KECCAK256 PUSH1 0x0 DUP1 DUP2 MSTORE PUSH1 0x20 ADD SWAP1 DUP2 MSTORE PUSH1 0x20 ADD PUSH1 0x0 KECCAK256 DUP1 SLOAD DUP1 PUSH1 0x20 MUL PUSH1 0x20 ADD PUSH1 0x40 MLOAD SWAP1 DUP2 ADD PUSH1 0x40 MSTORE DUP1 SWAP3 SWAP2 SWAP1 DUP2 DUP2 MSTORE PUSH1 0x20 ADD PUSH1 0x0 SWAP1 JUMPDEST DUP3 DUP3 LT ISZERO PUSH2 0x2F2E JUMPI DUP4 DUP3 SWAP1 PUSH1 0x0 MSTORE PUSH1 0x20 PUSH1 0x0 KECCAK256 ADD DUP1 SLOAD PUSH2 0x2EA1 SWAP1 PUSH2 0x4B56 JUMP JUMPDEST DUP1 PUSH1 0x1F ADD PUSH1 0x20 DUP1 SWAP2 DIV MUL PUSH1 0x20 ADD PUSH1 0x40 MLOAD SWAP1 DUP2 ADD PUSH1 0x40 MSTORE DUP1 SWAP3 SWAP2 SWAP1 DUP2 DUP2 MSTORE PUSH1 0x20 ADD DUP3 DUP1 SLOAD PUSH2 0x2ECD SWAP1 PUSH2 0x4B56 JUMP JUMPDEST DUP1 ISZERO PUSH2 0x2F1A JUMPI DUP1 PUSH1 0x1F LT PUSH2 0x2EEF JUMPI PUSH2 0x100 DUP1 DUP4 SLOAD DIV MUL DUP4 MSTORE SWAP2 PUSH1 0x20 ADD SWAP2 PUSH2 0x2F1A JUMP JUMPDEST DUP3 ADD SWAP2 SWAP1 PUSH1 0x0 MSTORE PUSH1 0x20 PUSH1 0x0 KECCAK256 SWAP1 JUMPDEST DUP2 SLOAD DUP2 MSTORE SWAP1 PUSH1 0x1 ADD SWAP1 PUSH1 0x20 ADD DUP1 DUP4 GT PUSH2 0x2EFD JUMPI DUP3 SWAP1 SUB PUSH1 0x1F AND DUP3 ADD SWAP2 JUMPDEST POP POP POP POP POP DUP2 MSTORE PUSH1 0x20 ADD SWAP1 PUSH1 0x1 ADD SWAP1 PUSH2 0x2E82 JUMP JUMPDEST POP POP POP POP SWAP1 POP PUSH1 0x0 JUMPDEST DUP2 MLOAD DUP2 LT ISZERO PUSH2 0x2FCA JUMPI PUSH1 0x0 DUP3 DUP3 DUP2 MLOAD DUP2 LT PUSH2 0x2F55 JUMPI PUSH2 0x2F54 PUSH2 0x54A5 JUMP JUMPDEST JUMPDEST PUSH1 0x20 MUL PUSH1 0x20 ADD ADD MLOAD SWAP1 POP DUP5 PUSH1 0x40 MLOAD PUSH1 0x20 ADD PUSH2 0x2F70 SWAP2 SWAP1 PUSH2 0x5505 JUMP JUMPDEST PUSH1 0x40 MLOAD PUSH1 0x20 DUP2 DUP4 SUB SUB DUP2 MSTORE SWAP1 PUSH1 0x40 MSTORE DUP1 MLOAD SWAP1 PUSH1 0x20 ADD KECCAK256 DUP2 PUSH1 0x40 MLOAD PUSH1 0x20 ADD PUSH2 0x2F97 SWAP2 SWAP1 PUSH2 0x5505 JUMP JUMPDEST PUSH1 0x40 MLOAD PUSH1 0x20 DUP2 DUP4 SUB SUB DUP2 MSTORE SWAP1 PUSH1 0x40 MSTORE DUP1 MLOAD SWAP1 PUSH1 0x20 ADD KECCAK256 SUB PUSH2 0x2FBC JUMPI PUSH1 0x1 SWAP4 POP POP PUSH2 0x2FCA JUMP JUMPDEST POP DUP1 DUP1 PUSH1 0x1 ADD SWAP2 POP POP PUSH2 0x2F37 JUMP JUMPDEST POP DUP2 PUSH2 0x300B JUMPI PUSH1 0x40 MLOAD PUSH32 0x8C379A000000000000000000000000000000000000000000000000000000000 DUP2 MSTORE PUSH1 0x4 ADD PUSH2 0x3002 SWAP1 PUSH2 0x55D4 JUMP JUMPDEST PUSH1 0x40 MLOAD DUP1 SWAP2 SUB SWAP1 REVERT JUMPDEST POP POP POP POP JUMP JUMPDEST PUSH1 0x0 DUP1 PUSH1 0x8 DUP5 PUSH1 0x40 MLOAD PUSH2 0x3024 SWAP2 SWAP1 PUSH2 0x5505 JUMP JUMPDEST SWAP1 DUP2 MSTORE PUSH1 0x20 ADD PUSH1 0x40 MLOAD DUP1 SWAP2 SUB SWAP1 KECCAK256 PUSH1 0x0 PUSH1 0x1 DUP2 MSTORE PUSH1 0x20 ADD SWAP1 DUP2 MSTORE PUSH1 0x20 ADD PUSH1 0x0 KECCAK256 DUP1 SLOAD DUP1 PUSH1 0x20 MUL PUSH1 0x20 ADD PUSH1 0x40 MLOAD SWAP1 DUP2 ADD PUSH1 0x40 MSTORE DUP1 SWAP3 SWAP2 SWAP1 DUP2 DUP2 MSTORE PUSH1 0x20 ADD PUSH1 0x0 SWAP1 JUMPDEST DUP3 DUP3 LT ISZERO PUSH2 0x3110 JUMPI DUP4 DUP3 SWAP1 PUSH1 0x0 MSTORE PUSH1 0x20 PUSH1 0x0 KECCAK256 ADD DUP1 SLOAD PUSH2 0x3083 SWAP1 PUSH2 0x4B56 JUMP JUMPDEST DUP1 PUSH1 0x1F ADD PUSH1 0x20 DUP1 SWAP2 DIV MUL PUSH1 0x20 ADD PUSH1 0x40 MLOAD SWAP1 DUP2 ADD PUSH1 0x40 MSTORE DUP1 SWAP3 SWAP2 SWAP1 DUP2 DUP2 MSTORE PUSH1 0x20 ADD DUP3 DUP1 SLOAD PUSH2 0x30AF SWAP1 PUSH2 0x4B56 JUMP JUMPDEST DUP1 ISZERO PUSH2 0x30FC JUMPI DUP1 PUSH1 0x1F LT PUSH2 0x30D1 JUMPI PUSH2 0x100 DUP1 DUP4 SLOAD DIV MUL DUP4 MSTORE SWAP2 PUSH1 0x20 ADD SWAP2 PUSH2 0x30FC JUMP JUMPDEST DUP3 ADD SWAP2 SWAP1 PUSH1 0x0 MSTORE PUSH1 0x20 PUSH1 0x0 KECCAK256 SWAP1 JUMPDEST DUP2 SLOAD DUP2 MSTORE SWAP1 PUSH1 0x1 ADD SWAP1 PUSH1 0x20 ADD DUP1 DUP4 GT PUSH2 0x30DF JUMPI DUP3 SWAP1 SUB PUSH1 0x1F AND DUP3 ADD SWAP2 JUMPDEST POP POP POP POP POP DUP2 MSTORE PUSH1 0x20 ADD SWAP1 PUSH1 0x1 ADD SWAP1 PUSH2 0x3064 JUMP JUMPDEST POP POP POP POP SWAP1 POP PUSH1 0x0 JUMPDEST DUP2 MLOAD DUP2 LT ISZERO PUSH2 0x31AC JUMPI PUSH1 0x0 DUP3 DUP3 DUP2 MLOAD DUP2 LT PUSH2 0x3137 JUMPI PUSH2 0x3136 PUSH2 0x54A5 JUMP JUMPDEST JUMPDEST PUSH1 0x20 MUL PUSH1 0x20 ADD ADD MLOAD SWAP1 POP DUP5 PUSH1 0x40 MLOAD PUSH1 0x20 ADD PUSH2 0x3152 SWAP2 SWAP1 PUSH2 0x5505 JUMP JUMPDEST PUSH1 0x40 MLOAD PUSH1 0x20 DUP2 DUP4 SUB SUB DUP2 MSTORE SWAP1 PUSH1 0x40 MSTORE DUP1 MLOAD SWAP1 PUSH1 0x20 ADD KECCAK256 DUP2 PUSH1 0x40 MLOAD PUSH1 0x20 ADD PUSH2 0x3179 SWAP2 SWAP1 PUSH2 0x5505 JUMP JUMPDEST PUSH1 0x40 MLOAD PUSH1 0x20 DUP2 DUP4 SUB SUB DUP2 MSTORE SWAP1 PUSH1 0x40 MSTORE DUP1 MLOAD SWAP1 PUSH1 0x20 ADD KECCAK256 SUB PUSH2 0x319E JUMPI PUSH1 0x1 SWAP4 POP POP PUSH2 0x31AC JUMP JUMPDEST POP DUP1 DUP1 PUSH1 0x1 ADD SWAP2 POP POP PUSH2 0x3119 JUMP JUMPDEST POP DUP2 PUSH2 0x31ED JUMPI PUSH1 0x40 MLOAD PUSH32 0x8C379A000000000000000000000000000000000000000000000000000000000 DUP2 MSTORE PUSH1 0x4 ADD PUSH2 0x31E4 SWAP1 PUSH2 0x5640 JUMP JUMPDEST PUSH1 0x40 MLOAD DUP1 SWAP2 SUB SWAP1 REVERT JUMPDEST POP POP POP POP JUMP JUMPDEST PUSH2 0x3204 DUP2 PUSH2 0x31FF PUSH2 0x3308 JUMP JUMPDEST PUSH2 0x36FE JUMP JUMPDEST POP JUMP JUMPDEST PUSH1 0x0 DUP1 PUSH2 0x3212 PUSH2 0x2C9C JUMP JUMPDEST SWAP1 POP PUSH2 0x321E DUP5 DUP5 PUSH2 0x1B56 JUMP JUMPDEST PUSH2 0x32FC JUMPI PUSH1 0x1 DUP2 PUSH1 0x0 ADD PUSH1 0x0 DUP7 DUP2 MSTORE PUSH1 0x20 ADD SWAP1 DUP2 MSTORE PUSH1 0x20 ADD PUSH1 0x0 KECCAK256 PUSH1 0x0 ADD PUSH1 0x0 DUP6 PUSH20 0xFFFFFFFFFFFFFFFFFFFFFFFFFFFFFFFFFFFFFFFF AND PUSH20 0xFFFFFFFFFFFFFFFFFFFFFFFFFFFFFFFFFFFFFFFF AND DUP2 MSTORE PUSH1 0x20 ADD SWAP1 DUP2 MSTORE PUSH1 0x20 ADD PUSH1 0x0 KECCAK256 PUSH1 0x0 PUSH2 0x100 EXP DUP2 SLOAD DUP2 PUSH1 0xFF MUL NOT AND SWAP1 DUP4 ISZERO ISZERO MUL OR SWAP1 SSTORE POP PUSH2 0x3298 PUSH2 0x3308 JUMP JUMPDEST PUSH20 0xFFFFFFFFFFFFFFFFFFFFFFFFFFFFFFFFFFFFFFFF AND DUP4 PUSH20 0xFFFFFFFFFFFFFFFFFFFFFFFFFFFFFFFFFFFFFFFF AND DUP6 PUSH32 0x2F8788117E7EFF1D82E926EC794901D17C78024A50270940304540A733656F0D PUSH1 0x40 MLOAD PUSH1 0x40 MLOAD DUP1 SWAP2 SUB SWAP1 LOG4 PUSH1 0x1 SWAP2 POP POP PUSH2 0x3302 JUMP JUMPDEST PUSH1 0x0 SWAP2 POP POP JUMPDEST SWAP3 SWAP2 POP POP JUMP JUMPDEST PUSH1 0x0 CALLER SWAP1 POP SWAP1 JUMP JUMPDEST PUSH1 0x0 DUP1 PUSH2 0x331B PUSH2 0x2C9C JUMP JUMPDEST SWAP1 POP PUSH2 0x3327 DUP5 DUP5 PUSH2 0x1B56 JUMP JUMPDEST ISZERO PUSH2 0x3406 JUMPI PUSH1 0x0 DUP2 PUSH1 0x0 ADD PUSH1 0x0 DUP7 DUP2 MSTORE PUSH1 0x20 ADD SWAP1 DUP2 MSTORE PUSH1 0x20 ADD PUSH1 0x0 KECCAK256 PUSH1 0x0 ADD PUSH1 0x0 DUP6 PUSH20 0xFFFFFFFFFFFFFFFFFFFFFFFFFFFFFFFFFFFFFFFF AND PUSH20 0xFFFFFFFFFFFFFFFFFFFFFFFFFFFFFFFFFFFFFFFF AND DUP2 MSTORE PUSH1 0x20 ADD SWAP1 DUP2 MSTORE PUSH1 0x20 ADD PUSH1 0x0 KECCAK256 PUSH1 0x0 PUSH2 0x100 EXP DUP2 SLOAD DUP2 PUSH1 0xFF MUL NOT AND SWAP1 DUP4 ISZERO ISZERO MUL OR SWAP1 SSTORE POP PUSH2 0x33A2 PUSH2 0x3308 JUMP JUMPDEST PUSH20 0xFFFFFFFFFFFFFFFFFFFFFFFFFFFFFFFFFFFFFFFF AND DUP4 PUSH20 0xFFFFFFFFFFFFFFFFFFFFFFFFFFFFFFFFFFFFFFFF AND DUP6 PUSH32 0xF6391F5C32D9C69D2A47EA670B442974B53935D1EDC7FD64EB21E047A839171B PUSH1 0x40 MLOAD PUSH1 0x40 MLOAD DUP1 SWAP2 SUB SWAP1 LOG4 PUSH1 0x1 SWAP2 POP POP PUSH2 0x340C JUMP JUMPDEST PUSH1 0x0 SWAP2 POP POP JUMPDEST SWAP3 SWAP2 POP POP JUMP JUMPDEST PUSH32 0x0 PUSH20 0xFFFFFFFFFFFFFFFFFFFFFFFFFFFFFFFFFFFFFFFF AND ADDRESS PUSH20 0xFFFFFFFFFFFFFFFFFFFFFFFFFFFFFFFFFFFFFFFF AND EQ DUP1 PUSH2 0x34BF JUMPI POP PUSH32 0x0 PUSH20 0xFFFFFFFFFFFFFFFFFFFFFFFFFFFFFFFFFFFFFFFF AND PUSH2 0x34A6 PUSH2 0x374F JUMP JUMPDEST PUSH20 0xFFFFFFFFFFFFFFFFFFFFFFFFFFFFFFFFFFFFFFFF AND EQ ISZERO JUMPDEST ISZERO PUSH2 0x34F6 JUMPI PUSH1 0x40 MLOAD PUSH32 0xE07C8DBA00000000000000000000000000000000000000000000000000000000 DUP2 MSTORE PUSH1 0x4 ADD PUSH1 0x40 MLOAD DUP1 SWAP2 SUB SWAP1 REVERT JUMPDEST JUMP JUMPDEST PUSH32 0x189AB7A9244DF0848122154315AF71FE140F3DB0FE014031783B0946B8C9D2E3 PUSH2 0x3522 DUP2 PUSH2 0x31F3 JUMP JUMPDEST POP POP JUMP JUMPDEST DUP2 PUSH20 0xFFFFFFFFFFFFFFFFFFFFFFFFFFFFFFFFFFFFFFFF AND PUSH4 0x52D1902D PUSH1 0x40 MLOAD DUP2 PUSH4 0xFFFFFFFF AND PUSH1 0xE0 SHL DUP2 MSTORE PUSH1 0x4 ADD PUSH1 0x20 PUSH1 0x40 MLOAD DUP1 DUP4 SUB DUP2 DUP7 GAS STATICCALL SWAP3 POP POP POP DUP1 ISZERO PUSH2 0x358E JUMPI POP PUSH1 0x40 MLOAD RETURNDATASIZE PUSH1 0x1F NOT PUSH1 0x1F DUP3 ADD AND DUP3 ADD DUP1 PUSH1 0x40 MSTORE POP DUP2 ADD SWAP1 PUSH2 0x358B SWAP2 SWAP1 PUSH2 0x5675 JUMP JUMPDEST PUSH1 0x1 JUMPDEST PUSH2 0x35CF JUMPI DUP2 PUSH1 0x40 MLOAD PUSH32 0x4C9C8CE300000000000000000000000000000000000000000000000000000000 DUP2 MSTORE PUSH1 0x4 ADD PUSH2 0x35C6 SWAP2 SWAP1 PUSH2 0x46BA JUMP JUMPDEST PUSH1 0x40 MLOAD DUP1 SWAP2 SUB SWAP1 REVERT JUMPDEST PUSH32 0x360894A13BA1A3210667C828492DB98DCA3E2076CC3735A920A3CA505D382BBC PUSH1 0x0 SHL DUP2 EQ PUSH2 0x3636 JUMPI DUP1 PUSH1 0x40 MLOAD PUSH32 0xAA1D49A400000000000000000000000000000000000000000000000000000000 DUP2 MSTORE PUSH1 0x4 ADD PUSH2 0x362D SWAP2 SWAP1 PUSH2 0x3C5A JUMP JUMPDEST PUSH1 0x40 MLOAD DUP1 SWAP2 SUB SWAP1 REVERT JUMPDEST PUSH2 0x3640 DUP4 DUP4 PUSH2 0x37A6 JUMP JUMPDEST POP POP POP JUMP JUMPDEST PUSH32 0x0 PUSH20 0xFFFFFFFFFFFFFFFFFFFFFFFFFFFFFFFFFFFFFFFF AND ADDRESS PUSH20 0xFFFFFFFFFFFFFFFFFFFFFFFFFFFFFFFFFFFFFFFF AND EQ PUSH2 0x36CA JUMPI PUSH1 0x40 MLOAD PUSH32 0xE07C8DBA00000000000000000000000000000000000000000000000000000000 DUP2 MSTORE PUSH1 0x4 ADD PUSH1 0x40 MLOAD DUP1 SWAP2 SUB SWAP1 REVERT JUMPDEST JUMP JUMPDEST PUSH1 0x0 PUSH32 0xF0C57E16840DF040F15088DC2F81FE391C3923BEC73E23A9662EFC9C229C6A00 SWAP1 POP SWAP1 JUMP JUMPDEST PUSH2 0x36FC PUSH2 0x3819 JUMP JUMPDEST JUMP JUMPDEST PUSH2 0x3708 DUP3 DUP3 PUSH2 0x1B56 JUMP JUMPDEST PUSH2 0x374B JUMPI DUP1 DUP3 PUSH1 0x40 MLOAD PUSH32 0xE2517D3F00000000000000000000000000000000000000000000000000000000 DUP2 MSTORE PUSH1 0x4 ADD PUSH2 0x3742 SWAP3 SWAP2 SWAP1 PUSH2 0x56A2 JUMP JUMPDEST PUSH1 0x40 MLOAD DUP1 SWAP2 SUB SWAP1 REVERT JUMPDEST POP POP JUMP JUMPDEST PUSH1 0x0 PUSH2 0x377D PUSH32 0x360894A13BA1A3210667C828492DB98DCA3E2076CC3735A920A3CA505D382BBC PUSH1 0x0 SHL PUSH2 0x3859 JUMP JUMPDEST PUSH1 0x0 ADD PUSH1 0x0 SWAP1 SLOAD SWAP1 PUSH2 0x100 EXP SWAP1 DIV PUSH20 0xFFFFFFFFFFFFFFFFFFFFFFFFFFFFFFFFFFFFFFFF AND SWAP1 POP SWAP1 JUMP JUMPDEST PUSH2 0x37AF DUP3 PUSH2 0x3863 JUMP JUMPDEST DUP2 PUSH20 0xFFFFFFFFFFFFFFFFFFFFFFFFFFFFFFFFFFFFFFFF AND PUSH32 0xBC7CD75A20EE27FD9ADEBAB32041F755214DBC6BFFA90CC0225B39DA2E5C2D3B PUSH1 0x40 MLOAD PUSH1 0x40 MLOAD DUP1 SWAP2 SUB SWAP1 LOG2 PUSH1 0x0 DUP2 MLOAD GT ISZERO PUSH2 0x380C JUMPI PUSH2 0x3806 DUP3 DUP3 PUSH2 0x3930 JUMP JUMPDEST POP PUSH2 0x3815 JUMP JUMPDEST PUSH2 0x3814 PUSH2 0x39B4 JUMP JUMPDEST JUMPDEST POP POP JUMP JUMPDEST PUSH2 0x3821 PUSH2 0x39F1 JUMP JUMPDEST PUSH2 0x3857 JUMPI PUSH1 0x40 MLOAD PUSH32 0xD7E6BCF800000000000000000000000000000000000000000000000000000000 DUP2 MSTORE PUSH1 0x4 ADD PUSH1 0x40 MLOAD DUP1 SWAP2 SUB SWAP1 REVERT JUMPDEST JUMP JUMPDEST PUSH1 0x0 DUP2 SWAP1 POP SWAP2 SWAP1 POP JUMP JUMPDEST PUSH1 0x0 DUP2 PUSH20 0xFFFFFFFFFFFFFFFFFFFFFFFFFFFFFFFFFFFFFFFF AND EXTCODESIZE SUB PUSH2 0x38BF JUMPI DUP1 PUSH1 0x40 MLOAD PUSH32 0x4C9C8CE300000000000000000000000000000000000000000000000000000000 DUP2 MSTORE PUSH1 0x4 ADD PUSH2 0x38B6 SWAP2 SWAP1 PUSH2 0x46BA JUMP JUMPDEST PUSH1 0x40 MLOAD DUP1 SWAP2 SUB SWAP1 REVERT JUMPDEST DUP1 PUSH2 0x38EC PUSH32 0x360894A13BA1A3210667C828492DB98DCA3E2076CC3735A920A3CA505D382BBC PUSH1 0x0 SHL PUSH2 0x3859 JUMP JUMPDEST PUSH1 0x0 ADD PUSH1 0x0 PUSH2 0x100 EXP DUP2 SLOAD DUP2 PUSH20 0xFFFFFFFFFFFFFFFFFFFFFFFFFFFFFFFFFFFFFFFF MUL NOT AND SWAP1 DUP4 PUSH20 0xFFFFFFFFFFFFFFFFFFFFFFFFFFFFFFFFFFFFFFFF AND MUL OR SWAP1 SSTORE POP POP JUMP JUMPDEST PUSH1 0x60 PUSH1 0x0 DUP1 DUP5 PUSH20 0xFFFFFFFFFFFFFFFFFFFFFFFFFFFFFFFFFFFFFFFF AND DUP5 PUSH1 0x40 MLOAD PUSH2 0x395A SWAP2 SWAP1 PUSH2 0x5707 JUMP JUMPDEST PUSH1 0x0 PUSH1 0x40 MLOAD DUP1 DUP4 SUB DUP2 DUP6 GAS DELEGATECALL SWAP2 POP POP RETURNDATASIZE DUP1 PUSH1 0x0 DUP2 EQ PUSH2 0x3995 JUMPI PUSH1 0x40 MLOAD SWAP2 POP PUSH1 0x1F NOT PUSH1 0x3F RETURNDATASIZE ADD AND DUP3 ADD PUSH1 0x40 MSTORE RETURNDATASIZE DUP3 MSTORE RETURNDATASIZE PUSH1 0x0 PUSH1 0x20 DUP5 ADD RETURNDATACOPY PUSH2 0x399A JUMP JUMPDEST PUSH1 0x60 SWAP2 POP JUMPDEST POP SWAP2 POP SWAP2 POP PUSH2 0x39AA DUP6 DUP4 DUP4 PUSH2 0x3A11 JUMP JUMPDEST SWAP3 POP POP POP SWAP3 SWAP2 POP POP JUMP JUMPDEST PUSH1 0x0 CALLVALUE GT ISZERO PUSH2 0x39EF JUMPI PUSH1 0x40 MLOAD PUSH32 0xB398979F00000000000000000000000000000000000000000000000000000000 DUP2 MSTORE PUSH1 0x4 ADD PUSH1 0x40 MLOAD DUP1 SWAP2 SUB SWAP1 REVERT JUMPDEST JUMP JUMPDEST PUSH1 0x0 PUSH2 0x39FB PUSH2 0x36CC JUMP JUMPDEST PUSH1 0x0 ADD PUSH1 0x8 SWAP1 SLOAD SWAP1 PUSH2 0x100 EXP SWAP1 DIV PUSH1 0xFF AND SWAP1 POP SWAP1 JUMP JUMPDEST PUSH1 0x60 DUP3 PUSH2 0x3A26 JUMPI PUSH2 0x3A21 DUP3 PUSH2 0x3AA0 JUMP JUMPDEST PUSH2 0x3A98 JUMP JUMPDEST PUSH1 0x0 DUP3 MLOAD EQ DUP1 ISZERO PUSH2 0x3A4E JUMPI POP PUSH1 0x0 DUP5 PUSH20 0xFFFFFFFFFFFFFFFFFFFFFFFFFFFFFFFFFFFFFFFF AND EXTCODESIZE EQ JUMPDEST ISZERO PUSH2 0x3A90 JUMPI DUP4 PUSH1 0x40 MLOAD PUSH32 0x9996B31500000000000000000000000000000000000000000000000000000000 DUP2 MSTORE PUSH1 0x4 ADD PUSH2 0x3A87 SWAP2 SWAP1 PUSH2 0x46BA JUMP JUMPDEST PUSH1 0x40 MLOAD DUP1 SWAP2 SUB SWAP1 REVERT JUMPDEST DUP2 SWAP1 POP PUSH2 0x3A99 JUMP JUMPDEST JUMPDEST SWAP4 SWAP3 POP POP POP JUMP JUMPDEST PUSH1 0x0 DUP2 MLOAD GT ISZERO PUSH2 0x3AB3 JUMPI DUP1 MLOAD DUP1 DUP3 PUSH1 0x20 ADD REVERT JUMPDEST PUSH1 0x40 MLOAD PUSH32 0x1425EA4200000000000000000000000000000000000000000000000000000000 DUP2 MSTORE PUSH1 0x4 ADD PUSH1 0x40 MLOAD DUP1 SWAP2 SUB SWAP1 REVERT JUMPDEST PUSH1 0x0 PUSH1 0x40 MLOAD SWAP1 POP SWAP1 JUMP JUMPDEST PUSH1 0x0 DUP1 REVERT JUMPDEST PUSH1 0x0 DUP1 REVERT JUMPDEST PUSH1 0x0 PUSH32 0xFFFFFFFF00000000000000000000000000000000000000000000000000000000 DUP3 AND SWAP1 POP SWAP2 SWAP1 POP JUMP JUMPDEST PUSH2 0x3B2E DUP2 PUSH2 0x3AF9 JUMP JUMPDEST DUP2 EQ PUSH2 0x3B39 JUMPI PUSH1 0x0 DUP1 REVERT JUMPDEST POP JUMP JUMPDEST PUSH1 0x0 DUP2 CALLDATALOAD SWAP1 POP PUSH2 0x3B4B DUP2 PUSH2 0x3B25 JUMP JUMPDEST SWAP3 SWAP2 POP POP JUMP JUMPDEST PUSH1 0x0 PUSH1 0x20 DUP3 DUP5 SUB SLT ISZERO PUSH2 0x3B67 JUMPI PUSH2 0x3B66 PUSH2 0x3AEF JUMP JUMPDEST JUMPDEST PUSH1 0x0 PUSH2 0x3B75 DUP5 DUP3 DUP6 ADD PUSH2 0x3B3C JUMP JUMPDEST SWAP2 POP POP SWAP3 SWAP2 POP POP JUMP JUMPDEST PUSH1 0x0 DUP2 ISZERO ISZERO SWAP1 POP SWAP2 SWAP1 POP JUMP JUMPDEST PUSH2 0x3B93 DUP2 PUSH2 0x3B7E JUMP JUMPDEST DUP3 MSTORE POP POP JUMP JUMPDEST PUSH1 0x0 PUSH1 0x20 DUP3 ADD SWAP1 POP PUSH2 0x3BAE PUSH1 0x0 DUP4 ADD DUP5 PUSH2 0x3B8A JUMP JUMPDEST SWAP3 SWAP2 POP POP JUMP JUMPDEST PUSH1 0x0 DUP2 SWAP1 POP SWAP2 SWAP1 POP JUMP JUMPDEST PUSH2 0x3BC7 DUP2 PUSH2 0x3BB4 JUMP JUMPDEST DUP3 MSTORE POP POP JUMP JUMPDEST PUSH1 0x0 PUSH1 0x20 DUP3 ADD SWAP1 POP PUSH2 0x3BE2 PUSH1 0x0 DUP4 ADD DUP5 PUSH2 0x3BBE JUMP JUMPDEST SWAP3 SWAP2 POP POP JUMP JUMPDEST PUSH1 0x0 DUP2 SWAP1 POP SWAP2 SWAP1 POP JUMP JUMPDEST PUSH2 0x3BFB DUP2 PUSH2 0x3BE8 JUMP JUMPDEST DUP2 EQ PUSH2 0x3C06 JUMPI PUSH1 0x0 DUP1 REVERT JUMPDEST POP JUMP JUMPDEST PUSH1 0x0 DUP2 CALLDATALOAD SWAP1 POP PUSH2 0x3C18 DUP2 PUSH2 0x3BF2 JUMP JUMPDEST SWAP3 SWAP2 POP POP JUMP JUMPDEST PUSH1 0x0 PUSH1 0x20 DUP3 DUP5 SUB SLT ISZERO PUSH2 0x3C34 JUMPI PUSH2 0x3C33 PUSH2 0x3AEF JUMP JUMPDEST JUMPDEST PUSH1 0x0 PUSH2 0x3C42 DUP5 DUP3 DUP6 ADD PUSH2 0x3C09 JUMP JUMPDEST SWAP2 POP POP SWAP3 SWAP2 POP POP JUMP JUMPDEST PUSH2 0x3C54 DUP2 PUSH2 0x3BE8 JUMP JUMPDEST DUP3 MSTORE POP POP JUMP JUMPDEST PUSH1 0x0 PUSH1 0x20 DUP3 ADD SWAP1 POP PUSH2 0x3C6F PUSH1 0x0 DUP4 ADD DUP5 PUSH2 0x3C4B JUMP JUMPDEST SWAP3 SWAP2 POP POP JUMP JUMPDEST PUSH1 0x0 DUP1 REVERT JUMPDEST PUSH1 0x0 DUP1 REVERT JUMPDEST PUSH1 0x0 DUP1 REVERT JUMPDEST PUSH1 0x0 DUP1 DUP4 PUSH1 0x1F DUP5 ADD SLT PUSH2 0x3C9A JUMPI PUSH2 0x3C99 PUSH2 0x3C75 JUMP JUMPDEST JUMPDEST DUP3 CALLDATALOAD SWAP1 POP PUSH8 0xFFFFFFFFFFFFFFFF DUP2 GT ISZERO PUSH2 0x3CB7 JUMPI PUSH2 0x3CB6 PUSH2 0x3C7A JUMP JUMPDEST JUMPDEST PUSH1 0x20 DUP4 ADD SWAP2 POP DUP4 PUSH1 0x1 DUP3 MUL DUP4 ADD GT ISZERO PUSH2 0x3CD3 JUMPI PUSH2 0x3CD2 PUSH2 0x3C7F JUMP JUMPDEST JUMPDEST SWAP3 POP SWAP3 SWAP1 POP JUMP JUMPDEST PUSH1 0x0 DUP1 REVERT JUMPDEST PUSH1 0x0 PUSH1 0x1F NOT PUSH1 0x1F DUP4 ADD AND SWAP1 POP SWAP2 SWAP1 POP JUMP JUMPDEST PUSH32 0x4E487B7100000000000000000000000000000000000000000000000000000000 PUSH1 0x0 MSTORE PUSH1 0x41 PUSH1 0x4 MSTORE PUSH1 0x24 PUSH1 0x0 REVERT JUMPDEST PUSH2 0x3D28 DUP3 PUSH2 0x3CDF JUMP JUMPDEST DUP2 ADD DUP2 DUP2 LT PUSH8 0xFFFFFFFFFFFFFFFF DUP3 GT OR ISZERO PUSH2 0x3D47 JUMPI PUSH2 0x3D46 PUSH2 0x3CF0 JUMP JUMPDEST JUMPDEST DUP1 PUSH1 0x40 MSTORE POP POP POP JUMP JUMPDEST PUSH1 0x0 PUSH2 0x3D5A PUSH2 0x3AE5 JUMP JUMPDEST SWAP1 POP PUSH2 0x3D66 DUP3 DUP3 PUSH2 0x3D1F JUMP JUMPDEST SWAP2 SWAP1 POP JUMP JUMPDEST PUSH1 0x0 PUSH8 0xFFFFFFFFFFFFFFFF DUP3 GT ISZERO PUSH2 0x3D86 JUMPI PUSH2 0x3D85 PUSH2 0x3CF0 JUMP JUMPDEST JUMPDEST PUSH2 0x3D8F DUP3 PUSH2 0x3CDF JUMP JUMPDEST SWAP1 POP PUSH1 0x20 DUP2 ADD SWAP1 POP SWAP2 SWAP1 POP JUMP JUMPDEST DUP3 DUP2 DUP4 CALLDATACOPY PUSH1 0x0 DUP4 DUP4 ADD MSTORE POP POP POP JUMP JUMPDEST PUSH1 0x0 PUSH2 0x3DBE PUSH2 0x3DB9 DUP5 PUSH2 0x3D6B JUMP JUMPDEST PUSH2 0x3D50 JUMP JUMPDEST SWAP1 POP DUP3 DUP2 MSTORE PUSH1 0x20 DUP2 ADD DUP5 DUP5 DUP5 ADD GT ISZERO PUSH2 0x3DDA JUMPI PUSH2 0x3DD9 PUSH2 0x3CDA JUMP JUMPDEST JUMPDEST PUSH2 0x3DE5 DUP5 DUP3 DUP6 PUSH2 0x3D9C JUMP JUMPDEST POP SWAP4 SWAP3 POP POP POP JUMP JUMPDEST PUSH1 0x0 DUP3 PUSH1 0x1F DUP4 ADD SLT PUSH2 0x3E02 JUMPI PUSH2 0x3E01 PUSH2 0x3C75 JUMP JUMPDEST JUMPDEST DUP2 CALLDATALOAD PUSH2 0x3E12 DUP5 DUP3 PUSH1 0x20 DUP7 ADD PUSH2 0x3DAB JUMP JUMPDEST SWAP2 POP POP SWAP3 SWAP2 POP POP JUMP JUMPDEST PUSH2 0x3E24 DUP2 PUSH2 0x3BB4 JUMP JUMPDEST DUP2 EQ PUSH2 0x3E2F JUMPI PUSH1 0x0 DUP1 REVERT JUMPDEST POP JUMP JUMPDEST PUSH1 0x0 DUP2 CALLDATALOAD SWAP1 POP PUSH2 0x3E41 DUP2 PUSH2 0x3E1B JUMP JUMPDEST SWAP3 SWAP2 POP POP JUMP JUMPDEST PUSH1 0x0 PUSH20 0xFFFFFFFFFFFFFFFFFFFFFFFFFFFFFFFFFFFFFFFF DUP3 AND SWAP1 POP SWAP2 SWAP1 POP JUMP JUMPDEST PUSH1 0x0 PUSH2 0x3E72 DUP3 PUSH2 0x3E47 JUMP JUMPDEST SWAP1 POP SWAP2 SWAP1 POP JUMP JUMPDEST PUSH2 0x3E82 DUP2 PUSH2 0x3E67 JUMP JUMPDEST DUP2 EQ PUSH2 0x3E8D JUMPI PUSH1 0x0 DUP1 REVERT JUMPDEST POP JUMP JUMPDEST PUSH1 0x0 DUP2 CALLDATALOAD SWAP1 POP PUSH2 0x3E9F DUP2 PUSH2 0x3E79 JUMP JUMPDEST SWAP3 SWAP2 POP POP JUMP JUMPDEST PUSH1 0x0 DUP1 PUSH1 0x0 DUP1 PUSH1 0x0 DUP1 PUSH1 0x0 DUP1 PUSH1 0xE0 DUP10 DUP12 SUB SLT ISZERO PUSH2 0x3EC5 JUMPI PUSH2 0x3EC4 PUSH2 0x3AEF JUMP JUMPDEST JUMPDEST PUSH1 0x0 DUP10 ADD CALLDATALOAD PUSH8 0xFFFFFFFFFFFFFFFF DUP2 GT ISZERO PUSH2 0x3EE3 JUMPI PUSH2 0x3EE2 PUSH2 0x3AF4 JUMP JUMPDEST JUMPDEST PUSH2 0x3EEF DUP12 DUP3 DUP13 ADD PUSH2 0x3C84 JUMP JUMPDEST SWAP9 POP SWAP9 POP POP PUSH1 0x20 DUP10 ADD CALLDATALOAD PUSH8 0xFFFFFFFFFFFFFFFF DUP2 GT ISZERO PUSH2 0x3F12 JUMPI PUSH2 0x3F11 PUSH2 0x3AF4 JUMP JUMPDEST JUMPDEST PUSH2 0x3F1E DUP12 DUP3 DUP13 ADD PUSH2 0x3DED JUMP JUMPDEST SWAP7 POP POP PUSH1 0x40 DUP10 ADD CALLDATALOAD PUSH8 0xFFFFFFFFFFFFFFFF DUP2 GT ISZERO PUSH2 0x3F3F JUMPI PUSH2 0x3F3E PUSH2 0x3AF4 JUMP JUMPDEST JUMPDEST PUSH2 0x3F4B DUP12 DUP3 DUP13 ADD PUSH2 0x3DED JUMP JUMPDEST SWAP6 POP POP PUSH1 0x60 DUP10 ADD CALLDATALOAD PUSH8 0xFFFFFFFFFFFFFFFF DUP2 GT ISZERO PUSH2 0x3F6C JUMPI PUSH2 0x3F6B PUSH2 0x3AF4 JUMP JUMPDEST JUMPDEST PUSH2 0x3F78 DUP12 DUP3 DUP13 ADD PUSH2 0x3DED JUMP JUMPDEST SWAP5 POP POP PUSH1 0x80 PUSH2 0x3F89 DUP12 DUP3 DUP13 ADD PUSH2 0x3E32 JUMP JUMPDEST SWAP4 POP POP PUSH1 0xA0 PUSH2 0x3F9A DUP12 DUP3 DUP13 ADD PUSH2 0x3E90 JUMP JUMPDEST SWAP3 POP POP PUSH1 0xC0 PUSH2 0x3FAB DUP12 DUP3 DUP13 ADD PUSH2 0x3E32 JUMP JUMPDEST SWAP2 POP POP SWAP3 SWAP6 SWAP9 POP SWAP3 SWAP6 SWAP9 SWAP1 SWAP4 SWAP7 POP JUMP JUMPDEST PUSH1 0x0 DUP1 PUSH1 0x40 DUP4 DUP6 SUB SLT ISZERO PUSH2 0x3FD2 JUMPI PUSH2 0x3FD1 PUSH2 0x3AEF JUMP JUMPDEST JUMPDEST PUSH1 0x0 PUSH2 0x3FE0 DUP6 DUP3 DUP7 ADD PUSH2 0x3C09 JUMP JUMPDEST SWAP3 POP POP PUSH1 0x20 PUSH2 0x3FF1 DUP6 DUP3 DUP7 ADD PUSH2 0x3E90 JUMP JUMPDEST SWAP2 POP POP SWAP3 POP SWAP3 SWAP1 POP JUMP JUMPDEST PUSH1 0x0 PUSH1 0x20 DUP3 DUP5 SUB SLT ISZERO PUSH2 0x4011 JUMPI PUSH2 0x4010 PUSH2 0x3AEF JUMP JUMPDEST JUMPDEST PUSH1 0x0 PUSH2 0x401F DUP5 DUP3 DUP6 ADD PUSH2 0x3E90 JUMP JUMPDEST SWAP2 POP POP SWAP3 SWAP2 POP POP JUMP JUMPDEST PUSH1 0x0 DUP1 DUP4 PUSH1 0x1F DUP5 ADD SLT PUSH2 0x403E JUMPI PUSH2 0x403D PUSH2 0x3C75 JUMP JUMPDEST JUMPDEST DUP3 CALLDATALOAD SWAP1 POP PUSH8 0xFFFFFFFFFFFFFFFF DUP2 GT ISZERO PUSH2 0x405B JUMPI PUSH2 0x405A PUSH2 0x3C7A JUMP JUMPDEST JUMPDEST PUSH1 0x20 DUP4 ADD SWAP2 POP DUP4 PUSH1 0x1 DUP3 MUL DUP4 ADD GT ISZERO PUSH2 0x4077 JUMPI PUSH2 0x4076 PUSH2 0x3C7F JUMP JUMPDEST JUMPDEST SWAP3 POP SWAP3 SWAP1 POP JUMP JUMPDEST PUSH1 0x0 DUP1 PUSH1 0x0 PUSH1 0x40 DUP5 DUP7 SUB SLT ISZERO PUSH2 0x4097 JUMPI PUSH2 0x4096 PUSH2 0x3AEF JUMP JUMPDEST JUMPDEST PUSH1 0x0 DUP5 ADD CALLDATALOAD PUSH8 0xFFFFFFFFFFFFFFFF DUP2 GT ISZERO PUSH2 0x40B5 JUMPI PUSH2 0x40B4 PUSH2 0x3AF4 JUMP JUMPDEST JUMPDEST PUSH2 0x40C1 DUP7 DUP3 DUP8 ADD PUSH2 0x4028 JUMP JUMPDEST SWAP4 POP SWAP4 POP POP PUSH1 0x20 PUSH2 0x40D4 DUP7 DUP3 DUP8 ADD PUSH2 0x3E32 JUMP JUMPDEST SWAP2 POP POP SWAP3 POP SWAP3 POP SWAP3 JUMP JUMPDEST PUSH1 0x0 DUP2 MLOAD SWAP1 POP SWAP2 SWAP1 POP JUMP JUMPDEST PUSH1 0x0 DUP3 DUP3 MSTORE PUSH1 0x20 DUP3 ADD SWAP1 POP SWAP3 SWAP2 POP POP JUMP JUMPDEST PUSH1 0x0 DUP2 SWAP1 POP PUSH1 0x20 DUP3 ADD SWAP1 POP SWAP2 SWAP1 POP JUMP JUMPDEST PUSH1 0x0 DUP2 MLOAD SWAP1 POP SWAP2 SWAP1 POP JUMP JUMPDEST PUSH1 0x0 DUP3 DUP3 MSTORE PUSH1 0x20 DUP3 ADD SWAP1 POP SWAP3 SWAP2 POP POP JUMP JUMPDEST PUSH1 0x0 JUMPDEST DUP4 DUP2 LT ISZERO PUSH2 0x4144 JUMPI DUP1 DUP3 ADD MLOAD DUP2 DUP5 ADD MSTORE PUSH1 0x20 DUP2 ADD SWAP1 POP PUSH2 0x4129 JUMP JUMPDEST PUSH1 0x0 DUP5 DUP5 ADD MSTORE POP POP POP POP JUMP JUMPDEST PUSH1 0x0 PUSH2 0x415B DUP3 PUSH2 0x410A JUMP JUMPDEST PUSH2 0x4165 DUP2 DUP6 PUSH2 0x4115 JUMP JUMPDEST SWAP4 POP PUSH2 0x4175 DUP2 DUP6 PUSH1 0x20 DUP7 ADD PUSH2 0x4126 JUMP JUMPDEST PUSH2 0x417E DUP2 PUSH2 0x3CDF JUMP JUMPDEST DUP5 ADD SWAP2 POP POP SWAP3 SWAP2 POP POP JUMP JUMPDEST PUSH1 0x0 PUSH2 0x4195 DUP4 DUP4 PUSH2 0x4150 JUMP JUMPDEST SWAP1 POP SWAP3 SWAP2 POP POP JUMP JUMPDEST PUSH1 0x0 PUSH1 0x20 DUP3 ADD SWAP1 POP SWAP2 SWAP1 POP JUMP JUMPDEST PUSH1 0x0 PUSH2 0x41B5 DUP3 PUSH2 0x40DE JUMP JUMPDEST PUSH2 0x41BF DUP2 DUP6 PUSH2 0x40E9 JUMP JUMPDEST SWAP4 POP DUP4 PUSH1 0x20 DUP3 MUL DUP6 ADD PUSH2 0x41D1 DUP6 PUSH2 0x40FA JUMP JUMPDEST DUP1 PUSH1 0x0 JUMPDEST DUP6 DUP2 LT ISZERO PUSH2 0x420D JUMPI DUP5 DUP5 SUB DUP10 MSTORE DUP2 MLOAD PUSH2 0x41EE DUP6 DUP3 PUSH2 0x4189 JUMP JUMPDEST SWAP5 POP PUSH2 0x41F9 DUP4 PUSH2 0x419D JUMP JUMPDEST SWAP3 POP PUSH1 0x20 DUP11 ADD SWAP10 POP POP PUSH1 0x1 DUP2 ADD SWAP1 POP PUSH2 0x41D5 JUMP JUMPDEST POP DUP3 SWAP8 POP DUP8 SWAP6 POP POP POP POP POP POP SWAP3 SWAP2 POP POP JUMP JUMPDEST PUSH1 0x0 PUSH1 0x20 DUP3 ADD SWAP1 POP DUP2 DUP2 SUB PUSH1 0x0 DUP4 ADD MSTORE PUSH2 0x4239 DUP2 DUP5 PUSH2 0x41AA JUMP JUMPDEST SWAP1 POP SWAP3 SWAP2 POP POP JUMP JUMPDEST PUSH1 0x0 PUSH8 0xFFFFFFFFFFFFFFFF DUP3 GT ISZERO PUSH2 0x425C JUMPI PUSH2 0x425B PUSH2 0x3CF0 JUMP JUMPDEST JUMPDEST PUSH2 0x4265 DUP3 PUSH2 0x3CDF JUMP JUMPDEST SWAP1 POP PUSH1 0x20 DUP2 ADD SWAP1 POP SWAP2 SWAP1 POP JUMP JUMPDEST PUSH1 0x0 PUSH2 0x4285 PUSH2 0x4280 DUP5 PUSH2 0x4241 JUMP JUMPDEST PUSH2 0x3D50 JUMP JUMPDEST SWAP1 POP DUP3 DUP2 MSTORE PUSH1 0x20 DUP2 ADD DUP5 DUP5 DUP5 ADD GT ISZERO PUSH2 0x42A1 JUMPI PUSH2 0x42A0 PUSH2 0x3CDA JUMP JUMPDEST JUMPDEST PUSH2 0x42AC DUP5 DUP3 DUP6 PUSH2 0x3D9C JUMP JUMPDEST POP SWAP4 SWAP3 POP POP POP JUMP JUMPDEST PUSH1 0x0 DUP3 PUSH1 0x1F DUP4 ADD SLT PUSH2 0x42C9 JUMPI PUSH2 0x42C8 PUSH2 0x3C75 JUMP JUMPDEST JUMPDEST DUP2 CALLDATALOAD PUSH2 0x42D9 DUP5 DUP3 PUSH1 0x20 DUP7 ADD PUSH2 0x4272 JUMP JUMPDEST SWAP2 POP POP SWAP3 SWAP2 POP POP JUMP JUMPDEST PUSH1 0x0 DUP1 PUSH1 0x40 DUP4 DUP6 SUB SLT ISZERO PUSH2 0x42F9 JUMPI PUSH2 0x42F8 PUSH2 0x3AEF JUMP JUMPDEST JUMPDEST PUSH1 0x0 PUSH2 0x4307 DUP6 DUP3 DUP7 ADD PUSH2 0x3E90 JUMP JUMPDEST SWAP3 POP POP PUSH1 0x20 DUP4 ADD CALLDATALOAD PUSH8 0xFFFFFFFFFFFFFFFF DUP2 GT ISZERO PUSH2 0x4328 JUMPI PUSH2 0x4327 PUSH2 0x3AF4 JUMP JUMPDEST JUMPDEST PUSH2 0x4334 DUP6 DUP3 DUP7 ADD PUSH2 0x42B4 JUMP JUMPDEST SWAP2 POP POP SWAP3 POP SWAP3 SWAP1 POP JUMP JUMPDEST PUSH1 0x0 PUSH1 0x20 DUP3 DUP5 SUB SLT ISZERO PUSH2 0x4354 JUMPI PUSH2 0x4353 PUSH2 0x3AEF JUMP JUMPDEST JUMPDEST PUSH1 0x0 PUSH2 0x4362 DUP5 DUP3 DUP6 ADD PUSH2 0x3E32 JUMP JUMPDEST SWAP2 POP POP SWAP3 SWAP2 POP POP JUMP JUMPDEST PUSH1 0x0 DUP1 PUSH1 0x40 DUP4 DUP6 SUB SLT ISZERO PUSH2 0x4382 JUMPI PUSH2 0x4381 PUSH2 0x3AEF JUMP JUMPDEST JUMPDEST PUSH1 0x0 PUSH2 0x4390 DUP6 DUP3 DUP7 ADD PUSH2 0x3E32 JUMP JUMPDEST SWAP3 POP POP PUSH1 0x20 PUSH2 0x43A1 DUP6 DUP3 DUP7 ADD PUSH2 0x3E32 JUMP JUMPDEST SWAP2 POP POP SWAP3 POP SWAP3 SWAP1 POP JUMP JUMPDEST PUSH1 0x0 DUP1 DUP4 PUSH1 0x1F DUP5 ADD SLT PUSH2 0x43C1 JUMPI PUSH2 0x43C0 PUSH2 0x3C75 JUMP JUMPDEST JUMPDEST DUP3 CALLDATALOAD SWAP1 POP PUSH8 0xFFFFFFFFFFFFFFFF DUP2 GT ISZERO PUSH2 0x43DE JUMPI PUSH2 0x43DD PUSH2 0x3C7A JUMP JUMPDEST JUMPDEST PUSH1 0x20 DUP4 ADD SWAP2 POP DUP4 PUSH1 0x20 DUP3 MUL DUP4 ADD GT ISZERO PUSH2 0x43FA JUMPI PUSH2 0x43F9 PUSH2 0x3C7F JUMP JUMPDEST JUMPDEST SWAP3 POP SWAP3 SWAP1 POP JUMP JUMPDEST PUSH1 0x0 DUP1 PUSH1 0x20 DUP4 DUP6 SUB SLT ISZERO PUSH2 0x4418 JUMPI PUSH2 0x4417 PUSH2 0x3AEF JUMP JUMPDEST JUMPDEST PUSH1 0x0 DUP4 ADD CALLDATALOAD PUSH8 0xFFFFFFFFFFFFFFFF DUP2 GT ISZERO PUSH2 0x4436 JUMPI PUSH2 0x4435 PUSH2 0x3AF4 JUMP JUMPDEST JUMPDEST PUSH2 0x4442 DUP6 DUP3 DUP7 ADD PUSH2 0x43AB JUMP JUMPDEST SWAP3 POP SWAP3 POP POP SWAP3 POP SWAP3 SWAP1 POP JUMP JUMPDEST PUSH2 0x4457 DUP2 PUSH2 0x3E67 JUMP JUMPDEST DUP3 MSTORE POP POP JUMP JUMPDEST PUSH1 0x0 DUP3 DUP3 MSTORE PUSH1 0x20 DUP3 ADD SWAP1 POP SWAP3 SWAP2 POP POP JUMP JUMPDEST PUSH1 0x0 PUSH2 0x4479 DUP3 PUSH2 0x410A JUMP JUMPDEST PUSH2 0x4483 DUP2 DUP6 PUSH2 0x445D JUMP JUMPDEST SWAP4 POP PUSH2 0x4493 DUP2 DUP6 PUSH1 0x20 DUP7 ADD PUSH2 0x4126 JUMP JUMPDEST PUSH2 0x449C DUP2 PUSH2 0x3CDF JUMP JUMPDEST DUP5 ADD SWAP2 POP POP SWAP3 SWAP2 POP POP JUMP JUMPDEST PUSH1 0x0 DUP2 MLOAD SWAP1 POP SWAP2 SWAP1 POP JUMP JUMPDEST PUSH1 0x0 DUP3 DUP3 MSTORE PUSH1 0x20 DUP3 ADD SWAP1 POP SWAP3 SWAP2 POP POP JUMP JUMPDEST PUSH1 0x0 PUSH2 0x44CE DUP3 PUSH2 0x44A7 JUMP JUMPDEST PUSH2 0x44D8 DUP2 DUP6 PUSH2 0x44B2 JUMP JUMPDEST SWAP4 POP PUSH2 0x44E8 DUP2 DUP6 PUSH1 0x20 DUP7 ADD PUSH2 0x4126 JUMP JUMPDEST PUSH2 0x44F1 DUP2 PUSH2 0x3CDF JUMP JUMPDEST DUP5 ADD SWAP2 POP POP SWAP3 SWAP2 POP POP JUMP JUMPDEST PUSH1 0x0 PUSH2 0x160 DUP3 ADD SWAP1 POP PUSH2 0x4512 PUSH1 0x0 DUP4 ADD DUP15 PUSH2 0x444E JUMP JUMPDEST PUSH2 0x451F PUSH1 0x20 DUP4 ADD DUP14 PUSH2 0x444E JUMP JUMPDEST DUP2 DUP2 SUB PUSH1 0x40 DUP4 ADD MSTORE PUSH2 0x4531 DUP2 DUP13 PUSH2 0x446E JUMP JUMPDEST SWAP1 POP DUP2 DUP2 SUB PUSH1 0x60 DUP4 ADD MSTORE PUSH2 0x4545 DUP2 DUP12 PUSH2 0x446E JUMP JUMPDEST SWAP1 POP DUP2 DUP2 SUB PUSH1 0x80 DUP4 ADD MSTORE PUSH2 0x4559 DUP2 DUP11 PUSH2 0x446E JUMP JUMPDEST SWAP1 POP PUSH2 0x4568 PUSH1 0xA0 DUP4 ADD DUP10 PUSH2 0x3BBE JUMP JUMPDEST PUSH2 0x4575 PUSH1 0xC0 DUP4 ADD DUP9 PUSH2 0x3BBE JUMP JUMPDEST DUP2 DUP2 SUB PUSH1 0xE0 DUP4 ADD MSTORE PUSH2 0x4587 DUP2 DUP8 PUSH2 0x44C3 JUMP JUMPDEST SWAP1 POP PUSH2 0x4597 PUSH2 0x100 DUP4 ADD DUP7 PUSH2 0x3B8A JUMP JUMPDEST PUSH2 0x45A5 PUSH2 0x120 DUP4 ADD DUP6 PUSH2 0x3BBE JUMP JUMPDEST PUSH2 0x45B3 PUSH2 0x140 DUP4 ADD DUP5 PUSH2 0x3BBE JUMP JUMPDEST SWAP13 SWAP12 POP POP POP POP POP POP POP POP POP POP POP POP JUMP JUMPDEST PUSH1 0x0 DUP1 PUSH1 0x0 DUP1 PUSH1 0x0 PUSH1 0x60 DUP7 DUP9 SUB SLT ISZERO PUSH2 0x45DF JUMPI PUSH2 0x45DE PUSH2 0x3AEF JUMP JUMPDEST JUMPDEST PUSH1 0x0 DUP7 ADD CALLDATALOAD PUSH8 0xFFFFFFFFFFFFFFFF DUP2 GT ISZERO PUSH2 0x45FD JUMPI PUSH2 0x45FC PUSH2 0x3AF4 JUMP JUMPDEST JUMPDEST PUSH2 0x4609 DUP9 DUP3 DUP10 ADD PUSH2 0x4028 JUMP JUMPDEST SWAP6 POP SWAP6 POP POP PUSH1 0x20 PUSH2 0x461C DUP9 DUP3 DUP10 ADD PUSH2 0x3E32 JUMP JUMPDEST SWAP4 POP POP PUSH1 0x40 DUP7 ADD CALLDATALOAD PUSH8 0xFFFFFFFFFFFFFFFF DUP2 GT ISZERO PUSH2 0x463D JUMPI PUSH2 0x463C PUSH2 0x3AF4 JUMP JUMPDEST JUMPDEST PUSH2 0x4649 DUP9 DUP3 DUP10 ADD PUSH2 0x43AB JUMP JUMPDEST SWAP3 POP SWAP3 POP POP SWAP3 SWAP6 POP SWAP3 SWAP6 SWAP1 SWAP4 POP JUMP JUMPDEST PUSH1 0x0 PUSH1 0x20 DUP3 ADD SWAP1 POP DUP2 DUP2 SUB PUSH1 0x0 DUP4 ADD MSTORE PUSH2 0x4672 DUP2 DUP5 PUSH2 0x446E JUMP JUMPDEST SWAP1 POP SWAP3 SWAP2 POP POP JUMP JUMPDEST PUSH1 0x0 DUP1 PUSH1 0x40 DUP4 DUP6 SUB SLT ISZERO PUSH2 0x4691 JUMPI PUSH2 0x4690 PUSH2 0x3AEF JUMP JUMPDEST JUMPDEST PUSH1 0x0 PUSH2 0x469F DUP6 DUP3 DUP7 ADD PUSH2 0x3E32 JUMP JUMPDEST SWAP3 POP POP PUSH1 0x20 PUSH2 0x46B0 DUP6 DUP3 DUP7 ADD PUSH2 0x3E90 JUMP JUMPDEST SWAP2 POP POP SWAP3 POP SWAP3 SWAP1 POP JUMP JUMPDEST PUSH1 0x0 PUSH1 0x20 DUP3 ADD SWAP1 POP PUSH2 0x46CF PUSH1 0x0 DUP4 ADD DUP5 PUSH2 0x444E JUMP JUMPDEST SWAP3 SWAP2 POP POP JUMP JUMPDEST PUSH1 0x0 DUP1 DUP4 PUSH1 0x1F DUP5 ADD SLT PUSH2 0x46EB JUMPI PUSH2 0x46EA PUSH2 0x3C75 JUMP JUMPDEST JUMPDEST DUP3 CALLDATALOAD SWAP1 POP PUSH8 0xFFFFFFFFFFFFFFFF DUP2 GT ISZERO PUSH2 0x4708 JUMPI PUSH2 0x4707 PUSH2 0x3C7A JUMP JUMPDEST JUMPDEST PUSH1 0x20 DUP4 ADD SWAP2 POP DUP4 PUSH1 0x20 DUP3 MUL DUP4 ADD GT ISZERO PUSH2 0x4724 JUMPI PUSH2 0x4723 PUSH2 0x3C7F JUMP JUMPDEST JUMPDEST SWAP3 POP SWAP3 SWAP1 POP JUMP JUMPDEST PUSH2 0x4734 DUP2 PUSH2 0x3B7E JUMP JUMPDEST DUP2 EQ PUSH2 0x473F JUMPI PUSH1 0x0 DUP1 REVERT JUMPDEST POP JUMP JUMPDEST PUSH1 0x0 DUP2 CALLDATALOAD SWAP1 POP PUSH2 0x4751 DUP2 PUSH2 0x472B JUMP JUMPDEST SWAP3 SWAP2 POP POP JUMP JUMPDEST PUSH1 0x0 DUP1 PUSH1 0x0 DUP1 PUSH1 0x0 DUP1 PUSH1 0xA0 DUP8 DUP10 SUB SLT ISZERO PUSH2 0x4774 JUMPI PUSH2 0x4773 PUSH2 0x3AEF JUMP JUMPDEST JUMPDEST PUSH1 0x0 PUSH2 0x4782 DUP10 DUP3 DUP11 ADD PUSH2 0x3E32 JUMP JUMPDEST SWAP7 POP POP PUSH1 0x20 DUP8 ADD CALLDATALOAD PUSH8 0xFFFFFFFFFFFFFFFF DUP2 GT ISZERO PUSH2 0x47A3 JUMPI PUSH2 0x47A2 PUSH2 0x3AF4 JUMP JUMPDEST JUMPDEST PUSH2 0x47AF DUP10 DUP3 DUP11 ADD PUSH2 0x46D5 JUMP JUMPDEST SWAP6 POP SWAP6 POP POP PUSH1 0x40 PUSH2 0x47C2 DUP10 DUP3 DUP11 ADD PUSH2 0x4742 JUMP JUMPDEST SWAP4 POP POP PUSH1 0x60 PUSH2 0x47D3 DUP10 DUP3 DUP11 ADD PUSH2 0x3E32 JUMP JUMPDEST SWAP3 POP POP PUSH1 0x80 PUSH2 0x47E4 DUP10 DUP3 DUP11 ADD PUSH2 0x3E32 JUMP JUMPDEST SWAP2 POP POP SWAP3 SWAP6 POP SWAP3 SWAP6 POP SWAP3 SWAP6 JUMP JUMPDEST PUSH1 0x0 DUP1 PUSH1 0x0 PUSH1 0x60 DUP5 DUP7 SUB SLT ISZERO PUSH2 0x480A JUMPI PUSH2 0x4809 PUSH2 0x3AEF JUMP JUMPDEST JUMPDEST PUSH1 0x0 PUSH2 0x4818 DUP7 DUP3 DUP8 ADD PUSH2 0x3E32 JUMP JUMPDEST SWAP4 POP POP PUSH1 0x20 PUSH2 0x4829 DUP7 DUP3 DUP8 ADD PUSH2 0x3E32 JUMP JUMPDEST SWAP3 POP POP PUSH1 0x40 PUSH2 0x483A DUP7 DUP3 DUP8 ADD PUSH2 0x3E32 JUMP JUMPDEST SWAP2 POP POP SWAP3 POP SWAP3 POP SWAP3 JUMP JUMPDEST PUSH1 0x0 DUP2 MLOAD SWAP1 POP SWAP2 SWAP1 POP JUMP JUMPDEST PUSH1 0x0 DUP3 DUP3 MSTORE PUSH1 0x20 DUP3 ADD SWAP1 POP SWAP3 SWAP2 POP POP JUMP JUMPDEST PUSH1 0x0 DUP2 SWAP1 POP PUSH1 0x20 DUP3 ADD SWAP1 POP SWAP2 SWAP1 POP JUMP JUMPDEST PUSH2 0x4879 DUP2 PUSH2 0x3BE8 JUMP JUMPDEST DUP3 MSTORE POP POP JUMP JUMPDEST PUSH1 0x0 PUSH2 0x488B DUP4 DUP4 PUSH2 0x4870 JUMP JUMPDEST PUSH1 0x20 DUP4 ADD SWAP1 POP SWAP3 SWAP2 POP POP JUMP JUMPDEST PUSH1 0x0 PUSH1 0x20 DUP3 ADD SWAP1 POP SWAP2 SWAP1 POP JUMP JUMPDEST PUSH1 0x0 PUSH2 0x48AF DUP3 PUSH2 0x4844 JUMP JUMPDEST PUSH2 0x48B9 DUP2 DUP6 PUSH2 0x484F JUMP JUMPDEST SWAP4 POP PUSH2 0x48C4 DUP4 PUSH2 0x4860 JUMP JUMPDEST DUP1 PUSH1 0x0 JUMPDEST DUP4 DUP2 LT ISZERO PUSH2 0x48F5 JUMPI DUP2 MLOAD PUSH2 0x48DC DUP9 DUP3 PUSH2 0x487F JUMP JUMPDEST SWAP8 POP PUSH2 0x48E7 DUP4 PUSH2 0x4897 JUMP JUMPDEST SWAP3 POP POP PUSH1 0x1 DUP2 ADD SWAP1 POP PUSH2 0x48C8 JUMP JUMPDEST POP DUP6 SWAP4 POP POP POP POP SWAP3 SWAP2 POP POP JUMP JUMPDEST PUSH1 0x0 PUSH1 0x40 DUP3 ADD SWAP1 POP DUP2 DUP2 SUB PUSH1 0x0 DUP4 ADD MSTORE PUSH2 0x491C DUP2 DUP6 PUSH2 0x48A4 JUMP JUMPDEST SWAP1 POP PUSH2 0x492B PUSH1 0x20 DUP4 ADD DUP5 PUSH2 0x3B8A JUMP JUMPDEST SWAP4 SWAP3 POP POP POP JUMP JUMPDEST PUSH32 0x546F6B656E206C696D69742069732062656C6F7720746865206D696E696D756D PUSH1 0x0 DUP3 ADD MSTORE PUSH32 0x2072657175697265642E00000000000000000000000000000000000000000000 PUSH1 0x20 DUP3 ADD MSTORE POP JUMP JUMPDEST PUSH1 0x0 PUSH2 0x498E PUSH1 0x2A DUP4 PUSH2 0x445D JUMP JUMPDEST SWAP2 POP PUSH2 0x4999 DUP3 PUSH2 0x4932 JUMP JUMPDEST PUSH1 0x40 DUP3 ADD SWAP1 POP SWAP2 SWAP1 POP JUMP JUMPDEST PUSH1 0x0 PUSH1 0x20 DUP3 ADD SWAP1 POP DUP2 DUP2 SUB PUSH1 0x0 DUP4 ADD MSTORE PUSH2 0x49BD DUP2 PUSH2 0x4981 JUMP JUMPDEST SWAP1 POP SWAP2 SWAP1 POP JUMP JUMPDEST PUSH32 0x4E487B7100000000000000000000000000000000000000000000000000000000 PUSH1 0x0 MSTORE PUSH1 0x11 PUSH1 0x4 MSTORE PUSH1 0x24 PUSH1 0x0 REVERT JUMPDEST PUSH1 0x0 PUSH2 0x49FE DUP3 PUSH2 0x3BB4 JUMP JUMPDEST SWAP2 POP PUSH2 0x4A09 DUP4 PUSH2 0x3BB4 JUMP JUMPDEST SWAP3 POP DUP3 DUP3 ADD SWAP1 POP DUP1 DUP3 GT ISZERO PUSH2 0x4A21 JUMPI PUSH2 0x4A20 PUSH2 0x49C4 JUMP JUMPDEST JUMPDEST SWAP3 SWAP2 POP POP JUMP JUMPDEST PUSH32 0x496E73756666696369656E742062616C616E636520746F20636F766572207468 PUSH1 0x0 DUP3 ADD MSTORE PUSH32 0x6520746F6B656E206C696D697420616E642066726F7A656E2062616C616E6365 PUSH1 0x20 DUP3 ADD MSTORE PUSH32 0x2E00000000000000000000000000000000000000000000000000000000000000 PUSH1 0x40 DUP3 ADD MSTORE POP JUMP JUMPDEST PUSH1 0x0 PUSH2 0x4AA9 PUSH1 0x41 DUP4 PUSH2 0x445D JUMP JUMPDEST SWAP2 POP PUSH2 0x4AB4 DUP3 PUSH2 0x4A27 JUMP JUMPDEST PUSH1 0x60 DUP3 ADD SWAP1 POP SWAP2 SWAP1 POP JUMP JUMPDEST PUSH1 0x0 PUSH1 0x20 DUP3 ADD SWAP1 POP DUP2 DUP2 SUB PUSH1 0x0 DUP4 ADD MSTORE PUSH2 0x4AD8 DUP2 PUSH2 0x4A9C JUMP JUMPDEST SWAP1 POP SWAP2 SWAP1 POP JUMP JUMPDEST PUSH1 0x0 PUSH2 0x4AEA DUP3 PUSH2 0x3BB4 JUMP JUMPDEST SWAP2 POP PUSH32 0xFFFFFFFFFFFFFFFFFFFFFFFFFFFFFFFFFFFFFFFFFFFFFFFFFFFFFFFFFFFFFFFF DUP3 SUB PUSH2 0x4B1C JUMPI PUSH2 0x4B1B PUSH2 0x49C4 JUMP JUMPDEST JUMPDEST PUSH1 0x1 DUP3 ADD SWAP1 POP SWAP2 SWAP1 POP JUMP JUMPDEST PUSH32 0x4E487B7100000000000000000000000000000000000000000000000000000000 PUSH1 0x0 MSTORE PUSH1 0x22 PUSH1 0x4 MSTORE PUSH1 0x24 PUSH1 0x0 REVERT JUMPDEST PUSH1 0x0 PUSH1 0x2 DUP3 DIV SWAP1 POP PUSH1 0x1 DUP3 AND DUP1 PUSH2 0x4B6E JUMPI PUSH1 0x7F DUP3 AND SWAP2 POP JUMPDEST PUSH1 0x20 DUP3 LT DUP2 SUB PUSH2 0x4B81 JUMPI PUSH2 0x4B80 PUSH2 0x4B27 JUMP JUMPDEST JUMPDEST POP SWAP2 SWAP1 POP JUMP JUMPDEST PUSH1 0x0 DUP2 SWAP1 POP DUP2 PUSH1 0x0 MSTORE PUSH1 0x20 PUSH1 0x0 KECCAK256 SWAP1 POP SWAP2 SWAP1 POP JUMP JUMPDEST PUSH1 0x0 PUSH1 0x20 PUSH1 0x1F DUP4 ADD DIV SWAP1 POP SWAP2 SWAP1 POP JUMP JUMPDEST PUSH1 0x0 DUP3 DUP3 SHL SWAP1 POP SWAP3 SWAP2 POP POP JUMP JUMPDEST PUSH1 0x0 PUSH1 0x8 DUP4 MUL PUSH2 0x4BE9 PUSH32 0xFFFFFFFFFFFFFFFFFFFFFFFFFFFFFFFFFFFFFFFFFFFFFFFFFFFFFFFFFFFFFFFF DUP3 PUSH2 0x4BAC JUMP JUMPDEST PUSH2 0x4BF3 DUP7 DUP4 PUSH2 0x4BAC JUMP JUMPDEST SWAP6 POP DUP1 NOT DUP5 AND SWAP4 POP DUP1 DUP7 AND DUP5 OR SWAP3 POP POP POP SWAP4 SWAP3 POP POP POP JUMP JUMPDEST PUSH1 0x0 DUP2 SWAP1 POP SWAP2 SWAP1 POP JUMP JUMPDEST PUSH1 0x0 PUSH2 0x4C30 PUSH2 0x4C2B PUSH2 0x4C26 DUP5 PUSH2 0x3BB4 JUMP JUMPDEST PUSH2 0x4C0B JUMP JUMPDEST PUSH2 0x3BB4 JUMP JUMPDEST SWAP1 POP SWAP2 SWAP1 POP JUMP JUMPDEST PUSH1 0x0 DUP2 SWAP1 POP SWAP2 SWAP1 POP JUMP JUMPDEST PUSH2 0x4C4A DUP4 PUSH2 0x4C15 JUMP JUMPDEST PUSH2 0x4C5E PUSH2 0x4C56 DUP3 PUSH2 0x4C37 JUMP JUMPDEST DUP5 DUP5 SLOAD PUSH2 0x4BB9 JUMP JUMPDEST DUP3 SSTORE POP POP POP POP JUMP JUMPDEST PUSH1 0x0 SWAP1 JUMP JUMPDEST PUSH2 0x4C73 PUSH2 0x4C66 JUMP JUMPDEST PUSH2 0x4C7E DUP2 DUP5 DUP5 PUSH2 0x4C41 JUMP JUMPDEST POP POP POP JUMP JUMPDEST JUMPDEST DUP2 DUP2 LT ISZERO PUSH2 0x4CA2 JUMPI PUSH2 0x4C97 PUSH1 0x0 DUP3 PUSH2 0x4C6B JUMP JUMPDEST PUSH1 0x1 DUP2 ADD SWAP1 POP PUSH2 0x4C84 JUMP JUMPDEST POP POP JUMP JUMPDEST PUSH1 0x1F DUP3 GT ISZERO PUSH2 0x4CE7 JUMPI PUSH2 0x4CB8 DUP2 PUSH2 0x4B87 JUMP JUMPDEST PUSH2 0x4CC1 DUP5 PUSH2 0x4B9C JUMP JUMPDEST DUP2 ADD PUSH1 0x20 DUP6 LT ISZERO PUSH2 0x4CD0 JUMPI DUP2 SWAP1 POP JUMPDEST PUSH2 0x4CE4 PUSH2 0x4CDC DUP6 PUSH2 0x4B9C JUMP JUMPDEST DUP4 ADD DUP3 PUSH2 0x4C83 JUMP JUMPDEST POP POP JUMPDEST POP POP POP JUMP JUMPDEST PUSH1 0x0 DUP3 DUP3 SHR SWAP1 POP SWAP3 SWAP2 POP POP JUMP JUMPDEST PUSH1 0x0 PUSH2 0x4D0A PUSH1 0x0 NOT DUP5 PUSH1 0x8 MUL PUSH2 0x4CEC JUMP JUMPDEST NOT DUP1 DUP4 AND SWAP2 POP POP SWAP3 SWAP2 POP POP JUMP JUMPDEST PUSH1 0x0 PUSH2 0x4D23 DUP4 DUP4 PUSH2 0x4CF9 JUMP JUMPDEST SWAP2 POP DUP3 PUSH1 0x2 MUL DUP3 OR SWAP1 POP SWAP3 SWAP2 POP POP JUMP JUMPDEST PUSH2 0x4D3C DUP3 PUSH2 0x410A JUMP JUMPDEST PUSH8 0xFFFFFFFFFFFFFFFF DUP2 GT ISZERO PUSH2 0x4D55 JUMPI PUSH2 0x4D54 PUSH2 0x3CF0 JUMP JUMPDEST JUMPDEST PUSH2 0x4D5F DUP3 SLOAD PUSH2 0x4B56 JUMP JUMPDEST PUSH2 0x4D6A DUP3 DUP3 DUP6 PUSH2 0x4CA6 JUMP JUMPDEST PUSH1 0x0 PUSH1 0x20 SWAP1 POP PUSH1 0x1F DUP4 GT PUSH1 0x1 DUP2 EQ PUSH2 0x4D9D JUMPI PUSH1 0x0 DUP5 ISZERO PUSH2 0x4D8B JUMPI DUP3 DUP8 ADD MLOAD SWAP1 POP JUMPDEST PUSH2 0x4D95 DUP6 DUP3 PUSH2 0x4D17 JUMP JUMPDEST DUP7 SSTORE POP PUSH2 0x4DFD JUMP JUMPDEST PUSH1 0x1F NOT DUP5 AND PUSH2 0x4DAB DUP7 PUSH2 0x4B87 JUMP JUMPDEST PUSH1 0x0 JUMPDEST DUP3 DUP2 LT ISZERO PUSH2 0x4DD3 JUMPI DUP5 DUP10 ADD MLOAD DUP3 SSTORE PUSH1 0x1 DUP3 ADD SWAP2 POP PUSH1 0x20 DUP6 ADD SWAP5 POP PUSH1 0x20 DUP2 ADD SWAP1 POP PUSH2 0x4DAE JUMP JUMPDEST DUP7 DUP4 LT ISZERO PUSH2 0x4DF0 JUMPI DUP5 DUP10 ADD MLOAD PUSH2 0x4DEC PUSH1 0x1F DUP10 AND DUP3 PUSH2 0x4CF9 JUMP JUMPDEST DUP4 SSTORE POP JUMPDEST PUSH1 0x1 PUSH1 0x2 DUP9 MUL ADD DUP9 SSTORE POP POP POP JUMPDEST POP POP POP POP POP POP JUMP JUMPDEST PUSH1 0x0 DUP2 SWAP1 POP DUP2 PUSH1 0x0 MSTORE PUSH1 0x20 PUSH1 0x0 KECCAK256 SWAP1 POP SWAP2 SWAP1 POP JUMP JUMPDEST PUSH1 0x1F DUP3 GT ISZERO PUSH2 0x4E5B JUMPI PUSH2 0x4E2C DUP2 PUSH2 0x4E05 JUMP JUMPDEST PUSH2 0x4E35 DUP5 PUSH2 0x4B9C JUMP JUMPDEST DUP2 ADD PUSH1 0x20 DUP6 LT ISZERO PUSH2 0x4E44 JUMPI DUP2 SWAP1 POP JUMPDEST PUSH2 0x4E58 PUSH2 0x4E50 DUP6 PUSH2 0x4B9C JUMP JUMPDEST DUP4 ADD DUP3 PUSH2 0x4C83 JUMP JUMPDEST POP POP JUMPDEST POP POP POP JUMP JUMPDEST PUSH2 0x4E69 DUP3 PUSH2 0x44A7 JUMP JUMPDEST PUSH8 0xFFFFFFFFFFFFFFFF DUP2 GT ISZERO PUSH2 0x4E82 JUMPI PUSH2 0x4E81 PUSH2 0x3CF0 JUMP JUMPDEST JUMPDEST PUSH2 0x4E8C DUP3 SLOAD PUSH2 0x4B56 JUMP JUMPDEST PUSH2 0x4E97 DUP3 DUP3 DUP6 PUSH2 0x4E1A JUMP JUMPDEST PUSH1 0x0 PUSH1 0x20 SWAP1 POP PUSH1 0x1F DUP4 GT PUSH1 0x1 DUP2 EQ PUSH2 0x4ECA JUMPI PUSH1 0x0 DUP5 ISZERO PUSH2 0x4EB8 JUMPI DUP3 DUP8 ADD MLOAD SWAP1 POP JUMPDEST PUSH2 0x4EC2 DUP6 DUP3 PUSH2 0x4D17 JUMP JUMPDEST DUP7 SSTORE POP PUSH2 0x4F2A JUMP JUMPDEST PUSH1 0x1F NOT DUP5 AND PUSH2 0x4ED8 DUP7 PUSH2 0x4E05 JUMP JUMPDEST PUSH1 0x0 JUMPDEST DUP3 DUP2 LT ISZERO PUSH2 0x4F00 JUMPI DUP5 DUP10 ADD MLOAD DUP3 SSTORE PUSH1 0x1 DUP3 ADD SWAP2 POP PUSH1 0x20 DUP6 ADD SWAP5 POP PUSH1 0x20 DUP2 ADD SWAP1 POP PUSH2 0x4EDB JUMP JUMPDEST DUP7 DUP4 LT ISZERO PUSH2 0x4F1D JUMPI DUP5 DUP10 ADD MLOAD PUSH2 0x4F19 PUSH1 0x1F DUP10 AND DUP3 PUSH2 0x4CF9 JUMP JUMPDEST DUP4 SSTORE POP JUMPDEST PUSH1 0x1 PUSH1 0x2 DUP9 MUL ADD DUP9 SSTORE POP POP POP JUMPDEST POP POP POP POP POP POP JUMP JUMPDEST PUSH32 0x496E76616C6964206F7065726174696F6E207479706500000000000000000000 PUSH1 0x0 DUP3 ADD MSTORE POP JUMP JUMPDEST PUSH1 0x0 PUSH2 0x4F68 PUSH1 0x16 DUP4 PUSH2 0x445D JUMP JUMPDEST SWAP2 POP PUSH2 0x4F73 DUP3 PUSH2 0x4F32 JUMP JUMPDEST PUSH1 0x20 DUP3 ADD SWAP1 POP SWAP2 SWAP1 POP JUMP JUMPDEST PUSH1 0x0 PUSH1 0x20 DUP3 ADD SWAP1 POP DUP2 DUP2 SUB PUSH1 0x0 DUP4 ADD MSTORE PUSH2 0x4F97 DUP2 PUSH2 0x4F5B JUMP JUMPDEST SWAP1 POP SWAP2 SWAP1 POP JUMP JUMPDEST PUSH1 0x0 DUP2 SWAP1 POP SWAP3 SWAP2 POP POP JUMP JUMPDEST PUSH1 0x0 PUSH2 0x4FB5 DUP4 DUP6 PUSH2 0x4F9E JUMP JUMPDEST SWAP4 POP PUSH2 0x4FC2 DUP4 DUP6 DUP5 PUSH2 0x3D9C JUMP JUMPDEST DUP3 DUP5 ADD SWAP1 POP SWAP4 SWAP3 POP POP POP JUMP JUMPDEST PUSH1 0x0 PUSH2 0x4FDB DUP3 DUP5 DUP7 PUSH2 0x4FA9 JUMP JUMPDEST SWAP2 POP DUP2 SWAP1 POP SWAP4 SWAP3 POP POP POP JUMP JUMPDEST PUSH1 0x0 PUSH2 0x4FF2 DUP3 PUSH2 0x3BB4 JUMP JUMPDEST SWAP2 POP PUSH2 0x4FFD DUP4 PUSH2 0x3BB4 JUMP JUMPDEST SWAP3 POP DUP3 DUP3 SUB SWAP1 POP DUP2 DUP2 GT ISZERO PUSH2 0x5015 JUMPI PUSH2 0x5014 PUSH2 0x49C4 JUMP JUMPDEST JUMPDEST SWAP3 SWAP2 POP POP JUMP JUMPDEST PUSH32 0x496E73756666696369656E742062616C616E6365000000000000000000000000 PUSH1 0x0 DUP3 ADD MSTORE POP JUMP JUMPDEST PUSH1 0x0 PUSH2 0x5051 PUSH1 0x14 DUP4 PUSH2 0x445D JUMP JUMPDEST SWAP2 POP PUSH2 0x505C DUP3 PUSH2 0x501B JUMP JUMPDEST PUSH1 0x20 DUP3 ADD SWAP1 POP SWAP2 SWAP1 POP JUMP JUMPDEST PUSH1 0x0 PUSH1 0x20 DUP3 ADD SWAP1 POP DUP2 DUP2 SUB PUSH1 0x0 DUP4 ADD MSTORE PUSH2 0x5080 DUP2 PUSH2 0x5044 JUMP JUMPDEST SWAP1 POP SWAP2 SWAP1 POP JUMP JUMPDEST PUSH1 0x0 PUSH1 0x40 DUP3 ADD SWAP1 POP PUSH2 0x509C PUSH1 0x0 DUP4 ADD DUP6 PUSH2 0x444E JUMP JUMPDEST PUSH2 0x50A9 PUSH1 0x20 DUP4 ADD DUP5 PUSH2 0x3BBE JUMP JUMPDEST SWAP4 SWAP3 POP POP POP JUMP JUMPDEST PUSH1 0x0 DUP2 MLOAD SWAP1 POP PUSH2 0x50BF DUP2 PUSH2 0x472B JUMP JUMPDEST SWAP3 SWAP2 POP POP JUMP JUMPDEST PUSH1 0x0 PUSH1 0x20 DUP3 DUP5 SUB SLT ISZERO PUSH2 0x50DB JUMPI PUSH2 0x50DA PUSH2 0x3AEF JUMP JUMPDEST JUMPDEST PUSH1 0x0 PUSH2 0x50E9 DUP5 DUP3 DUP6 ADD PUSH2 0x50B0 JUMP JUMPDEST SWAP2 POP POP SWAP3 SWAP2 POP POP JUMP JUMPDEST PUSH32 0x5472616E73666572206661696C65640000000000000000000000000000000000 PUSH1 0x0 DUP3 ADD MSTORE POP JUMP JUMPDEST PUSH1 0x0 PUSH2 0x5128 PUSH1 0xF DUP4 PUSH2 0x445D JUMP JUMPDEST SWAP2 POP PUSH2 0x5133 DUP3 PUSH2 0x50F2 JUMP JUMPDEST PUSH1 0x20 DUP3 ADD SWAP1 POP SWAP2 SWAP1 POP JUMP JUMPDEST PUSH1 0x0 PUSH1 0x20 DUP3 ADD SWAP1 POP DUP2 DUP2 SUB PUSH1 0x0 DUP4 ADD MSTORE PUSH2 0x5157 DUP2 PUSH2 0x511B JUMP JUMPDEST SWAP1 POP SWAP2 SWAP1 POP JUMP JUMPDEST PUSH32 0x5265717565737420616C72656164792066696E616C697A656400000000000000 PUSH1 0x0 DUP3 ADD MSTORE POP JUMP JUMPDEST PUSH1 0x0 PUSH2 0x5194 PUSH1 0x19 DUP4 PUSH2 0x445D JUMP JUMPDEST SWAP2 POP PUSH2 0x519F DUP3 PUSH2 0x515E JUMP JUMPDEST PUSH1 0x20 DUP3 ADD SWAP1 POP SWAP2 SWAP1 POP JUMP JUMPDEST PUSH1 0x0 PUSH1 0x20 DUP3 ADD SWAP1 POP DUP2 DUP2 SUB PUSH1 0x0 DUP4 ADD MSTORE PUSH2 0x51C3 DUP2 PUSH2 0x5187 JUMP JUMPDEST SWAP1 POP SWAP2 SWAP1 POP JUMP JUMPDEST PUSH32 0x546F6B656E206C696D6974206578636565646564000000000000000000000000 PUSH1 0x0 DUP3 ADD MSTORE POP JUMP JUMPDEST PUSH1 0x0 PUSH2 0x5200 PUSH1 0x14 DUP4 PUSH2 0x445D JUMP JUMPDEST SWAP2 POP PUSH2 0x520B DUP3 PUSH2 0x51CA JUMP JUMPDEST PUSH1 0x20 DUP3 ADD SWAP1 POP SWAP2 SWAP1 POP JUMP JUMPDEST PUSH1 0x0 PUSH1 0x20 DUP3 ADD SWAP1 POP DUP2 DUP2 SUB PUSH1 0x0 DUP4 ADD MSTORE PUSH2 0x522F DUP2 PUSH2 0x51F3 JUMP JUMPDEST SWAP1 POP SWAP2 SWAP1 POP JUMP JUMPDEST PUSH1 0x0 DUP2 SWAP1 POP SWAP2 SWAP1 POP JUMP JUMPDEST PUSH1 0x0 PUSH8 0xFFFFFFFFFFFFFFFF DUP3 AND SWAP1 POP SWAP2 SWAP1 POP JUMP JUMPDEST PUSH1 0x0 PUSH2 0x526F PUSH2 0x526A PUSH2 0x5265 DUP5 PUSH2 0x5236 JUMP JUMPDEST PUSH2 0x4C0B JUMP JUMPDEST PUSH2 0x5240 JUMP JUMPDEST SWAP1 POP SWAP2 SWAP1 POP JUMP JUMPDEST PUSH2 0x527F DUP2 PUSH2 0x5254 JUMP JUMPDEST DUP3 MSTORE POP POP JUMP JUMPDEST PUSH1 0x0 PUSH1 0x20 DUP3 ADD SWAP1 POP PUSH2 0x529A PUSH1 0x0 DUP4 ADD DUP5 PUSH2 0x5276 JUMP JUMPDEST SWAP3 SWAP2 POP POP JUMP JUMPDEST PUSH32 0x5265717565737465722068617320696E73756666696369656E742062616C616E PUSH1 0x0 DUP3 ADD MSTORE PUSH32 0x636520746F20636F7665722074686520746F6B656E20636F6E73756D7074696F PUSH1 0x20 DUP3 ADD MSTORE PUSH32 0x6E2E000000000000000000000000000000000000000000000000000000000000 PUSH1 0x40 DUP3 ADD MSTORE POP JUMP JUMPDEST PUSH1 0x0 PUSH2 0x5322 PUSH1 0x42 DUP4 PUSH2 0x445D JUMP JUMPDEST SWAP2 POP PUSH2 0x532D DUP3 PUSH2 0x52A0 JUMP JUMPDEST PUSH1 0x60 DUP3 ADD SWAP1 POP SWAP2 SWAP1 POP JUMP JUMPDEST PUSH1 0x0 PUSH1 0x20 DUP3 ADD SWAP1 POP DUP2 DUP2 SUB PUSH1 0x0 DUP4 ADD MSTORE PUSH2 0x5351 DUP2 PUSH2 0x5315 JUMP JUMPDEST SWAP1 POP SWAP2 SWAP1 POP JUMP JUMPDEST PUSH1 0x0 DUP1 REVERT JUMPDEST DUP3 DUP2 DUP4 CALLDATACOPY POP POP POP JUMP JUMPDEST PUSH1 0x0 PUSH2 0x5372 DUP4 DUP6 PUSH2 0x484F JUMP JUMPDEST SWAP4 POP PUSH32 0x7FFFFFFFFFFFFFFFFFFFFFFFFFFFFFFFFFFFFFFFFFFFFFFFFFFFFFFFFFFFFFF DUP4 GT ISZERO PUSH2 0x53A5 JUMPI PUSH2 0x53A4 PUSH2 0x5358 JUMP JUMPDEST JUMPDEST PUSH1 0x20 DUP4 MUL SWAP3 POP PUSH2 0x53B6 DUP4 DUP6 DUP5 PUSH2 0x535D JUMP JUMPDEST DUP3 DUP5 ADD SWAP1 POP SWAP4 SWAP3 POP POP POP JUMP JUMPDEST PUSH1 0x0 PUSH1 0x60 DUP3 ADD SWAP1 POP PUSH2 0x53D7 PUSH1 0x0 DUP4 ADD DUP8 PUSH2 0x3BBE JUMP JUMPDEST DUP2 DUP2 SUB PUSH1 0x20 DUP4 ADD MSTORE PUSH2 0x53EA DUP2 DUP6 DUP8 PUSH2 0x5366 JUMP JUMPDEST SWAP1 POP PUSH2 0x53F9 PUSH1 0x40 DUP4 ADD DUP5 PUSH2 0x3B8A JUMP JUMPDEST SWAP6 SWAP5 POP POP POP POP POP JUMP JUMPDEST PUSH1 0x0 PUSH1 0x60 DUP3 ADD SWAP1 POP PUSH2 0x5417 PUSH1 0x0 DUP4 ADD DUP7 PUSH2 0x444E JUMP JUMPDEST PUSH2 0x5424 PUSH1 0x20 DUP4 ADD DUP6 PUSH2 0x444E JUMP JUMPDEST PUSH2 0x5431 PUSH1 0x40 DUP4 ADD DUP5 PUSH2 0x3BBE JUMP JUMPDEST SWAP5 SWAP4 POP POP POP POP JUMP JUMPDEST PUSH32 0x4F7574206F662072616E67650000000000000000000000000000000000000000 PUSH1 0x0 DUP3 ADD MSTORE POP JUMP JUMPDEST PUSH1 0x0 PUSH2 0x546F PUSH1 0xC DUP4 PUSH2 0x445D JUMP JUMPDEST SWAP2 POP PUSH2 0x547A DUP3 PUSH2 0x5439 JUMP JUMPDEST PUSH1 0x20 DUP3 ADD SWAP1 POP SWAP2 SWAP1 POP JUMP JUMPDEST PUSH1 0x0 PUSH1 0x20 DUP3 ADD SWAP1 POP DUP2 DUP2 SUB PUSH1 0x0 DUP4 ADD MSTORE PUSH2 0x549E DUP2 PUSH2 0x5462 JUMP JUMPDEST SWAP1 POP SWAP2 SWAP1 POP JUMP JUMPDEST PUSH32 0x4E487B7100000000000000000000000000000000000000000000000000000000 PUSH1 0x0 MSTORE PUSH1 0x32 PUSH1 0x4 MSTORE PUSH1 0x24 PUSH1 0x0 REVERT JUMPDEST PUSH1 0x0 PUSH2 0x54DF DUP3 PUSH2 0x410A JUMP JUMPDEST PUSH2 0x54E9 DUP2 DUP6 PUSH2 0x4F9E JUMP JUMPDEST SWAP4 POP PUSH2 0x54F9 DUP2 DUP6 PUSH1 0x20 DUP7 ADD PUSH2 0x4126 JUMP JUMPDEST DUP1 DUP5 ADD SWAP2 POP POP SWAP3 SWAP2 POP POP JUMP JUMPDEST PUSH1 0x0 PUSH2 0x5511 DUP3 DUP5 PUSH2 0x54D4 JUMP JUMPDEST SWAP2 POP DUP2 SWAP1 POP SWAP3 SWAP2 POP POP JUMP JUMPDEST PUSH32 0x4D6F64656C206973206E6F7420616C6C6F7765642E0000000000000000000000 PUSH1 0x0 DUP3 ADD MSTORE POP JUMP JUMPDEST PUSH1 0x0 PUSH2 0x5552 PUSH1 0x15 DUP4 PUSH2 0x445D JUMP JUMPDEST SWAP2 POP PUSH2 0x555D DUP3 PUSH2 0x551C JUMP JUMPDEST PUSH1 0x20 DUP3 ADD SWAP1 POP SWAP2 SWAP1 POP JUMP JUMPDEST PUSH1 0x0 PUSH1 0x20 DUP3 ADD SWAP1 POP DUP2 DUP2 SUB PUSH1 0x0 DUP4 ADD MSTORE PUSH2 0x5581 DUP2 PUSH2 0x5545 JUMP JUMPDEST SWAP1 POP SWAP2 SWAP1 POP JUMP JUMPDEST PUSH32 0x5265717565737420646174612074797065206E6F7420616C6C6F776564000000 PUSH1 0x0 DUP3 ADD MSTORE POP JUMP JUMPDEST PUSH1 0x0 PUSH2 0x55BE PUSH1 0x1D DUP4 PUSH2 0x445D JUMP JUMPDEST SWAP2 POP PUSH2 0x55C9 DUP3 PUSH2 0x5588 JUMP JUMPDEST PUSH1 0x20 DUP3 ADD SWAP1 POP SWAP2 SWAP1 POP JUMP JUMPDEST PUSH1 0x0 PUSH1 0x20 DUP3 ADD SWAP1 POP DUP2 DUP2 SUB PUSH1 0x0 DUP4 ADD MSTORE PUSH2 0x55ED DUP2 PUSH2 0x55B1 JUMP JUMPDEST SWAP1 POP SWAP2 SWAP1 POP JUMP JUMPDEST PUSH32 0x526573706F6E736520646174612074797065206E6F7420616C6C6F7765640000 PUSH1 0x0 DUP3 ADD MSTORE POP JUMP JUMPDEST PUSH1 0x0 PUSH2 0x562A PUSH1 0x1E DUP4 PUSH2 0x445D JUMP JUMPDEST SWAP2 POP PUSH2 0x5635 DUP3 PUSH2 0x55F4 JUMP JUMPDEST PUSH1 0x20 DUP3 ADD SWAP1 POP SWAP2 SWAP1 POP JUMP JUMPDEST PUSH1 0x0 PUSH1 0x20 DUP3 ADD SWAP1 POP DUP2 DUP2 SUB PUSH1 0x0 DUP4 ADD MSTORE PUSH2 0x5659 DUP2 PUSH2 0x561D JUMP JUMPDEST SWAP1 POP SWAP2 SWAP1 POP JUMP JUMPDEST PUSH1 0x0 DUP2 MLOAD SWAP1 POP PUSH2 0x566F DUP2 PUSH2 0x3BF2 JUMP JUMPDEST SWAP3 SWAP2 POP POP JUMP JUMPDEST PUSH1 0x0 PUSH1 0x20 DUP3 DUP5 SUB SLT ISZERO PUSH2 0x568B JUMPI PUSH2 0x568A PUSH2 0x3AEF JUMP JUMPDEST JUMPDEST PUSH1 0x0 PUSH2 0x5699 DUP5 DUP3 DUP6 ADD PUSH2 0x5660 JUMP JUMPDEST SWAP2 POP POP SWAP3 SWAP2 POP POP JUMP JUMPDEST PUSH1 0x0 PUSH1 0x40 DUP3 ADD SWAP1 POP PUSH2 0x56B7 PUSH1 0x0 DUP4 ADD DUP6 PUSH2 0x444E JUMP JUMPDEST PUSH2 0x56C4 PUSH1 0x20 DUP4 ADD DUP5 PUSH2 0x3C4B JUMP JUMPDEST SWAP4 SWAP3 POP POP POP JUMP JUMPDEST PUSH1 0x0 DUP2 SWAP1 POP SWAP3 SWAP2 POP POP JUMP JUMPDEST PUSH1 0x0 PUSH2 0x56E1 DUP3 PUSH2 0x44A7 JUMP JUMPDEST PUSH2 0x56EB DUP2 DUP6 PUSH2 0x56CB JUMP JUMPDEST SWAP4 POP PUSH2 0x56FB DUP2 DUP6 PUSH1 0x20 DUP7 ADD PUSH2 0x4126 JUMP JUMPDEST DUP1 DUP5 ADD SWAP2 POP POP SWAP3 SWAP2 POP POP JUMP JUMPDEST PUSH1 0x0 PUSH2 0x5713 DUP3 DUP5 PUSH2 0x56D6 JUMP JUMPDEST SWAP2 POP DUP2 SWAP1 POP SWAP3 SWAP2 POP POP JUMP INVALID LOG2 PUSH5 0x6970667358 0x22 SLT KECCAK256 0xBD CALLDATACOPY PUSH1 0x4B DUP10 0xD6 0xEF SWAP13 KECCAK256 DELEGATECALL CALLDATALOAD 0xD5 PUSH28 0x62A855D9AC8B101590DE802C13782E4FAF345B64736F6C6343000818 STOP CALLER "},"methodIdentifiers":{"DEFAULT_ADMIN_ROLE()":"a217fddf","RESPONSE_ROLE()":"9ad04197","TOKEN_PER_SEGMENT()":"221fcbdf","UPGRADER_ROLE()":"f72c0d8b","UPGRADE_INTERFACE_VERSION()":"ad3cb1cc","aiToken()":"c8203521","continueAIResponse(uint256,uint256)":"6800e7c8","createAIRequest(bytes,string,string,string,uint256,address,uint256)":"263c9077","depositTokens(uint256)":"dd49756e","getAIResponseSegmentCount(uint256)":"b189e2db","getAIResponseSegments(uint256,uint256,uint256)":"eb1defe7","getAllowedDataTypes(string,uint256)":"4247ae1b","getAllowedModels()":"9067df1a","getRoleAdmin(bytes32)":"248a9ca3","getTokenBalance(address)":"3aecd0e3","grantRole(bytes32,address)":"2f2ff15d","hasRole(bytes32,address)":"91d14854","initialize(address)":"c4d66de8","minTokenLimit()":"bcdf10ad","proxiableUUID()":"52d1902d","renounceRole(bytes32,address)":"36568abe","requestCounter()":"973a814e","requests(uint256)":"81d12c58","responseSegments(uint256,uint256)":"c97a339d","revokeRole(bytes32,address)":"d547741f","setAllowedDataTypes(string,uint256,string[])":"82dbe9e6","setAllowedModels(string[])":"781d8dd3","setMinTokenLimit(uint256)":"c2400fae","submitAIResponseSegments(uint256,bytes32[],bool,uint256,uint256)":"d7926ab7","supportsInterface(bytes4)":"01ffc9a7","upgradeToAndCall(address,bytes)":"4f1ef286","withdrawToken(uint256)":"50baa622","withdrawTokenTo(uint256,address)":"bc7ef6c9"}},"storageLayout":{"storage":[{"astId":3229,"contract":"contracts/AIOracle.sol:AIOracle","label":"aiToken","offset":0,"slot":"0","type":"t_address"},{"astId":3231,"contract":"contracts/AIOracle.sol:AIOracle","label":"minTokenLimit","offset":0,"slot":"1","type":"t_uint256"},{"astId":3233,"contract":"contracts/AIOracle.sol:AIOracle","label":"requestCounter","offset":0,"slot":"2","type":"t_uint256"},{"astId":3236,"contract":"contracts/AIOracle.sol:AIOracle","label":"allowedModels","offset":0,"slot":"3","type":"t_array(t_string_storage)dyn_storage"},{"astId":3241,"contract":"contracts/AIOracle.sol:AIOracle","label":"requests","offset":0,"slot":"4","type":"t_mapping(t_uint256,t_struct(Request)3227_storage)"},{"astId":3246,"contract":"contracts/AIOracle.sol:AIOracle","label":"responseSegments","offset":0,"slot":"5","type":"t_mapping(t_uint256,t_array(t_bytes32)dyn_storage)"},{"astId":3250,"contract":"contracts/AIOracle.sol:AIOracle","label":"balances","offset":0,"slot":"6","type":"t_mapping(t_address,t_uint256)"},{"astId":3254,"contract":"contracts/AIOracle.sol:AIOracle","label":"freezeBalances","offset":0,"slot":"7","type":"t_mapping(t_address,t_uint256)"},{"astId":3261,"contract":"contracts/AIOracle.sol:AIOracle","label":"allowedDataTypes","offset":0,"slot":"8","type":"t_mapping(t_string_memory_ptr,t_mapping(t_uint256,t_array(t_string_storage)dyn_storage))"}],"types":{"t_address":{"encoding":"inplace","label":"address","numberOfBytes":"20"},"t_array(t_bytes32)dyn_storage":{"base":"t_bytes32","encoding":"dynamic_array","label":"bytes32[]","numberOfBytes":"32"},"t_array(t_string_storage)dyn_storage":{"base":"t_string_storage","encoding":"dynamic_array","label":"string[]","numberOfBytes":"32"},"t_bool":{"encoding":"inplace","label":"bool","numberOfBytes":"1"},"t_bytes32":{"encoding":"inplace","label":"bytes32","numberOfBytes":"32"},"t_bytes_storage":{"encoding":"bytes","label":"bytes","numberOfBytes":"32"},"t_mapping(t_address,t_uint256)":{"encoding":"mapping","key":"t_address","label":"mapping(address => uint256)","numberOfBytes":"32","value":"t_uint256"},"t_mapping(t_string_memory_ptr,t_mapping(t_uint256,t_array(t_string_storage)dyn_storage))":{"encoding":"mapping","key":"t_string_memory_ptr","label":"mapping(string => mapping(uint256 => string[]))","numberOfBytes":"32","value":"t_mapping(t_uint256,t_array(t_string_storage)dyn_storage)"},"t_mapping(t_uint256,t_array(t_bytes32)dyn_storage)":{"encoding":"mapping","key":"t_uint256","label":"mapping(uint256 => bytes32[])","numberOfBytes":"32","value":"t_array(t_bytes32)dyn_storage"},"t_mapping(t_uint256,t_array(t_string_storage)dyn_storage)":{"encoding":"mapping","key":"t_uint256","label":"mapping(uint256 => string[])","numberOfBytes":"32","value":"t_array(t_string_storage)dyn_storage"},"t_mapping(t_uint256,t_struct(Request)3227_storage)":{"encoding":"mapping","key":"t_uint256","label":"mapping(uint256 => struct AIOracle.Request)","numberOfBytes":"32","value":"t_struct(Request)3227_storage"},"t_string_memory_ptr":{"encoding":"bytes","label":"string","numberOfBytes":"32"},"t_string_storage":{"encoding":"bytes","label":"string","numberOfBytes":"32"},"t_struct(Request)3227_storage":{"encoding":"inplace","label":"struct AIOracle.Request","members":[{"astId":3206,"contract":"contracts/AIOracle.sol:AIOracle","label":"requester","offset":0,"slot":"0","type":"t_address"},{"astId":3208,"contract":"contracts/AIOracle.sol:AIOracle","label":"receiver","offset":0,"slot":"1","type":"t_address"},{"astId":3210,"contract":"contracts/AIOracle.sol:AIOracle","label":"model","offset":0,"slot":"2","type":"t_string_storage"},{"astId":3212,"contract":"contracts/AIOracle.sol:AIOracle","label":"requestDataType","offset":0,"slot":"3","type":"t_string_storage"},{"astId":3214,"contract":"contracts/AIOracle.sol:AIOracle","label":"responseDataType","offset":0,"slot":"4","type":"t_string_storage"},{"astId":3216,"contract":"contracts/AIOracle.sol:AIOracle","label":"tokenLimit","offset":0,"slot":"5","type":"t_uint256"},{"astId":3218,"contract":"contracts/AIOracle.sol:AIOracle","label":"tokenConsumed","offset":0,"slot":"6","type":"t_uint256"},{"astId":3220,"contract":"contracts/AIOracle.sol:AIOracle","label":"data","offset":0,"slot":"7","type":"t_bytes_storage"},{"astId":3222,"contract":"contracts/AIOracle.sol:AIOracle","label":"isFinalized","offset":0,"slot":"8","type":"t_bool"},{"astId":3224,"contract":"contracts/AIOracle.sol:AIOracle","label":"segmentCount","offset":0,"slot":"9","type":"t_uint256"},{"astId":3226,"contract":"contracts/AIOracle.sol:AIOracle","label":"tokenFreezed","offset":0,"slot":"10","type":"t_uint256"}],"numberOfBytes":"352"},"t_uint256":{"encoding":"inplace","label":"uint256","numberOfBytes":"32"}}}}}}