{
  "_format": "hh-sol-artifact-1",
  "contractName": "AIToken",
  "sourceName": "contracts/AIToken.sol",
  "abi": [
    {
      "inputs": [],
      "stateMutability": "nonpayable",
      "type": "constructor"
    },
    {
      "inputs": [],
      "name": "AccessControlBadConfirmation",
      "type": "error"
    },
    {
      "inputs": [
        {
          "internalType": "address",
          "name": "account",
          "type": "address"
        },
        {
          "internalType": "bytes32",
          "name": "neededRole",
          "type": "bytes32"
        }
      ],
      "name": "AccessControlUnauthorizedAccount",
      "type": "error"
    },
    {
      "inputs": [
        {
          "internalType": "address",
          "name": "target",
          "type": "address"
        }
      ],
      "name": "AddressEmptyCode",
      "type": "error"
    },
    {
      "inputs": [
        {
          "internalType": "address",
          "name": "implementation",
          "type": "address"
        }
      ],
      "name": "ERC1967InvalidImplementation",
      "type": "error"
    },
    {
      "inputs": [],
      "name": "ERC1967NonPayable",
      "type": "error"
    },
    {
      "inputs": [
        {
          "internalType": "address",
          "name": "spender",
          "type": "address"
        },
        {
          "internalType": "uint256",
          "name": "allowance",
          "type": "uint256"
        },
        {
          "internalType": "uint256",
          "name": "needed",
          "type": "uint256"
        }
      ],
      "name": "ERC20InsufficientAllowance",
      "type": "error"
    },
    {
      "inputs": [
        {
          "internalType": "address",
          "name": "sender",
          "type": "address"
        },
        {
          "internalType": "uint256",
          "name": "balance",
          "type": "uint256"
        },
        {
          "internalType": "uint256",
          "name": "needed",
          "type": "uint256"
        }
      ],
      "name": "ERC20InsufficientBalance",
      "type": "error"
    },
    {
      "inputs": [
        {
          "internalType": "address",
          "name": "approver",
          "type": "address"
        }
      ],
      "name": "ERC20InvalidApprover",
      "type": "error"
    },
    {
      "inputs": [
        {
          "internalType": "address",
          "name": "receiver",
          "type": "address"
        }
      ],
      "name": "ERC20InvalidReceiver",
      "type": "error"
    },
    {
      "inputs": [
        {
          "internalType": "address",
          "name": "sender",
          "type": "address"
        }
      ],
      "name": "ERC20InvalidSender",
      "type": "error"
    },
    {
      "inputs": [
        {
          "internalType": "address",
          "name": "spender",
          "type": "address"
        }
      ],
      "name": "ERC20InvalidSpender",
      "type": "error"
    },
    {
      "inputs": [],
      "name": "FailedInnerCall",
      "type": "error"
    },
    {
      "inputs": [],
      "name": "InvalidInitialization",
      "type": "error"
    },
    {
      "inputs": [],
      "name": "NotInitializing",
      "type": "error"
    },
    {
      "inputs": [],
      "name": "UUPSUnauthorizedCallContext",
      "type": "error"
    },
    {
      "inputs": [
        {
          "internalType": "bytes32",
          "name": "slot",
          "type": "bytes32"
        }
      ],
      "name": "UUPSUnsupportedProxiableUUID",
      "type": "error"
    },
    {
      "anonymous": false,
      "inputs": [
        {
          "indexed": true,
          "internalType": "address",
          "name": "owner",
          "type": "address"
        },
        {
          "indexed": true,
          "internalType": "address",
          "name": "spender",
          "type": "address"
        },
        {
          "indexed": false,
          "internalType": "uint256",
          "name": "value",
          "type": "uint256"
        }
      ],
      "name": "Approval",
      "type": "event"
    },
    {
      "anonymous": false,
      "inputs": [
        {
          "indexed": false,
          "internalType": "uint64",
          "name": "version",
          "type": "uint64"
        }
      ],
      "name": "Initialized",
      "type": "event"
    },
    {
      "anonymous": false,
      "inputs": [
        {
          "indexed": true,
          "internalType": "bytes32",
          "name": "role",
          "type": "bytes32"
        },
        {
          "indexed": true,
          "internalType": "bytes32",
          "name": "previousAdminRole",
          "type": "bytes32"
        },
        {
          "indexed": true,
          "internalType": "bytes32",
          "name": "newAdminRole",
          "type": "bytes32"
        }
      ],
      "name": "RoleAdminChanged",
      "type": "event"
    },
    {
      "anonymous": false,
      "inputs": [
        {
          "indexed": true,
          "internalType": "bytes32",
          "name": "role",
          "type": "bytes32"
        },
        {
          "indexed": true,
          "internalType": "address",
          "name": "account",
          "type": "address"
        },
        {
          "indexed": true,
          "internalType": "address",
          "name": "sender",
          "type": "address"
        }
      ],
      "name": "RoleGranted",
      "type": "event"
    },
    {
      "anonymous": false,
      "inputs": [
        {
          "indexed": true,
          "internalType": "bytes32",
          "name": "role",
          "type": "bytes32"
        },
        {
          "indexed": true,
          "internalType": "address",
          "name": "account",
          "type": "address"
        },
        {
          "indexed": true,
          "internalType": "address",
          "name": "sender",
          "type": "address"
        }
      ],
      "name": "RoleRevoked",
      "type": "event"
    },
    {
      "anonymous": false,
      "inputs": [
        {
          "indexed": true,
          "internalType": "address",
          "name": "from",
          "type": "address"
        },
        {
          "indexed": true,
          "internalType": "address",
          "name": "to",
          "type": "address"
        },
        {
          "indexed": false,
          "internalType": "uint256",
          "name": "value",
          "type": "uint256"
        }
      ],
      "name": "Transfer",
      "type": "event"
    },
    {
      "anonymous": false,
      "inputs": [
        {
          "indexed": true,
          "internalType": "address",
          "name": "implementation",
          "type": "address"
        }
      ],
      "name": "Upgraded",
      "type": "event"
    },
    {
      "inputs": [],
      "name": "DEFAULT_ADMIN_ROLE",
      "outputs": [
        {
          "internalType": "bytes32",
          "name": "",
          "type": "bytes32"
        }
      ],
      "stateMutability": "view",
      "type": "function"
    },
    {
      "inputs": [],
      "name": "MINTER_ROLE",
      "outputs": [
        {
          "internalType": "bytes32",
          "name": "",
          "type": "bytes32"
        }
      ],
      "stateMutability": "view",
      "type": "function"
    },
    {
      "inputs": [],
      "name": "UPGRADER_ROLE",
      "outputs": [
        {
          "internalType": "bytes32",
          "name": "",
          "type": "bytes32"
        }
      ],
      "stateMutability": "view",
      "type": "function"
    },
    {
      "inputs": [],
      "name": "UPGRADE_INTERFACE_VERSION",
      "outputs": [
        {
          "internalType": "string",
          "name": "",
          "type": "string"
        }
      ],
      "stateMutability": "view",
      "type": "function"
    },
    {
      "inputs": [
        {
          "internalType": "address",
          "name": "owner",
          "type": "address"
        },
        {
          "internalType": "address",
          "name": "spender",
          "type": "address"
        }
      ],
      "name": "allowance",
      "outputs": [
        {
          "internalType": "uint256",
          "name": "",
          "type": "uint256"
        }
      ],
      "stateMutability": "view",
      "type": "function"
    },
    {
      "inputs": [
        {
          "internalType": "address",
          "name": "spender",
          "type": "address"
        },
        {
          "internalType": "uint256",
          "name": "value",
          "type": "uint256"
        }
      ],
      "name": "approve",
      "outputs": [
        {
          "internalType": "bool",
          "name": "",
          "type": "bool"
        }
      ],
      "stateMutability": "nonpayable",
      "type": "function"
    },
    {
      "inputs": [
        {
          "internalType": "address",
          "name": "account",
          "type": "address"
        }
      ],
      "name": "balanceOf",
      "outputs": [
        {
          "internalType": "uint256",
          "name": "",
          "type": "uint256"
        }
      ],
      "stateMutability": "view",
      "type": "function"
    },
    {
      "inputs": [
        {
          "internalType": "uint256",
          "name": "value",
          "type": "uint256"
        }
      ],
      "name": "burn",
      "outputs": [],
      "stateMutability": "nonpayable",
      "type": "function"
    },
    {
      "inputs": [
        {
          "internalType": "address",
          "name": "account",
          "type": "address"
        },
        {
          "internalType": "uint256",
          "name": "value",
          "type": "uint256"
        }
      ],
      "name": "burnFrom",
      "outputs": [],
      "stateMutability": "nonpayable",
      "type": "function"
    },
    {
      "inputs": [],
      "name": "decimals",
      "outputs": [
        {
          "internalType": "uint8",
          "name": "",
          "type": "uint8"
        }
      ],
      "stateMutability": "view",
      "type": "function"
    },
    {
      "inputs": [
        {
          "internalType": "bytes32",
          "name": "role",
          "type": "bytes32"
        }
      ],
      "name": "getRoleAdmin",
      "outputs": [
        {
          "internalType": "bytes32",
          "name": "",
          "type": "bytes32"
        }
      ],
      "stateMutability": "view",
      "type": "function"
    },
    {
      "inputs": [
        {
          "internalType": "bytes32",
          "name": "role",
          "type": "bytes32"
        },
        {
          "internalType": "address",
          "name": "account",
          "type": "address"
        }
      ],
      "name": "grantRole",
      "outputs": [],
      "stateMutability": "nonpayable",
      "type": "function"
    },
    {
      "inputs": [
        {
          "internalType": "bytes32",
          "name": "role",
          "type": "bytes32"
        },
        {
          "internalType": "address",
          "name": "account",
          "type": "address"
        }
      ],
      "name": "hasRole",
      "outputs": [
        {
          "internalType": "bool",
          "name": "",
          "type": "bool"
        }
      ],
      "stateMutability": "view",
      "type": "function"
    },
    {
      "inputs": [
        {
          "internalType": "address",
          "name": "defaultAdmin",
          "type": "address"
        },
        {
          "internalType": "address",
          "name": "minter",
          "type": "address"
        },
        {
          "internalType": "address",
          "name": "upgrader",
          "type": "address"
        }
      ],
      "name": "initialize",
      "outputs": [],
      "stateMutability": "nonpayable",
      "type": "function"
    },
    {
      "inputs": [
        {
          "internalType": "address",
          "name": "to",
          "type": "address"
        },
        {
          "internalType": "uint256",
          "name": "amount",
          "type": "uint256"
        }
      ],
      "name": "mint",
      "outputs": [],
      "stateMutability": "nonpayable",
      "type": "function"
    },
    {
      "inputs": [],
      "name": "name",
      "outputs": [
        {
          "internalType": "string",
          "name": "",
          "type": "string"
        }
      ],
      "stateMutability": "view",
      "type": "function"
    },
    {
      "inputs": [],
      "name": "proxiableUUID",
      "outputs": [
        {
          "internalType": "bytes32",
          "name": "",
          "type": "bytes32"
        }
      ],
      "stateMutability": "view",
      "type": "function"
    },
    {
      "inputs": [
        {
          "internalType": "bytes32",
          "name": "role",
          "type": "bytes32"
        },
        {
          "internalType": "address",
          "name": "callerConfirmation",
          "type": "address"
        }
      ],
      "name": "renounceRole",
      "outputs": [],
      "stateMutability": "nonpayable",
      "type": "function"
    },
    {
      "inputs": [
        {
          "internalType": "bytes32",
          "name": "role",
          "type": "bytes32"
        },
        {
          "internalType": "address",
          "name": "account",
          "type": "address"
        }
      ],
      "name": "revokeRole",
      "outputs": [],
      "stateMutability": "nonpayable",
      "type": "function"
    },
    {
      "inputs": [
        {
          "internalType": "bytes4",
          "name": "interfaceId",
          "type": "bytes4"
        }
      ],
      "name": "supportsInterface",
      "outputs": [
        {
          "internalType": "bool",
          "name": "",
          "type": "bool"
        }
      ],
      "stateMutability": "view",
      "type": "function"
    },
    {
      "inputs": [],
      "name": "symbol",
      "outputs": [
        {
          "internalType": "string",
          "name": "",
          "type": "string"
        }
      ],
      "stateMutability": "view",
      "type": "function"
    },
    {
      "inputs": [],
      "name": "totalSupply",
      "outputs": [
        {
          "internalType": "uint256",
          "name": "",
          "type": "uint256"
        }
      ],
      "stateMutability": "view",
      "type": "function"
    },
    {
      "inputs": [
        {
          "internalType": "address",
          "name": "to",
          "type": "address"
        },
        {
          "internalType": "uint256",
          "name": "value",
          "type": "uint256"
        }
      ],
      "name": "transfer",
      "outputs": [
        {
          "internalType": "bool",
          "name": "",
          "type": "bool"
        }
      ],
      "stateMutability": "nonpayable",
      "type": "function"
    },
    {
      "inputs": [
        {
          "internalType": "address",
          "name": "from",
          "type": "address"
        },
        {
          "internalType": "address",
          "name": "to",
          "type": "address"
        },
        {
          "internalType": "uint256",
          "name": "value",
          "type": "uint256"
        }
      ],
      "name": "transferFrom",
      "outputs": [
        {
          "internalType": "bool",
          "name": "",
          "type": "bool"
        }
      ],
      "stateMutability": "nonpayable",
      "type": "function"
    },
    {
      "inputs": [
        {
          "internalType": "address",
          "name": "newImplementation",
          "type": "address"
        },
        {
          "internalType": "bytes",
          "name": "data",
          "type": "bytes"
        }
      ],
      "name": "upgradeToAndCall",
      "outputs": [],
      "stateMutability": "payable",
      "type": "function"
    }
  ],
  "bytecode": "0x60a06040523073ffffffffffffffffffffffffffffffffffffffff1660809073ffffffffffffffffffffffffffffffffffffffff168152503480156200004457600080fd5b50620000556200005b60201b60201c565b620001cf565b60006200006d6200016560201b60201c565b90508060000160089054906101000a900460ff1615620000b9576040517ff92ee8a900000000000000000000000000000000000000000000000000000000815260040160405180910390fd5b67ffffffffffffffff80168160000160009054906101000a900467ffffffffffffffff1667ffffffffffffffff1614620001625767ffffffffffffffff8160000160006101000a81548167ffffffffffffffff021916908367ffffffffffffffff1602179055507fc7f505b2f371ae2175ee4913f4499e1f2633a7b5936321eed1cdaeb6115181d267ffffffffffffffff604051620001599190620001b2565b60405180910390a15b50565b60007ff0c57e16840df040f15088dc2f81fe391c3923bec73e23a9662efc9c229c6a00905090565b600067ffffffffffffffff82169050919050565b620001ac816200018d565b82525050565b6000602082019050620001c96000830184620001a1565b92915050565b608051612aa9620001f9600039600081816113ed0152818161144201526116200152612aa96000f3fe6080604052600436106101665760003560e01c806352d1902d116100d1578063a9059cbb1161008a578063d539139311610064578063d539139314610555578063d547741f14610580578063dd62ed3e146105a9578063f72c0d8b146105e657610166565b8063a9059cbb146104c4578063ad3cb1cc14610501578063c0c53b8b1461052c57610166565b806352d1902d146103a057806370a08231146103cb57806379cc67901461040857806391d148541461043157806395d89b411461046e578063a217fddf1461049957610166565b80632f2ff15d116101235780632f2ff15d146102b5578063313ce567146102de57806336568abe1461030957806340c10f191461033257806342966c681461035b5780634f1ef2861461038457610166565b806301ffc9a71461016b57806306fdde03146101a8578063095ea7b3146101d357806318160ddd1461021057806323b872dd1461023b578063248a9ca314610278575b600080fd5b34801561017757600080fd5b50610192600480360381019061018d9190611fb6565b610611565b60405161019f9190611ffe565b60405180910390f35b3480156101b457600080fd5b506101bd61068b565b6040516101ca91906120a9565b60405180910390f35b3480156101df57600080fd5b506101fa60048036038101906101f5919061215f565b61072c565b6040516102079190611ffe565b60405180910390f35b34801561021c57600080fd5b5061022561074f565b60405161023291906121ae565b60405180910390f35b34801561024757600080fd5b50610262600480360381019061025d91906121c9565b610767565b60405161026f9190611ffe565b60405180910390f35b34801561028457600080fd5b5061029f600480360381019061029a9190612252565b610796565b6040516102ac919061228e565b60405180910390f35b3480156102c157600080fd5b506102dc60048036038101906102d791906122a9565b6107c4565b005b3480156102ea57600080fd5b506102f36107e6565b6040516103009190612305565b60405180910390f35b34801561031557600080fd5b50610330600480360381019061032b91906122a9565b6107ef565b005b34801561033e57600080fd5b506103596004803603810190610354919061215f565b61086a565b005b34801561036757600080fd5b50610382600480360381019061037d9190612320565b6108a3565b005b61039e60048036038101906103999190612482565b6108b7565b005b3480156103ac57600080fd5b506103b56108d6565b6040516103c2919061228e565b60405180910390f35b3480156103d757600080fd5b506103f260048036038101906103ed91906124de565b610909565b6040516103ff91906121ae565b60405180910390f35b34801561041457600080fd5b5061042f600480360381019061042a919061215f565b610960565b005b34801561043d57600080fd5b50610458600480360381019061045391906122a9565b610980565b6040516104659190611ffe565b60405180910390f35b34801561047a57600080fd5b506104836109f9565b60405161049091906120a9565b60405180910390f35b3480156104a557600080fd5b506104ae610a9a565b6040516104bb919061228e565b60405180910390f35b3480156104d057600080fd5b506104eb60048036038101906104e6919061215f565b610aa1565b6040516104f89190611ffe565b60405180910390f35b34801561050d57600080fd5b50610516610ac4565b60405161052391906120a9565b60405180910390f35b34801561053857600080fd5b50610553600480360381019061054e919061250b565b610afd565b005b34801561056157600080fd5b5061056a610d75565b604051610577919061228e565b60405180910390f35b34801561058c57600080fd5b506105a760048036038101906105a291906122a9565b610d99565b005b3480156105b557600080fd5b506105d060048036038101906105cb919061255e565b610dbb565b6040516105dd91906121ae565b60405180910390f35b3480156105f257600080fd5b506105fb610e50565b604051610608919061228e565b60405180910390f35b60007f7965db0b000000000000000000000000000000000000000000000000000000007bffffffffffffffffffffffffffffffffffffffffffffffffffffffff1916827bffffffffffffffffffffffffffffffffffffffffffffffffffffffff19161480610684575061068382610e74565b5b9050919050565b60606000610697610ede565b90508060030180546106a8906125cd565b80601f01602080910402602001604051908101604052809291908181526020018280546106d4906125cd565b80156107215780601f106106f657610100808354040283529160200191610721565b820191906000526020600020905b81548152906001019060200180831161070457829003601f168201915b505050505091505090565b600080610737610f06565b9050610744818585610f0e565b600191505092915050565b60008061075a610ede565b9050806002015491505090565b600080610772610f06565b905061077f858285610f20565b61078a858585610fb4565b60019150509392505050565b6000806107a16110a8565b905080600001600084815260200190815260200160002060010154915050919050565b6107cd82610796565b6107d6816110d0565b6107e083836110e4565b50505050565b60006012905090565b6107f7610f06565b73ffffffffffffffffffffffffffffffffffffffff168173ffffffffffffffffffffffffffffffffffffffff161461085b576040517f6697b23200000000000000000000000000000000000000000000000000000000815260040160405180910390fd5b61086582826111e5565b505050565b7f9f2df0fed2c77648de5860a4cc508cd0818c85b8b8a1ab4ceeef8d981c8956a6610894816110d0565b61089e83836112e7565b505050565b6108b46108ae610f06565b82611369565b50565b6108bf6113eb565b6108c8826114d1565b6108d282826114ff565b5050565b60006108e061161e565b7f360894a13ba1a3210667c828492db98dca3e2076cc3735a920a3ca505d382bbc60001b905090565b600080610914610ede565b90508060000160008473ffffffffffffffffffffffffffffffffffffffff1673ffffffffffffffffffffffffffffffffffffffff16815260200190815260200160002054915050919050565b6109728261096c610f06565b83610f20565b61097c8282611369565b5050565b60008061098b6110a8565b905080600001600085815260200190815260200160002060000160008473ffffffffffffffffffffffffffffffffffffffff1673ffffffffffffffffffffffffffffffffffffffff16815260200190815260200160002060009054906101000a900460ff1691505092915050565b60606000610a05610ede565b9050806004018054610a16906125cd565b80601f0160208091040260200160405190810160405280929190818152602001828054610a42906125cd565b8015610a8f5780601f10610a6457610100808354040283529160200191610a8f565b820191906000526020600020905b815481529060010190602001808311610a7257829003601f168201915b505050505091505090565b6000801b81565b600080610aac610f06565b9050610ab9818585610fb4565b600191505092915050565b6040518060400160405280600581526020017f352e302e3000000000000000000000000000000000000000000000000000000081525081565b6000610b076116a5565b905060008160000160089054906101000a900460ff1615905060008260000160009054906101000a900467ffffffffffffffff1690506000808267ffffffffffffffff16148015610b555750825b9050600060018367ffffffffffffffff16148015610b8a575060003073ffffffffffffffffffffffffffffffffffffffff163b145b905081158015610b98575080155b15610bcf576040517ff92ee8a900000000000000000000000000000000000000000000000000000000815260040160405180910390fd5b60018560000160006101000a81548167ffffffffffffffff021916908367ffffffffffffffff1602179055508315610c1f5760018560000160086101000a81548160ff0219169083151502179055505b610c936040518060400160405280600781526020017f4149546f6b656e000000000000000000000000000000000000000000000000008152506040518060400160405280600381526020017f41495400000000000000000000000000000000000000000000000000000000008152506116cd565b610c9b6116e3565b610ca36116ed565b610cab6116f7565b610cb86000801b896110e4565b50610ce37f9f2df0fed2c77648de5860a4cc508cd0818c85b8b8a1ab4ceeef8d981c8956a6886110e4565b50610d0e7f189ab7a9244df0848122154315af71fe140f3db0fe014031783b0946b8c9d2e3876110e4565b508315610d6b5760008560000160086101000a81548160ff0219169083151502179055507fc7f505b2f371ae2175ee4913f4499e1f2633a7b5936321eed1cdaeb6115181d26001604051610d629190612657565b60405180910390a15b5050505050505050565b7f9f2df0fed2c77648de5860a4cc508cd0818c85b8b8a1ab4ceeef8d981c8956a681565b610da282610796565b610dab816110d0565b610db583836111e5565b50505050565b600080610dc6610ede565b90508060010160008573ffffffffffffffffffffffffffffffffffffffff1673ffffffffffffffffffffffffffffffffffffffff16815260200190815260200160002060008473ffffffffffffffffffffffffffffffffffffffff1673ffffffffffffffffffffffffffffffffffffffff1681526020019081526020016000205491505092915050565b7f189ab7a9244df0848122154315af71fe140f3db0fe014031783b0946b8c9d2e381565b60007f01ffc9a7000000000000000000000000000000000000000000000000000000007bffffffffffffffffffffffffffffffffffffffffffffffffffffffff1916827bffffffffffffffffffffffffffffffffffffffffffffffffffffffff1916149050919050565b60007f52c63247e1f47db19d5ce0460030c497f067ca4cebf71ba98eeadabe20bace00905090565b600033905090565b610f1b8383836001611701565b505050565b6000610f2c8484610dbb565b90507fffffffffffffffffffffffffffffffffffffffffffffffffffffffffffffffff8114610fae5781811015610f9e578281836040517ffb8f41b2000000000000000000000000000000000000000000000000000000008152600401610f9593929190612681565b60405180910390fd5b610fad84848484036000611701565b5b50505050565b600073ffffffffffffffffffffffffffffffffffffffff168373ffffffffffffffffffffffffffffffffffffffff16036110265760006040517f96c6fd1e00000000000000000000000000000000000000000000000000000000815260040161101d91906126b8565b60405180910390fd5b600073ffffffffffffffffffffffffffffffffffffffff168273ffffffffffffffffffffffffffffffffffffffff16036110985760006040517fec442f0500000000000000000000000000000000000000000000000000000000815260040161108f91906126b8565b60405180910390fd5b6110a38383836118e7565b505050565b60007f02dd7bc7dec4dceedda775e58dd541e08a116c6c53815c0bd028192f7b626800905090565b6110e1816110dc610f06565b611b26565b50565b6000806110ef6110a8565b90506110fb8484610980565b6111d957600181600001600086815260200190815260200160002060000160008573ffffffffffffffffffffffffffffffffffffffff1673ffffffffffffffffffffffffffffffffffffffff16815260200190815260200160002060006101000a81548160ff021916908315150217905550611175610f06565b73ffffffffffffffffffffffffffffffffffffffff168373ffffffffffffffffffffffffffffffffffffffff16857f2f8788117e7eff1d82e926ec794901d17c78024a50270940304540a733656f0d60405160405180910390a460019150506111df565b60009150505b92915050565b6000806111f06110a8565b90506111fc8484610980565b156112db57600081600001600086815260200190815260200160002060000160008573ffffffffffffffffffffffffffffffffffffffff1673ffffffffffffffffffffffffffffffffffffffff16815260200190815260200160002060006101000a81548160ff021916908315150217905550611277610f06565b73ffffffffffffffffffffffffffffffffffffffff168373ffffffffffffffffffffffffffffffffffffffff16857ff6391f5c32d9c69d2a47ea670b442974b53935d1edc7fd64eb21e047a839171b60405160405180910390a460019150506112e1565b60009150505b92915050565b600073ffffffffffffffffffffffffffffffffffffffff168273ffffffffffffffffffffffffffffffffffffffff16036113595760006040517fec442f0500000000000000000000000000000000000000000000000000000000815260040161135091906126b8565b60405180910390fd5b611365600083836118e7565b5050565b600073ffffffffffffffffffffffffffffffffffffffff168273ffffffffffffffffffffffffffffffffffffffff16036113db5760006040517f96c6fd1e0000000000000000000000000000000000000000000000000000000081526004016113d291906126b8565b60405180910390fd5b6113e7826000836118e7565b5050565b7f000000000000000000000000000000000000000000000000000000000000000073ffffffffffffffffffffffffffffffffffffffff163073ffffffffffffffffffffffffffffffffffffffff16148061149857507f000000000000000000000000000000000000000000000000000000000000000073ffffffffffffffffffffffffffffffffffffffff1661147f611b77565b73ffffffffffffffffffffffffffffffffffffffff1614155b156114cf576040517fe07c8dba00000000000000000000000000000000000000000000000000000000815260040160405180910390fd5b565b7f189ab7a9244df0848122154315af71fe140f3db0fe014031783b0946b8c9d2e36114fb816110d0565b5050565b8173ffffffffffffffffffffffffffffffffffffffff166352d1902d6040518163ffffffff1660e01b8152600401602060405180830381865afa92505050801561156757506040513d601f19601f8201168201806040525081019061156491906126e8565b60015b6115a857816040517f4c9c8ce300000000000000000000000000000000000000000000000000000000815260040161159f91906126b8565b60405180910390fd5b7f360894a13ba1a3210667c828492db98dca3e2076cc3735a920a3ca505d382bbc60001b811461160f57806040517faa1d49a4000000000000000000000000000000000000000000000000000000008152600401611606919061228e565b60405180910390fd5b6116198383611bce565b505050565b7f000000000000000000000000000000000000000000000000000000000000000073ffffffffffffffffffffffffffffffffffffffff163073ffffffffffffffffffffffffffffffffffffffff16146116a3576040517fe07c8dba00000000000000000000000000000000000000000000000000000000815260040160405180910390fd5b565b60007ff0c57e16840df040f15088dc2f81fe391c3923bec73e23a9662efc9c229c6a00905090565b6116d5611c41565b6116df8282611c81565b5050565b6116eb611c41565b565b6116f5611c41565b565b6116ff611c41565b565b600061170b610ede565b9050600073ffffffffffffffffffffffffffffffffffffffff168573ffffffffffffffffffffffffffffffffffffffff160361177f5760006040517fe602df0500000000000000000000000000000000000000000000000000000000815260040161177691906126b8565b60405180910390fd5b600073ffffffffffffffffffffffffffffffffffffffff168473ffffffffffffffffffffffffffffffffffffffff16036117f15760006040517f94280d620000000000000000000000000000000000000000000000000000000081526004016117e891906126b8565b60405180910390fd5b828160010160008773ffffffffffffffffffffffffffffffffffffffff1673ffffffffffffffffffffffffffffffffffffffff16815260200190815260200160002060008673ffffffffffffffffffffffffffffffffffffffff1673ffffffffffffffffffffffffffffffffffffffff1681526020019081526020016000208190555081156118e0578373ffffffffffffffffffffffffffffffffffffffff168573ffffffffffffffffffffffffffffffffffffffff167f8c5be1e5ebec7d5bd14f71427d1e84f3dd0314c0f7b2291e5b200ac8c7c3b925856040516118d791906121ae565b60405180910390a35b5050505050565b60006118f1610ede565b9050600073ffffffffffffffffffffffffffffffffffffffff168473ffffffffffffffffffffffffffffffffffffffff1603611947578181600201600082825461193b9190612744565b92505081905550611a20565b60008160000160008673ffffffffffffffffffffffffffffffffffffffff1673ffffffffffffffffffffffffffffffffffffffff168152602001908152602001600020549050828110156119d6578481846040517fe450d38c0000000000000000000000000000000000000000000000000000000081526004016119cd93929190612681565b60405180910390fd5b8281038260000160008773ffffffffffffffffffffffffffffffffffffffff1673ffffffffffffffffffffffffffffffffffffffff16815260200190815260200160002081905550505b600073ffffffffffffffffffffffffffffffffffffffff168373ffffffffffffffffffffffffffffffffffffffff1603611a6b57818160020160008282540392505081905550611abb565b818160000160008573ffffffffffffffffffffffffffffffffffffffff1673ffffffffffffffffffffffffffffffffffffffff168152602001908152602001600020600082825401925050819055505b8273ffffffffffffffffffffffffffffffffffffffff168473ffffffffffffffffffffffffffffffffffffffff167fddf252ad1be2c89b69c2b068fc378daa952ba7f163c4a11628f55a4df523b3ef84604051611b1891906121ae565b60405180910390a350505050565b611b308282610980565b611b735780826040517fe2517d3f000000000000000000000000000000000000000000000000000000008152600401611b6a929190612778565b60405180910390fd5b5050565b6000611ba57f360894a13ba1a3210667c828492db98dca3e2076cc3735a920a3ca505d382bbc60001b611cbe565b60000160009054906101000a900473ffffffffffffffffffffffffffffffffffffffff16905090565b611bd782611cc8565b8173ffffffffffffffffffffffffffffffffffffffff167fbc7cd75a20ee27fd9adebab32041f755214dbc6bffa90cc0225b39da2e5c2d3b60405160405180910390a2600081511115611c3457611c2e8282611d95565b50611c3d565b611c3c611e19565b5b5050565b611c49611e56565b611c7f576040517fd7e6bcf800000000000000000000000000000000000000000000000000000000815260040160405180910390fd5b565b611c89611c41565b6000611c93610ede565b905082816003019081611ca69190612943565b5081816004019081611cb89190612943565b50505050565b6000819050919050565b60008173ffffffffffffffffffffffffffffffffffffffff163b03611d2457806040517f4c9c8ce3000000000000000000000000000000000000000000000000000000008152600401611d1b91906126b8565b60405180910390fd5b80611d517f360894a13ba1a3210667c828492db98dca3e2076cc3735a920a3ca505d382bbc60001b611cbe565b60000160006101000a81548173ffffffffffffffffffffffffffffffffffffffff021916908373ffffffffffffffffffffffffffffffffffffffff16021790555050565b60606000808473ffffffffffffffffffffffffffffffffffffffff1684604051611dbf9190612a5c565b600060405180830381855af49150503d8060008114611dfa576040519150601f19603f3d011682016040523d82523d6000602084013e611dff565b606091505b5091509150611e0f858383611e76565b9250505092915050565b6000341115611e54576040517fb398979f00000000000000000000000000000000000000000000000000000000815260040160405180910390fd5b565b6000611e606116a5565b60000160089054906101000a900460ff16905090565b606082611e8b57611e8682611f05565b611efd565b60008251148015611eb3575060008473ffffffffffffffffffffffffffffffffffffffff163b145b15611ef557836040517f9996b315000000000000000000000000000000000000000000000000000000008152600401611eec91906126b8565b60405180910390fd5b819050611efe565b5b9392505050565b600081511115611f185780518082602001fd5b6040517f1425ea4200000000000000000000000000000000000000000000000000000000815260040160405180910390fd5b6000604051905090565b600080fd5b600080fd5b60007fffffffff0000000000000000000000000000000000000000000000000000000082169050919050565b611f9381611f5e565b8114611f9e57600080fd5b50565b600081359050611fb081611f8a565b92915050565b600060208284031215611fcc57611fcb611f54565b5b6000611fda84828501611fa1565b91505092915050565b60008115159050919050565b611ff881611fe3565b82525050565b60006020820190506120136000830184611fef565b92915050565b600081519050919050565b600082825260208201905092915050565b60005b83811015612053578082015181840152602081019050612038565b60008484015250505050565b6000601f19601f8301169050919050565b600061207b82612019565b6120858185612024565b9350612095818560208601612035565b61209e8161205f565b840191505092915050565b600060208201905081810360008301526120c38184612070565b905092915050565b600073ffffffffffffffffffffffffffffffffffffffff82169050919050565b60006120f6826120cb565b9050919050565b612106816120eb565b811461211157600080fd5b50565b600081359050612123816120fd565b92915050565b6000819050919050565b61213c81612129565b811461214757600080fd5b50565b60008135905061215981612133565b92915050565b6000806040838503121561217657612175611f54565b5b600061218485828601612114565b92505060206121958582860161214a565b9150509250929050565b6121a881612129565b82525050565b60006020820190506121c3600083018461219f565b92915050565b6000806000606084860312156121e2576121e1611f54565b5b60006121f086828701612114565b935050602061220186828701612114565b92505060406122128682870161214a565b9150509250925092565b6000819050919050565b61222f8161221c565b811461223a57600080fd5b50565b60008135905061224c81612226565b92915050565b60006020828403121561226857612267611f54565b5b60006122768482850161223d565b91505092915050565b6122888161221c565b82525050565b60006020820190506122a3600083018461227f565b92915050565b600080604083850312156122c0576122bf611f54565b5b60006122ce8582860161223d565b92505060206122df85828601612114565b9150509250929050565b600060ff82169050919050565b6122ff816122e9565b82525050565b600060208201905061231a60008301846122f6565b92915050565b60006020828403121561233657612335611f54565b5b60006123448482850161214a565b91505092915050565b600080fd5b600080fd5b7f4e487b7100000000000000000000000000000000000000000000000000000000600052604160045260246000fd5b61238f8261205f565b810181811067ffffffffffffffff821117156123ae576123ad612357565b5b80604052505050565b60006123c1611f4a565b90506123cd8282612386565b919050565b600067ffffffffffffffff8211156123ed576123ec612357565b5b6123f68261205f565b9050602081019050919050565b82818337600083830152505050565b6000612425612420846123d2565b6123b7565b90508281526020810184848401111561244157612440612352565b5b61244c848285612403565b509392505050565b600082601f8301126124695761246861234d565b5b8135612479848260208601612412565b91505092915050565b6000806040838503121561249957612498611f54565b5b60006124a785828601612114565b925050602083013567ffffffffffffffff8111156124c8576124c7611f59565b5b6124d485828601612454565b9150509250929050565b6000602082840312156124f4576124f3611f54565b5b600061250284828501612114565b91505092915050565b60008060006060848603121561252457612523611f54565b5b600061253286828701612114565b935050602061254386828701612114565b925050604061255486828701612114565b9150509250925092565b6000806040838503121561257557612574611f54565b5b600061258385828601612114565b925050602061259485828601612114565b9150509250929050565b7f4e487b7100000000000000000000000000000000000000000000000000000000600052602260045260246000fd5b600060028204905060018216806125e557607f821691505b6020821081036125f8576125f761259e565b5b50919050565b6000819050919050565b600067ffffffffffffffff82169050919050565b6000819050919050565b600061264161263c612637846125fe565b61261c565b612608565b9050919050565b61265181612626565b82525050565b600060208201905061266c6000830184612648565b92915050565b61267b816120eb565b82525050565b60006060820190506126966000830186612672565b6126a3602083018561219f565b6126b0604083018461219f565b949350505050565b60006020820190506126cd6000830184612672565b92915050565b6000815190506126e281612226565b92915050565b6000602082840312156126fe576126fd611f54565b5b600061270c848285016126d3565b91505092915050565b7f4e487b7100000000000000000000000000000000000000000000000000000000600052601160045260246000fd5b600061274f82612129565b915061275a83612129565b925082820190508082111561277257612771612715565b5b92915050565b600060408201905061278d6000830185612672565b61279a602083018461227f565b9392505050565b60008190508160005260206000209050919050565b60006020601f8301049050919050565b600082821b905092915050565b6000600883026128037fffffffffffffffffffffffffffffffffffffffffffffffffffffffffffffffff826127c6565b61280d86836127c6565b95508019841693508086168417925050509392505050565b600061284061283b61283684612129565b61261c565b612129565b9050919050565b6000819050919050565b61285a83612825565b61286e61286682612847565b8484546127d3565b825550505050565b600090565b612883612876565b61288e818484612851565b505050565b5b818110156128b2576128a760008261287b565b600181019050612894565b5050565b601f8211156128f7576128c8816127a1565b6128d1846127b6565b810160208510156128e0578190505b6128f46128ec856127b6565b830182612893565b50505b505050565b600082821c905092915050565b600061291a600019846008026128fc565b1980831691505092915050565b60006129338383612909565b9150826002028217905092915050565b61294c82612019565b67ffffffffffffffff81111561296557612964612357565b5b61296f82546125cd565b61297a8282856128b6565b600060209050601f8311600181146129ad576000841561299b578287015190505b6129a58582612927565b865550612a0d565b601f1984166129bb866127a1565b60005b828110156129e3578489015182556001820191506020850194506020810190506129be565b86831015612a0057848901516129fc601f891682612909565b8355505b6001600288020188555050505b505050505050565b600081519050919050565b600081905092915050565b6000612a3682612a15565b612a408185612a20565b9350612a50818560208601612035565b80840191505092915050565b6000612a688284612a2b565b91508190509291505056fea2646970667358221220b8b2916c3ec03d1a41656e3aa2ab3b6cad48a52089bd0e6222c70dc70db7c2ac64736f6c63430008180033",
  "linkReferences": {},
  "deployedLinkReferences": {}
}